{
  "_format": "hh-sol-artifact-1",
  "contractName": "MultiDEXAggregator",
  "sourceName": "contracts/core/VaultSwapManager.sol",
  "abi": [
    {
      "inputs": [
        {
          "internalType": "address",
          "name": "_vault",
          "type": "address"
        }
      ],
      "stateMutability": "nonpayable",
      "type": "constructor"
    },
    {
      "anonymous": false,
      "inputs": [
        {
          "indexed": true,
          "internalType": "address",
          "name": "dex",
          "type": "address"
        },
        {
          "indexed": false,
          "internalType": "uint256",
          "name": "amountOut",
          "type": "uint256"
        },
        {
          "indexed": false,
          "internalType": "uint256",
          "name": "gasEstimate",
          "type": "uint256"
        },
        {
          "indexed": false,
          "internalType": "uint256",
          "name": "netOutput",
          "type": "uint256"
        }
      ],
      "name": "BestQuoteFound",
      "type": "event"
    },
    {
      "anonymous": false,
      "inputs": [
        {
          "indexed": true,
          "internalType": "address",
          "name": "dex",
          "type": "address"
        },
        {
          "indexed": false,
          "internalType": "enum MultiDEXAggregator.DEXType",
          "name": "dexType",
          "type": "uint8"
        },
        {
          "indexed": false,
          "internalType": "string",
          "name": "name",
          "type": "string"
        }
      ],
      "name": "DEXAdded",
      "type": "event"
    },
    {
      "anonymous": false,
      "inputs": [
        {
          "indexed": true,
          "internalType": "address",
          "name": "dex",
          "type": "address"
        },
        {
          "indexed": false,
          "internalType": "bool",
          "name": "active",
          "type": "bool"
        }
      ],
      "name": "DEXStatusUpdated",
      "type": "event"
    },
    {
      "anonymous": false,
      "inputs": [
        {
          "indexed": true,
          "internalType": "bytes32",
          "name": "role",
          "type": "bytes32"
        },
        {
          "indexed": true,
          "internalType": "bytes32",
          "name": "previousAdminRole",
          "type": "bytes32"
        },
        {
          "indexed": true,
          "internalType": "bytes32",
          "name": "newAdminRole",
          "type": "bytes32"
        }
      ],
      "name": "RoleAdminChanged",
      "type": "event"
    },
    {
      "anonymous": false,
      "inputs": [
        {
          "indexed": true,
          "internalType": "bytes32",
          "name": "role",
          "type": "bytes32"
        },
        {
          "indexed": true,
          "internalType": "address",
          "name": "account",
          "type": "address"
        },
        {
          "indexed": true,
          "internalType": "address",
          "name": "sender",
          "type": "address"
        }
      ],
      "name": "RoleGranted",
      "type": "event"
    },
    {
      "anonymous": false,
      "inputs": [
        {
          "indexed": true,
          "internalType": "bytes32",
          "name": "role",
          "type": "bytes32"
        },
        {
          "indexed": true,
          "internalType": "address",
          "name": "account",
          "type": "address"
        },
        {
          "indexed": true,
          "internalType": "address",
          "name": "sender",
          "type": "address"
        }
      ],
      "name": "RoleRevoked",
      "type": "event"
    },
    {
      "anonymous": false,
      "inputs": [
        {
          "indexed": true,
          "internalType": "address",
          "name": "tokenIn",
          "type": "address"
        },
        {
          "indexed": true,
          "internalType": "address",
          "name": "tokenOut",
          "type": "address"
        },
        {
          "indexed": false,
          "internalType": "uint256",
          "name": "amountIn",
          "type": "uint256"
        },
        {
          "indexed": false,
          "internalType": "uint256",
          "name": "amountOut",
          "type": "uint256"
        },
        {
          "indexed": false,
          "internalType": "address",
          "name": "dex",
          "type": "address"
        },
        {
          "indexed": false,
          "internalType": "string",
          "name": "dexName",
          "type": "string"
        },
        {
          "indexed": false,
          "internalType": "uint256",
          "name": "gasUsed",
          "type": "uint256"
        }
      ],
      "name": "SwapExecuted",
      "type": "event"
    },
    {
      "inputs": [],
      "name": "AGENT_ROLE",
      "outputs": [
        {
          "internalType": "bytes32",
          "name": "",
          "type": "bytes32"
        }
      ],
      "stateMutability": "view",
      "type": "function"
    },
    {
      "inputs": [],
      "name": "DEFAULT_ADMIN_ROLE",
      "outputs": [
        {
          "internalType": "bytes32",
          "name": "",
          "type": "bytes32"
        }
      ],
      "stateMutability": "view",
      "type": "function"
    },
    {
      "inputs": [],
      "name": "VAULT_ROLE",
      "outputs": [
        {
          "internalType": "bytes32",
          "name": "",
          "type": "bytes32"
        }
      ],
      "stateMutability": "view",
      "type": "function"
    },
    {
      "inputs": [
        {
          "internalType": "uint256",
          "name": "",
          "type": "uint256"
        }
      ],
      "name": "activeDEXs",
      "outputs": [
        {
          "internalType": "address",
          "name": "",
          "type": "address"
        }
      ],
      "stateMutability": "view",
      "type": "function"
    },
    {
      "inputs": [
        {
          "internalType": "address",
          "name": "router",
          "type": "address"
        },
        {
          "internalType": "enum MultiDEXAggregator.DEXType",
          "name": "dexType",
          "type": "uint8"
        },
        {
          "internalType": "string",
          "name": "name",
          "type": "string"
        },
        {
          "internalType": "uint256",
          "name": "gasEstimate",
          "type": "uint256"
        }
      ],
      "name": "addDEX",
      "outputs": [],
      "stateMutability": "nonpayable",
      "type": "function"
    },
    {
      "inputs": [
        {
          "internalType": "address",
          "name": "",
          "type": "address"
        }
      ],
      "name": "dexRegistry",
      "outputs": [
        {
          "internalType": "address",
          "name": "router",
          "type": "address"
        },
        {
          "internalType": "enum MultiDEXAggregator.DEXType",
          "name": "dexType",
          "type": "uint8"
        },
        {
          "internalType": "bool",
          "name": "active",
          "type": "bool"
        },
        {
          "internalType": "uint256",
          "name": "gasEstimate",
          "type": "uint256"
        },
        {
          "internalType": "string",
          "name": "name",
          "type": "string"
        }
      ],
      "stateMutability": "view",
      "type": "function"
    },
    {
      "inputs": [
        {
          "internalType": "address",
          "name": "token",
          "type": "address"
        },
        {
          "internalType": "uint256",
          "name": "amount",
          "type": "uint256"
        }
      ],
      "name": "emergencyWithdraw",
      "outputs": [],
      "stateMutability": "nonpayable",
      "type": "function"
    },
    {
      "inputs": [
        {
          "components": [
            {
              "internalType": "address",
              "name": "tokenIn",
              "type": "address"
            },
            {
              "internalType": "address",
              "name": "tokenOut",
              "type": "address"
            },
            {
              "internalType": "uint256",
              "name": "amountIn",
              "type": "uint256"
            },
            {
              "internalType": "uint256",
              "name": "minAmountOut",
              "type": "uint256"
            },
            {
              "internalType": "uint16",
              "name": "slippageBps",
              "type": "uint16"
            },
            {
              "internalType": "uint32",
              "name": "deadline",
              "type": "uint32"
            },
            {
              "internalType": "bool",
              "name": "useGasOptimization",
              "type": "bool"
            }
          ],
          "internalType": "struct MultiDEXAggregator.SwapParams",
          "name": "params",
          "type": "tuple"
        }
      ],
      "name": "executeOptimalSwap",
      "outputs": [
        {
          "internalType": "uint256",
          "name": "amountOut",
          "type": "uint256"
        }
      ],
      "stateMutability": "nonpayable",
      "type": "function"
    },
    {
      "inputs": [
        {
          "internalType": "address",
          "name": "tokenIn",
          "type": "address"
        },
        {
          "internalType": "address",
          "name": "tokenOut",
          "type": "address"
        },
        {
          "internalType": "uint256",
          "name": "amountIn",
          "type": "uint256"
        },
        {
          "internalType": "uint256",
          "name": "minAmountOut",
          "type": "uint256"
        },
        {
          "internalType": "uint256[]",
          "name": "splits",
          "type": "uint256[]"
        },
        {
          "internalType": "uint32",
          "name": "deadline",
          "type": "uint32"
        }
      ],
      "name": "executeSplitSwap",
      "outputs": [
        {
          "internalType": "uint256",
          "name": "totalAmountOut",
          "type": "uint256"
        }
      ],
      "stateMutability": "nonpayable",
      "type": "function"
    },
    {
      "inputs": [],
      "name": "gasPrice",
      "outputs": [
        {
          "internalType": "uint256",
          "name": "",
          "type": "uint256"
        }
      ],
      "stateMutability": "view",
      "type": "function"
    },
    {
      "inputs": [],
      "name": "getActiveDEXs",
      "outputs": [
        {
          "internalType": "address[]",
          "name": "",
          "type": "address[]"
        }
      ],
      "stateMutability": "view",
      "type": "function"
    },
    {
      "inputs": [
        {
          "internalType": "address",
          "name": "tokenIn",
          "type": "address"
        },
        {
          "internalType": "address",
          "name": "tokenOut",
          "type": "address"
        },
        {
          "internalType": "uint256",
          "name": "amountIn",
          "type": "uint256"
        },
        {
          "internalType": "bool",
          "name": "useGasOptimization",
          "type": "bool"
        }
      ],
      "name": "getBestQuote",
      "outputs": [
        {
          "components": [
            {
              "internalType": "address",
              "name": "dex",
              "type": "address"
            },
            {
              "internalType": "enum MultiDEXAggregator.DEXType",
              "name": "dexType",
              "type": "uint8"
            },
            {
              "internalType": "uint256",
              "name": "amountOut",
              "type": "uint256"
            },
            {
              "internalType": "uint256",
              "name": "gasEstimate",
              "type": "uint256"
            },
            {
              "internalType": "uint256",
              "name": "netOutput",
              "type": "uint256"
            },
            {
              "internalType": "address[]",
              "name": "path",
              "type": "address[]"
            }
          ],
          "internalType": "struct MultiDEXAggregator.SwapQuote",
          "name": "bestQuote",
          "type": "tuple"
        }
      ],
      "stateMutability": "view",
      "type": "function"
    },
    {
      "inputs": [
        {
          "internalType": "bytes32",
          "name": "role",
          "type": "bytes32"
        }
      ],
      "name": "getRoleAdmin",
      "outputs": [
        {
          "internalType": "bytes32",
          "name": "",
          "type": "bytes32"
        }
      ],
      "stateMutability": "view",
      "type": "function"
    },
    {
      "inputs": [
        {
          "internalType": "bytes32",
          "name": "role",
          "type": "bytes32"
        },
        {
          "internalType": "address",
          "name": "account",
          "type": "address"
        }
      ],
      "name": "grantRole",
      "outputs": [],
      "stateMutability": "nonpayable",
      "type": "function"
    },
    {
      "inputs": [
        {
          "internalType": "bytes32",
          "name": "role",
          "type": "bytes32"
        },
        {
          "internalType": "address",
          "name": "account",
          "type": "address"
        }
      ],
      "name": "hasRole",
      "outputs": [
        {
          "internalType": "bool",
          "name": "",
          "type": "bool"
        }
      ],
      "stateMutability": "view",
      "type": "function"
    },
    {
      "inputs": [
        {
          "internalType": "bytes32",
          "name": "role",
          "type": "bytes32"
        },
        {
          "internalType": "address",
          "name": "account",
          "type": "address"
        }
      ],
      "name": "renounceRole",
      "outputs": [],
      "stateMutability": "nonpayable",
      "type": "function"
    },
    {
      "inputs": [
        {
          "internalType": "bytes32",
          "name": "role",
          "type": "bytes32"
        },
        {
          "internalType": "address",
          "name": "account",
          "type": "address"
        }
      ],
      "name": "revokeRole",
      "outputs": [],
      "stateMutability": "nonpayable",
      "type": "function"
    },
    {
      "inputs": [
        {
          "internalType": "address",
          "name": "dex",
          "type": "address"
        },
        {
          "internalType": "bool",
          "name": "active",
          "type": "bool"
        }
      ],
      "name": "setDEXStatus",
      "outputs": [],
      "stateMutability": "nonpayable",
      "type": "function"
    },
    {
      "inputs": [
        {
          "internalType": "bytes4",
          "name": "interfaceId",
          "type": "bytes4"
        }
      ],
      "name": "supportsInterface",
      "outputs": [
        {
          "internalType": "bool",
          "name": "",
          "type": "bool"
        }
      ],
      "stateMutability": "view",
      "type": "function"
    },
    {
      "inputs": [
        {
          "internalType": "uint256",
          "name": "newGasPrice",
          "type": "uint256"
        }
      ],
      "name": "updateGasPrice",
      "outputs": [],
      "stateMutability": "nonpayable",
      "type": "function"
    }
  ],
  "bytecode": "0x60806040523461051157604051601f61287938819003918201601f19168301916001600160401b038311848410176104465780849260209460405283398101031261051157516001600160a01b038116908190036105115760018055633b9aca00600455336000908152600080516020612859833981519152602052604090205460ff16156104d1575b60008181527f57c45785f0bfdd0436a24ca59ce8cf4a246623230045d7db55b0ff1db74c5822602052604090205460ff161561045c575b50604080519081016001600160401b03811182821017610446576040908152600a825269096d2e8e8f2a0eadcc6d60b31b6020830152519060a082016001600160401b038111838210176104465760405273f45afe28fd5519d5f8c1d4787a4d5f724c0efa4d82526020820190600082526040830191600183526060840193620249f08552608081019483865273f45afe28fd5519d5f8c1d4787a4d5f724c0efa4d600052600260205260406000209160018060a01b03905116928254905160038110156104305760029460009760ff60a81b9051151560a81b169260018060b01b031916179060ff60a01b9060a01b161717825551600182015501925192835160018060401b03811161041c578154600181811c91168015610412575b60208210146103fe57601f81116103b9575b50602094601f821160011461035757948495829394959261034c575b50508160011b916000199060031b1c19161790555b6003546801000000000000000081101561033857600181018060035581101561032457600383527fc2575a0e9e593c00f959f8c92f12db2869c3395a3b0502d05e2516446f71f85b0180546001600160a01b03191673f45afe28fd5519d5f8c1d4787a4d5f724c0efa4d17905560408051838152602081018290528251918101829052929091815b83811061030e5773f45afe28fd5519d5f8c1d4787a4d5f724c0efa4d7fce21d317d19f3583579a5fba5b32afcb5989cea9d989fc51a34e673aa9c14898866060818888838284010152601f80199101168101030190a260405161232290816105178239f35b80602080928401015160608288010152016102a9565b634e487b7160e01b83526032600452602483fd5b634e487b7160e01b83526041600452602483fd5b01519050388061020c565b601f1982169583865280862091865b8881106103a157508360019596979810610388575b505050811b019055610221565b015160001960f88460031b161c1916905538808061037b565b91926020600181928685015181550194019201610366565b82855260208520601f830160051c810191602084106103f4575b601f0160051c01905b8181106103e957506101f0565b8581556001016103dc565b90915081906103d3565b634e487b7160e01b85526022600452602485fd5b90607f16906101de565b634e487b7160e01b84526041600452602484fd5b634e487b7160e01b600052602160045260246000fd5b634e487b7160e01b600052604160045260246000fd5b60008181527f57c45785f0bfdd0436a24ca59ce8cf4a246623230045d7db55b0ff1db74c582260205260408120805460ff191660011790553391907f31e0210044b4f6757ce6aa31f9c6e8d4896d24a755014887391a926c5224d959906000805160206128398339815191529080a4386100c0565b33600081815260008051602061285983398151915260205260408120805460ff1916600117905581906000805160206128398339815191528180a4610089565b600080fdfe608080604052600436101561001357600080fd5b60003560e01c90816301ffc9a7146116ad575080630270a7761461166c578063070cb3ff146115de5780630e557f4414611111578063204cff81146110f057806322459e18146110b5578063248a9ca3146110805780632f2ff15d14610fb957806336568abe14610f1a57806365a4693314610dca5780637765fd0d14610a605780638afd96ba146106b757806391d148541461066957806395ccea67146105e557806398c4f1ac146105aa578063a217fddf1461058e578063b962e6ae146104fa578063b9e5383514610165578063d547741f1461011e5763fe173b97146100fb57600080fd5b34610119576000366003190112610119576020600454604051908152f35b600080fd5b346101195760403660031901126101195761016360043561013d611792565b9061015e61015982600052600060205260016040600020015490565b611c94565b611e7f565b005b346101195760803660031901126101195761017e61177c565b6024356003811015610119576044359067ffffffffffffffff821161011957366023830112156101195781600401359167ffffffffffffffff8311610119573660248483010111610119576024936001600160a01b03916101dd611c40565b60206101e886611aff565b956101f66040519788611830565b808752806000988994018389013786010152169182156104b65760405161021c81611814565b838152602081019061022e8483611ab6565b604081016001815260608201906064358252608083019385855287895260026020526001600160a01b0360408a209451168454915160038110156104a257916002959493917fffffffffffffffffffffff00000000000000000000000000000000000000000074ff00000000000000000000000000000000000000006102d89560a01b16921617178455511515839060ff60a81b1960ff60a81b835492151560a81b169116179055565b51600182015501905180519067ffffffffffffffff821161048e5781906102ff84546117a8565b601f811161043e575b50602090601f83116001146103db5788926103d0575b50508160011b916000199060031b1c19161790555b600354680100000000000000008110156103bc57916103b66103a5926103808560017fce21d317d19f3583579a5fba5b32afcb5989cea9d989fc51a34e673aa9c14898970160035561174b565b81549060031b906001600160a01b0389831b921b1916179055604051938480946118f6565b604060208401526040830190611926565b0390a280f35b602485634e487b7160e01b81526041600452fd5b01519050878061031e565b8489528189209250601f198416895b818110610426575090846001959493921061040d575b505050811b019055610333565b015160001960f88460031b161c19169055878080610400565b929360206001819287860151815501950193016103ea565b90915083885260208820601f840160051c81019160208510610484575b90601f859493920160051c01905b8181106104765750610308565b898155849350600101610469565b909150819061045b565b602487634e487b7160e01b81526041600452fd5b60248b634e487b7160e01b81526021600452fd5b606460405162461bcd60e51b815260206004820152600e60248201527f496e76616c696420726f757465720000000000000000000000000000000000006044820152fd5b346101195760403660031901126101195761051361177c565b6024359081151590818303610119577f80a48ef1e8085e06b027c7b7090da8c75fbec6242525f75453dd62a0436daf36916105856001600160a01b0360209361055a611c40565b1694856000526002845260406000209060ff60a81b1960ff60a81b835492151560a81b169116179055565b604051908152a2005b3461011957600036600319011261011957602060405160008152f35b346101195760003660031901126101195760206040517f31e0210044b4f6757ce6aa31f9c6e8d4896d24a755014887391a926c5224d9598152f35b346101195760403660031901126101195761016361060161177c565b610609611c40565b6040517fa9059cbb00000000000000000000000000000000000000000000000000000000602082015233602480830191909152356044820152906001600160a01b039061066383606481015b03601f198101855284611830565b16611f24565b3461011957604036600319011261011957610682611792565b60043560005260006020526001600160a01b0360406000209116600052602052602060ff604060002054166040519015158152f35b346101195760c0366003190112610119576106d061177c565b6106d8611792565b6044359160843567ffffffffffffffff811161011957366023820112156101195780600401359267ffffffffffffffff8411610119576024820191602436918660051b0101116101195760a43563ffffffff81168091036101195761073b611b1b565b610743611cde565b6000936003548611610a1c576000805b8782106109fc576127109150036109b8576001600160a01b03169561077a8130338a611d33565b60405192610789606085611830565b6002845260403660208601378761079f85611a8d565b526001600160a01b036107b185611a7d565b9116905260005b868110806109ad575b15610950576107d1818887611aef565b3515610947576001600160a01b036107e88261174b565b90549060031b1c1680600052600260205260ff60406000205460a81c161561093d5761271061082261081b848b8a611aef565b3585611adc565b04908960405163d06ca61f60e01b8152600081806108448b8860048401611ac2565b0381865afa8091600091610924575b505061086a5750505061086590611aa7565b6107b8565b918161087d826000969b95948795611d92565b61088787426119e0565b916040519586809481936338ed173960e01b8352600483015282602483015260a060448301526108ba60a483018d61194b565b90336064840152608483015203925af1908115610918576108ea6108f192610865946000916108f7575b50611a7d565b51906119e0565b95611aa7565b610912913d8091833e61090a8183611830565b810190611a03565b8c6108e4565b6040513d6000823e3d90fd5b610937913d8091833e61090a8183611830565b8d610853565b5061086590611aa7565b61086590611aa7565b8560643581106109695760209060018055604051908152f35b606460405162461bcd60e51b815260206004820152601960248201527f546f74616c206f757470757420696e73756666696369656e74000000000000006044820152fd5b5060035481106107c1565b606460405162461bcd60e51b815260206004820152601660248201527f53706c697473206d75737420746f74616c2031303025000000000000000000006044820152fd5b610a14600191610a0d848b8a611aef565b35906119e0565b910190610753565b606460405162461bcd60e51b815260206004820152600f60248201527f546f6f206d616e792073706c69747300000000000000000000000000000000006044820152fd5b3461011957608036600319011261011957610a7961177c565b610a81611792565b6044356064358015158103610119576040516000610a9e826117e2565b8082528060208301528060408301528060608301526080820152606060a0820152938215610d8657600060609460405192610ad98785611830565b60028452601f1987013660208601376001600160a01b03610af985611a8d565b911690526001600160a01b03610b0e84611a7d565b9116905260035492815b848110610bd65787876001600160a01b0382511615610b9257610b8e60a0604051938493602085526001600160a01b038251166020860152610b62602083015160408701906118f6565b6040820151818601528101516080850152608081015182850152015160c08084015260e083019061194b565b0390f35b606460405162461bcd60e51b815260206004820152601560248201527f4e6f20766961626c6520726f75746520666f756e6400000000000000000000006044820152fd5b6001600160a01b03610be78261174b565b90549060031b1c1680600052600260205287604060002091604051610c0b81611814565b8354906001600160a01b03821681526080610c5660026020840197610c3660ff8760a01c168a611ab6565b60ff604086019660a81c1615158652600181015497850197885201611852565b9101525115610d7b5760405163d06ca61f60e01b815260008180610c7e8b8e60048401611ac2565b0381855afa60009181610d60575b50610c9f57505050506001905b01610b18565b610ca890611a7d565b518086610d2f575b878211610cc5575b5050505050600190610c99565b919396508092949b509551906003821015610d1957610cfa600195519260405195610cef876117e2565b865260208601611ab6565b60408401528983015260808201528460a0820152979089808080610cb8565b634e487b7160e01b600052602160045260246000fd5b90610d3e845160045490611adc565b60009181811115610d5957610d539250611a9a565b90610cb0565b5050610d53565b610d7491923d8091833e61090a8183611830565b908d610c8c565b505050600190610c99565b606460405162461bcd60e51b815260206004820152600e60248201527f496e76616c696420616d6f756e740000000000000000000000000000000000006044820152fd5b34610119576000366003190112610119576003546000805b828110610ecc5750610df3816119c8565b90610e016040519283611830565b808252610e10601f19916119c8565b0136602083013760009160005b818110610e3a5760405160208082528190610b8e9082018661194b565b6001600160a01b03610e4b8261174b565b90549060031b1c16600052600260205260ff60406000205460a81c16610e74575b600101610e1d565b926001600160a01b03610e868561174b565b90549060031b1c1660008451831015610eb8575081610eb091602060019460051b87010152611aa7565b939050610e6c565b80634e487b7160e01b602492526032600452fd5b6001600160a01b03610edd8261174b565b90549060031b1c16600052600260205260ff60406000205460a81c16610f06575b600101610de2565b90610f12600191611aa7565b919050610efe565b3461011957604036600319011261011957610f33611792565b336001600160a01b03821603610f4f5761016390600435611e7f565b608460405162461bcd60e51b815260206004820152602f60248201527f416363657373436f6e74726f6c3a2063616e206f6e6c792072656e6f756e636560448201527f20726f6c657320666f722073656c6600000000000000000000000000000000006064820152fd5b3461011957604036600319011261011957600435610fd5611792565b90610ff161015982600052600060205260016040600020015490565b80600052600060205260406000206001600160a01b03831660005260205260ff604060002054161561101f57005b80600052600060205260406000206001600160a01b0383166000526020526040600020600160ff198254161790556001600160a01b03339216907f2f8788117e7eff1d82e926ec794901d17c78024a50270940304540a733656f0d600080a4005b346101195760203660031901126101195760206110ad600435600052600060205260016040600020015490565b604051908152f35b346101195760003660031901126101195760206040517fcab5a0bfe0b79d2c4b1c2e02599fa044d115b7511f9659307cb42769509677098152f35b3461011957602036600319011261011957611109611c40565b600480359055005b346101195760e036600319011261011957600061112c611b1b565b611134611cde565b61113c611988565b61114461199e565b906044359160c435908115158092036115cb576001600160a01b039081604051947f7765fd0d00000000000000000000000000000000000000000000000000000000865216600485015216602483015282604483015260648201528281608481305afa9081156115d35783916114bf575b50604081019081519260643580941061147b575a93611205826001600160a01b036111de611988565b166111e761199e565b506111f482303384611d33565b6001600160a01b0386511690611d92565b6060906020840151600381101561146757156113a6575b509461123561122c602097611a7d565b51955a90611a9a565b9161123e611988565b9261124761199e565b906001600160a01b0386511680855260028a526002604086200190604051948552898b860152604085015260a0606085015284815491611286836117a8565b928360a0880152600181169081600014611377575060011461133a575b50505082806001600160a01b03807f79ceb37db51f1f200b00b716e73c1a9f065c8725f63d5afbf15e977f4b0366df9997957f0c2ba1bcff144ccdcbdf3456c1b75a137e8e42ca90c982cb149f2aee82047e9a95608060609b990152169516930390a36001600160a01b0381511693519060808382015191015190604051928352878301526040820152a260018055604051908152f35b9080939650528982205b818310611362575050820160c0019282806001600160a01b036112a3565b805485840160c00152918a0191600101611344565b60ff191660c08089019190915293151560051b870190930196508592508291506001600160a01b0390506112a3565b9050856001600160a01b0384511660a08501519060a4359163ffffffff831680930361146357836113da61140b94426119e0565b95604051968795869485936338ed173960e01b85528b6004860152602485015260a0604485015260a484019061194b565b90336064840152608483015203925af19081156114585761122c8792611235926020999161143e575b509297505061121c565b61145291503d8086833e61090a8183611830565b89611434565b6040513d88823e3d90fd5b8380fd5b602488634e487b7160e01b81526021600452fd5b606460405162461bcd60e51b815260206004820152601360248201527f496e73756666696369656e74206f7574707574000000000000000000000000006044820152fd5b90503d8084833e6114d08183611830565b8101906020818303126114635780519067ffffffffffffffff82116115cb57019060c0828203126114635760405191611508836117e2565b611511816119b4565b8352602081015160038110156115cf57602084015260408101516040840152606081015160608401526080810151608084015260a08101519067ffffffffffffffff82116115cf57019080601f830112156115cb578151611571816119c8565b9261157f6040519485611830565b81845260208085019260051b8201019283116115c757602001905b8282106115af5750505060a0820152836111b5565b602080916115bc846119b4565b81520191019061159a565b8680fd5b8480fd5b8580fd5b6040513d85823e3d90fd5b34610119576020366003190112610119576001600160a01b036115ff61177c565b16600052600260205260ff6040600020610b8e815491611626600260018301549201611852565b9060405194846001600160a01b03879616865261164b60208701838360a01c166118f6565b60a81c1615156040850152606084015260a0608084015260a0830190611926565b3461011957602036600319011261011957600435600354811015610119576001600160a01b0361169d60209261174b565b90549060031b1c16604051908152f35b3461011957602036600319011261011957600435907fffffffff00000000000000000000000000000000000000000000000000000000821680920361011957817f7965db0b0000000000000000000000000000000000000000000000000000000060209314908115611721575b5015158152f35b7f01ffc9a7000000000000000000000000000000000000000000000000000000009150148361171a565b60035481101561176657600360005260206000200190600090565b634e487b7160e01b600052603260045260246000fd5b600435906001600160a01b038216820361011957565b602435906001600160a01b038216820361011957565b90600182811c921680156117d8575b60208310146117c257565b634e487b7160e01b600052602260045260246000fd5b91607f16916117b7565b60c0810190811067ffffffffffffffff8211176117fe57604052565b634e487b7160e01b600052604160045260246000fd5b60a0810190811067ffffffffffffffff8211176117fe57604052565b90601f8019910116810190811067ffffffffffffffff8211176117fe57604052565b9060405191826000825492611866846117a8565b80845293600181169081156118d4575060011461188d575b5061188b92500383611830565b565b90506000929192526020600020906000915b8183106118b857505090602061188b928201013861187e565b602091935080600191548385890101520191019091849261189f565b90506020925061188b94915060ff191682840152151560051b8201013861187e565b906003821015610d195752565b60005b8381106119165750506000910152565b8181015183820152602001611906565b9060209161193f81518092818552858086019101611903565b601f01601f1916010190565b906020808351928381520192019060005b8181106119695750505090565b82516001600160a01b031684526020938401939092019160010161195c565b6004356001600160a01b03811681036101195790565b6024356001600160a01b03811681036101195790565b51906001600160a01b038216820361011957565b67ffffffffffffffff81116117fe5760051b60200190565b919082018092116119ed57565b634e487b7160e01b600052601160045260246000fd5b6020818303126101195780519067ffffffffffffffff821161011957019080601f83011215610119578151611a37816119c8565b92611a456040519485611830565b81845260208085019260051b82010192831161011957602001905b828210611a6d5750505090565b8151815260209182019101611a60565b8051600110156117665760400190565b8051156117665760200190565b919082039182116119ed57565b60001981146119ed5760010190565b6003821015610d195752565b604090611ad993928152816020820152019061194b565b90565b818102929181159184041417156119ed57565b91908110156117665760051b0190565b67ffffffffffffffff81116117fe57601f01601f191660200190565b3360009081527fe298cb3514b0702cec56ac2053c1ecb2187cfdc8a325f22a672bc5027eadc9e2602052604090205460ff1615611b5457565b611c3c611b6033612062565b611c1c6011611b8e7fcab5a0bfe0b79d2c4b1c2e02599fa044d115b7511f9659307cb427695096770961219b565b9260376040519485927f416363657373436f6e74726f6c3a206163636f756e74200000000000000000006020850152611bd08151809260208688019101611903565b83017f206973206d697373696e6720726f6c652000000000000000000000000000000083820152611c0b825180936020604885019101611903565b01010301601f198101835282611830565b60405191829162461bcd60e51b8352602060048401526024830190611926565b0390fd5b3360009081527fad3228b676f7d3cd4284a5443f17f1962b36e491b30a40b2405849e597ba5fb5602052604090205460ff1615611c7957565b611c3c611c8533612062565b611c1c6011611b8e600061219b565b80600052600060205260406000206001600160a01b03331660005260205260ff6040600020541615611cc35750565b611c3c90611c1c6011611b8e611cd833612062565b9361219b565b600260015414611cef576002600155565b606460405162461bcd60e51b815260206004820152601f60248201527f5265656e7472616e637947756172643a207265656e7472616e742063616c6c006044820152fd5b9091926001600160a01b0361188b9481604051957f23b872dd000000000000000000000000000000000000000000000000000000006020880152166024860152166044840152606483015260648252611d8d608483611830565b611f24565b60405163095ea7b360e01b602082019081526001600160a01b038416602483015260448201949094529192611dca8360648101610655565b6000806001600160a01b0384169285519082855af190611de8612021565b82611e4d575b5081611e42575b5015611e0057505050565b611d8d61188b936001600160a01b036040519163095ea7b360e01b60208401521660248201526000604482015260448152611e3c606482611830565b82611f24565b90503b151538611df5565b80519192508115918215611e65575b50509038611dee565b611e789250602080918301019101611f0c565b3880611e5c565b80600052600060205260406000206001600160a01b03831660005260205260ff60406000205416611eae575050565b80600052600060205260406000206001600160a01b038316600052602052604060002060ff1981541690556001600160a01b03339216907ff6391f5c32d9c69d2a47ea670b442974b53935d1edc7fd64eb21e047a839171b600080a4565b90816020910312610119575180151581036101195790565b6001600160a01b03611f87911691604092600080855193611f458786611830565b602085527f5361666545524332303a206c6f772d6c6576656c2063616c6c206661696c6564602086015260208151910182855af1611f81612021565b91612254565b8051908115918215612007575b505015611f9e5750565b6084905162461bcd60e51b815260206004820152602a60248201527f5361666545524332303a204552433230206f7065726174696f6e20646964206e60448201527f6f742073756363656564000000000000000000000000000000000000000000006064820152fd5b61201a9250602080918301019101611f0c565b3880611f94565b3d1561204c573d9061203282611aff565b916120406040519384611830565b82523d6000602084013e565b606090565b908151811015611766570160200190565b60009061206f602a611aff565b9161207d6040519384611830565b602a835261208b602a611aff565b6020840190601f19013682378351156121875760309053825160011015610eb8576078602184015350602960005b6001821161210e5750506120ca5790565b606460405162461bcd60e51b815260206004820152602060248201527f537472696e67733a20686578206c656e67746820696e73756666696369656e746044820152fd5b9091600f81166010811015612173577f3031323334353637383961626364656600000000000000000000000000000000901a61214a8486612051565b5360041c91801561215f5760001901906120b9565b602482634e487b7160e01b81526011600452fd5b602483634e487b7160e01b81526032600452fd5b602482634e487b7160e01b81526032600452fd5b6000906121a86042611aff565b916121b66040519384611830565b604283526121c46042611aff565b6020840190601f19013682378351156121875760309053825160011015610eb8576078602184015350604160005b600182116122035750506120ca5790565b9091600f81166010811015612173577f3031323334353637383961626364656600000000000000000000000000000000901a61223f8486612051565b5360041c91801561215f5760001901906121f2565b919290156122b55750815115612268575090565b3b156122715790565b606460405162461bcd60e51b815260206004820152601d60248201527f416464726573733a2063616c6c20746f206e6f6e2d636f6e74726163740000006044820152fd5b8251909150156122c85750805190602001fd5b611c3c9060405191829162461bcd60e51b835260206004840152602483019061192656fea26469706673582212201450726f6d55118bcba82deb8f7db6d9a4d5276abe6da179dac39352564aed4264736f6c634300081c00332f8788117e7eff1d82e926ec794901d17c78024a50270940304540a733656f0dad3228b676f7d3cd4284a5443f17f1962b36e491b30a40b2405849e597ba5fb5",
  "linkReferences": {},
  "deployedLinkReferences": {}
}