{
  "_format": "hh-sol-artifact-1",
  "contractName": "ArbitrageCore",
  "sourceName": "contracts/arbitrage/ArbitrageCore.sol",
  "abi": [
    {
      "inputs": [
        {
          "internalType": "address",
          "name": "_dexManager",
          "type": "address"
        }
      ],
      "stateMutability": "nonpayable",
      "type": "constructor"
    },
    {
      "anonymous": false,
      "inputs": [
        {
          "indexed": false,
          "internalType": "enum ArbitrageTypes.ArbitrageType",
          "name": "arbType",
          "type": "uint8"
        },
        {
          "indexed": false,
          "internalType": "address",
          "name": "tokenA",
          "type": "address"
        },
        {
          "indexed": false,
          "internalType": "address",
          "name": "tokenB",
          "type": "address"
        },
        {
          "indexed": false,
          "internalType": "uint256",
          "name": "profit",
          "type": "uint256"
        },
        {
          "indexed": false,
          "internalType": "uint256",
          "name": "gasUsed",
          "type": "uint256"
        },
        {
          "indexed": false,
          "internalType": "address",
          "name": "dexA",
          "type": "address"
        },
        {
          "indexed": false,
          "internalType": "address",
          "name": "dexB",
          "type": "address"
        }
      ],
      "name": "ArbitrageExecuted",
      "type": "event"
    },
    {
      "anonymous": false,
      "inputs": [
        {
          "indexed": true,
          "internalType": "bytes32",
          "name": "role",
          "type": "bytes32"
        },
        {
          "indexed": true,
          "internalType": "bytes32",
          "name": "previousAdminRole",
          "type": "bytes32"
        },
        {
          "indexed": true,
          "internalType": "bytes32",
          "name": "newAdminRole",
          "type": "bytes32"
        }
      ],
      "name": "RoleAdminChanged",
      "type": "event"
    },
    {
      "anonymous": false,
      "inputs": [
        {
          "indexed": true,
          "internalType": "bytes32",
          "name": "role",
          "type": "bytes32"
        },
        {
          "indexed": true,
          "internalType": "address",
          "name": "account",
          "type": "address"
        },
        {
          "indexed": true,
          "internalType": "address",
          "name": "sender",
          "type": "address"
        }
      ],
      "name": "RoleGranted",
      "type": "event"
    },
    {
      "anonymous": false,
      "inputs": [
        {
          "indexed": true,
          "internalType": "bytes32",
          "name": "role",
          "type": "bytes32"
        },
        {
          "indexed": true,
          "internalType": "address",
          "name": "account",
          "type": "address"
        },
        {
          "indexed": true,
          "internalType": "address",
          "name": "sender",
          "type": "address"
        }
      ],
      "name": "RoleRevoked",
      "type": "event"
    },
    {
      "anonymous": false,
      "inputs": [
        {
          "indexed": false,
          "internalType": "address",
          "name": "tokenA",
          "type": "address"
        },
        {
          "indexed": false,
          "internalType": "address",
          "name": "tokenB",
          "type": "address"
        },
        {
          "indexed": false,
          "internalType": "address",
          "name": "tokenC",
          "type": "address"
        },
        {
          "indexed": false,
          "internalType": "uint256",
          "name": "profit",
          "type": "uint256"
        },
        {
          "indexed": false,
          "internalType": "address[]",
          "name": "dexPath",
          "type": "address[]"
        }
      ],
      "name": "TriangularArbitrageExecuted",
      "type": "event"
    },
    {
      "inputs": [],
      "name": "DEFAULT_ADMIN_ROLE",
      "outputs": [
        {
          "internalType": "bytes32",
          "name": "",
          "type": "bytes32"
        }
      ],
      "stateMutability": "view",
      "type": "function"
    },
    {
      "inputs": [],
      "name": "INCREMENT_ROUTER",
      "outputs": [
        {
          "internalType": "address",
          "name": "",
          "type": "address"
        }
      ],
      "stateMutability": "view",
      "type": "function"
    },
    {
      "inputs": [],
      "name": "PUNCH_SWAP_V2_ROUTER",
      "outputs": [
        {
          "internalType": "address",
          "name": "",
          "type": "address"
        }
      ],
      "stateMutability": "view",
      "type": "function"
    },
    {
      "inputs": [],
      "name": "STRATEGY_ROLE",
      "outputs": [
        {
          "internalType": "bytes32",
          "name": "",
          "type": "bytes32"
        }
      ],
      "stateMutability": "view",
      "type": "function"
    },
    {
      "inputs": [],
      "name": "dexManager",
      "outputs": [
        {
          "internalType": "contract IArbitrageDEXManager",
          "name": "",
          "type": "address"
        }
      ],
      "stateMutability": "view",
      "type": "function"
    },
    {
      "inputs": [
        {
          "internalType": "address",
          "name": "token",
          "type": "address"
        },
        {
          "internalType": "uint256",
          "name": "amount",
          "type": "uint256"
        },
        {
          "internalType": "address",
          "name": "baseToken",
          "type": "address"
        }
      ],
      "name": "emergencyConvertToBase",
      "outputs": [
        {
          "internalType": "uint256",
          "name": "converted",
          "type": "uint256"
        }
      ],
      "stateMutability": "nonpayable",
      "type": "function"
    },
    {
      "inputs": [
        {
          "components": [
            {
              "internalType": "address",
              "name": "tokenA",
              "type": "address"
            },
            {
              "internalType": "address",
              "name": "tokenB",
              "type": "address"
            },
            {
              "internalType": "address",
              "name": "dexA",
              "type": "address"
            },
            {
              "internalType": "address",
              "name": "dexB",
              "type": "address"
            },
            {
              "internalType": "uint256",
              "name": "profitAmount",
              "type": "uint256"
            },
            {
              "internalType": "uint256",
              "name": "inputAmount",
              "type": "uint256"
            },
            {
              "internalType": "uint256",
              "name": "gasEstimate",
              "type": "uint256"
            },
            {
              "internalType": "uint256",
              "name": "profitabilityScore",
              "type": "uint256"
            },
            {
              "internalType": "bool",
              "name": "isValid",
              "type": "bool"
            },
            {
              "internalType": "bool",
              "name": "requiresFlashLoan",
              "type": "bool"
            },
            {
              "internalType": "uint256",
              "name": "timestamp",
              "type": "uint256"
            },
            {
              "internalType": "bytes",
              "name": "routingData",
              "type": "bytes"
            }
          ],
          "internalType": "struct ArbitrageTypes.ArbitrageOpportunity",
          "name": "opportunity",
          "type": "tuple"
        },
        {
          "internalType": "contract IERC20",
          "name": "baseToken",
          "type": "address"
        }
      ],
      "name": "executeArbitrageOpportunity",
      "outputs": [
        {
          "internalType": "uint256",
          "name": "profit",
          "type": "uint256"
        }
      ],
      "stateMutability": "nonpayable",
      "type": "function"
    },
    {
      "inputs": [
        {
          "internalType": "uint256",
          "name": "amount",
          "type": "uint256"
        }
      ],
      "name": "executeStFLOWArbitrageCycle",
      "outputs": [
        {
          "internalType": "uint256",
          "name": "profit",
          "type": "uint256"
        }
      ],
      "stateMutability": "nonpayable",
      "type": "function"
    },
    {
      "inputs": [
        {
          "components": [
            {
              "internalType": "address",
              "name": "tokenA",
              "type": "address"
            },
            {
              "internalType": "address",
              "name": "tokenB",
              "type": "address"
            },
            {
              "internalType": "address",
              "name": "tokenC",
              "type": "address"
            },
            {
              "internalType": "address[]",
              "name": "dexPath",
              "type": "address[]"
            },
            {
              "internalType": "uint256",
              "name": "expectedProfit",
              "type": "uint256"
            },
            {
              "internalType": "uint256",
              "name": "minimumInput",
              "type": "uint256"
            },
            {
              "internalType": "bool",
              "name": "isValid",
              "type": "bool"
            }
          ],
          "internalType": "struct ArbitrageTypes.TriangularArbitrage",
          "name": "opportunity",
          "type": "tuple"
        }
      ],
      "name": "executeTriangularOpportunity",
      "outputs": [
        {
          "internalType": "uint256",
          "name": "profit",
          "type": "uint256"
        }
      ],
      "stateMutability": "nonpayable",
      "type": "function"
    },
    {
      "inputs": [],
      "name": "failedArbitrages",
      "outputs": [
        {
          "internalType": "uint256",
          "name": "",
          "type": "uint256"
        }
      ],
      "stateMutability": "view",
      "type": "function"
    },
    {
      "inputs": [],
      "name": "getPerformanceMetrics",
      "outputs": [
        {
          "internalType": "uint256",
          "name": "totalAttempts",
          "type": "uint256"
        },
        {
          "internalType": "uint256",
          "name": "successful",
          "type": "uint256"
        },
        {
          "internalType": "uint256",
          "name": "failed",
          "type": "uint256"
        },
        {
          "internalType": "uint256",
          "name": "successRate",
          "type": "uint256"
        }
      ],
      "stateMutability": "view",
      "type": "function"
    },
    {
      "inputs": [
        {
          "internalType": "bytes32",
          "name": "role",
          "type": "bytes32"
        }
      ],
      "name": "getRoleAdmin",
      "outputs": [
        {
          "internalType": "bytes32",
          "name": "",
          "type": "bytes32"
        }
      ],
      "stateMutability": "view",
      "type": "function"
    },
    {
      "inputs": [
        {
          "internalType": "bytes32",
          "name": "role",
          "type": "bytes32"
        },
        {
          "internalType": "address",
          "name": "account",
          "type": "address"
        }
      ],
      "name": "grantRole",
      "outputs": [],
      "stateMutability": "nonpayable",
      "type": "function"
    },
    {
      "inputs": [
        {
          "internalType": "bytes32",
          "name": "role",
          "type": "bytes32"
        },
        {
          "internalType": "address",
          "name": "account",
          "type": "address"
        }
      ],
      "name": "hasRole",
      "outputs": [
        {
          "internalType": "bool",
          "name": "",
          "type": "bool"
        }
      ],
      "stateMutability": "view",
      "type": "function"
    },
    {
      "inputs": [
        {
          "components": [
            {
              "internalType": "address",
              "name": "tokenA",
              "type": "address"
            },
            {
              "internalType": "address",
              "name": "tokenB",
              "type": "address"
            },
            {
              "internalType": "address",
              "name": "dexA",
              "type": "address"
            },
            {
              "internalType": "address",
              "name": "dexB",
              "type": "address"
            },
            {
              "internalType": "uint256",
              "name": "profitAmount",
              "type": "uint256"
            },
            {
              "internalType": "uint256",
              "name": "inputAmount",
              "type": "uint256"
            },
            {
              "internalType": "uint256",
              "name": "gasEstimate",
              "type": "uint256"
            },
            {
              "internalType": "uint256",
              "name": "profitabilityScore",
              "type": "uint256"
            },
            {
              "internalType": "bool",
              "name": "isValid",
              "type": "bool"
            },
            {
              "internalType": "bool",
              "name": "requiresFlashLoan",
              "type": "bool"
            },
            {
              "internalType": "uint256",
              "name": "timestamp",
              "type": "uint256"
            },
            {
              "internalType": "bytes",
              "name": "routingData",
              "type": "bytes"
            }
          ],
          "internalType": "struct ArbitrageTypes.ArbitrageOpportunity",
          "name": "opportunity",
          "type": "tuple"
        }
      ],
      "name": "performArbitrageTrade",
      "outputs": [],
      "stateMutability": "nonpayable",
      "type": "function"
    },
    {
      "inputs": [
        {
          "components": [
            {
              "internalType": "address",
              "name": "tokenA",
              "type": "address"
            },
            {
              "internalType": "address",
              "name": "tokenB",
              "type": "address"
            },
            {
              "internalType": "address",
              "name": "tokenC",
              "type": "address"
            },
            {
              "internalType": "address[]",
              "name": "dexPath",
              "type": "address[]"
            },
            {
              "internalType": "uint256",
              "name": "expectedProfit",
              "type": "uint256"
            },
            {
              "internalType": "uint256",
              "name": "minimumInput",
              "type": "uint256"
            },
            {
              "internalType": "bool",
              "name": "isValid",
              "type": "bool"
            }
          ],
          "internalType": "struct ArbitrageTypes.TriangularArbitrage",
          "name": "opportunity",
          "type": "tuple"
        }
      ],
      "name": "performTriangularTrade",
      "outputs": [],
      "stateMutability": "nonpayable",
      "type": "function"
    },
    {
      "inputs": [
        {
          "internalType": "bytes32",
          "name": "role",
          "type": "bytes32"
        },
        {
          "internalType": "address",
          "name": "account",
          "type": "address"
        }
      ],
      "name": "renounceRole",
      "outputs": [],
      "stateMutability": "nonpayable",
      "type": "function"
    },
    {
      "inputs": [
        {
          "internalType": "bytes32",
          "name": "role",
          "type": "bytes32"
        },
        {
          "internalType": "address",
          "name": "account",
          "type": "address"
        }
      ],
      "name": "revokeRole",
      "outputs": [],
      "stateMutability": "nonpayable",
      "type": "function"
    },
    {
      "inputs": [],
      "name": "successfulArbitrages",
      "outputs": [
        {
          "internalType": "uint256",
          "name": "",
          "type": "uint256"
        }
      ],
      "stateMutability": "view",
      "type": "function"
    },
    {
      "inputs": [
        {
          "internalType": "bytes4",
          "name": "interfaceId",
          "type": "bytes4"
        }
      ],
      "name": "supportsInterface",
      "outputs": [
        {
          "internalType": "bool",
          "name": "",
          "type": "bool"
        }
      ],
      "stateMutability": "view",
      "type": "function"
    },
    {
      "inputs": [],
      "name": "totalArbitrageAttempts",
      "outputs": [
        {
          "internalType": "uint256",
          "name": "",
          "type": "uint256"
        }
      ],
      "stateMutability": "view",
      "type": "function"
    }
  ],
  "bytecode": "0x60803461013757601f6122a538819003918201601f19168301916001600160401b0383118484101761013c5780849260209460405283398101031261013757516001600160a01b038116908190036101375780156100f257600180546001600160a01b031916919091179055336000908152600080516020612285833981519152602052604090205460ff16156100a0575b60405161213290816101538239f35b33600081815260008051602061228583398151915260205260408120805460ff1916600117905581907f2f8788117e7eff1d82e926ec794901d17c78024a50270940304540a733656f0d8180a4610091565b60405162461bcd60e51b815260206004820152601360248201527f496e76616c696420444558206d616e61676572000000000000000000000000006044820152606490fd5b600080fd5b634e487b7160e01b600052604160045260246000fdfe608080604052600436101561001357600080fd5b600090813560e01c90816301ffc9a7146118db5750806303d4ae761461147057806310be1f9914611449578063248a9ca31461141b5780632f2ff15d1461135857806336568abe146112b85780633949820b14610f185780633c4e380514610efa578063523b37ef14610edc578063580b7c2e14610ea157806369c0e07514610e72578063824b92c714610e4357806391d1485414610dfc57806396529a4f14610ae5578063a217fddf14610ac9578063a48ba89b14610aab578063b87b212014610743578063c041fe181461053c578063d547741f146104f3578063d955a109146101995763ff083a971461010857600080fd5b346101965780600319360112610196576002548015918261018d5760035492612710840293808504612710149015171561017957610165575080608092045b60035460045490604051938452602084015260408301526060820152f35b80634e487b7160e01b602492526012600452fd5b602482634e487b7160e01b81526011600452fd5b60809250610147565b80fd5b50346101965760203660031901126101965760043567ffffffffffffffff81116104ef576101cb903690600401611b3a565b6101d6303314611c61565b60a0810151602460206001600160a01b03845116604051928380926370a0823160e01b82523060048301525afa9081156104075784916104bd575b50808210156104b55750905b60408101516001600160a01b031673f45afe28fd5519d5f8c1d4787a4d5f724c0efa4d0361043c5760015481516020808401516040516336d513a160e01b81526001600160a01b0393841660048201529083166024820152604481019590955291849160649183918891165af191821561043157602492610412575b505b602081019060206001600160a01b03835116604051948580926370a0823160e01b82523060048301525afa9283156104075784936103ce575b5060608101516001600160a01b031673f45afe28fd5519d5f8c1d4787a4d5f724c0efa4d0361038857600154915190516040516336d513a160e01b81526001600160a01b03928316600482015290821660248201526044810193909352602091839116818581606481015b03925af1801561037d57610351575080f35b6103729060203d602011610376575b61036a818361197f565b810190611cac565b5080f35b503d610360565b6040513d84823e3d90fd5b60015491519051604051637540f84360e01b81526001600160a01b039283166004820152908216602482015260448101939093526020918391168185816064810161033f565b9092506020813d6020116103ff575b816103ea6020938361197f565b810103126103fa575191386102d4565b600080fd5b3d91506103dd565b6040513d86823e3d90fd5b61042a9060203d6020116103765761036a818361197f565b5038610299565b6040513d85823e3d90fd5b6001548151602080840151604051637540f84360e01b81526001600160a01b0393841660048201529083166024820152604481019590955291849160649183918891165af191821561043157602492610496575b5061029b565b6104ae9060203d6020116103765761036a818361197f565b5038610490565b90509061021d565b90506020813d6020116104e7575b816104d86020938361197f565b810103126103fa575138610211565b3d91506104cb565b5080fd5b5034610196576040366003190112610196576105396004356105136119b7565b9061053461052f82600052600060205260016040600020015490565b611d89565b612048565b80f35b5034610196576060366003190112610196576004356001600160a01b03811681036104ef57604435906001600160a01b0382169182810361073f577f928286c473ded01ff8bf61a1986f14a0579066072fa8261442d9fea514d93a4c845283602052604084206001600160a01b0333166000526020526105c360ff60406000205416611cc4565b6001600160a01b03600154169160243560011c90602060405180956336d513a160e01b8252818981610616888a89600485016001600160a01b036040929594938160608401971683521660208201520152565b03925af19283156107345761067594602094610719575b50866001600160a01b03600154169260405196879586948593637540f84360e01b8552600485016001600160a01b036040929594938160608401971683521660208201520152565b03925af18015610431576024939260209290916106fe575b50604051938480926370a0823160e01b82523060048301525afa9081156106f257906106bf575b602090604051908152f35b506020813d6020116106ea575b816106d96020938361197f565b810103126103fa57602090516106b4565b3d91506106cc565b604051903d90823e3d90fd5b61071490833d85116103765761036a818361197f565b61068d565b61072f90853d87116103765761036a818361197f565b61062d565b6040513d88823e3d90fd5b8380fd5b50346101965760403660031901126101965760043567ffffffffffffffff81116104ef57610775903690600401611b3a565b906024356001600160a01b0381168091036104ef577f928286c473ded01ff8bf61a1986f14a0579066072fa8261442d9fea514d93a4c825281602052604082206001600160a01b0333166000526020526107d660ff60406000205416611cc4565b81926107e3600254611d32565b600255604051926370a0823160e01b8452336004850152602084602481865afa938415610a9e578194610a6a575b50303b1561019657604051927fd955a109000000000000000000000000000000000000000000000000000000008452602060048501526001600160a01b03835116602485015260208301906001600160a01b03825116604486015260408401956001600160a01b03875116606487015260608501916001600160a01b038351166084880152608086015160a488015260a086015160c488015260c0860196875160e482015260e0870151610104820152610100870151151561012482015261012087015115156101448201526101408701516101648201528580828061090a6101608c01516101806101848401526101a4830190611d64565b038183305af19182610a51575b505061093f575050505050505050602090610933600454611d32565b6004555b604051908152f35b60249850602090604051998a80926370a0823160e01b82523360048301525afa908115610407578491610a1c575b6020985080821115610a135761098291611d0f565b955b8680610997575b50505050505050610937565b7ff8cbc4ae3ee30f0a76178ccdda6c06aeb887a7d33d567efe6ecd3f926608f0ea966001600160a01b0380808060e09a6109d2600354611d32565b60035551169751169251945116945116946040519687528a87015260408601526060850152608084015260a083015260c0820152a13880808080808061098b565b50508295610984565b90506020883d602011610a49575b81610a376020938361197f565b810103126103fa57602097519061096d565b3d9150610a2a565b81610a5b9161197f565b610a66578538610917565b8580fd5b9093506020813d602011610a96575b81610a866020938361197f565b810103126103fa57519238610811565b3d9150610a79565b50604051903d90823e3d90fd5b50346101965780600319360112610196576020600254604051908152f35b5034610196578060031936011261019657602090604051908152f35b503461019657602490610af7366119ee565b7f928286c473ded01ff8bf61a1986f14a0579066072fa8261442d9fea514d93a4c825281602052604082206001600160a01b0333168352602052610b4160ff604084205416611cc4565b8160206001600160a01b03835116604051958680926370a0823160e01b82523060048301525afa938415610a9e578194610dc8575b50303b1561019657604051937f03d4ae76000000000000000000000000000000000000000000000000000000008552602060048601526101048501916001600160a01b03845116602487015260208401916001600160a01b03835116604488015260408501966001600160a01b03885116606482015260608601948382875160e06084830152805180945260206101248301910193835b818110610da35750508192935060808a015160a483015260a08a015160c483015260c08a0151151560e4830152038183305af19081610d8f575b50610c58575b602086604051908152f35b84955060206001600160a01b036024939495965116604051938480926370a0823160e01b82523060048301525afa918215610431578392610d5b575b5080821115610d5357610ca691611d0f565b80948115610c4d576001600160a01b0380809295949551169351169651169351936040519660a0880193885260208801526040870152606086015260a060808601528251809152602060c086019301915b818110610d3457505050826020937fbb7da231c545d8206dee9552b2e3f72930ff50ff9fc6aa5069e63554da7c8e41920390a13880808080610c4d565b82516001600160a01b0316845260209384019390920191600101610cf7565b505080610ca6565b9091506020813d602011610d87575b81610d776020938361197f565b810103126103fa57519038610c94565b3d9150610d6a565b83610d9c9194929461197f565b9138610c47565b85516001600160a01b0316835260209586019589955087945090920191600101610c0d565b9093506020813d602011610df4575b81610de46020938361197f565b8101031261073f57519238610b76565b3d9150610dd7565b50346101965760403660031901126101965760ff6040602092610e1d6119b7565b60043582528185526001600160a01b038383209116825284522054166040519015158152f35b5034610196578060031936011261019657602060405173f45afe28fd5519d5f8c1d4787a4d5f724c0efa4d8152f35b50346101965780600319360112610196576020604051732f6f07cdcf3588944bf4c42ac74ff24bf56e75908152f35b503461019657806003193601126101965760206040517f928286c473ded01ff8bf61a1986f14a0579066072fa8261442d9fea514d93a4c8152f35b50346101965780600319360112610196576020600454604051908152f35b50346101965780600319360112610196576020600354604051908152f35b5034610196576020366003190112610196577f928286c473ded01ff8bf61a1986f14a0579066072fa8261442d9fea514d93a4c815280602052604081206001600160a01b0333168252602052610f7460ff604083205416611cc4565b604051906370a0823160e01b825230600483015260208260248173d3bf53dac106a0290b0483ecbc89d40fcc961f3e5afa918215610a9e578192611284575b508060206001600160a01b03600154166064604051809481936336d513a160e01b835273d3bf53dac106a0290b0483ecbc89d40fcc961f3e6004840152731b97100ea1d7126c4d60027e231ea4cb25314bdb602484015260043560448401525af1801561037d57611267575b506040516370a0823160e01b8152306004820152602081602481731b97100ea1d7126c4d60027e231ea4cb25314bdb5afa90811561037d579082918291611231575b5060209060646001600160a01b0360015416916040519485938492637540f84360e01b8452731b97100ea1d7126c4d60027e231ea4cb25314bdb600485015273d3bf53dac106a0290b0483ecbc89d40fcc961f3e602485015260448401525af1801561037d57611214575b50604051916370a0823160e01b835230600484015260208360248173d3bf53dac106a0290b0483ecbc89d40fcc961f3e5afa90811561037d5782916111df575b60209350808211156111d75761112191611d0f565b905b81611132575b50604051908152f35b60e07ff8cbc4ae3ee30f0a76178ccdda6c06aeb887a7d33d567efe6ecd3f926608f0ea91604051906003825273d3bf53dac106a0290b0483ecbc89d40fcc961f3e86830152731b97100ea1d7126c4d60027e231ea4cb25314bdb6040830152846060830152608082015273f45afe28fd5519d5f8c1d4787a4d5f724c0efa4d60a0820152732f6f07cdcf3588944bf4c42ac74ff24bf56e759060c0820152a138611129565b505080611123565b90506020833d60201161120c575b816111fa6020938361197f565b810103126104ef57602092519061110c565b3d91506111ed565b61122c9060203d6020116103765761036a818361197f565b6110cc565b9150506020813d60201161125f575b8161124d6020938361197f565b810103126104ef575181906020611061565b3d9150611240565b61127f9060203d6020116103765761036a818361197f565b61101f565b9091506020813d6020116112b0575b816112a06020938361197f565b810103126104ef57519038610fb3565b3d9150611293565b5034610196576040366003190112610196576112d26119b7565b336001600160a01b038216036112ee5761053990600435612048565b608460405162461bcd60e51b815260206004820152602f60248201527f416363657373436f6e74726f6c3a2063616e206f6e6c792072656e6f756e636560448201527f20726f6c657320666f722073656c6600000000000000000000000000000000006064820152fd5b5034610196576040366003190112610196576004356113756119b7565b9061139161052f82600052600060205260016040600020015490565b80835282602052604083206001600160a01b038316845260205260ff604084205416156113bc578280f35b80835282602052604083206001600160a01b038316845260205260408320600160ff198254161790556001600160a01b03339216907f2f8788117e7eff1d82e926ec794901d17c78024a50270940304540a733656f0d8480a438808280f35b5034610196576020366003190112610196576020610937600435600052600060205260016040600020015490565b503461019657806003193601126101965760206001600160a01b0360015416604051908152f35b50346101965761147f366119ee565b61148a303314611c61565b60a0810151602460206001600160a01b03845116604051928380926370a0823160e01b82523060048301525afa9081156104075784916118a9575b50808210156118a15750905b606081019081518051156116d157602001516001600160a01b031673f45afe28fd5519d5f8c1d4787a4d5f724c0efa4d036118285760015481516020808401516040516336d513a160e01b81526001600160a01b0393841660048201529083166024820152604481019690965291859160649183918991165af192831561040757602493611809575b505b6020810160206001600160a01b03825116604051958680926370a0823160e01b82523060048301525afa93841561171d5785946117d5575b5082518051600110156117c157604001516001600160a01b031673f45afe28fd5519d5f8c1d4787a4d5f724c0efa4d0361174757600154905160408381015190516336d513a160e01b81526001600160a01b03928316600482015290821660248201526044810195909552602091859160649183918991165af192831561040757602493611728575b505b604081019160206001600160a01b03845116604051958680926370a0823160e01b82523060048301525afa93841561171d5785946116e5575b50518051600210156116d157606001516001600160a01b031673f45afe28fd5519d5f8c1d4787a4d5f724c0efa4d0361038857600154915190516040516336d513a160e01b81526001600160a01b039283166004820152908216602482015260448101939093526020918391168185816064810161033f565b602485634e487b7160e01b81526032600452fd5b9093506020813d602011611715575b816117016020938361197f565b8101031261171157519238611658565b8480fd5b3d91506116f4565b6040513d87823e3d90fd5b6117409060203d6020116103765761036a818361197f565b503861161d565b60015490516040838101519051637540f84360e01b81526001600160a01b03928316600482015290821660248201526044810195909552602091859160649183918991165af1928315610407576024936117a2575b5061161f565b6117ba9060203d6020116103765761036a818361197f565b503861179c565b602486634e487b7160e01b81526032600452fd5b9093506020813d602011611801575b816117f16020938361197f565b8101031261171157519238611594565b3d91506117e4565b6118219060203d6020116103765761036a818361197f565b503861155a565b6001548151602080840151604051637540f84360e01b81526001600160a01b0393841660048201529083166024820152604481019690965291859160649183918991165af192831561040757602493611882575b5061155c565b61189a9060203d6020116103765761036a818361197f565b503861187c565b9050906114d1565b90506020813d6020116118d3575b816118c46020938361197f565b8101031261073f5751386114c5565b3d91506118b7565b9050346104ef5760203660031901126104ef576004357fffffffff00000000000000000000000000000000000000000000000000000000811680910361197b57602092507f7965db0b000000000000000000000000000000000000000000000000000000008114908115611951575b5015158152f35b7f01ffc9a7000000000000000000000000000000000000000000000000000000009150143861194a565b8280fd5b90601f8019910116810190811067ffffffffffffffff8211176119a157604052565b634e487b7160e01b600052604160045260246000fd5b602435906001600160a01b03821682036103fa57565b35906001600160a01b03821682036103fa57565b359081151582036103fa57565b60206003198201126103fa5760043567ffffffffffffffff81116103fa5760e081830360031901126103fa576040519160e0830183811067ffffffffffffffff8211176119a157604052611a44826004016119cd565b8352611a52602483016119cd565b6020840152611a63604483016119cd565b6040840152606482013567ffffffffffffffff81116103fa57820190806023830112156103fa5760048201359167ffffffffffffffff83116119a1578260051b9060405193611ab5602084018661197f565b84526020600481860193830101019283116103fa57602401905b828210611b065750505060608301526084810135608083015260a481013560a0830152611afe9060c4016119e1565b60c082015290565b60208091611b13846119cd565b815201910190611acf565b67ffffffffffffffff81116119a157601f01601f191660200190565b9190610180838203126103fa57604051610180810181811067ffffffffffffffff8211176119a1576040528093611b70816119cd565b8252611b7e602082016119cd565b6020830152611b8f604082016119cd565b6040830152611ba0606082016119cd565b60608301526080810135608083015260a081013560a083015260c081013560c083015260e081013560e0830152611bda61010082016119e1565b610100830152611bed61012082016119e1565b6101208301526101408101356101408301526101608101359067ffffffffffffffff82116103fa57019082601f830112156103fa578135611c2d81611b1e565b93611c3b604051958661197f565b818552602082850101116103fa5760208160009282610160960183880137850101520152565b15611c6857565b606460405162461bcd60e51b815260206004820152600960248201527f4f6e6c792073656c6600000000000000000000000000000000000000000000006044820152fd5b908160209103126103fa575180151581036103fa5790565b15611ccb57565b606460405162461bcd60e51b815260206004820152601660248201527f4f6e6c792073747261746567792063616e2063616c6c000000000000000000006044820152fd5b91908203918211611d1c57565b634e487b7160e01b600052601160045260246000fd5b6000198114611d1c5760010190565b60005b838110611d545750506000910152565b8181015183820152602001611d44565b90602091611d7d81518092818552858086019101611d41565b601f01601f1916010190565b80600052600060205260406000206001600160a01b03331660005260205260ff6040600020541615611db85750565b3390600090611dc7602a611b1e565b92611dd5604051948561197f565b602a8452611de3602a611b1e565b602085019390601f1901368537845115611fe35760308453845160011015611fe357607860218601536029905b60018211611ff7575050611f3a57600090611e2b6042611b1e565b90611e39604051928361197f565b60428252611e476042611b1e565b602083019390601f1901368537825115611fe35760308453825160011015611fe357607860218401536041905b60018211611f7e575050611f3a57611f36936037611f169383611f05611ed097601196506040519889967f416363657373436f6e74726f6c3a206163636f756e7420000000000000000000602089015251809287890190611d41565b8501917f206973206d697373696e6720726f6c6520000000000000000000000000000000858401525180936048840190611d41565b01010301601f19810183528261197f565b60405191829162461bcd60e51b8352602060048401526024830190611d64565b0390fd5b606460405162461bcd60e51b815260206004820152602060248201527f537472696e67733a20686578206c656e67746820696e73756666696369656e746044820152fd5b9091600f81166010811015611fcf577f3031323334353637383961626364656600000000000000000000000000000000901a611fba84866120d5565b5360041c918015610179576000190190611e74565b602483634e487b7160e01b81526032600452fd5b80634e487b7160e01b602492526032600452fd5b9091600f81166010811015611fcf577f3031323334353637383961626364656600000000000000000000000000000000901a61203384886120d5565b5360041c918015610179576000190190611e10565b80600052600060205260406000206001600160a01b03831660005260205260ff60406000205416612077575050565b80600052600060205260406000206001600160a01b038316600052602052604060002060ff1981541690556001600160a01b03339216907ff6391f5c32d9c69d2a47ea670b442974b53935d1edc7fd64eb21e047a839171b600080a4565b9081518110156120e6570160200190565b634e487b7160e01b600052603260045260246000fdfea264697066735822122015c4b7510bcb7b26ae6cd7c77d2a1f01f64a20daf1c41b08e38b43a3eed7392f64736f6c634300081c0033ad3228b676f7d3cd4284a5443f17f1962b36e491b30a40b2405849e597ba5fb5",
  "linkReferences": {},
  "deployedLinkReferences": {}
}