{
  "_format": "hh-sol-artifact-1",
  "contractName": "MultiAssetManager",
  "sourceName": "contracts/components/MultiAssetManager.sol",
  "abi": [
    {
      "inputs": [
        {
          "internalType": "address",
          "name": "_baseAsset",
          "type": "address"
        }
      ],
      "stateMutability": "nonpayable",
      "type": "constructor"
    },
    {
      "anonymous": false,
      "inputs": [
        {
          "indexed": true,
          "internalType": "address",
          "name": "asset",
          "type": "address"
        },
        {
          "indexed": false,
          "internalType": "uint256",
          "name": "minDeposit",
          "type": "uint256"
        },
        {
          "indexed": false,
          "internalType": "uint256",
          "name": "maxDeposit",
          "type": "uint256"
        }
      ],
      "name": "AssetAdded",
      "type": "event"
    },
    {
      "anonymous": false,
      "inputs": [
        {
          "indexed": true,
          "internalType": "address",
          "name": "fromAsset",
          "type": "address"
        },
        {
          "indexed": true,
          "internalType": "address",
          "name": "toAsset",
          "type": "address"
        },
        {
          "indexed": false,
          "internalType": "uint256",
          "name": "fromAmount",
          "type": "uint256"
        },
        {
          "indexed": false,
          "internalType": "uint256",
          "name": "toAmount",
          "type": "uint256"
        }
      ],
      "name": "AssetConverted",
      "type": "event"
    },
    {
      "anonymous": false,
      "inputs": [
        {
          "indexed": true,
          "internalType": "bytes32",
          "name": "role",
          "type": "bytes32"
        },
        {
          "indexed": true,
          "internalType": "bytes32",
          "name": "previousAdminRole",
          "type": "bytes32"
        },
        {
          "indexed": true,
          "internalType": "bytes32",
          "name": "newAdminRole",
          "type": "bytes32"
        }
      ],
      "name": "RoleAdminChanged",
      "type": "event"
    },
    {
      "anonymous": false,
      "inputs": [
        {
          "indexed": true,
          "internalType": "bytes32",
          "name": "role",
          "type": "bytes32"
        },
        {
          "indexed": true,
          "internalType": "address",
          "name": "account",
          "type": "address"
        },
        {
          "indexed": true,
          "internalType": "address",
          "name": "sender",
          "type": "address"
        }
      ],
      "name": "RoleGranted",
      "type": "event"
    },
    {
      "anonymous": false,
      "inputs": [
        {
          "indexed": true,
          "internalType": "bytes32",
          "name": "role",
          "type": "bytes32"
        },
        {
          "indexed": true,
          "internalType": "address",
          "name": "account",
          "type": "address"
        },
        {
          "indexed": true,
          "internalType": "address",
          "name": "sender",
          "type": "address"
        }
      ],
      "name": "RoleRevoked",
      "type": "event"
    },
    {
      "inputs": [],
      "name": "DEFAULT_ADMIN_ROLE",
      "outputs": [
        {
          "internalType": "bytes32",
          "name": "",
          "type": "bytes32"
        }
      ],
      "stateMutability": "view",
      "type": "function"
    },
    {
      "inputs": [],
      "name": "PUNCH_SWAP_ROUTER",
      "outputs": [
        {
          "internalType": "address",
          "name": "",
          "type": "address"
        }
      ],
      "stateMutability": "view",
      "type": "function"
    },
    {
      "inputs": [],
      "name": "STFLOW",
      "outputs": [
        {
          "internalType": "address",
          "name": "",
          "type": "address"
        }
      ],
      "stateMutability": "view",
      "type": "function"
    },
    {
      "inputs": [],
      "name": "STG_USDC",
      "outputs": [
        {
          "internalType": "address",
          "name": "",
          "type": "address"
        }
      ],
      "stateMutability": "view",
      "type": "function"
    },
    {
      "inputs": [],
      "name": "USDC_E",
      "outputs": [
        {
          "internalType": "address",
          "name": "",
          "type": "address"
        }
      ],
      "stateMutability": "view",
      "type": "function"
    },
    {
      "inputs": [],
      "name": "USDF",
      "outputs": [
        {
          "internalType": "address",
          "name": "",
          "type": "address"
        }
      ],
      "stateMutability": "view",
      "type": "function"
    },
    {
      "inputs": [],
      "name": "USDT",
      "outputs": [
        {
          "internalType": "address",
          "name": "",
          "type": "address"
        }
      ],
      "stateMutability": "view",
      "type": "function"
    },
    {
      "inputs": [],
      "name": "VAULT_ROLE",
      "outputs": [
        {
          "internalType": "bytes32",
          "name": "",
          "type": "bytes32"
        }
      ],
      "stateMutability": "view",
      "type": "function"
    },
    {
      "inputs": [],
      "name": "WETH",
      "outputs": [
        {
          "internalType": "address",
          "name": "",
          "type": "address"
        }
      ],
      "stateMutability": "view",
      "type": "function"
    },
    {
      "inputs": [],
      "name": "WFLOW",
      "outputs": [
        {
          "internalType": "address",
          "name": "",
          "type": "address"
        }
      ],
      "stateMutability": "view",
      "type": "function"
    },
    {
      "inputs": [
        {
          "internalType": "address",
          "name": "asset",
          "type": "address"
        },
        {
          "internalType": "uint256",
          "name": "minDeposit",
          "type": "uint256"
        },
        {
          "internalType": "uint256",
          "name": "maxDeposit",
          "type": "uint256"
        },
        {
          "internalType": "uint256",
          "name": "conversionSlippage",
          "type": "uint256"
        },
        {
          "internalType": "bool",
          "name": "requiresSwap",
          "type": "bool"
        },
        {
          "internalType": "uint8",
          "name": "decimals",
          "type": "uint8"
        }
      ],
      "name": "addSupportedAsset",
      "outputs": [],
      "stateMutability": "nonpayable",
      "type": "function"
    },
    {
      "inputs": [
        {
          "internalType": "uint256",
          "name": "",
          "type": "uint256"
        }
      ],
      "name": "assetList",
      "outputs": [
        {
          "internalType": "address",
          "name": "",
          "type": "address"
        }
      ],
      "stateMutability": "view",
      "type": "function"
    },
    {
      "inputs": [],
      "name": "autoConvertToBase",
      "outputs": [
        {
          "internalType": "bool",
          "name": "",
          "type": "bool"
        }
      ],
      "stateMutability": "view",
      "type": "function"
    },
    {
      "inputs": [],
      "name": "baseAsset",
      "outputs": [
        {
          "internalType": "contract IERC20",
          "name": "",
          "type": "address"
        }
      ],
      "stateMutability": "view",
      "type": "function"
    },
    {
      "inputs": [
        {
          "internalType": "address",
          "name": "asset",
          "type": "address"
        },
        {
          "internalType": "uint256",
          "name": "amount",
          "type": "uint256"
        }
      ],
      "name": "convertToBase",
      "outputs": [
        {
          "internalType": "uint256",
          "name": "baseAmount",
          "type": "uint256"
        }
      ],
      "stateMutability": "nonpayable",
      "type": "function"
    },
    {
      "inputs": [],
      "name": "defaultSlippage",
      "outputs": [
        {
          "internalType": "uint256",
          "name": "",
          "type": "uint256"
        }
      ],
      "stateMutability": "view",
      "type": "function"
    },
    {
      "inputs": [
        {
          "internalType": "address",
          "name": "asset",
          "type": "address"
        },
        {
          "internalType": "uint256",
          "name": "amount",
          "type": "uint256"
        },
        {
          "internalType": "address",
          "name": "receiver",
          "type": "address"
        }
      ],
      "name": "depositAsset",
      "outputs": [
        {
          "internalType": "uint256",
          "name": "baseAmount",
          "type": "uint256"
        }
      ],
      "stateMutability": "nonpayable",
      "type": "function"
    },
    {
      "inputs": [
        {
          "internalType": "address",
          "name": "token",
          "type": "address"
        },
        {
          "internalType": "uint256",
          "name": "amount",
          "type": "uint256"
        }
      ],
      "name": "emergencyWithdraw",
      "outputs": [],
      "stateMutability": "nonpayable",
      "type": "function"
    },
    {
      "inputs": [
        {
          "internalType": "bytes32",
          "name": "role",
          "type": "bytes32"
        }
      ],
      "name": "getRoleAdmin",
      "outputs": [
        {
          "internalType": "bytes32",
          "name": "",
          "type": "bytes32"
        }
      ],
      "stateMutability": "view",
      "type": "function"
    },
    {
      "inputs": [],
      "name": "getSupportedAssets",
      "outputs": [
        {
          "internalType": "address[]",
          "name": "",
          "type": "address[]"
        }
      ],
      "stateMutability": "view",
      "type": "function"
    },
    {
      "inputs": [
        {
          "internalType": "bytes32",
          "name": "role",
          "type": "bytes32"
        },
        {
          "internalType": "address",
          "name": "account",
          "type": "address"
        }
      ],
      "name": "grantRole",
      "outputs": [],
      "stateMutability": "nonpayable",
      "type": "function"
    },
    {
      "inputs": [
        {
          "internalType": "bytes32",
          "name": "role",
          "type": "bytes32"
        },
        {
          "internalType": "address",
          "name": "account",
          "type": "address"
        }
      ],
      "name": "hasRole",
      "outputs": [
        {
          "internalType": "bool",
          "name": "",
          "type": "bool"
        }
      ],
      "stateMutability": "view",
      "type": "function"
    },
    {
      "inputs": [
        {
          "internalType": "address",
          "name": "asset",
          "type": "address"
        }
      ],
      "name": "isAssetSupported",
      "outputs": [
        {
          "internalType": "bool",
          "name": "",
          "type": "bool"
        }
      ],
      "stateMutability": "view",
      "type": "function"
    },
    {
      "inputs": [
        {
          "internalType": "bytes32",
          "name": "role",
          "type": "bytes32"
        },
        {
          "internalType": "address",
          "name": "account",
          "type": "address"
        }
      ],
      "name": "renounceRole",
      "outputs": [],
      "stateMutability": "nonpayable",
      "type": "function"
    },
    {
      "inputs": [
        {
          "internalType": "bytes32",
          "name": "role",
          "type": "bytes32"
        },
        {
          "internalType": "address",
          "name": "account",
          "type": "address"
        }
      ],
      "name": "revokeRole",
      "outputs": [],
      "stateMutability": "nonpayable",
      "type": "function"
    },
    {
      "inputs": [],
      "name": "router",
      "outputs": [
        {
          "internalType": "contract IPunchSwapRouter",
          "name": "",
          "type": "address"
        }
      ],
      "stateMutability": "view",
      "type": "function"
    },
    {
      "inputs": [
        {
          "internalType": "bool",
          "name": "enabled",
          "type": "bool"
        }
      ],
      "name": "setAutoConvert",
      "outputs": [],
      "stateMutability": "nonpayable",
      "type": "function"
    },
    {
      "inputs": [
        {
          "internalType": "uint256",
          "name": "slippage",
          "type": "uint256"
        }
      ],
      "name": "setDefaultSlippage",
      "outputs": [],
      "stateMutability": "nonpayable",
      "type": "function"
    },
    {
      "inputs": [
        {
          "internalType": "address",
          "name": "",
          "type": "address"
        }
      ],
      "name": "supportedAssets",
      "outputs": [
        {
          "internalType": "bool",
          "name": "supported",
          "type": "bool"
        },
        {
          "internalType": "uint256",
          "name": "minDeposit",
          "type": "uint256"
        },
        {
          "internalType": "uint256",
          "name": "maxDeposit",
          "type": "uint256"
        },
        {
          "internalType": "uint256",
          "name": "conversionSlippage",
          "type": "uint256"
        },
        {
          "internalType": "bool",
          "name": "requiresSwap",
          "type": "bool"
        },
        {
          "internalType": "uint8",
          "name": "decimals",
          "type": "uint8"
        }
      ],
      "stateMutability": "view",
      "type": "function"
    },
    {
      "inputs": [
        {
          "internalType": "bytes4",
          "name": "interfaceId",
          "type": "bytes4"
        }
      ],
      "name": "supportsInterface",
      "outputs": [
        {
          "internalType": "bool",
          "name": "",
          "type": "bool"
        }
      ],
      "stateMutability": "view",
      "type": "function"
    },
    {
      "inputs": [
        {
          "internalType": "address",
          "name": "asset",
          "type": "address"
        },
        {
          "internalType": "uint256",
          "name": "baseAmount",
          "type": "uint256"
        },
        {
          "internalType": "address",
          "name": "receiver",
          "type": "address"
        }
      ],
      "name": "withdrawToAsset",
      "outputs": [
        {
          "internalType": "uint256",
          "name": "assetAmount",
          "type": "uint256"
        }
      ],
      "stateMutability": "nonpayable",
      "type": "function"
    }
  ],
  "bytecode": "0x60c0604052346106b257604051601f61269638819003918201601f19168301916001600160401b03831184841017610610578084926020946040528339810103126106b257516001600160a01b038116908190036106b25761012c600355600160ff19600454161760045580156106785760805273f45afe28fd5519d5f8c1d4787a4d5f724c0efa4d60a052336000908152600080516020612676833981519152602052604090205460ff1615610626575b6080516001600160a01b0316732aabea2058b5ac2d339b163c6ab6f2b6d53aabed14156100dc6106b7565b6001815261017960046020830192620f424084526040810164e8d4a5100081526060820190600082526080830196875260a083019560068752732aabea2058b5ac2d339b163c6ab6f2b6d53aabed6000526001602052610150604060002094511515859060ff801983541691151516179055565b5160018401555160028301555160038201550192511515839060ff801983541691151516179055565b5161ff0082549160081b169061ff001916179055600254680100000000000000008110156106105760018101806002558110156105fa5760026000526000805160206126568339815191520180546001600160a01b031916732aabea2058b5ac2d339b163c6ab6f2b6d53aabed1790556101f16106b7565b6001815260208101620f424081526102666004604084019364e8d4a510008552606081016064815260808201956001875260a08301956006875273674843c06ff83502ddb4d37c2e09c01cda38cbc86000526001602052610150604060002094511515859060ff801983541691151516179055565b5161ff0082549160081b169061ff001916179055600254680100000000000000008110156106105760018101806002558110156105fa5760026000526000805160206126568339815191520180546001600160a01b03191673674843c06ff83502ddb4d37c2e09c01cda38cbc81790556102de6106b7565b6001815260208101620f424081526103536004604084019364e8d4a510008552606081016064815260808201956001875260a08301956006875273f1815bd50389c46847f0bda824ec8da914045d146000526001602052610150604060002094511515859060ff801983541691151516179055565b5161ff0082549160081b169061ff001916179055600254680100000000000000008110156106105760018101806002558110156105fa5760026000526000805160206126568339815191520180546001600160a01b03191673f1815bd50389c46847f0bda824ec8da914045d141790556103cb6106b7565b6001815260208101620f424081526104406004604084019364e8d4a510008552606081016064815260808201956001875260a083019560068752737f27352d5f83db87a5a3e00f4b07cc2138d8ee526000526001602052610150604060002094511515859060ff801983541691151516179055565b5161ff0082549160081b169061ff001916179055600254680100000000000000008110156106105760018101806002558110156105fa5760026000526000805160206126568339815191520180546001600160a01b031916737f27352d5f83db87a5a3e00f4b07cc2138d8ee521790556104b86106b7565b6001815260208101670de0b6b3a764000081526105386004604084019369152d02c7e14af68000008552606081016101f4815260808201956001875260a08301956012875273d3bf53dac106a0290b0483ecbc89d40fcc961f3e6000526001602052610150604060002094511515859060ff801983541691151516179055565b5161ff0082549160081b169061ff001916179055600254680100000000000000008110156106105760018101806002558110156105fa5760026000526000805160206126568339815191520180546001600160a01b03191673d3bf53dac106a0290b0483ecbc89d40fcc961f3e179055604051611f7f90816106d782396080518181816102f50152818161094701528181610fc8015281816110290152818161121f0152611466015260a051818181610194015281816112ff01526115450152f35b634e487b7160e01b600052603260045260246000fd5b634e487b7160e01b600052604160045260246000fd5b33600081815260008051602061267683398151915260205260408120805460ff1916600117905581907f2f8788117e7eff1d82e926ec794901d17c78024a50270940304540a733656f0d8180a46100b1565b60405162461bcd60e51b8152602060048201526012602482015271125b9d985b1a590818985cd948185cdcd95d60721b6044820152606490fd5b600080fd5b6040519060c082016001600160401b038111838210176106105760405256fe608080604052600436101561001357600080fd5b60003560e01c90816301ffc9a714610d98575080630d2c544114610d695780631b678e0d14610d03578063248a9ca314610cd6578063251f6c4214610c625780632f2ff15d14610b9b57806336568abe14610afc57806344bd1afd14610a8e578063464b415814610a4f578063465d8576146108525780635422e520146108235780635487404a1461080557806365e2e91a146105ee5780637b6f924b146105cb57806387a040851461059c5780638fed23f11461056d57806391d148541461051f57806395ccea67146104e757806398c4f1ac146104ac578063a0b4b3011461046b578063a217fddf1461044f578063a7d8361714610420578063ad5c4648146103f1578063b249b35d146103c2578063bd81579e14610348578063c54e44eb14610319578063cdf456e1146102d5578063d547741f1461028e578063e314c30414610255578063e5406dbf146101bd5763f887ea401461017457600080fd5b346101b85760003660031901126101b85760206040516001600160a01b037f0000000000000000000000000000000000000000000000000000000000000000168152f35b600080fd5b346101b85760003660031901126101b85760405180602060025491828152019060026000527f405787fa12a823e0f2b7631cc41b3ba8828b3321ca811111fa75cd3aa3bb5ace9060005b818110610236576102328561021e81870382611082565b604051918291602083526020830190610ecd565b0390f35b82546001600160a01b0316845260209093019260019283019201610207565b346101b85760203660031901126101b8576004358015158091036101b85761027b61169e565b60ff801960045416911617600455600080f35b346101b85760403660031901126101b8576102d36004356102ad610e4c565b906102ce6102c982600052600060205260016040600020015490565b61179c565b6117e6565b005b346101b85760003660031901126101b85760206040516001600160a01b037f0000000000000000000000000000000000000000000000000000000000000000168152f35b346101b85760003660031901126101b857602060405173674843c06ff83502ddb4d37c2e09c01cda38cbc88152f35b346101b85760203660031901126101b8576001600160a01b03610369610e36565b16600052600160205260c0604060002060ff80825416916001810154906002810154600460038301549201549260405195151586526020860152604085015260608401528181161515608084015260081c1660a0820152f35b346101b85760003660031901126101b8576020604051732aabea2058b5ac2d339b163c6ab6f2b6d53aabed8152f35b346101b85760003660031901126101b8576020604051732f6f07cdcf3588944bf4c42ac74ff24bf56e75908152f35b346101b85760003660031901126101b857602060405173d3bf53dac106a0290b0483ecbc89d40fcc961f3e8152f35b346101b85760003660031901126101b857602060405160008152f35b346101b85760203660031901126101b8576004356002548110156101b8576001600160a01b0361049c602092610e9c565b90549060031b1c16604051908152f35b346101b85760003660031901126101b85760206040517f31e0210044b4f6757ce6aa31f9c6e8d4896d24a755014887391a926c5224d9598152f35b346101b85760403660031901126101b8576102d3610503610e36565b61050b61169e565b602435906001600160a01b033391166110a4565b346101b85760403660031901126101b857610538610e4c565b60043560005260006020526001600160a01b0360406000209116600052602052602060ff604060002054166040519015158152f35b346101b85760003660031901126101b8576020604051731b97100ea1d7126c4d60027e231ea4cb25314bdb8152f35b346101b85760003660031901126101b857602060405173f45afe28fd5519d5f8c1d4787a4d5f724c0efa4d8152f35b346101b85760003660031901126101b857602060ff600454166040519015158152f35b346101b85760c03660031901126101b857610607610e36565b602435604435906084358015158091036101b85760a4359360ff85168095036101b8576001600160a01b039061063b61169e565b169384156107c15784600052600160205260ff6040600020541661077d576106e4600460405161066a81611066565b600181526020810186815260408201888152606083019160643583526080840197885260a084019687528a60005260016020526106bb604060002094511515859060ff801983541691151516179055565b5160018401555160028301555160038201550192511515839060ff801983541691151516179055565b5161ff0082549160081b169061ff0019161790556002549068010000000000000000821015610767577ffde45ef6c4d07139bdb3883a286ea36e8985075fe4c67d5ae2f4d3c76d16b44b9261074183600160409501600255610e9c565b81549060031b906001600160a01b0388831b921b191617905582519182526020820152a2005b634e487b7160e01b600052604160045260246000fd5b606460405162461bcd60e51b815260206004820152601760248201527f417373657420616c726561647920737570706f727465640000000000000000006044820152fd5b606460405162461bcd60e51b815260206004820152600d60248201527f496e76616c6964206173736574000000000000000000000000000000000000006044820152fd5b346101b85760003660031901126101b8576020600354604051908152f35b346101b85760003660031901126101b857602060405173f1815bd50389c46847f0bda824ec8da914045d148152f35b346101b85761086036610e62565b503360009081527f57c45785f0bfdd0436a24ca59ce8cf4a246623230045d7db55b0ff1db74c5822602052604090205490919061089f9060ff16610f0a565b6000916001600160a01b03821680845260016020526108c460ff604086205416610f55565b808452600160205260016040852001548210610a0b578084526001602052600260408520015482116109c7576020936109456040517f23b872dd00000000000000000000000000000000000000000000000000000000878201523360248201523060448201528460648201526064815261093f608482611082565b8361188f565b7f00000000000000000000000000000000000000000000000000000000000000006001600160a01b0316820361098257505090505b604051908152f35b60ff6004541691826109ad575b5050156109a45761099f9161145a565b61097a565b61099f91611b3e565b815260018552604090206004015460ff169050848061098f565b606460405162461bcd60e51b815260206004820152601560248201527f41626f7665206d6178696d756d206465706f73697400000000000000000000006044820152fd5b606460405162461bcd60e51b815260206004820152601560248201527f42656c6f77206d696e696d756d206465706f73697400000000000000000000006044820152fd5b346101b85760203660031901126101b8576001600160a01b03610a70610e36565b166000526001602052602060ff604060002054166040519015158152f35b346101b85760203660031901126101b857600435610aaa61169e565b6103e88111610ab857600355005b606460405162461bcd60e51b815260206004820152601160248201527f536c69707061676520746f6f20686967680000000000000000000000000000006044820152fd5b346101b85760403660031901126101b857610b15610e4c565b336001600160a01b03821603610b31576102d3906004356117e6565b608460405162461bcd60e51b815260206004820152602f60248201527f416363657373436f6e74726f6c3a2063616e206f6e6c792072656e6f756e636560448201527f20726f6c657320666f722073656c6600000000000000000000000000000000006064820152fd5b346101b85760403660031901126101b857600435610bb7610e4c565b90610bd36102c982600052600060205260016040600020015490565b80600052600060205260406000206001600160a01b03831660005260205260ff6040600020541615610c0157005b80600052600060205260406000206001600160a01b0383166000526020526040600020600160ff198254161790556001600160a01b03339216907f2f8788117e7eff1d82e926ec794901d17c78024a50270940304540a733656f0d600080a4005b346101b85760403660031901126101b857602061097a610c80610e36565b7f31e0210044b4f6757ce6aa31f9c6e8d4896d24a755014887391a926c5224d9596000526000835260406000206001600160a01b0333166000528352610ccd60ff60406000205416610f0a565b6024359061101f565b346101b85760203660031901126101b857602061097a600435600052600060205260016040600020015490565b346101b857602061097a610d1636610e62565b917f31e0210044b4f6757ce6aa31f9c6e8d4896d24a755014887391a926c5224d9596000526000855260406000206001600160a01b0333166000528552610d6460ff60406000205416610f0a565b610fa0565b346101b85760003660031901126101b8576020604051737f27352d5f83db87a5a3e00f4b07cc2138d8ee528152f35b346101b85760203660031901126101b857600435907fffffffff0000000000000000000000000000000000000000000000000000000082168092036101b857817f7965db0b0000000000000000000000000000000000000000000000000000000060209314908115610e0c575b5015158152f35b7f01ffc9a70000000000000000000000000000000000000000000000000000000091501483610e05565b600435906001600160a01b03821682036101b857565b602435906001600160a01b03821682036101b857565b60609060031901126101b8576004356001600160a01b03811681036101b85790602435906044356001600160a01b03811681036101b85790565b600254811015610eb757600260005260206000200190600090565b634e487b7160e01b600052603260045260246000fd5b906020808351928381520192019060005b818110610eeb5750505090565b82516001600160a01b0316845260209384019390920191600101610ede565b15610f1157565b606460405162461bcd60e51b815260206004820152601360248201527f4f6e6c79207661756c742063616e2063616c6c000000000000000000000000006044820152fd5b15610f5c57565b606460405162461bcd60e51b815260206004820152601360248201527f4173736574206e6f7420737570706f72746564000000000000000000000000006044820152fd5b906001600160a01b03821691826000526001602052610fc660ff60406000205416610f55565b7f00000000000000000000000000000000000000000000000000000000000000006001600160a01b0381168414611011575061100e92916110069161121a565b9283916110a4565b90565b61100e9350829491506110a4565b6001600160a01b037f0000000000000000000000000000000000000000000000000000000000000000166001600160a01b03821614611062579061100e9161145a565b5090565b60c0810190811067ffffffffffffffff82111761076757604052565b90601f8019910116810190811067ffffffffffffffff82111761076757604052565b6040517fa9059cbb0000000000000000000000000000000000000000000000000000000060208201526001600160a01b0390921660248301526044808301939093529181526110fd916110f8606483611082565b61188f565b565b805115610eb75760200190565b805160011015610eb75760400190565b6020818303126101b85780519067ffffffffffffffff82116101b857019080601f830112156101b85781519167ffffffffffffffff8311610767578260051b90602082019361116e6040519586611082565b84526020808501928201019283116101b857602001905b8282106111925750505090565b8151815260209182019101611185565b60409061100e939281528160208201520190610ecd565b818102929181159184041417156111cc57565b634e487b7160e01b600052601160045260246000fd5b9160809361120f916001600160a01b0393989796988552602085015260a0604085015260a0840190610ecd565b951660608201520152565b9190917f0000000000000000000000000000000000000000000000000000000000000000906001600160a01b03808316911691818314611455578461125e916119bc565b604051606061126d8183611082565b60028252601f19810136602084013782611286836110ff565b52836112918361110c565b52836000526001602052604060002060a060ff6004604051936112b385611066565b80548316151585526001810154602086015260028101546040860152600381015495850186905201548082161515608085015260081c16910152801561144b57905b6001600160a01b037f0000000000000000000000000000000000000000000000000000000000000000169160405163d06ca61f60e01b81526000818061133f868c600484016111a2565b0381875afa6000918161142e575b5061135a57505050505050565b6113639061110c565b5190612710039061271082116111cc5761271091611380916111b9565b0461012c4201928342116111cc576000928389936113b6604051978896879586946338ed173960e01b86523092600487016111e2565b03925af160009181611409575b506113cd57505050565b60406113f97f583fda99277fe3416bdf6a25f0b4ec4991ce6c0643ad13f1511eee2cb012c4ab9261110c565b51958151908152866020820152a3565b6114279192503d806000833e61141f8183611082565b81019061111c565b90386113c3565b6114449192503d806000833e61141f8183611082565b903861134d565b50600354906112f5565b505050565b91906001600160a01b037f000000000000000000000000000000000000000000000000000000000000000016926001600160a01b03811693808514611697576114a383866119bc565b6040519460606114b38188611082565b60028752601f198101366020890137816114cc886110ff565b52826114d78861110c565b52816000526001602052604060002060a060ff6004604051936114f985611066565b80548316151585526001810154602086015260028101546040860152600381015495850186905201548082161515608085015260081c16910152801561168d57955b6001600160a01b037f0000000000000000000000000000000000000000000000000000000000000000169660405163d06ca61f60e01b815260008180611585868b600484016111a2565b03818c5afa60009181611670575b506115a857505050505061100e929350611b3e565b6115b19061110c565b5190612710039061271082116111cc57612710916115ce916111b9565b0461012c4201978842116111cc576000928388936116046040519c8d96879586946338ed173960e01b86523092600487016111e2565b03925af160009681611653575b5061162357505061100e929350611b3e565b9150919360406113f97f583fda99277fe3416bdf6a25f0b4ec4991ce6c0643ad13f1511eee2cb012c4ab9261110c565b6116699197503d806000833e61141f8183611082565b9538611611565b6116869192503d806000833e61141f8183611082565b9038611593565b506003549561153b565b5090925050565b3360009081527fad3228b676f7d3cd4284a5443f17f1962b36e491b30a40b2405849e597ba5fb5602052604090205460ff16156116d757565b6117986116e333611cb3565b61178060116116f26000611e00565b9260376040519485927f416363657373436f6e74726f6c3a206163636f756e742000000000000000000060208501526117348151809260208688019101611c53565b83017f206973206d697373696e6720726f6c65200000000000000000000000000000008382015261176f825180936020604885019101611c53565b01010301601f198101835282611082565b60405191829162461bcd60e51b835260048301611c76565b0390fd5b80600052600060205260406000206001600160a01b03331660005260205260ff60406000205416156117cb5750565b6117989061178060116116f26117e033611cb3565b93611e00565b80600052600060205260406000206001600160a01b03831660005260205260ff60406000205416611815575050565b80600052600060205260406000206001600160a01b038316600052602052604060002060ff1981541690556001600160a01b03339216907ff6391f5c32d9c69d2a47ea670b442974b53935d1edc7fd64eb21e047a839171b600080a4565b67ffffffffffffffff811161076757601f01601f191660200190565b6001600160a01b036119119116916040926000808551936118b08786611082565b602085527f5361666545524332303a206c6f772d6c6576656c2063616c6c206661696c6564602086015260208151910182855af13d156119b4573d916118f583611873565b9261190287519485611082565b83523d6000602085013e611eb9565b8051908115918215611991575b5050156119285750565b6084905162461bcd60e51b815260206004820152602a60248201527f5361666545524332303a204552433230206f7065726174696f6e20646964206e60448201527f6f742073756363656564000000000000000000000000000000000000000000006064820152fd5b81925090602091810103126101b8576020015180151581036101b857388061191e565b606091611eb9565b9080158015611a91575b15611a27576110fd91604051917f095ea7b300000000000000000000000000000000000000000000000000000000602084015273f45afe28fd5519d5f8c1d4787a4d5f724c0efa4d60248401526044830152604482526110f8606483611082565b608460405162461bcd60e51b815260206004820152603660248201527f5361666545524332303a20617070726f76652066726f6d206e6f6e2d7a65726f60448201527f20746f206e6f6e2d7a65726f20616c6c6f77616e6365000000000000000000006064820152fd5b506040517fdd62ed3e00000000000000000000000000000000000000000000000000000000815230600482015273f45afe28fd5519d5f8c1d4787a4d5f724c0efa4d60248201526020816044816001600160a01b0387165afa908115611b3257600091611b00575b50156119c6565b90506020813d602011611b2a575b81611b1b60209383611082565b810103126101b8575138611af9565b3d9150611b0e565b6040513d6000823e3d90fd5b6001600160a01b031673674843c06ff83502ddb4d37c2e09c01cda38cbc881148015611c36575b8015611c19575b15611b75575090565b73d3bf53dac106a0290b0483ecbc89d40fcc961f3e8103611bc2575080158180046001148117156111cc57620f42408202918204620f42401417156111cc57670de0b6b3a7640000900490565b732f6f07cdcf3588944bf4c42ac74ff24bf56e759014611bdf5790565b6107d08102908082046107d014811517156111cc5763773594000290808204620f424014901517156111cc57670de0b6b3a7640000900490565b5073f1815bd50389c46847f0bda824ec8da914045d148114611b6c565b50737f27352d5f83db87a5a3e00f4b07cc2138d8ee528114611b65565b60005b838110611c665750506000910152565b8181015183820152602001611c56565b60409160208252611c968151809281602086015260208686019101611c53565b601f01601f1916010190565b908151811015610eb7570160200190565b600090611cc0602a611873565b91611cce6040519384611082565b602a8352611cdc602a611873565b6020840190601f1901368237835115611dec5760309053825160011015611dd8576078602184015350602960005b60018211611d5f575050611d1b5790565b606460405162461bcd60e51b815260206004820152602060248201527f537472696e67733a20686578206c656e67746820696e73756666696369656e746044820152fd5b9091600f81166010811015611dc4577f3031323334353637383961626364656600000000000000000000000000000000901a611d9b8486611ca2565b5360041c918015611db0576000190190611d0a565b602482634e487b7160e01b81526011600452fd5b602483634e487b7160e01b81526032600452fd5b80634e487b7160e01b602492526032600452fd5b602482634e487b7160e01b81526032600452fd5b600090611e0d6042611873565b91611e1b6040519384611082565b60428352611e296042611873565b6020840190601f1901368237835115611dec5760309053825160011015611dd8576078602184015350604160005b60018211611e68575050611d1b5790565b9091600f81166010811015611dc4577f3031323334353637383961626364656600000000000000000000000000000000901a611ea48486611ca2565b5360041c918015611db0576000190190611e57565b91929015611f1a5750815115611ecd575090565b3b15611ed65790565b606460405162461bcd60e51b815260206004820152601d60248201527f416464726573733a2063616c6c20746f206e6f6e2d636f6e74726163740000006044820152fd5b825190915015611f2d5750805190602001fd5b6117989060405191829162461bcd60e51b835260048301611c7656fea2646970667358221220a1c0ec47aae27e2e21715ea8d7d3dc3d890471c739bb289244ce9609467cc16b64736f6c634300081c0033405787fa12a823e0f2b7631cc41b3ba8828b3321ca811111fa75cd3aa3bb5acead3228b676f7d3cd4284a5443f17f1962b36e491b30a40b2405849e597ba5fb5",
  "linkReferences": {},
  "deployedLinkReferences": {}
}