{
  "_format": "hh-sol-artifact-1",
  "contractName": "ArbitrageDEXManager",
  "sourceName": "contracts/arbitrage/ArbitrageDEXManager.sol",
  "abi": [
    {
      "inputs": [],
      "stateMutability": "nonpayable",
      "type": "constructor"
    },
    {
      "anonymous": false,
      "inputs": [
        {
          "indexed": true,
          "internalType": "address",
          "name": "dex",
          "type": "address"
        },
        {
          "indexed": false,
          "internalType": "string",
          "name": "name",
          "type": "string"
        },
        {
          "indexed": false,
          "internalType": "bool",
          "name": "active",
          "type": "bool"
        }
      ],
      "name": "DEXUpdated",
      "type": "event"
    },
    {
      "anonymous": false,
      "inputs": [
        {
          "indexed": true,
          "internalType": "bytes32",
          "name": "role",
          "type": "bytes32"
        },
        {
          "indexed": true,
          "internalType": "bytes32",
          "name": "previousAdminRole",
          "type": "bytes32"
        },
        {
          "indexed": true,
          "internalType": "bytes32",
          "name": "newAdminRole",
          "type": "bytes32"
        }
      ],
      "name": "RoleAdminChanged",
      "type": "event"
    },
    {
      "anonymous": false,
      "inputs": [
        {
          "indexed": true,
          "internalType": "bytes32",
          "name": "role",
          "type": "bytes32"
        },
        {
          "indexed": true,
          "internalType": "address",
          "name": "account",
          "type": "address"
        },
        {
          "indexed": true,
          "internalType": "address",
          "name": "sender",
          "type": "address"
        }
      ],
      "name": "RoleGranted",
      "type": "event"
    },
    {
      "anonymous": false,
      "inputs": [
        {
          "indexed": true,
          "internalType": "bytes32",
          "name": "role",
          "type": "bytes32"
        },
        {
          "indexed": true,
          "internalType": "address",
          "name": "account",
          "type": "address"
        },
        {
          "indexed": true,
          "internalType": "address",
          "name": "sender",
          "type": "address"
        }
      ],
      "name": "RoleRevoked",
      "type": "event"
    },
    {
      "inputs": [],
      "name": "DEFAULT_ADMIN_ROLE",
      "outputs": [
        {
          "internalType": "bytes32",
          "name": "",
          "type": "bytes32"
        }
      ],
      "stateMutability": "view",
      "type": "function"
    },
    {
      "inputs": [],
      "name": "INCREMENT_ROUTER",
      "outputs": [
        {
          "internalType": "address",
          "name": "",
          "type": "address"
        }
      ],
      "stateMutability": "view",
      "type": "function"
    },
    {
      "inputs": [],
      "name": "PUNCH_SWAP_V2_ROUTER",
      "outputs": [
        {
          "internalType": "address",
          "name": "",
          "type": "address"
        }
      ],
      "stateMutability": "view",
      "type": "function"
    },
    {
      "inputs": [],
      "name": "QUOTER_V3",
      "outputs": [
        {
          "internalType": "address",
          "name": "",
          "type": "address"
        }
      ],
      "stateMutability": "view",
      "type": "function"
    },
    {
      "inputs": [],
      "name": "STRATEGY_ROLE",
      "outputs": [
        {
          "internalType": "bytes32",
          "name": "",
          "type": "bytes32"
        }
      ],
      "stateMutability": "view",
      "type": "function"
    },
    {
      "inputs": [
        {
          "internalType": "uint256",
          "name": "",
          "type": "uint256"
        }
      ],
      "name": "activeDEXs",
      "outputs": [
        {
          "internalType": "address",
          "name": "",
          "type": "address"
        }
      ],
      "stateMutability": "view",
      "type": "function"
    },
    {
      "inputs": [
        {
          "internalType": "address",
          "name": "router",
          "type": "address"
        },
        {
          "internalType": "string",
          "name": "name",
          "type": "string"
        },
        {
          "internalType": "uint256",
          "name": "gasOverhead",
          "type": "uint256"
        },
        {
          "internalType": "uint256",
          "name": "feeRate",
          "type": "uint256"
        },
        {
          "internalType": "bool",
          "name": "supportsMultihop",
          "type": "bool"
        },
        {
          "internalType": "bool",
          "name": "supportsV3",
          "type": "bool"
        }
      ],
      "name": "addDEX",
      "outputs": [],
      "stateMutability": "nonpayable",
      "type": "function"
    },
    {
      "inputs": [],
      "name": "deadlineBuffer",
      "outputs": [
        {
          "internalType": "uint256",
          "name": "",
          "type": "uint256"
        }
      ],
      "stateMutability": "view",
      "type": "function"
    },
    {
      "inputs": [
        {
          "internalType": "address",
          "name": "",
          "type": "address"
        }
      ],
      "name": "dexInfo",
      "outputs": [
        {
          "internalType": "address",
          "name": "router",
          "type": "address"
        },
        {
          "internalType": "string",
          "name": "name",
          "type": "string"
        },
        {
          "internalType": "bool",
          "name": "active",
          "type": "bool"
        },
        {
          "internalType": "uint256",
          "name": "gasOverhead",
          "type": "uint256"
        },
        {
          "internalType": "uint256",
          "name": "feeRate",
          "type": "uint256"
        },
        {
          "internalType": "bool",
          "name": "supportsMultihop",
          "type": "bool"
        },
        {
          "internalType": "bool",
          "name": "supportsV3",
          "type": "bool"
        }
      ],
      "stateMutability": "view",
      "type": "function"
    },
    {
      "inputs": [],
      "name": "getActiveDEXs",
      "outputs": [
        {
          "internalType": "address[]",
          "name": "",
          "type": "address[]"
        }
      ],
      "stateMutability": "view",
      "type": "function"
    },
    {
      "inputs": [
        {
          "internalType": "address",
          "name": "dex",
          "type": "address"
        }
      ],
      "name": "getDEXInfo",
      "outputs": [
        {
          "components": [
            {
              "internalType": "address",
              "name": "router",
              "type": "address"
            },
            {
              "internalType": "string",
              "name": "name",
              "type": "string"
            },
            {
              "internalType": "bool",
              "name": "active",
              "type": "bool"
            },
            {
              "internalType": "uint256",
              "name": "gasOverhead",
              "type": "uint256"
            },
            {
              "internalType": "uint256",
              "name": "feeRate",
              "type": "uint256"
            },
            {
              "internalType": "bool",
              "name": "supportsMultihop",
              "type": "bool"
            },
            {
              "internalType": "bool",
              "name": "supportsV3",
              "type": "bool"
            }
          ],
          "internalType": "struct ArbitrageTypes.DEXInfo",
          "name": "",
          "type": "tuple"
        }
      ],
      "stateMutability": "view",
      "type": "function"
    },
    {
      "inputs": [
        {
          "internalType": "address",
          "name": "tokenIn",
          "type": "address"
        },
        {
          "internalType": "address",
          "name": "tokenOut",
          "type": "address"
        },
        {
          "internalType": "uint256",
          "name": "amountIn",
          "type": "uint256"
        },
        {
          "internalType": "address",
          "name": "dex",
          "type": "address"
        }
      ],
      "name": "getPrice",
      "outputs": [
        {
          "internalType": "uint256",
          "name": "amountOut",
          "type": "uint256"
        }
      ],
      "stateMutability": "nonpayable",
      "type": "function"
    },
    {
      "inputs": [
        {
          "internalType": "address",
          "name": "tokenIn",
          "type": "address"
        },
        {
          "internalType": "address",
          "name": "tokenOut",
          "type": "address"
        },
        {
          "internalType": "uint256",
          "name": "amountIn",
          "type": "uint256"
        },
        {
          "internalType": "address",
          "name": "dex",
          "type": "address"
        }
      ],
      "name": "getPriceView",
      "outputs": [
        {
          "internalType": "uint256",
          "name": "amountOut",
          "type": "uint256"
        }
      ],
      "stateMutability": "view",
      "type": "function"
    },
    {
      "inputs": [
        {
          "internalType": "bytes32",
          "name": "role",
          "type": "bytes32"
        }
      ],
      "name": "getRoleAdmin",
      "outputs": [
        {
          "internalType": "bytes32",
          "name": "",
          "type": "bytes32"
        }
      ],
      "stateMutability": "view",
      "type": "function"
    },
    {
      "inputs": [
        {
          "internalType": "bytes32",
          "name": "role",
          "type": "bytes32"
        },
        {
          "internalType": "address",
          "name": "account",
          "type": "address"
        }
      ],
      "name": "grantRole",
      "outputs": [],
      "stateMutability": "nonpayable",
      "type": "function"
    },
    {
      "inputs": [
        {
          "internalType": "bytes32",
          "name": "role",
          "type": "bytes32"
        },
        {
          "internalType": "address",
          "name": "account",
          "type": "address"
        }
      ],
      "name": "hasRole",
      "outputs": [
        {
          "internalType": "bool",
          "name": "",
          "type": "bool"
        }
      ],
      "stateMutability": "view",
      "type": "function"
    },
    {
      "inputs": [],
      "name": "incrementRouter",
      "outputs": [
        {
          "internalType": "contract IIncrementRouter",
          "name": "",
          "type": "address"
        }
      ],
      "stateMutability": "view",
      "type": "function"
    },
    {
      "inputs": [],
      "name": "punchRouter",
      "outputs": [
        {
          "internalType": "contract IPunchSwapV2Router02",
          "name": "",
          "type": "address"
        }
      ],
      "stateMutability": "view",
      "type": "function"
    },
    {
      "inputs": [],
      "name": "quoter",
      "outputs": [
        {
          "internalType": "contract IQuoter",
          "name": "",
          "type": "address"
        }
      ],
      "stateMutability": "view",
      "type": "function"
    },
    {
      "inputs": [
        {
          "internalType": "address",
          "name": "router",
          "type": "address"
        }
      ],
      "name": "removeDEX",
      "outputs": [],
      "stateMutability": "nonpayable",
      "type": "function"
    },
    {
      "inputs": [
        {
          "internalType": "bytes32",
          "name": "role",
          "type": "bytes32"
        },
        {
          "internalType": "address",
          "name": "account",
          "type": "address"
        }
      ],
      "name": "renounceRole",
      "outputs": [],
      "stateMutability": "nonpayable",
      "type": "function"
    },
    {
      "inputs": [
        {
          "internalType": "bytes32",
          "name": "role",
          "type": "bytes32"
        },
        {
          "internalType": "address",
          "name": "account",
          "type": "address"
        }
      ],
      "name": "revokeRole",
      "outputs": [],
      "stateMutability": "nonpayable",
      "type": "function"
    },
    {
      "inputs": [
        {
          "internalType": "bytes4",
          "name": "interfaceId",
          "type": "bytes4"
        }
      ],
      "name": "supportsInterface",
      "outputs": [
        {
          "internalType": "bool",
          "name": "",
          "type": "bool"
        }
      ],
      "stateMutability": "view",
      "type": "function"
    },
    {
      "inputs": [
        {
          "internalType": "address",
          "name": "tokenIn",
          "type": "address"
        },
        {
          "internalType": "address",
          "name": "tokenOut",
          "type": "address"
        },
        {
          "internalType": "uint256",
          "name": "amountIn",
          "type": "uint256"
        }
      ],
      "name": "swapOnIncrement",
      "outputs": [
        {
          "internalType": "bool",
          "name": "success",
          "type": "bool"
        }
      ],
      "stateMutability": "nonpayable",
      "type": "function"
    },
    {
      "inputs": [
        {
          "internalType": "address",
          "name": "tokenIn",
          "type": "address"
        },
        {
          "internalType": "address",
          "name": "tokenOut",
          "type": "address"
        },
        {
          "internalType": "uint256",
          "name": "amountIn",
          "type": "uint256"
        }
      ],
      "name": "swapOnPunchSwap",
      "outputs": [
        {
          "internalType": "bool",
          "name": "success",
          "type": "bool"
        }
      ],
      "stateMutability": "nonpayable",
      "type": "function"
    }
  ],
  "bytecode": "0x60e0604052346106545761012c60035573f45afe28fd5519d5f8c1d4787a4d5f724c0efa4d608052732f6f07cdcf3588944bf4c42ac74ff24bf56e759060a052733ef68d3f7664b2805d4e88381b64868a56f88bc460c0523360009081526000805160206126bd833981519152602052604090205460ff1615610602575b610085610659565b73f45afe28fd5519d5f8c1d4787a4d5f724c0efa4d81526100a66040610678565b600c81526b283ab731b429bbb0b8102b1960a11b60208201526020820190815260408201916001835260608101620249f08152608082019061012c825260a08301946001865260c08401946000865273f45afe28fd5519d5f8c1d4787a4d5f724c0efa4d600052600160205260406000209460018060a01b0390511660018060a01b031986541617855560018501905180519060018060401b038211610459578254600181811c911680156105f8575b602082101461053657601f81116105b0575b50602090601f83116001146105565792826101bd9360059896936101e09a989660009261046f575b50508160011b916000199060031b1c19161790555b511515600285019060ff801983541691151516179055565b5160038301555160048201550192511515839060ff801983541691151516179055565b51815461ff00191690151560081b61ff00161790556002546801000000000000000081101561045957600181018060025581101561044357600260005260008051602061269d8339815191520180546001600160a01b03191673f45afe28fd5519d5f8c1d4787a4d5f724c0efa4d179055610259610659565b732f6f07cdcf3588944bf4c42ac74ff24bf56e7590815261027a6040610678565b6009815268125b98dc995b595b9d60ba1b602082015260208201908152604082019160018352606081016202bf20815260808201906101f4825260a08301946001865260c084019460018652732f6f07cdcf3588944bf4c42ac74ff24bf56e7590600052600160205260406000209460018060a01b0390511660018060a01b031986541617855560018501905180519060018060401b038211610459578254600181811c9116801561054c575b602082101461053657601f81116104ee575b50602090601f831160011461047a5792826101bd93600598969361038c9a989660009261046f5750508160011b916000199060031b1c1916179055511515600285019060ff801983541691151516179055565b51815461ff00191690151560081b61ff00161790556002546801000000000000000081101561045957600181018060025581101561044357600260005260008051602061269d8339815191520180546001600160a01b031916732f6f07cdcf3588944bf4c42ac74ff24bf56e7590179055604051611fff908161069e823960805181818161066501528181610d9c015261177c015260a051818181610d580152611a4e015260c05181818161076601526108fe0152f35b634e487b7160e01b600052603260045260246000fd5b634e487b7160e01b600052604160045260246000fd5b015190503880610190565b90601f1983169184600052816000209260005b8181106104d6575093600598969361038c9a989693600193836101bd98106104bd575b505050811b0190556101a5565b015160001960f88460031b161c191690553880806104b0565b9293602060018192878601518155019501930161048d565b836000526020600020601f840160051c8101916020851061052c575b601f0160051c01905b8181106105205750610339565b60008155600101610513565b909150819061050a565b634e487b7160e01b600052602260045260246000fd5b90607f1690610327565b90601f1983169184600052816000209260005b81811061059857509360059896936101e09a989693600193836101bd98106104bd57505050811b0190556101a5565b92936020600181928786015181550195019301610569565b836000526020600020601f840160051c810191602085106105ee575b601f0160051c01905b8181106105e25750610168565b600081556001016105d5565b90915081906105cc565b90607f1690610156565b3360008181526000805160206126bd83398151915260205260408120805460ff1916600117905581907f2f8788117e7eff1d82e926ec794901d17c78024a50270940304540a733656f0d8180a461007d565b600080fd5b6040519060e082016001600160401b0381118382101761045957604052565b6040519190601f01601f191682016001600160401b038111838210176104595760405256fe608080604052600436101561001357600080fd5b60003560e01c90816301ffc9a714611191575080630270a77614611150578063161efb6214611012578063248a9ca314610fe55780632f2ff15d14610f1e57806336568abe14610e7f57806336d513a114610e195780633a9517c814610dfb578063580b7c2e14610dc057806361d5ff7b14610d7c5780636446488114610d3857806365a4693314610ca057806369c0e07514610c715780637540f84314610c015780637dc3866414610bd2578063824b92c714610ba35780638c8f3f82146109e6578063908c621d1461098c57806391d148541461093e578063a217fddf14610922578063c6bbd5a7146108de578063d547741f14610897578063dd938fa2146107df578063e013de4c1461059f5763f5c050491461013257600080fd5b3461059a5760c036600319011261059a5761014b611260565b60243567ffffffffffffffff811161059a573660238201121561059a5767ffffffffffffffff81600401351161059a5736602482600401358301011161059a576084359182151580930361059a5760a4359283151580940361059a576101af611b3d565b6001600160a01b03821615610556576001600160a01b038216600052600160205260ff6002604060002001541661051257604051936101ed85611456565b6001600160a01b03831685526102068460040135611b21565b946102146040519687611488565b600485013580875260009690602487016020830137866020876004013583010152602082019081526040820160018152606083019060443582526080840192606435845260a0850196875260c085019586526001600160a01b0388168a5260016020526001600160a01b0360408b209551167fffffffffffffffffffffffff00000000000000000000000000000000000000008654161785555180519067ffffffffffffffff82116104fe576102cd6001870154611399565b601f81116104b6575b506020908b601f841160011461044057928061032d9360059896936103509a989692610435575b50508160011b916000199060031b1c19161760018601555b511515600285019060ff801983541691151516179055565b5160038301555160048201550192511515839060ff801983541691151516179055565b51815461ff00191690151560081b61ff001617905560025468010000000000000000811015610421576060826103d87fd00e31c0eadfc1336e041920c8c59875d73215cf56ec46205f8e1585a5dd39b1946103b98560016001600160a01b03970160025561122f565b9091906001600160a01b038084549260031b9316831b921b1916179055565b604051928391604083528660040135604084015286600401356024880185850137600490960135828101840188905260016020840152951694601f01601f19168101030190a280f35b602484634e487b7160e01b81526041600452fd5b0151905038806102fd565b50600187018c52818c209190601f1984168d5b81811061049e57509361032d936005989693600193836103509c9a9810610485575b505050811b016001860155610315565b015160001960f88460031b161c19169055388080610475565b92936020600181928786015181550195019301610453565b600187018c5260208c20601f840160051c810191602085106104f4575b601f0160051c01905b8181106104e957506102d6565b8c81556001016104dc565b90915081906104d3565b60248b634e487b7160e01b81526041600452fd5b606460405162461bcd60e51b815260206004820152601160248201527f44455820616c72656164792061646465640000000000000000000000000000006044820152fd5b606460405162461bcd60e51b815260206004820152600e60248201527f496e76616c696420726f757465720000000000000000000000000000000000006044820152fd5b600080fd5b3461059a576105ad3661134b565b6001600160a01b03169291600073f45afe28fd5519d5f8c1d4787a4d5f724c0efa4d85036106d9575061065993509060009291604051926105ef606085611488565b6002845260403660208601376001600160a01b0361060c856114f5565b911690526001600160a01b0361062184611502565b9116905260405193849283927fd06ca61f00000000000000000000000000000000000000000000000000000000845260048401611b07565b03816001600160a01b037f0000000000000000000000000000000000000000000000000000000000000000165afa600091816106b4575b506106a35750602060005b604051908152f35b6106ae602091611502565b5161069b565b6106d29192503d806000833e6106ca8183611488565b81019061151f565b9082610690565b9293732f6f07cdcf3588944bf4c42ac74ff24bf56e759014610701575b50506020915061069b565b6001600160a01b0380929350604051947ff7729d430000000000000000000000000000000000000000000000000000000086521660048501521660248301526101f4604483015260648201526000608482015260208160a48160006001600160a01b037f0000000000000000000000000000000000000000000000000000000000000000165af1600091816107ab575b506107a35750602060005b82806106f6565b60209061079c565b9091506020813d6020116107d7575b816107c760209383611488565b8101031261059a57519082610791565b3d91506107ba565b3461059a57602036600319011261059a576001600160a01b03610800611260565b16600052600160205260406000206001600160a01b03815416604051916108358361082e81600185016113d3565b0384611488565b60ff8060028301541691600381015490600560048201549101549161086c604051978897885260e0602089015260e08801906112af565b941515604087015260608601526080850152818116151560a085015260081c16151560c08301520390f35b3461059a57604036600319011261059a576108dc6004356108b6611276565b906108d76108d282600052600060205260016040600020015490565b611c43565b611c8d565b005b3461059a57600036600319011261059a5760206040516001600160a01b037f0000000000000000000000000000000000000000000000000000000000000000168152f35b3461059a57600036600319011261059a57602060405160008152f35b3461059a57604036600319011261059a57610957611276565b60043560005260006020526001600160a01b0360406000209116600052602052602060ff604060002054166040519015158152f35b3461059a5773f45afe28fd5519d5f8c1d4787a4d5f724c0efa4d6001600160a01b036109b73661134b565b929490939192909116036109dc579160009161065993604051926105ef606085611488565b506020915061069b565b3461059a57602036600319011261059a576001600160a01b03610a07611260565b610a0f611b3d565b1680600052600160205260ff6002604060002001541615610b5f576000818152600160205260408120600201805460ff191690555b6002549081811015610b5857826001600160a01b03610a628361122f565b90549060031b1c1614610a79576001915001610a44565b6000198201918211610b42576103b96001600160a01b03610a9c610aaa9461122f565b90549060031b1c169161122f565b6002548015610b2c5760001901610ac08161122f565b6001600160a01b0382549160031b1b191690556002555b8060005260016020527fd00e31c0eadfc1336e041920c8c59875d73215cf56ec46205f8e1585a5dd39b1610b2060016040600020016040519182916040835260408301906113d3565b600060208301520390a2005b634e487b7160e01b600052603160045260246000fd5b634e487b7160e01b600052601160045260246000fd5b5050610ad7565b606460405162461bcd60e51b815260206004820152600e60248201527f444558206e6f74206163746976650000000000000000000000000000000000006044820152fd5b3461059a57600036600319011261059a57602060405173f45afe28fd5519d5f8c1d4787a4d5f724c0efa4d8152f35b3461059a57600036600319011261059a576020604051733ef68d3f7664b2805d4e88381b64868a56f88bc48152f35b3461059a576020610c67610c14366112d4565b917f928286c473ded01ff8bf61a1986f14a0579066072fa8261442d9fea514d93a4c6000526000855260406000206001600160a01b0333166000528552610c6260ff604060002054166114aa565b611917565b6040519015158152f35b3461059a57600036600319011261059a576020604051732f6f07cdcf3588944bf4c42ac74ff24bf56e75908152f35b3461059a57600036600319011261059a5760405180602060025491828152019060026000527f405787fa12a823e0f2b7631cc41b3ba8828b3321ca811111fa75cd3aa3bb5ace9060005b818110610d1957610d1585610d0181870382611488565b60405191829160208352602083019061130e565b0390f35b82546001600160a01b0316845260209093019260019283019201610cea565b3461059a57600036600319011261059a5760206040516001600160a01b037f0000000000000000000000000000000000000000000000000000000000000000168152f35b3461059a57600036600319011261059a5760206040516001600160a01b037f0000000000000000000000000000000000000000000000000000000000000000168152f35b3461059a57600036600319011261059a5760206040517f928286c473ded01ff8bf61a1986f14a0579066072fa8261442d9fea514d93a4c8152f35b3461059a57600036600319011261059a576020600354604051908152f35b3461059a576020610c67610e2c366112d4565b917f928286c473ded01ff8bf61a1986f14a0579066072fa8261442d9fea514d93a4c6000526000855260406000206001600160a01b0333166000528552610e7a60ff604060002054166114aa565b6115a5565b3461059a57604036600319011261059a57610e98611276565b336001600160a01b03821603610eb4576108dc90600435611c8d565b608460405162461bcd60e51b815260206004820152602f60248201527f416363657373436f6e74726f6c3a2063616e206f6e6c792072656e6f756e636560448201527f20726f6c657320666f722073656c6600000000000000000000000000000000006064820152fd5b3461059a57604036600319011261059a57600435610f3a611276565b90610f566108d282600052600060205260016040600020015490565b80600052600060205260406000206001600160a01b03831660005260205260ff6040600020541615610f8457005b80600052600060205260406000206001600160a01b0383166000526020526040600020600160ff198254161790556001600160a01b03339216907f2f8788117e7eff1d82e926ec794901d17c78024a50270940304540a733656f0d600080a4005b3461059a57602036600319011261059a57602061069b600435600052600060205260016040600020015490565b3461059a57602036600319011261059a576001600160a01b03611033611260565b600060c060405161104381611456565b828152606060208201528260408201528260608201528260808201528260a082015201521660005260016020526001600160a01b0360406000206040519061108a82611456565b828154168252604051906110ac826110a581600185016113d3565b0383611488565b6020830191825260ff600282015416916040840192151583526003820154916060850192835260056004820154916080870192835201549261112760a087019360ff86161515855260ff60c089019660081c161515865260405198899860208a52511660208901525160e060408901526101008801906112af565b9451151560608701525160808601525160a085015251151560c084015251151560e08301520390f35b3461059a57602036600319011261059a5760043560025481101561059a576001600160a01b0361118160209261122f565b90549060031b1c16604051908152f35b3461059a57602036600319011261059a57600435907fffffffff00000000000000000000000000000000000000000000000000000000821680920361059a57817f7965db0b0000000000000000000000000000000000000000000000000000000060209314908115611205575b5015158152f35b7f01ffc9a700000000000000000000000000000000000000000000000000000000915014836111fe565b60025481101561124a57600260005260206000200190600090565b634e487b7160e01b600052603260045260246000fd5b600435906001600160a01b038216820361059a57565b602435906001600160a01b038216820361059a57565b60005b83811061129f5750506000910152565b818101518382015260200161128f565b906020916112c88151809281855285808601910161128c565b601f01601f1916010190565b606090600319011261059a576004356001600160a01b038116810361059a57906024356001600160a01b038116810361059a579060443590565b906020808351928381520192019060005b81811061132c5750505090565b82516001600160a01b031684526020938401939092019160010161131f565b608090600319011261059a576004356001600160a01b038116810361059a57906024356001600160a01b038116810361059a5790604435906064356001600160a01b038116810361059a5790565b90600182811c921680156113c9575b60208310146113b357565b634e487b7160e01b600052602260045260246000fd5b91607f16916113a8565b600092918154916113e383611399565b808352926001811690811561143957506001146113ff57505050565b60009081526020812093945091925b83831061141f575060209250010190565b60018160209294939454838587010152019101919061140e565b915050602093945060ff929192191683830152151560051b010190565b60e0810190811067ffffffffffffffff82111761147257604052565b634e487b7160e01b600052604160045260246000fd5b90601f8019910116810190811067ffffffffffffffff82111761147257604052565b156114b157565b606460405162461bcd60e51b815260206004820152601660248201527f4f6e6c792073747261746567792063616e2063616c6c000000000000000000006044820152fd5b80511561124a5760200190565b80516001101561124a5760400190565b91908201809211610b4257565b60208183031261059a5780519067ffffffffffffffff821161059a57019080601f8301121561059a5781519167ffffffffffffffff8311611472578260051b9060208201936115716040519586611488565b845260208085019282010192831161059a57602001905b8282106115955750505090565b8151815260209182019101611588565b919091811561190f576001600160a01b0316916000604051636eb1769f60e11b815230600482015273f45afe28fd5519d5f8c1d4787a4d5f724c0efa4d6024820152602081604481885afa9182156119035780926118cb575b505061186157604051906116bb602083019263095ea7b360e01b845273f45afe28fd5519d5f8c1d4787a4d5f724c0efa4d602482015284604482015260448152611649606482611488565b60008060409586519361165c8886611488565b602085527f5361666545524332303a206c6f772d6c6576656c2063616c6c206661696c656460208601525190828a5af13d15611859573d9061169d82611b21565b916116aa87519384611488565b82523d6000602084013e5b87611f31565b8051908115918215611836575b5050156117cd579161176393916000938151936116e6606086611488565b6002855260403660208701376116fb856114f5565b526001600160a01b0361170d85611502565b9116905261171d60035442611512565b905194859384937f38ed1739000000000000000000000000000000000000000000000000000000008552600485015285602485015260a0604485015260a484019061130e565b9033606484015260848301520381836001600160a01b037f0000000000000000000000000000000000000000000000000000000000000000165af190816117b4575b506117af57600090565b600190565b6117c8903d806000833e6106ca8183611488565b6117a5565b6084825162461bcd60e51b815260206004820152602a60248201527f5361666545524332303a204552433230206f7065726174696f6e20646964206e60448201527f6f742073756363656564000000000000000000000000000000000000000000006064820152fd5b819250906020918101031261059a5760200151801515810361059a5738806116c8565b6060906116b5565b608460405162461bcd60e51b815260206004820152603660248201527f5361666545524332303a20617070726f76652066726f6d206e6f6e2d7a65726f60448201527f20746f206e6f6e2d7a65726f20616c6c6f77616e6365000000000000000000006064820152fd5b9091506020823d6020116118fb575b816118e760209383611488565b810103126118f857505138806115fe565b80fd5b3d91506118da565b604051903d90823e3d90fd5b505050600090565b919091811561190f576001600160a01b0316916000604051636eb1769f60e11b8152306004820152732f6f07cdcf3588944bf4c42ac74ff24bf56e75906024820152602081604481885afa918215611903578092611ad2575b505061186157604051906119bb602083019263095ea7b360e01b8452732f6f07cdcf3588944bf4c42ac74ff24bf56e7590602482015284604482015260448152611649606482611488565b8051908115918215611aaf575b5050156117cd576001600160a01b03906119e460035442611512565b9251947f41060ae000000000000000000000000000000000000000000000000000000000865260048601521660248401526101f46044840152336064840152608483015260a4820152600060c4820152600060e48201526020816101048160006001600160a01b037f0000000000000000000000000000000000000000000000000000000000000000165af19081611a8057506117af57600090565b6020813d602011611aa7575b81611a9960209383611488565b8101031261059a57516117a5565b3d9150611a8c565b819250906020918101031261059a5760200151801515810361059a5738806119c8565b9091506020823d602011611aff575b81611aee60209383611488565b810103126118f85750513880611970565b3d9150611ae1565b604090611b1e93928152816020820152019061130e565b90565b67ffffffffffffffff811161147257601f01601f191660200190565b3360009081527fad3228b676f7d3cd4284a5443f17f1962b36e491b30a40b2405849e597ba5fb5602052604090205460ff1615611b7657565b611c3f611b8233611d2b565b611c1f6011611b916000611e78565b9260376040519485927f416363657373436f6e74726f6c3a206163636f756e74200000000000000000006020850152611bd3815180926020868801910161128c565b83017f206973206d697373696e6720726f6c652000000000000000000000000000000083820152611c0e82518093602060488501910161128c565b01010301601f198101835282611488565b60405191829162461bcd60e51b83526020600484015260248301906112af565b0390fd5b80600052600060205260406000206001600160a01b03331660005260205260ff6040600020541615611c725750565b611c3f90611c1f6011611b91611c8733611d2b565b93611e78565b80600052600060205260406000206001600160a01b03831660005260205260ff60406000205416611cbc575050565b80600052600060205260406000206001600160a01b038316600052602052604060002060ff1981541690556001600160a01b03339216907ff6391f5c32d9c69d2a47ea670b442974b53935d1edc7fd64eb21e047a839171b600080a4565b90815181101561124a570160200190565b600090611d38602a611b21565b91611d466040519384611488565b602a8352611d54602a611b21565b6020840190601f1901368237835115611e645760309053825160011015611e50576078602184015350602960005b60018211611dd7575050611d935790565b606460405162461bcd60e51b815260206004820152602060248201527f537472696e67733a20686578206c656e67746820696e73756666696369656e746044820152fd5b9091600f81166010811015611e3c577f3031323334353637383961626364656600000000000000000000000000000000901a611e138486611d1a565b5360041c918015611e28576000190190611d82565b602482634e487b7160e01b81526011600452fd5b602483634e487b7160e01b81526032600452fd5b80634e487b7160e01b602492526032600452fd5b602482634e487b7160e01b81526032600452fd5b600090611e856042611b21565b91611e936040519384611488565b60428352611ea16042611b21565b6020840190601f1901368237835115611e645760309053825160011015611e50576078602184015350604160005b60018211611ee0575050611d935790565b9091600f81166010811015611e3c577f3031323334353637383961626364656600000000000000000000000000000000901a611f1c8486611d1a565b5360041c918015611e28576000190190611ecf565b91929015611f925750815115611f45575090565b3b15611f4e5790565b606460405162461bcd60e51b815260206004820152601d60248201527f416464726573733a2063616c6c20746f206e6f6e2d636f6e74726163740000006044820152fd5b825190915015611fa55750805190602001fd5b611c3f9060405191829162461bcd60e51b83526020600484015260248301906112af56fea2646970667358221220f26d248dbf6bff4d3e00d771c9cf001e79e213f7515c286b7f3e3e956f62455964736f6c634300081c0033405787fa12a823e0f2b7631cc41b3ba8828b3321ca811111fa75cd3aa3bb5acead3228b676f7d3cd4284a5443f17f1962b36e491b30a40b2405849e597ba5fb5",
  "linkReferences": {},
  "deployedLinkReferences": {}
}