{
  "_format": "hh-sol-artifact-1",
  "contractName": "FlowVRFLotterySystem",
  "sourceName": "contracts/lottery/FlowVRFLotterySystem.sol",
  "abi": [
    {
      "inputs": [
        {
          "internalType": "address",
          "name": "_prizeToken",
          "type": "address"
        },
        {
          "internalType": "address",
          "name": "_vault",
          "type": "address"
        }
      ],
      "stateMutability": "nonpayable",
      "type": "constructor"
    },
    {
      "anonymous": false,
      "inputs": [
        {
          "indexed": false,
          "internalType": "bool",
          "name": "enabled",
          "type": "bool"
        }
      ],
      "name": "EmergencyModeToggled",
      "type": "event"
    },
    {
      "anonymous": false,
      "inputs": [
        {
          "indexed": false,
          "internalType": "uint256",
          "name": "minParticipants",
          "type": "uint256"
        },
        {
          "indexed": false,
          "internalType": "uint256",
          "name": "maxParticipants",
          "type": "uint256"
        },
        {
          "indexed": false,
          "internalType": "uint256",
          "name": "roundDuration",
          "type": "uint256"
        }
      ],
      "name": "LotteryConfigUpdated",
      "type": "event"
    },
    {
      "anonymous": false,
      "inputs": [
        {
          "indexed": true,
          "internalType": "uint256",
          "name": "roundId",
          "type": "uint256"
        },
        {
          "indexed": false,
          "internalType": "bytes32",
          "name": "vrfSeed",
          "type": "bytes32"
        },
        {
          "indexed": false,
          "internalType": "uint256",
          "name": "vrfRandomness",
          "type": "uint256"
        },
        {
          "indexed": false,
          "internalType": "address[]",
          "name": "winners",
          "type": "address[]"
        },
        {
          "indexed": false,
          "internalType": "uint256[]",
          "name": "prizes",
          "type": "uint256[]"
        }
      ],
      "name": "LotteryDrawExecuted",
      "type": "event"
    },
    {
      "anonymous": false,
      "inputs": [
        {
          "indexed": true,
          "internalType": "uint256",
          "name": "roundId",
          "type": "uint256"
        },
        {
          "indexed": false,
          "internalType": "uint256",
          "name": "totalParticipants",
          "type": "uint256"
        },
        {
          "indexed": false,
          "internalType": "uint256",
          "name": "totalPrizeDistributed",
          "type": "uint256"
        }
      ],
      "name": "LotteryRoundFinalized",
      "type": "event"
    },
    {
      "anonymous": false,
      "inputs": [
        {
          "indexed": true,
          "internalType": "uint256",
          "name": "roundId",
          "type": "uint256"
        },
        {
          "indexed": false,
          "internalType": "uint256",
          "name": "startTime",
          "type": "uint256"
        },
        {
          "indexed": false,
          "internalType": "uint256",
          "name": "endTime",
          "type": "uint256"
        },
        {
          "indexed": false,
          "internalType": "uint256",
          "name": "prizePool",
          "type": "uint256"
        }
      ],
      "name": "LotteryRoundStarted",
      "type": "event"
    },
    {
      "anonymous": false,
      "inputs": [
        {
          "indexed": true,
          "internalType": "uint256",
          "name": "roundId",
          "type": "uint256"
        },
        {
          "indexed": true,
          "internalType": "address",
          "name": "participant",
          "type": "address"
        },
        {
          "indexed": false,
          "internalType": "uint256",
          "name": "weight",
          "type": "uint256"
        },
        {
          "indexed": false,
          "internalType": "uint256",
          "name": "totalParticipants",
          "type": "uint256"
        }
      ],
      "name": "ParticipantAdded",
      "type": "event"
    },
    {
      "anonymous": false,
      "inputs": [
        {
          "indexed": true,
          "internalType": "address",
          "name": "participant",
          "type": "address"
        }
      ],
      "name": "ParticipantRegistered",
      "type": "event"
    },
    {
      "anonymous": false,
      "inputs": [
        {
          "indexed": true,
          "internalType": "uint256",
          "name": "roundId",
          "type": "uint256"
        },
        {
          "indexed": true,
          "internalType": "address",
          "name": "winner",
          "type": "address"
        },
        {
          "indexed": false,
          "internalType": "uint256",
          "name": "prize",
          "type": "uint256"
        },
        {
          "indexed": false,
          "internalType": "uint256",
          "name": "winnerIndex",
          "type": "uint256"
        }
      ],
      "name": "PrizeDistributed",
      "type": "event"
    },
    {
      "anonymous": false,
      "inputs": [
        {
          "indexed": true,
          "internalType": "bytes32",
          "name": "role",
          "type": "bytes32"
        },
        {
          "indexed": true,
          "internalType": "bytes32",
          "name": "previousAdminRole",
          "type": "bytes32"
        },
        {
          "indexed": true,
          "internalType": "bytes32",
          "name": "newAdminRole",
          "type": "bytes32"
        }
      ],
      "name": "RoleAdminChanged",
      "type": "event"
    },
    {
      "anonymous": false,
      "inputs": [
        {
          "indexed": true,
          "internalType": "bytes32",
          "name": "role",
          "type": "bytes32"
        },
        {
          "indexed": true,
          "internalType": "address",
          "name": "account",
          "type": "address"
        },
        {
          "indexed": true,
          "internalType": "address",
          "name": "sender",
          "type": "address"
        }
      ],
      "name": "RoleGranted",
      "type": "event"
    },
    {
      "anonymous": false,
      "inputs": [
        {
          "indexed": true,
          "internalType": "bytes32",
          "name": "role",
          "type": "bytes32"
        },
        {
          "indexed": true,
          "internalType": "address",
          "name": "account",
          "type": "address"
        },
        {
          "indexed": true,
          "internalType": "address",
          "name": "sender",
          "type": "address"
        }
      ],
      "name": "RoleRevoked",
      "type": "event"
    },
    {
      "inputs": [],
      "name": "AGENT_ROLE",
      "outputs": [
        {
          "internalType": "bytes32",
          "name": "",
          "type": "bytes32"
        }
      ],
      "stateMutability": "view",
      "type": "function"
    },
    {
      "inputs": [],
      "name": "CADENCE_ARCH_VRF",
      "outputs": [
        {
          "internalType": "address",
          "name": "",
          "type": "address"
        }
      ],
      "stateMutability": "view",
      "type": "function"
    },
    {
      "inputs": [],
      "name": "DEFAULT_ADMIN_ROLE",
      "outputs": [
        {
          "internalType": "bytes32",
          "name": "",
          "type": "bytes32"
        }
      ],
      "stateMutability": "view",
      "type": "function"
    },
    {
      "inputs": [],
      "name": "LOTTERY_MANAGER_ROLE",
      "outputs": [
        {
          "internalType": "bytes32",
          "name": "",
          "type": "bytes32"
        }
      ],
      "stateMutability": "view",
      "type": "function"
    },
    {
      "inputs": [],
      "name": "TOTAL_DISTRIBUTION",
      "outputs": [
        {
          "internalType": "uint256",
          "name": "",
          "type": "uint256"
        }
      ],
      "stateMutability": "view",
      "type": "function"
    },
    {
      "inputs": [],
      "name": "VAULT_ROLE",
      "outputs": [
        {
          "internalType": "bytes32",
          "name": "",
          "type": "bytes32"
        }
      ],
      "stateMutability": "view",
      "type": "function"
    },
    {
      "inputs": [
        {
          "internalType": "address",
          "name": "participant",
          "type": "address"
        },
        {
          "internalType": "uint256",
          "name": "weight",
          "type": "uint256"
        }
      ],
      "name": "addParticipant",
      "outputs": [],
      "stateMutability": "nonpayable",
      "type": "function"
    },
    {
      "inputs": [
        {
          "internalType": "uint256",
          "name": "",
          "type": "uint256"
        }
      ],
      "name": "allParticipants",
      "outputs": [
        {
          "internalType": "address",
          "name": "",
          "type": "address"
        }
      ],
      "stateMutability": "view",
      "type": "function"
    },
    {
      "inputs": [],
      "name": "cadenceVRF",
      "outputs": [
        {
          "internalType": "contract ICadenceArchVRF",
          "name": "",
          "type": "address"
        }
      ],
      "stateMutability": "view",
      "type": "function"
    },
    {
      "inputs": [],
      "name": "currentRoundId",
      "outputs": [
        {
          "internalType": "uint256",
          "name": "",
          "type": "uint256"
        }
      ],
      "stateMutability": "view",
      "type": "function"
    },
    {
      "inputs": [
        {
          "internalType": "uint256",
          "name": "roundId",
          "type": "uint256"
        }
      ],
      "name": "emergencyFinalizeLottery",
      "outputs": [],
      "stateMutability": "nonpayable",
      "type": "function"
    },
    {
      "inputs": [],
      "name": "emergencyMode",
      "outputs": [
        {
          "internalType": "bool",
          "name": "",
          "type": "bool"
        }
      ],
      "stateMutability": "view",
      "type": "function"
    },
    {
      "inputs": [
        {
          "internalType": "uint256",
          "name": "amount",
          "type": "uint256"
        }
      ],
      "name": "emergencyWithdrawPrizes",
      "outputs": [],
      "stateMutability": "nonpayable",
      "type": "function"
    },
    {
      "inputs": [
        {
          "internalType": "uint256",
          "name": "roundId",
          "type": "uint256"
        }
      ],
      "name": "executeLotteryDraw",
      "outputs": [],
      "stateMutability": "nonpayable",
      "type": "function"
    },
    {
      "inputs": [],
      "name": "getAllParticipants",
      "outputs": [
        {
          "internalType": "address[]",
          "name": "",
          "type": "address[]"
        }
      ],
      "stateMutability": "view",
      "type": "function"
    },
    {
      "inputs": [],
      "name": "getCurrentRound",
      "outputs": [
        {
          "internalType": "uint256",
          "name": "roundId",
          "type": "uint256"
        },
        {
          "internalType": "uint256",
          "name": "startTime",
          "type": "uint256"
        },
        {
          "internalType": "uint256",
          "name": "endTime",
          "type": "uint256"
        },
        {
          "internalType": "uint256",
          "name": "prizePool",
          "type": "uint256"
        },
        {
          "internalType": "uint256",
          "name": "winnersCount",
          "type": "uint256"
        },
        {
          "internalType": "uint256",
          "name": "totalParticipants",
          "type": "uint256"
        },
        {
          "internalType": "bool",
          "name": "isActive",
          "type": "bool"
        },
        {
          "internalType": "bool",
          "name": "isFinalized",
          "type": "bool"
        }
      ],
      "stateMutability": "view",
      "type": "function"
    },
    {
      "inputs": [
        {
          "internalType": "address",
          "name": "participant",
          "type": "address"
        }
      ],
      "name": "getParticipantInfo",
      "outputs": [
        {
          "internalType": "uint256[]",
          "name": "participatingRounds",
          "type": "uint256[]"
        },
        {
          "internalType": "uint256",
          "name": "totalPrizesWon",
          "type": "uint256"
        },
        {
          "internalType": "uint256",
          "name": "lastParticipationTime",
          "type": "uint256"
        },
        {
          "internalType": "uint256",
          "name": "winCount",
          "type": "uint256"
        },
        {
          "internalType": "bool",
          "name": "isEligible",
          "type": "bool"
        }
      ],
      "stateMutability": "view",
      "type": "function"
    },
    {
      "inputs": [
        {
          "internalType": "uint256",
          "name": "roundId",
          "type": "uint256"
        },
        {
          "internalType": "address",
          "name": "participant",
          "type": "address"
        }
      ],
      "name": "getParticipantWeight",
      "outputs": [
        {
          "internalType": "uint256",
          "name": "",
          "type": "uint256"
        }
      ],
      "stateMutability": "view",
      "type": "function"
    },
    {
      "inputs": [
        {
          "internalType": "bytes32",
          "name": "role",
          "type": "bytes32"
        }
      ],
      "name": "getRoleAdmin",
      "outputs": [
        {
          "internalType": "bytes32",
          "name": "",
          "type": "bytes32"
        }
      ],
      "stateMutability": "view",
      "type": "function"
    },
    {
      "inputs": [
        {
          "internalType": "uint256",
          "name": "roundId",
          "type": "uint256"
        }
      ],
      "name": "getRoundParticipants",
      "outputs": [
        {
          "internalType": "address[]",
          "name": "",
          "type": "address[]"
        }
      ],
      "stateMutability": "view",
      "type": "function"
    },
    {
      "inputs": [
        {
          "internalType": "uint256",
          "name": "roundId",
          "type": "uint256"
        }
      ],
      "name": "getRoundWinners",
      "outputs": [
        {
          "internalType": "address[]",
          "name": "winners",
          "type": "address[]"
        },
        {
          "internalType": "uint256[]",
          "name": "prizes",
          "type": "uint256[]"
        }
      ],
      "stateMutability": "view",
      "type": "function"
    },
    {
      "inputs": [],
      "name": "getTotalRounds",
      "outputs": [
        {
          "internalType": "uint256",
          "name": "",
          "type": "uint256"
        }
      ],
      "stateMutability": "view",
      "type": "function"
    },
    {
      "inputs": [
        {
          "internalType": "bytes32",
          "name": "role",
          "type": "bytes32"
        },
        {
          "internalType": "address",
          "name": "account",
          "type": "address"
        }
      ],
      "name": "grantRole",
      "outputs": [],
      "stateMutability": "nonpayable",
      "type": "function"
    },
    {
      "inputs": [
        {
          "internalType": "uint256",
          "name": "roundId",
          "type": "uint256"
        },
        {
          "internalType": "address",
          "name": "participant",
          "type": "address"
        }
      ],
      "name": "hasParticipated",
      "outputs": [
        {
          "internalType": "bool",
          "name": "",
          "type": "bool"
        }
      ],
      "stateMutability": "view",
      "type": "function"
    },
    {
      "inputs": [
        {
          "internalType": "bytes32",
          "name": "role",
          "type": "bytes32"
        },
        {
          "internalType": "address",
          "name": "account",
          "type": "address"
        }
      ],
      "name": "hasRole",
      "outputs": [
        {
          "internalType": "bool",
          "name": "",
          "type": "bool"
        }
      ],
      "stateMutability": "view",
      "type": "function"
    },
    {
      "inputs": [
        {
          "internalType": "address",
          "name": "",
          "type": "address"
        }
      ],
      "name": "isRegisteredParticipant",
      "outputs": [
        {
          "internalType": "bool",
          "name": "",
          "type": "bool"
        }
      ],
      "stateMutability": "view",
      "type": "function"
    },
    {
      "inputs": [
        {
          "internalType": "uint256",
          "name": "roundId",
          "type": "uint256"
        }
      ],
      "name": "isRoundActive",
      "outputs": [
        {
          "internalType": "bool",
          "name": "",
          "type": "bool"
        }
      ],
      "stateMutability": "view",
      "type": "function"
    },
    {
      "inputs": [],
      "name": "lastRandomnessUsed",
      "outputs": [
        {
          "internalType": "uint256",
          "name": "",
          "type": "uint256"
        }
      ],
      "stateMutability": "view",
      "type": "function"
    },
    {
      "inputs": [],
      "name": "lotteryConfig",
      "outputs": [
        {
          "internalType": "uint256",
          "name": "minParticipants",
          "type": "uint256"
        },
        {
          "internalType": "uint256",
          "name": "maxParticipants",
          "type": "uint256"
        },
        {
          "internalType": "uint256",
          "name": "minWinners",
          "type": "uint256"
        },
        {
          "internalType": "uint256",
          "name": "maxWinners",
          "type": "uint256"
        },
        {
          "internalType": "uint256",
          "name": "minPrizePool",
          "type": "uint256"
        },
        {
          "internalType": "uint256",
          "name": "roundDuration",
          "type": "uint256"
        },
        {
          "internalType": "bool",
          "name": "weightedLottery",
          "type": "bool"
        },
        {
          "internalType": "bool",
          "name": "requiresDeposit",
          "type": "bool"
        }
      ],
      "stateMutability": "view",
      "type": "function"
    },
    {
      "inputs": [],
      "name": "lotteryPaused",
      "outputs": [
        {
          "internalType": "bool",
          "name": "",
          "type": "bool"
        }
      ],
      "stateMutability": "view",
      "type": "function"
    },
    {
      "inputs": [
        {
          "internalType": "uint256",
          "name": "",
          "type": "uint256"
        }
      ],
      "name": "lotteryRounds",
      "outputs": [
        {
          "internalType": "uint256",
          "name": "roundId",
          "type": "uint256"
        },
        {
          "internalType": "uint256",
          "name": "startTime",
          "type": "uint256"
        },
        {
          "internalType": "uint256",
          "name": "endTime",
          "type": "uint256"
        },
        {
          "internalType": "uint256",
          "name": "prizePool",
          "type": "uint256"
        },
        {
          "internalType": "uint256",
          "name": "winnersCount",
          "type": "uint256"
        },
        {
          "internalType": "bool",
          "name": "isActive",
          "type": "bool"
        },
        {
          "internalType": "bool",
          "name": "isFinalized",
          "type": "bool"
        },
        {
          "internalType": "uint256",
          "name": "vrfRandomness",
          "type": "uint256"
        },
        {
          "internalType": "bytes32",
          "name": "vrfSeed",
          "type": "bytes32"
        },
        {
          "internalType": "uint256",
          "name": "totalParticipants",
          "type": "uint256"
        }
      ],
      "stateMutability": "view",
      "type": "function"
    },
    {
      "inputs": [],
      "name": "lotteryType",
      "outputs": [
        {
          "internalType": "enum FlowVRFLotterySystem.LotteryType",
          "name": "",
          "type": "uint8"
        }
      ],
      "stateMutability": "view",
      "type": "function"
    },
    {
      "inputs": [
        {
          "internalType": "address",
          "name": "",
          "type": "address"
        }
      ],
      "name": "participantInfo",
      "outputs": [
        {
          "internalType": "uint256",
          "name": "totalPrizesWon",
          "type": "uint256"
        },
        {
          "internalType": "uint256",
          "name": "lastParticipationTime",
          "type": "uint256"
        },
        {
          "internalType": "uint256",
          "name": "winCount",
          "type": "uint256"
        },
        {
          "internalType": "bool",
          "name": "isEligible",
          "type": "bool"
        }
      ],
      "stateMutability": "view",
      "type": "function"
    },
    {
      "inputs": [
        {
          "internalType": "bool",
          "name": "paused",
          "type": "bool"
        }
      ],
      "name": "pauseLottery",
      "outputs": [],
      "stateMutability": "nonpayable",
      "type": "function"
    },
    {
      "inputs": [
        {
          "internalType": "uint256",
          "name": "",
          "type": "uint256"
        }
      ],
      "name": "prizeDistribution",
      "outputs": [
        {
          "internalType": "uint256",
          "name": "",
          "type": "uint256"
        }
      ],
      "stateMutability": "view",
      "type": "function"
    },
    {
      "inputs": [],
      "name": "prizeToken",
      "outputs": [
        {
          "internalType": "contract IERC20",
          "name": "",
          "type": "address"
        }
      ],
      "stateMutability": "view",
      "type": "function"
    },
    {
      "inputs": [
        {
          "internalType": "bytes32",
          "name": "role",
          "type": "bytes32"
        },
        {
          "internalType": "address",
          "name": "account",
          "type": "address"
        }
      ],
      "name": "renounceRole",
      "outputs": [],
      "stateMutability": "nonpayable",
      "type": "function"
    },
    {
      "inputs": [
        {
          "internalType": "bytes32",
          "name": "role",
          "type": "bytes32"
        },
        {
          "internalType": "address",
          "name": "account",
          "type": "address"
        }
      ],
      "name": "revokeRole",
      "outputs": [],
      "stateMutability": "nonpayable",
      "type": "function"
    },
    {
      "inputs": [
        {
          "internalType": "bool",
          "name": "enabled",
          "type": "bool"
        }
      ],
      "name": "setEmergencyMode",
      "outputs": [],
      "stateMutability": "nonpayable",
      "type": "function"
    },
    {
      "inputs": [
        {
          "internalType": "uint256",
          "name": "minParticipants",
          "type": "uint256"
        },
        {
          "internalType": "uint256",
          "name": "maxParticipants",
          "type": "uint256"
        },
        {
          "internalType": "uint256",
          "name": "minWinners",
          "type": "uint256"
        },
        {
          "internalType": "uint256",
          "name": "maxWinners",
          "type": "uint256"
        },
        {
          "internalType": "uint256",
          "name": "minPrizePool",
          "type": "uint256"
        },
        {
          "internalType": "uint256",
          "name": "roundDuration",
          "type": "uint256"
        },
        {
          "internalType": "bool",
          "name": "weightedLottery",
          "type": "bool"
        },
        {
          "internalType": "bool",
          "name": "requiresDeposit",
          "type": "bool"
        }
      ],
      "name": "setLotteryConfig",
      "outputs": [],
      "stateMutability": "nonpayable",
      "type": "function"
    },
    {
      "inputs": [
        {
          "internalType": "enum FlowVRFLotterySystem.LotteryType",
          "name": "_lotteryType",
          "type": "uint8"
        }
      ],
      "name": "setLotteryType",
      "outputs": [],
      "stateMutability": "nonpayable",
      "type": "function"
    },
    {
      "inputs": [
        {
          "internalType": "address",
          "name": "participant",
          "type": "address"
        },
        {
          "internalType": "bool",
          "name": "eligible",
          "type": "bool"
        }
      ],
      "name": "setParticipantEligibility",
      "outputs": [],
      "stateMutability": "nonpayable",
      "type": "function"
    },
    {
      "inputs": [
        {
          "internalType": "uint256[]",
          "name": "distribution",
          "type": "uint256[]"
        }
      ],
      "name": "setPrizeDistribution",
      "outputs": [],
      "stateMutability": "nonpayable",
      "type": "function"
    },
    {
      "inputs": [
        {
          "internalType": "uint256",
          "name": "prizePool",
          "type": "uint256"
        },
        {
          "internalType": "uint256",
          "name": "winnersCount",
          "type": "uint256"
        },
        {
          "internalType": "uint256",
          "name": "customDuration",
          "type": "uint256"
        }
      ],
      "name": "startLotteryRound",
      "outputs": [],
      "stateMutability": "nonpayable",
      "type": "function"
    },
    {
      "inputs": [
        {
          "internalType": "bytes4",
          "name": "interfaceId",
          "type": "bytes4"
        }
      ],
      "name": "supportsInterface",
      "outputs": [
        {
          "internalType": "bool",
          "name": "",
          "type": "bool"
        }
      ],
      "stateMutability": "view",
      "type": "function"
    },
    {
      "inputs": [],
      "name": "totalRounds",
      "outputs": [
        {
          "internalType": "uint256",
          "name": "",
          "type": "uint256"
        }
      ],
      "stateMutability": "view",
      "type": "function"
    },
    {
      "inputs": [
        {
          "internalType": "bytes32",
          "name": "",
          "type": "bytes32"
        }
      ],
      "name": "usedRandomnessSeeds",
      "outputs": [
        {
          "internalType": "bool",
          "name": "",
          "type": "bool"
        }
      ],
      "stateMutability": "view",
      "type": "function"
    },
    {
      "inputs": [],
      "name": "vault",
      "outputs": [
        {
          "internalType": "address",
          "name": "",
          "type": "address"
        }
      ],
      "stateMutability": "view",
      "type": "function"
    }
  ],
  "bytecode": "0x60c0604052346104ae57604051601f61340838819003918201601f19168301916001600160401b0383118484101761027b5780849260409485528339810103126104ae576100586020610051836104b3565b92016104b3565b9060018055600160ff19600e541617600e556040516060810181811060018060401b0382111761027b576040526113888152610bb860208201526107d0604082015260115460036011558060031061044c575b50601160005260206000209060005b600381106104345750506012805461ffff19169055506001600160a01b03169081156103ef576001600160a01b03169081156103ba576801000000000000000160805260a052600280546001600160a01b031916821790553360009081526000805160206133e8833981519152602052604090205460ff161561037a575b3360009081527f9d7ac59855a36a917de86cf11335ccc17e4300d5dfeadf9288f88851d6b39fb2602052604090205460ff1615610306575b60008181527f57c45785f0bfdd0436a24ca59ce8cf4a246623230045d7db55b0ff1db74c5822602052604090205460ff1615610291575b5060405161010081016001600160401b0381118282101761027b5760019160e091604052600281526103e86020820152826040820152600a60608201526305f5e100608082015262278d0060a08201528260c0820152015260026007556103e86008556001600955600a80556305f5e100600b5562278d00600c55600160ff19600d541617600d5561010061ff0019600d541617600d55604051612f0090816104c882396080518181816104dc0152610c5d015260a05181818161060a0152818161065e01528181610e61015261151d0152f35b634e487b7160e01b600052604160045260246000fd5b60008181527f57c45785f0bfdd0436a24ca59ce8cf4a246623230045d7db55b0ff1db74c582260205260408120805460ff191660011790553391907f31e0210044b4f6757ce6aa31f9c6e8d4896d24a755014887391a926c5224d959906000805160206133c88339815191529080a4386101a7565b3360008181527f9d7ac59855a36a917de86cf11335ccc17e4300d5dfeadf9288f88851d6b39fb260205260408120805460ff1916600117905581907f16b9b21c34f72b61b038f4735d1e3b86ea577a372ef2c98f5d64e83848a713c2906000805160206133c88339815191529080a4610170565b3360008181526000805160206133e883398151915260205260408120805460ff1916600117905581906000805160206133c88339815191528180a4610138565b60405162461bcd60e51b815260206004820152600d60248201526c125b9d985b1a59081d985d5b1d609a1b6044820152606490fd5b60405162461bcd60e51b815260206004820152601360248201527f496e76616c6964207072697a6520746f6b656e000000000000000000000000006044820152606490fd5b600190602061ffff84511693019281850155016100ba565b60116000527f31ecc21a745e3968a04e9570e4425bc18fa8019c68028196b546d1669c200c68017f31ecc21a745e3968a04e9570e4425bc18fa8019c68028196b546d1669c200c6b5b8181106104a257506100ab565b60008155600101610495565b600080fd5b51906001600160a01b03821682036104ae5756fe6080604052600436101561001257600080fd5b60003560e01c806301e7fefe14611c0357806301ffc9a714611b6257806305e33dd014611b075780630905f56014611ae15780630bc1bcb114611aa65780630e135aa114611a42578063195ec9ee146119df5780631ad1ec2214610b7a5780631f48fd65146119a957806322459e181461196e578063248a9ca3146119395780632e881471146118ba5780632f2ff15d146117f357806336568abe1461175457806337305df5146116f3578063378307c0146113ca5780633b635c12146113a657806354c237b71461136e5780635e39a6f11461135157806365436cf01461131257806365d524a1146112d257806371bdce551461124f57806375a208b614610b985780638a56829914610b7a5780638e3f739414610a5057806391d1485414610a0257806397ac4a25146109da57806398c4f1ac1461099f5780639cbe5efd146109815780639d3a4d6114610926578063a217fddf1461090a578063a32bf597146108ad578063a34398a21461085c578063afa350ce1461083e578063b7285ccb146107a7578063be14632614610776578063be32b3f814610712578063c4057eec146106c6578063c78dc7ce1461062e578063d0ef024a146105ea578063d547741f146105a5578063d6ed66f914610500578063e6342206146104bc578063e912810114610484578063f1ed7a0c146102eb578063f68fc929146102c8578063fbfa77cf146102a15763fc5ab87c1461022c57600080fd5b3461029c57600036600319011261029c5760075460088054600954600a54600b54600c54600d54604080519889526020890196909652948701939093526060860191909152608085015260a084015260ff808216151560c0850152911c16151560e08201528061010081015b0390f35b600080fd5b3461029c57600036600319011261029c5760206001600160a01b0360025416604051908152f35b3461029c57600036600319011261029c57602060ff601254166040519015158152f35b3461029c57602036600319011261029c5760043567ffffffffffffffff811161029c573660238201121561029c57806004013567ffffffffffffffff811161029c573660248260051b8401011161029c576103446124bb565b8015610440576000805b828210156103745761036c60019160248460051b87010135906123a7565b91019061034e565b6127109150036103fc576000916801000000000000000082116103e8576024906103a6836011548160115560116123b4565b01825b8281106103b4578380f35b60019060208335930192817f31ecc21a745e3968a04e9570e4425bc18fa8019c68028196b546d1669c200c680155016103a9565b602483634e487b7160e01b81526041600452fd5b606460405162461bcd60e51b815260206004820152601e60248201527f446973747269627574696f6e206d7573742073756d20746f20313030303000006044820152fd5b606460405162461bcd60e51b815260206004820152601260248201527f456d70747920646973747269627574696f6e00000000000000000000000000006044820152fd5b3461029c57602036600319011261029c57600435600481101561029c576104a96124bb565b60ff8019600e5416911617600e55600080f35b3461029c57600036600319011261029c5760206040516001600160a01b037f0000000000000000000000000000000000000000000000000000000000000000168152f35b3461029c57602036600319011261029c5760043561051c6124bb565b80151580610599575b61052e90612311565b80600052600360205260ff60086040600020015460081c166105555761055390612659565b005b606460405162461bcd60e51b815260206004820152601160248201527f416c72656164792066696e616c697a65640000000000000000000000000000006044820152fd5b50600554811115610525565b3461029c57604036600319011261029c576105536004356105c461212b565b906105e56105e082600052600060205260016040600020015490565b612582565b6125cc565b3461029c57600036600319011261029c5760206040516001600160a01b037f0000000000000000000000000000000000000000000000000000000000000000168152f35b3461029c57602036600319011261029c576106476124bb565b60ff60125460081c161561068257610553600435337f000000000000000000000000000000000000000000000000000000000000000061288c565b606460405162461bcd60e51b815260206004820152601560248201527f4e6f7420696e20656d657267656e6379206d6f646500000000000000000000006044820152fd5b3461029c57604036600319011261029c576106df61212b565b60043560005260036020526001600160a01b03600d60406000200191166000526020526020604060002054604051908152f35b3461029c57602036600319011261029c577fb8a34678623c94d0d3977ce6d4db867e7e96ffd365f2c0f677563f8dddd4c840602061074e6121b1565b6107566124bb565b151560125461ff008260081b169061ff00191617601255604051908152a1005b3461029c57602036600319011261029c576004356000526014602052602060ff604060002054166040519015158152f35b3461029c57602036600319011261029c5760043560005260036020526101406040600020805490600181015490600281015460ff60038301546004840154600885015491600986015494600b600a88015497015497604051998a5260208a0152604089015260608801526080870152818116151560a087015260081c16151560c085015260e0840152610100830152610120820152f35b3461029c57600036600319011261029c576020601354604051908152f35b3461029c57604036600319011261029c5761087561212b565b60043560005260036020526001600160a01b03600c6040600020019116600052602052602060ff604060002054166040519015158152f35b3461029c57600036600319011261029c576102986108c9612451565b604080519889526020890197909752958701949094526060860192909252608085015260a0840152151560c0830152151560e0820152908190610100820190565b3461029c57600036600319011261029c57602060405160008152f35b3461029c57604036600319011261029c5761093f612115565b6024359081151580920361029c576001600160a01b039061095e61250f565b16600052600460205260046040600020019060ff80198354169116179055600080f35b3461029c57600036600319011261029c576020600554604051908152f35b3461029c57600036600319011261029c5760206040517f31e0210044b4f6757ce6aa31f9c6e8d4896d24a755014887391a926c5224d9598152f35b3461029c57602036600319011261029c5760206109f86004356123fc565b6040519015158152f35b3461029c57604036600319011261029c57610a1b61212b565b60043560005260006020526001600160a01b0360406000209116600052602052602060ff604060002054166040519015158152f35b3461029c5761010036600319011261029c5760643560243560043560443560a43560843560c4358015159081900361029c5760e4359182151580930361029c57610a986124bb565b6040519761010089019589871067ffffffffffffffff881117610b64578460e07f485bdc04704c896b4d0e0fbec278003f26811154c056dbbfc02ebbe0d7e870119b610b5f996040528a81528b60208201528360408201528460608201528560808201528860a08201528660c082015201528760075588600855600955600a55600b5582600c5560ff8019600d5416911617600d5561ff00600d549160081b169061ff00191617600d55604051938493846040919493926060820195825260208201520152565b0390a1005b634e487b7160e01b600052604160045260246000fd5b3461029c57600036600319011261029c576020600654604051908152f35b3461029c57602036600319011261029c57600435610bb461250f565b80151580611243575b610bc690612311565b6002600154146111ff576002600155610be460ff60125416156121f4565b8060005260036020526040600020906008820154610c0460ff821661223f565b600283015442106111bb57600b830154600754116111775760081c60ff1661113357604051917f705fab200000000000000000000000000000000000000000000000000000000083526020836004816001600160a01b037f0000000000000000000000000000000000000000000000000000000000000000165afa928315611127576000936110f0575b50600019430143811161104f576005546006546040519160208301938785528660408501524260608501524360808501524460a08501524060c084015260e08301526101008201526101008152610ce761012082612299565b5190209182600052601460205260ff604060002054166110ac578260005260146020526040600020600160ff1982541617905583600983015582600a830155610d30838261273f565b93600383015492855190610d43826126eb565b94610d516040519687612299565b828652610d5d836126eb565b602087019390601f190136853760018103610ff95750855115610fe35782525b86516006820167ffffffffffffffff8211610b6457680100000000000000008211610b6457610db1828254818455836123b4565b6020890190600052602060002060005b838110610fc6575050505060070184519167ffffffffffffffff8311610b6457680100000000000000008311610b6457610e00838354818555846123b4565b90600052602060002060005b838110610fb2575050505060005b8551811015610f445780610e30600192866123e8565b51610e3c575b01610e1a565b610e856001600160a01b03610e51838a6123e8565b5116610e5d83886123e8565b51907f000000000000000000000000000000000000000000000000000000000000000061288c565b610e8f81866123e8565b516001600160a01b03610ea2838a6123e8565b51166000526004602052610ebe836040600020019182546123a7565b90556001600160a01b03610ed282896123e8565b511660005260046020526003604060002001610eee815461228a565b90556001600160a01b03610f0282896123e8565b5116847fc0d2773dace20252cd0787cdc7c52fe3633eea19eb0f904ecae1b3a38226ab4c6040610f32858a6123e8565b518151908152856020820152a3610e36565b508193610fa47f606246ae60e2fb99502c6c573131efbd86880304fc27b2dd94d2015ca81a705f9394610f96610fac988560135560405195869586526020860152608060408601526080850190612174565b9083820360608501526121c0565b0390a2612659565b60018055005b600190602084519401938184015501610e0c565b60019060206001600160a01b038551169401938184015501610dc1565b634e487b7160e01b600052603260045260246000fd5b601154811161106557811560005b8281106110175750505050610d7d565b61102081612141565b90549060031b1c90818502918583041483171561104f5761271060019204611048828c6123e8565b5201611007565b634e487b7160e01b600052601160045260246000fd5b9081156110965781900460005b82811061108157505050610d7d565b808261108f6001938b6123e8565b5201611072565b634e487b7160e01b600052601260045260246000fd5b606460405162461bcd60e51b815260206004820152601c60248201527f52616e646f6d6e657373207365656420616c72656164792075736564000000006044820152fd5b90926020823d60201161111f575b8161110b60209383612299565b8101031261111c5750519183610c8e565b80fd5b3d91506110fe565b6040513d6000823e3d90fd5b606460405162461bcd60e51b815260206004820152601760248201527f526f756e6420616c72656164792066696e616c697a65640000000000000000006044820152fd5b606460405162461bcd60e51b815260206004820152601760248201527f4e6f7420656e6f756768207061727469636970616e74730000000000000000006044820152fd5b606460405162461bcd60e51b815260206004820152601360248201527f526f756e64206e6f7420656e64656420796574000000000000000000000000006044820152fd5b606460405162461bcd60e51b815260206004820152601f60248201527f5265656e7472616e637947756172643a207265656e7472616e742063616c6c006044820152fd5b50600554811115610bbd565b3461029c57602036600319011261029c576001600160a01b03611270612115565b1660005260046020526112b76040600020600181015460028201549160038101546112a260ff6004840154169261235c565b9360405195869560a0875260a08701906121c0565b93602086015260408501526060840152151560808301520390f35b3461029c57600036600319011261029c5760ff600e541660405160048210156112fc576020918152f35b634e487b7160e01b600052602160045260246000fd5b3461029c57602036600319011261029c576001600160a01b03611333612115565b166000526010602052602060ff604060002054166040519015158152f35b3461029c57600036600319011261029c5760206040516127108152f35b3461029c57602036600319011261029c5760043560115481101561029c57611397602091612141565b90549060031b1c604051908152f35b3461029c57600036600319011261029c576020604051680100000000000000018152f35b3461029c57606036600319011261029c576024356044356004356113ec61250f565b60ff6012546113fd828216156121f4565b60081c166116af57600b54811061166b576009548310158061165f575b1561161b5760055480151580611600575b61156c575b506000600b7f9f561d4ab01180b724efa75ef99333061a21a6db83559c10fef77eff405799569361146260055461228a565b908160055561147260065461228a565b600655801515841461156057611489905b426123a7565b95818452600360205260408420918255426001830155866002830155846003830155600482015560088101600161ffff1982541617905501556115416001600160a01b0360025416604051907f23b872dd00000000000000000000000000000000000000000000000000000000602083015260248201523060448201528260648201526064815261151b608482612299565b7f000000000000000000000000000000000000000000000000000000000000000061294c565b60055460408051428152602081019590955284019190915291606090a2005b50611489600c54611483565b9182600052600360205260026040600020015442106115bc57600b6000916115b47f9f561d4ab01180b724efa75ef99333061a21a6db83559c10fef77eff4057995695612659565b935050611430565b606460405162461bcd60e51b815260206004820152601b60248201527f50726576696f757320726f756e64207374696c6c2061637469766500000000006044820152fd5b5080600052600360205260ff6008604060002001541661142b565b606460405162461bcd60e51b815260206004820152601560248201527f496e76616c69642077696e6e65727320636f756e7400000000000000000000006044820152fd5b50600a5483111561141a565b606460405162461bcd60e51b815260206004820152601460248201527f5072697a6520706f6f6c20746f6f20736d616c6c0000000000000000000000006044820152fd5b606460405162461bcd60e51b815260206004820152601560248201527f456d657267656e6379206d6f64652061637469766500000000000000000000006044820152fd5b3461029c57602036600319011261029c5760043580151580611748575b61171990612311565b600052600360205261029861173460056040600020016122bb565b604051918291602083526020830190612174565b50600554811115611710565b3461029c57604036600319011261029c5761176d61212b565b336001600160a01b0382160361178957610553906004356125cc565b608460405162461bcd60e51b815260206004820152602f60248201527f416363657373436f6e74726f6c3a2063616e206f6e6c792072656e6f756e636560448201527f20726f6c657320666f722073656c6600000000000000000000000000000000006064820152fd5b3461029c57604036600319011261029c5760043561180f61212b565b9061182b6105e082600052600060205260016040600020015490565b80600052600060205260406000206001600160a01b03831660005260205260ff604060002054161561185957005b80600052600060205260406000206001600160a01b0383166000526020526040600020600160ff198254161790556001600160a01b03339216907f2f8788117e7eff1d82e926ec794901d17c78024a50270940304540a733656f0d600080a4005b3461029c57602036600319011261029c576004358015158061192d575b6118e090612311565b600052600360205261191f604060002061029861190b6007611904600685016122bb565b930161235c565b604051938493604085526040850190612174565b9083820360208501526121c0565b506005548111156118d7565b3461029c57602036600319011261029c576020611966600435600052600060205260016040600020015490565b604051908152f35b3461029c57600036600319011261029c5760206040517fcab5a0bfe0b79d2c4b1c2e02599fa044d115b7511f9659307cb42769509677098152f35b3461029c57602036600319011261029c576119c26121b1565b6119ca6124bb565b60ff8019601254169115151617601255600080f35b3461029c57600036600319011261029c57604051600f548082526020820190600f60005260206000209060005b818110611a23576102988561173481870382612299565b82546001600160a01b0316845260209093019260019283019201611a0c565b3461029c57602036600319011261029c576001600160a01b03611a63612115565b1660005260046020526080604060002060018101549060028101549060ff6004600383015492015416916040519384526020840152604083015215156060820152f35b3461029c57600036600319011261029c5760206040517f16b9b21c34f72b61b038f4735d1e3b86ea577a372ef2c98f5d64e83848a713c28152f35b3461029c57600036600319011261029c57602060ff60125460081c166040519015158152f35b3461029c57602036600319011261029c57600435600f5481101561029c576000600f54821015611b4e576020918282600f6001600160a01b03945220015416604051908152f35b80634e487b7160e01b602492526032600452fd5b3461029c57602036600319011261029c576004357fffffffff00000000000000000000000000000000000000000000000000000000811680910361029c57807f7965db0b0000000000000000000000000000000000000000000000000000000060209214908115611bd9575b506040519015158152f35b7f01ffc9a70000000000000000000000000000000000000000000000000000000091501482611bce565b3461029c57604036600319011261029c57611c1c612115565b3360009081527f57c45785f0bfdd0436a24ca59ce8cf4a246623230045d7db55b0ff1db74c582260205260409020546024359060ff161561203157611c6660ff60125416156121f4565b600554918215611fed576001600160a01b0316918215611fa9578115611f65576000526003602052604060002090611ca460ff60088401541661223f565b6002820154421015611f2157600c8201836000528060205260ff60406000205416611edd57600b83019283546008541115611e9957600581019182549268010000000000000000841015610b645783611d04916001600d9601815561215c565b81549060031b906001600160a01b0389831b921b1916179055856000526020526040600020600160ff19825416179055846000520160205280604060002055611d4d825461228a565b825582600052601060205260ff6040600020541615611e16575b8260005260046020526040600020906005549082549168010000000000000000831015610b6457611dc1837fa579cf708fd91d80ae65ceb4a89d65267d82874519078a79355d57bc0ab6e24d95600160409601815561215c565b819291549060031b91821b91600019901b191617905584600052600460205242600283600020015584600052600460205260048260002001600160ff19825416179055600554935482519182526020820152a3005b600f5468010000000000000000811015610b6457806001611e3c9201600f55600f61215c565b81549060031b906001600160a01b0386831b921b19161790558260005260106020526040600020600160ff19825416179055827fe11711cd714e06fbbbea301a8e90822f2f2ea4808e37e3adf06038f33c53ff27600080a2611d67565b606460405162461bcd60e51b815260206004820152601860248201527f4d6178207061727469636970616e7473207265616368656400000000000000006044820152fd5b606460405162461bcd60e51b815260206004820152601460248201527f416c7265616479207061727469636970617465640000000000000000000000006044820152fd5b606460405162461bcd60e51b815260206004820152600f60248201527f526f756e642068617320656e64656400000000000000000000000000000000006044820152fd5b606460405162461bcd60e51b815260206004820152601760248201527f576569676874206d75737420626520706f7369746976650000000000000000006044820152fd5b606460405162461bcd60e51b815260206004820152601360248201527f496e76616c6964207061727469636970616e74000000000000000000000000006044820152fd5b606460405162461bcd60e51b815260206004820152601760248201527f4e6f20616374697665206c6f747465727920726f756e640000000000000000006044820152fd5b61211161203d33612c48565b6120f9601161206b7f31e0210044b4f6757ce6aa31f9c6e8d4896d24a755014887391a926c5224d959612d81565b9260376040519485927f416363657373436f6e74726f6c3a206163636f756e742000000000000000000060208501526120ad81518092602086880191016128e1565b83017f206973206d697373696e6720726f6c6520000000000000000000000000000000838201526120e88251809360206048850191016128e1565b01010301601f198101835282612299565b60405191829162461bcd60e51b835260048301612904565b0390fd5b600435906001600160a01b038216820361029c57565b602435906001600160a01b038216820361029c57565b601154811015610fe357601160005260206000200190600090565b8054821015610fe35760005260206000200190600090565b906020808351928381520192019060005b8181106121925750505090565b82516001600160a01b0316845260209384019390920191600101612185565b60043590811515820361029c57565b906020808351928381520192019060005b8181106121de5750505090565b82518452602093840193909201916001016121d1565b156121fb57565b606460405162461bcd60e51b815260206004820152601160248201527f4c6f7474657279206973207061757365640000000000000000000000000000006044820152fd5b1561224657565b606460405162461bcd60e51b815260206004820152601060248201527f526f756e64206e6f7420616374697665000000000000000000000000000000006044820152fd5b600019811461104f5760010190565b90601f8019910116810190811067ffffffffffffffff821117610b6457604052565b906040519182815491828252602082019060005260206000209260005b8181106122ef5750506122ed92500383612299565b565b84546001600160a01b03168352600194850194879450602090930192016122d8565b1561231857565b606460405162461bcd60e51b815260206004820152601060248201527f496e76616c696420726f756e64204944000000000000000000000000000000006044820152fd5b906040519182815491828252602082019060005260206000209260005b81811061238e5750506122ed92500383612299565b8454835260019485019487945060209093019201612379565b9190820180921161104f57565b9190918282106123c357505050565b600052602060002091820191015b8181106123dc575050565b600081556001016123d1565b8051821015610fe35760209160051b010190565b80158015612446575b6124405780600052600360205260ff600860406000200154169081612428575090565b90506000526003602052600260406000200154421090565b50600090565b506005548111612405565b60055480156124a057600052600360205260406000208054916001820154926002830154926003810154926004820154926008600b8401549301549096959493929160ff8083169260081c1690565b50600090600090600090600090600090600090600090600090565b3360009081527fad3228b676f7d3cd4284a5443f17f1962b36e491b30a40b2405849e597ba5fb5602052604090205460ff16156124f457565b61211161250033612c48565b6120f9601161206b6000612d81565b3360009081527f9d7ac59855a36a917de86cf11335ccc17e4300d5dfeadf9288f88851d6b39fb2602052604090205460ff161561254857565b61211161255433612c48565b6120f9601161206b7f16b9b21c34f72b61b038f4735d1e3b86ea577a372ef2c98f5d64e83848a713c2612d81565b80600052600060205260406000206001600160a01b03331660005260205260ff60406000205416156125b15750565b612111906120f9601161206b6125c633612c48565b93612d81565b80600052600060205260406000206001600160a01b03831660005260205260ff604060002054166125fb575050565b80600052600060205260406000206001600160a01b038316600052602052604060002060ff1981541690556001600160a01b03339216907ff6391f5c32d9c69d2a47ea670b442974b53935d1edc7fd64eb21e047a839171b600080a4565b600081815260036020526040812060088101805461ffff191661010017905560078101805483915b8183106126c2575050507fdcabba4dddf170aa1ff04023a0a67dd099fc4e88bfd58f3eca61c3a13f53ec4e91600b60409201549082519182526020820152a2565b9091936126e26001916126d5878561215c565b90549060031b1c906123a7565b94019190612681565b67ffffffffffffffff8111610b645760051b60200190565b9061270d826126eb565b61271a6040519182612299565b828152809261272b601f19916126eb565b0190602036910137565b8115611096570690565b806000526003602052604060002090600560048301549201918254918183111561287f5761276c82612703565b9461277684612703565b9160ff600e541660048110156112fc57806128425750506000925b8084106127a2575050505050505b90565b6127d68560409993949698959799516020810190868252896040820152604081526127ce606082612299565b519020612735565b6127e081876123e8565b5115612800576001810180911161104f57876127fb91612735565b6127d6565b95600161283a819396999795949a986001600160a01b03612821828c61215c565b90549060031b1c16612833858d6123e8565b52866123e8565b520192612791565b925092945092506001811460001461285f575061279f9350612a79565b60021461286d575b50505090565b6128779350612a79565b388080612867565b50505061279f91506122bb565b6122ed926001600160a01b03604051937fa9059cbb0000000000000000000000000000000000000000000000000000000060208601521660248401526044830152604482526128dc606483612299565b61294c565b60005b8381106128f45750506000910152565b81810151838201526020016128e4565b6040916020825261292481518092816020860152602086860191016128e1565b601f01601f1916010190565b67ffffffffffffffff8111610b6457601f01601f191660200190565b6001600160a01b036129ce91169160409260008085519361296d8786612299565b602085527f5361666545524332303a206c6f772d6c6576656c2063616c6c206661696c6564602086015260208151910182855af13d15612a71573d916129b283612930565b926129bf87519485612299565b83523d6000602085013e612e3a565b8051908115918215612a4e575b5050156129e55750565b6084905162461bcd60e51b815260206004820152602a60248201527f5361666545524332303a204552433230206f7065726174696f6e20646964206e60448201527f6f742073756363656564000000000000000000000000000000000000000000006064820152fd5b819250906020918101031261029c5760200151801515810361029c5738806129db565b606091612e3a565b6000526003602052604060002090612a93600583016122bb565b93600092600d0191835b8651851015612ae457612adc60019160406001600160a01b03612ac0898c6123e8565b51166001600160a01b03600091168152876020522054906123a7565b940193612a9d565b93509194939094612af482612703565b94612aff8151612703565b6000935b808510612b14575050505050505090565b612b418760409a939597999496989a5160208101908b82528a6040820152604081526127ce606082612299565b91600091825b8751841015612c2457612b5a84886123e8565b51612c1b57612b939060406001600160a01b03612b77878c6123e8565b51166001600160a01b036000911681528b6020522054906123a7565b92838510612ba6576001905b0192612b47565b859a94506040929b935080889796612bd88c6001600160a01b03612bd0612bec9682989f9e6123e8565b5116926123e8565b526001612be582896123e8565b52876123e8565b51166001600160a01b03600091168152866020522054810390811161104f57600190965b019392919094612b03565b92600190612b9f565b5096959493989250989660019150612c10565b908151811015610fe3570160200190565b600090612c55602a612930565b91612c636040519384612299565b602a8352612c71602a612930565b6020840190601f1901368237835115612d6d5760309053825160011015611b4e576078602184015350602960005b60018211612cf4575050612cb05790565b606460405162461bcd60e51b815260206004820152602060248201527f537472696e67733a20686578206c656e67746820696e73756666696369656e746044820152fd5b9091600f81166010811015612d59577f3031323334353637383961626364656600000000000000000000000000000000901a612d308486612c37565b5360041c918015612d45576000190190612c9f565b602482634e487b7160e01b81526011600452fd5b602483634e487b7160e01b81526032600452fd5b602482634e487b7160e01b81526032600452fd5b600090612d8e6042612930565b91612d9c6040519384612299565b60428352612daa6042612930565b6020840190601f1901368237835115612d6d5760309053825160011015611b4e576078602184015350604160005b60018211612de9575050612cb05790565b9091600f81166010811015612d59577f3031323334353637383961626364656600000000000000000000000000000000901a612e258486612c37565b5360041c918015612d45576000190190612dd8565b91929015612e9b5750815115612e4e575090565b3b15612e575790565b606460405162461bcd60e51b815260206004820152601d60248201527f416464726573733a2063616c6c20746f206e6f6e2d636f6e74726163740000006044820152fd5b825190915015612eae5750805190602001fd5b6121119060405191829162461bcd60e51b83526004830161290456fea2646970667358221220ca2faa9a6c2a990bba4a4e6529616b973843474ac5d1afac549327198f35e3c464736f6c634300081c00332f8788117e7eff1d82e926ec794901d17c78024a50270940304540a733656f0dad3228b676f7d3cd4284a5443f17f1962b36e491b30a40b2405849e597ba5fb5",
  "linkReferences": {},
  "deployedLinkReferences": {}
}