{
  "_format": "hh-sol-artifact-1",
  "contractName": "MultiAssetStrategyManager",
  "sourceName": "contracts/components/StrategyManager.sol",
  "abi": [
    {
      "inputs": [
        {
          "internalType": "address",
          "name": "_vault",
          "type": "address"
        }
      ],
      "stateMutability": "nonpayable",
      "type": "constructor"
    },
    {
      "anonymous": false,
      "inputs": [
        {
          "indexed": true,
          "internalType": "address",
          "name": "strategy",
          "type": "address"
        },
        {
          "indexed": true,
          "internalType": "address",
          "name": "asset",
          "type": "address"
        },
        {
          "indexed": false,
          "internalType": "uint256",
          "name": "amount",
          "type": "uint256"
        }
      ],
      "name": "AssetDeployedToStrategy",
      "type": "event"
    },
    {
      "anonymous": false,
      "inputs": [
        {
          "indexed": true,
          "internalType": "address",
          "name": "strategy",
          "type": "address"
        },
        {
          "indexed": true,
          "internalType": "address",
          "name": "asset",
          "type": "address"
        },
        {
          "indexed": false,
          "internalType": "uint256",
          "name": "harvested",
          "type": "uint256"
        }
      ],
      "name": "AssetHarvestedFromStrategy",
      "type": "event"
    },
    {
      "anonymous": false,
      "inputs": [
        {
          "indexed": true,
          "internalType": "bytes32",
          "name": "role",
          "type": "bytes32"
        },
        {
          "indexed": true,
          "internalType": "bytes32",
          "name": "previousAdminRole",
          "type": "bytes32"
        },
        {
          "indexed": true,
          "internalType": "bytes32",
          "name": "newAdminRole",
          "type": "bytes32"
        }
      ],
      "name": "RoleAdminChanged",
      "type": "event"
    },
    {
      "anonymous": false,
      "inputs": [
        {
          "indexed": true,
          "internalType": "bytes32",
          "name": "role",
          "type": "bytes32"
        },
        {
          "indexed": true,
          "internalType": "address",
          "name": "account",
          "type": "address"
        },
        {
          "indexed": true,
          "internalType": "address",
          "name": "sender",
          "type": "address"
        }
      ],
      "name": "RoleGranted",
      "type": "event"
    },
    {
      "anonymous": false,
      "inputs": [
        {
          "indexed": true,
          "internalType": "bytes32",
          "name": "role",
          "type": "bytes32"
        },
        {
          "indexed": true,
          "internalType": "address",
          "name": "account",
          "type": "address"
        },
        {
          "indexed": true,
          "internalType": "address",
          "name": "sender",
          "type": "address"
        }
      ],
      "name": "RoleRevoked",
      "type": "event"
    },
    {
      "anonymous": false,
      "inputs": [
        {
          "indexed": true,
          "internalType": "address",
          "name": "strategy",
          "type": "address"
        },
        {
          "indexed": false,
          "internalType": "string",
          "name": "name",
          "type": "string"
        },
        {
          "indexed": false,
          "internalType": "uint256",
          "name": "allocation",
          "type": "uint256"
        },
        {
          "indexed": false,
          "internalType": "enum MultiAssetStrategyManager.StrategyType",
          "name": "strategyType",
          "type": "uint8"
        }
      ],
      "name": "StrategyAdded",
      "type": "event"
    },
    {
      "anonymous": false,
      "inputs": [
        {
          "indexed": true,
          "internalType": "address",
          "name": "strategy",
          "type": "address"
        }
      ],
      "name": "StrategyEmergencyExit",
      "type": "event"
    },
    {
      "inputs": [],
      "name": "AGENT_ROLE",
      "outputs": [
        {
          "internalType": "bytes32",
          "name": "",
          "type": "bytes32"
        }
      ],
      "stateMutability": "view",
      "type": "function"
    },
    {
      "inputs": [],
      "name": "DEFAULT_ADMIN_ROLE",
      "outputs": [
        {
          "internalType": "bytes32",
          "name": "",
          "type": "bytes32"
        }
      ],
      "stateMutability": "view",
      "type": "function"
    },
    {
      "inputs": [],
      "name": "VAULT_ROLE",
      "outputs": [
        {
          "internalType": "bytes32",
          "name": "",
          "type": "bytes32"
        }
      ],
      "stateMutability": "view",
      "type": "function"
    },
    {
      "inputs": [
        {
          "internalType": "uint256",
          "name": "",
          "type": "uint256"
        }
      ],
      "name": "activeStrategies",
      "outputs": [
        {
          "internalType": "address",
          "name": "",
          "type": "address"
        }
      ],
      "stateMutability": "view",
      "type": "function"
    },
    {
      "inputs": [
        {
          "internalType": "address",
          "name": "strategy",
          "type": "address"
        },
        {
          "internalType": "string",
          "name": "name",
          "type": "string"
        },
        {
          "internalType": "uint256",
          "name": "allocation",
          "type": "uint256"
        },
        {
          "internalType": "uint256",
          "name": "riskLevel",
          "type": "uint256"
        },
        {
          "internalType": "address[]",
          "name": "supportedAssets",
          "type": "address[]"
        }
      ],
      "name": "addAdvancedStrategy",
      "outputs": [],
      "stateMutability": "nonpayable",
      "type": "function"
    },
    {
      "inputs": [
        {
          "internalType": "address",
          "name": "strategy",
          "type": "address"
        },
        {
          "internalType": "string",
          "name": "name",
          "type": "string"
        },
        {
          "internalType": "uint256",
          "name": "allocation",
          "type": "uint256"
        }
      ],
      "name": "addStrategy",
      "outputs": [],
      "stateMutability": "nonpayable",
      "type": "function"
    },
    {
      "inputs": [
        {
          "internalType": "uint256",
          "name": "",
          "type": "uint256"
        }
      ],
      "name": "advancedStrategies",
      "outputs": [
        {
          "internalType": "address",
          "name": "",
          "type": "address"
        }
      ],
      "stateMutability": "view",
      "type": "function"
    },
    {
      "inputs": [],
      "name": "checkAdvancedStrategiesHealth",
      "outputs": [
        {
          "internalType": "address[]",
          "name": "atRiskStrategies",
          "type": "address[]"
        },
        {
          "internalType": "uint256[]",
          "name": "healthFactors",
          "type": "uint256[]"
        }
      ],
      "stateMutability": "view",
      "type": "function"
    },
    {
      "inputs": [
        {
          "internalType": "address[]",
          "name": "strategyAddresses",
          "type": "address[]"
        },
        {
          "internalType": "uint256[]",
          "name": "amounts",
          "type": "uint256[]"
        },
        {
          "internalType": "address",
          "name": "asset",
          "type": "address"
        }
      ],
      "name": "deployToStrategies",
      "outputs": [],
      "stateMutability": "nonpayable",
      "type": "function"
    },
    {
      "inputs": [
        {
          "internalType": "address",
          "name": "strategy",
          "type": "address"
        },
        {
          "internalType": "address",
          "name": "asset",
          "type": "address"
        }
      ],
      "name": "emergencyExitStrategy",
      "outputs": [],
      "stateMutability": "nonpayable",
      "type": "function"
    },
    {
      "inputs": [],
      "name": "getActiveStrategies",
      "outputs": [
        {
          "internalType": "address[]",
          "name": "",
          "type": "address[]"
        }
      ],
      "stateMutability": "view",
      "type": "function"
    },
    {
      "inputs": [],
      "name": "getAdvancedStrategies",
      "outputs": [
        {
          "internalType": "address[]",
          "name": "",
          "type": "address[]"
        }
      ],
      "stateMutability": "view",
      "type": "function"
    },
    {
      "inputs": [
        {
          "internalType": "bytes32",
          "name": "role",
          "type": "bytes32"
        }
      ],
      "name": "getRoleAdmin",
      "outputs": [
        {
          "internalType": "bytes32",
          "name": "",
          "type": "bytes32"
        }
      ],
      "stateMutability": "view",
      "type": "function"
    },
    {
      "inputs": [
        {
          "internalType": "address",
          "name": "strategy",
          "type": "address"
        },
        {
          "internalType": "address",
          "name": "asset",
          "type": "address"
        }
      ],
      "name": "getStrategyAssetBalance",
      "outputs": [
        {
          "internalType": "uint256",
          "name": "",
          "type": "uint256"
        }
      ],
      "stateMutability": "view",
      "type": "function"
    },
    {
      "inputs": [
        {
          "internalType": "address",
          "name": "strategy",
          "type": "address"
        }
      ],
      "name": "getStrategyInfo",
      "outputs": [
        {
          "internalType": "string",
          "name": "name",
          "type": "string"
        },
        {
          "internalType": "uint256",
          "name": "allocation",
          "type": "uint256"
        },
        {
          "internalType": "uint256",
          "name": "balance",
          "type": "uint256"
        },
        {
          "internalType": "bool",
          "name": "active",
          "type": "bool"
        }
      ],
      "stateMutability": "view",
      "type": "function"
    },
    {
      "inputs": [
        {
          "internalType": "bytes32",
          "name": "role",
          "type": "bytes32"
        },
        {
          "internalType": "address",
          "name": "account",
          "type": "address"
        }
      ],
      "name": "grantRole",
      "outputs": [],
      "stateMutability": "nonpayable",
      "type": "function"
    },
    {
      "inputs": [
        {
          "internalType": "address[]",
          "name": "strategyAddresses",
          "type": "address[]"
        },
        {
          "internalType": "address",
          "name": "asset",
          "type": "address"
        }
      ],
      "name": "harvestFromStrategies",
      "outputs": [
        {
          "internalType": "uint256",
          "name": "totalHarvested",
          "type": "uint256"
        }
      ],
      "stateMutability": "nonpayable",
      "type": "function"
    },
    {
      "inputs": [
        {
          "internalType": "bytes32",
          "name": "role",
          "type": "bytes32"
        },
        {
          "internalType": "address",
          "name": "account",
          "type": "address"
        }
      ],
      "name": "hasRole",
      "outputs": [
        {
          "internalType": "bool",
          "name": "",
          "type": "bool"
        }
      ],
      "stateMutability": "view",
      "type": "function"
    },
    {
      "inputs": [
        {
          "internalType": "address",
          "name": "",
          "type": "address"
        }
      ],
      "name": "lastHarvestTimePerAsset",
      "outputs": [
        {
          "internalType": "uint256",
          "name": "",
          "type": "uint256"
        }
      ],
      "stateMutability": "view",
      "type": "function"
    },
    {
      "inputs": [
        {
          "internalType": "address",
          "name": "strategy",
          "type": "address"
        }
      ],
      "name": "pauseStrategy",
      "outputs": [],
      "stateMutability": "nonpayable",
      "type": "function"
    },
    {
      "inputs": [
        {
          "internalType": "bytes32",
          "name": "role",
          "type": "bytes32"
        },
        {
          "internalType": "address",
          "name": "account",
          "type": "address"
        }
      ],
      "name": "renounceRole",
      "outputs": [],
      "stateMutability": "nonpayable",
      "type": "function"
    },
    {
      "inputs": [
        {
          "internalType": "bytes32",
          "name": "role",
          "type": "bytes32"
        },
        {
          "internalType": "address",
          "name": "account",
          "type": "address"
        }
      ],
      "name": "revokeRole",
      "outputs": [],
      "stateMutability": "nonpayable",
      "type": "function"
    },
    {
      "inputs": [
        {
          "internalType": "address",
          "name": "",
          "type": "address"
        }
      ],
      "name": "strategies",
      "outputs": [
        {
          "internalType": "address",
          "name": "strategyAddress",
          "type": "address"
        },
        {
          "internalType": "string",
          "name": "name",
          "type": "string"
        },
        {
          "internalType": "uint256",
          "name": "allocation",
          "type": "uint256"
        },
        {
          "internalType": "bool",
          "name": "active",
          "type": "bool"
        },
        {
          "internalType": "enum MultiAssetStrategyManager.StrategyType",
          "name": "strategyType",
          "type": "uint8"
        },
        {
          "internalType": "uint256",
          "name": "riskLevel",
          "type": "uint256"
        },
        {
          "internalType": "uint256",
          "name": "lastHealthCheck",
          "type": "uint256"
        }
      ],
      "stateMutability": "view",
      "type": "function"
    },
    {
      "inputs": [
        {
          "internalType": "bytes4",
          "name": "interfaceId",
          "type": "bytes4"
        }
      ],
      "name": "supportsInterface",
      "outputs": [
        {
          "internalType": "bool",
          "name": "",
          "type": "bool"
        }
      ],
      "stateMutability": "view",
      "type": "function"
    },
    {
      "inputs": [],
      "name": "totalAllocation",
      "outputs": [
        {
          "internalType": "uint256",
          "name": "",
          "type": "uint256"
        }
      ],
      "stateMutability": "view",
      "type": "function"
    },
    {
      "inputs": [
        {
          "internalType": "address",
          "name": "",
          "type": "address"
        }
      ],
      "name": "totalDeployedPerAsset",
      "outputs": [
        {
          "internalType": "uint256",
          "name": "",
          "type": "uint256"
        }
      ],
      "stateMutability": "view",
      "type": "function"
    },
    {
      "inputs": [
        {
          "internalType": "address",
          "name": "strategy",
          "type": "address"
        }
      ],
      "name": "unpauseStrategy",
      "outputs": [],
      "stateMutability": "nonpayable",
      "type": "function"
    },
    {
      "inputs": [
        {
          "internalType": "address",
          "name": "strategy",
          "type": "address"
        },
        {
          "internalType": "uint256",
          "name": "newAllocation",
          "type": "uint256"
        }
      ],
      "name": "updateStrategyAllocation",
      "outputs": [],
      "stateMutability": "nonpayable",
      "type": "function"
    },
    {
      "inputs": [
        {
          "internalType": "address",
          "name": "newVault",
          "type": "address"
        }
      ],
      "name": "updateVault",
      "outputs": [],
      "stateMutability": "nonpayable",
      "type": "function"
    },
    {
      "inputs": [],
      "name": "vault",
      "outputs": [
        {
          "internalType": "address",
          "name": "",
          "type": "address"
        }
      ],
      "stateMutability": "view",
      "type": "function"
    }
  ],
  "bytecode": "0x6080346101c357601f612bce38819003918201601f19168301916001600160401b038311848410176101c8578084926020946040528339810103126101c357516001600160a01b038116908190036101c35760018055801561018e57600280546001600160a01b03191682179055336000908152600080516020612bae833981519152602052604090205460ff161561014e575b60008181527f57c45785f0bfdd0436a24ca59ce8cf4a246623230045d7db55b0ff1db74c5822602052604090205460ff16156100d9575b6040516129af90816101df8239f35b60008181527f57c45785f0bfdd0436a24ca59ce8cf4a246623230045d7db55b0ff1db74c582260205260408120805460ff191660011790553391907f31e0210044b4f6757ce6aa31f9c6e8d4896d24a755014887391a926c5224d95990600080516020612b8e8339815191529080a4386100ca565b336000818152600080516020612bae83398151915260205260408120805460ff191660011790558190600080516020612b8e8339815191528180a4610093565b60405162461bcd60e51b815260206004820152600d60248201526c125b9d985b1a59081d985d5b1d609a1b6044820152606490fd5b600080fd5b634e487b7160e01b600052604160045260246000fdfe608080604052600436101561001357600080fd5b60003560e01c90816301ffc9a714611d74575080630ff323a314611d2c578063107126cb14611cfb57806318ebca74146119a057806322459e1814611965578063248a9ca31461193057806326988bc5146116e55780632f2ff15d1461161e57806330528ccc146114c5578063309ee57e146110dc57806336568abe1461103d57806339ebf82314610f915780633a1d532b14610f3657806354192ad514610ebe578063587436e414610dcb57806379203dc414610dad57806391d1485414610d5f57806398c4f1ac14610d24578063a217fddf14610d08578063a42f3ad414610a58578063b0736b3614610a1e578063b1fb09f914610994578063b20b242914610953578063c717f4f214610919578063d3f6b598146108d4578063d547741f1461088d578063e7563f3f14610667578063ed4a98c614610558578063f55c6c2b146101955763fbfa77cf1461016957600080fd5b346101905760003660031901126101905760206001600160a01b0360025416604051908152f35b600080fd5b346101905760a0366003190112610190576101ae611e12565b60243567ffffffffffffffff8111610190576101ce903690600401611ed3565b90604435916064359360843567ffffffffffffffff8111610190576101f7903690600401611ea2565b90610200612350565b6001600160a01b03831696610216881515612170565b6102218715156121bb565b60018110158061054d575b156105095787600052600360205261024f60ff6004604060002001541615612206565b87600052600360205260406000208873ffffffffffffffffffffffffffffffffffffffff19825416178155600181019167ffffffffffffffff8711610409576102988354611f01565b601f81116104cc575b5060009287601f811160011461046357600794600091610458575b508860011b906000198a60031b1c19161790555b6002820189905560048201805461ffff19166101011790556005820155426006820155019067ffffffffffffffff83116104095768010000000000000000831161040957815483835580841061043a575b5090600052602060002060005b83811061041f575050505061034290612268565b600554680100000000000000008110156104095780600161036892016005556005611e8a565b81549060031b906001600160a01b0387831b921b191617905561038d836008546122ac565b60085580604051926060845281606085015260808401376000828201608001526020820192909252601f909101601f19168101906080817fff97eacae15eb9fb72494de43b82323b7e42cc041aead14a8b9946da11189f7c9360016040830152030190a2005b634e487b7160e01b600052602160045260246000fd5b634e487b7160e01b600052604160045260246000fd5b600190602061042d856120ee565b940193818401550161032e565b61045290836000528460206000209182019101612251565b88610321565b90508901358c6102bc565b50808452602084208489601f1981165b8c8189106104af57506007975010610495575b5050600188811b0190556102d0565b8a013560001960038b901b60f8161c191690558b80610486565b8301358455602097880197600190940193909201918b9150610473565b6104f990846000526020600020601f8a0160051c81019160208b106104ff575b601f0160051c0190612251565b8a6102a1565b90915081906104ec565b606460405162461bcd60e51b815260206004820152601260248201527f496e76616c6964207269736b206c6576656c00000000000000000000000000006044820152fd5b50600381111561022c565b34610190576000366003190112610190576005546000805b8281106106195750610581906122e0565b906000805b8281106105a757604051602080825281906105a390820187612056565b0390f35b6001600160a01b036105b882611e3e565b90549060031b1c16600052600360205260ff600460406000200154166105e1575b600101610586565b906106116001916001600160a01b036105f985611e3e565b90549060031b1c1661060b8288612312565b526122b9565b9190506105d9565b6001600160a01b0361062a82611e3e565b90549060031b1c16600052600360205260ff60046040600020015416610653575b600101610570565b9061065f6001916122b9565b91905061064b565b34610190576020366003190112610190576001600160a01b03610688611e12565b610690612350565b168015610849576002546001600160a01b031660008181527f57c45785f0bfdd0436a24ca59ce8cf4a246623230045d7db55b0ff1db74c5822602052604090205460ff166107bb575b5060008181527f57c45785f0bfdd0436a24ca59ce8cf4a246623230045d7db55b0ff1db74c5822602052604090205460ff1615610734575b73ffffffffffffffffffffffffffffffffffffffff196002541617600255600080f35b60008181527f57c45785f0bfdd0436a24ca59ce8cf4a246623230045d7db55b0ff1db74c582260205260408120805460ff19166001179055339082907f31e0210044b4f6757ce6aa31f9c6e8d4896d24a755014887391a926c5224d959907f2f8788117e7eff1d82e926ec794901d17c78024a50270940304540a733656f0d9080a4610711565b6001600160a01b03811660009081527f57c45785f0bfdd0436a24ca59ce8cf4a246623230045d7db55b0ff1db74c582260205260408120805460ff191690553391907f31e0210044b4f6757ce6aa31f9c6e8d4896d24a755014887391a926c5224d959907ff6391f5c32d9c69d2a47ea670b442974b53935d1edc7fd64eb21e047a839171b9080a4816106d9565b606460405162461bcd60e51b815260206004820152600d60248201527f496e76616c6964207661756c74000000000000000000000000000000000000006044820152fd5b34610190576040366003190112610190576108d26004356108ac611e28565b906108cd6108c882600052600060205260016040600020015490565b612456565b6124f5565b005b34610190576020366003190112610190576001600160a01b036108f5611e12565b6108fd612350565b166000908152600360205260409020600401805460ff19169055005b34610190576020366003190112610190576001600160a01b0361093a611e12565b1660005260076020526020604060002054604051908152f35b3461019057602036600319011261019057600435600454811015610190576001600160a01b03610984602092611e6f565b90549060031b1c16604051908152f35b34610190576040366003190112610190576109ad611e12565b6001600160a01b03602435916109c1612350565b168060005260036020526109df60ff60046040600020015416612102565b806000526003602052610a0582610a0060026040600020015460085461214d565b6122ac565b6008556000526003602052600260406000200155600080f35b34610190576020366003190112610190576001600160a01b03610a3f611e12565b1660005260066020526020604060002054604051908152f35b3461019057600036600319011261019057600080600554905b818110610c665750610a82826122e0565b91610aa5610a8f826122c8565b91610a9d6040519384611f3b565b8083526122c8565b602082019290601f1901368437600090815b818110610b1457610ada8686866020604051948594604086526040860190612056565b9184830382860152519182815201919060005b818110610afb575050500390f35b8251845285945060209384019390920191600101610aed565b6001600160a01b03610b2582611e3e565b90549060031b1c1680600052600360205260ff60046040600020015416610b50575b50600101610ab7565b60405163fcf62a0b60e01b8152604081600481855afa60009181610c35575b50610b7b575b50610b47565b610b86575b80610b75565b602081600492610b99878b989698612312565b52604051928380927fa5f352b70000000000000000000000000000000000000000000000000000000082525afa60009181610bfe575b5091610bed9160019315600014610bf45750600061060b8288612312565b9290610b80565b61060b8288612312565b90916020823d8211610c2d575b81610c1860209383611f3b565b81010312610c2a575051906001610bcf565b80fd5b3d9150610c0b565b610c5791925060403d8111610c5f575b610c4f8183611f3b565b810190612333565b509089610b6f565b503d610c45565b6001600160a01b03610c7782611e3e565b90549060031b1c1680600052600360205260ff60046040600020015416610ca2575b50600101610a71565b604060049181519283809263fcf62a0b60e01b82525afa60009181610ce7575b5015610c9957610cd3575b83610c99565b91610cdf6001916122b9565b929050610ccd565b610d0091925060403d8111610c5f57610c4f8183611f3b565b509085610cc2565b3461019057600036600319011261019057602060405160008152f35b346101905760003660031901126101905760206040517f31e0210044b4f6757ce6aa31f9c6e8d4896d24a755014887391a926c5224d9598152f35b3461019057604036600319011261019057610d78611e28565b60043560005260006020526001600160a01b0360406000209116600052602052602060ff604060002054166040519015158152f35b34610190576000366003190112610190576020600854604051908152f35b34610190576000366003190112610190576004546000805b828110610e705750610df4906122e0565b906000805b828110610e1657604051602080825281906105a390820187612056565b6001600160a01b03610e2782611e6f565b90549060031b1c16600052600360205260ff60046040600020015416610e50575b600101610df9565b90610e686001916001600160a01b036105f985611e6f565b919050610e48565b6001600160a01b03610e8182611e6f565b90549060031b1c16600052600360205260ff60046040600020015416610eaa575b600101610de3565b90610eb66001916122b9565b919050610ea2565b34610190576020366003190112610190576001600160a01b03610edf611e12565b166000526003602052610f1e60406000206002810154610f09600160ff6004850154169301611f5d565b91604051938493608085526080850190612024565b91602084015260006040840152151560608301520390f35b3461019057604036600319011261019057610f4f611e12565b6001600160a01b03610f5f611e28565b911660005260036020526001600160a01b03600360406000200191166000526020526020604060002054604051908152f35b34610190576020366003190112610190576001600160a01b03610fb2611e12565b16600052600360205260406000206001600160a01b03815416610fd760018301611f5d565b9160028101549060048101549061102f600660058301549201549261100e604051978897885260e0602089015260e0880190612024565b94604087015260ff81161515606087015260ff608087019160081c16612049565b60a084015260c08301520390f35b3461019057604036600319011261019057611056611e28565b336001600160a01b03821603611072576108d2906004356124f5565b608460405162461bcd60e51b815260206004820152602f60248201527f416363657373436f6e74726f6c3a2063616e206f6e6c792072656e6f756e636560448201527f20726f6c657320666f722073656c6600000000000000000000000000000000006064820152fd5b346101905760603660031901126101905760043567ffffffffffffffff81116101905761110d903690600401611ea2565b60243567ffffffffffffffff81116101905761112d903690600401611ea2565b600093919350604435916001600160a01b038316809303610190573360009081527f57c45785f0bfdd0436a24ca59ce8cf4a246623230045d7db55b0ff1db74c582260205260409020546111839060ff16612093565b61118b6124a0565b8184036114815760005b8481106111a25760018055005b6111b56111b08287856120de565b6120ee565b906001600160a01b036111c982868a6120de565b359216918260005260036020526111ea60ff60046040600020015416612102565b801561143d5782600052600360205260076040600020015461137a575b61125a6040517f23b872dd00000000000000000000000000000000000000000000000000000000602082015233602482015284604482015282606482015260648152611254608482611f3b565b8761259e565b6040519286602085015260208452611273604085611f3b565b803b156101905760006112c194604051809681927f59efcb15000000000000000000000000000000000000000000000000000000008352866004840152604060248401526044830190612024565b038183855af193841561136e57602088937f08cebb08b8b8e500ab46e7bc999171a89707e8f84516c3e19c07502c355976319260019761135d575b5083600052600382526040600381600020016000908782528452206113228282546122ac565b90558360005260038252426006604060002001558460005260068252604060002061134e8282546122ac565b9055604051908152a301611195565b600061136891611f3b565b8c6112fc565b6040513d6000823e3d90fd5b9690949395600093929396875b85600052600360205260076040600020015481101561142e57856000526003602052866001600160a01b036113c3836007604060002001611e8a565b90549060031b1c16146113d857600101611387565b509495919790965060019392935b61120757606460405162461bcd60e51b815260206004820152601f60248201527f4173736574206e6f7420737570706f72746564206279207374726174656779006044820152fd5b509495919790969392936113e6565b606460405162461bcd60e51b815260206004820152600e60248201527f496e76616c696420616d6f756e740000000000000000000000000000000000006044820152fd5b606460405162461bcd60e51b815260206004820152601560248201527f4172726179206c656e677468206d69736d6174636800000000000000000000006044820152fd5b34610190576040366003190112610190576114de611e12565b6001600160a01b036114ee611e28565b916114f7612350565b6114ff6124a0565b169081600052600360205261151e60ff60046040600020015416612102565b6040516001600160a01b03821660208201526020815261153f604082611f3b565b823b1561019057600061158791604051809381927f2c1c1276000000000000000000000000000000000000000000000000000000008352602060048401526024830190612024565b038183875af1908161160d575b506115a0575b60018055005b816000526003602052600460406000200160ff1981541690558160005260036020526001600160a01b0360036040600020019116600052602052600060408120557f1008d687965153ac40a92fe871a3f49543c0d3db0e415046035c5272ba541bd8600080a2808061159a565b600061161891611f3b565b83611594565b346101905760403660031901126101905760043561163a611e28565b906116566108c882600052600060205260016040600020015490565b80600052600060205260406000206001600160a01b03831660005260205260ff604060002054161561168457005b80600052600060205260406000206001600160a01b0383166000526020526040600020600160ff198254161790556001600160a01b03339216907f2f8788117e7eff1d82e926ec794901d17c78024a50270940304540a733656f0d600080a4005b34610190576060366003190112610190576116fe611e12565b60243567ffffffffffffffff81116101905761171e903690600401611ed3565b906044359161172b612350565b6001600160a01b03841693611741851515612170565b61174c8415156121bb565b84600052600360205261176a60ff6004604060002001541615612206565b8460005260036020526040600020908573ffffffffffffffffffffffffffffffffffffffff19835416178255600182019167ffffffffffffffff8411610409576117b48354611f01565b601f81116118fe575b5060009284601f8111600114611895576118189460009161188a575b508560011b906000198760031b1c19161790555b6002810186905560048101805461ffff19166001908117909155600582015542600690910155612268565b611824836008546122ac565b60085580604051926060845281606085015260808401376000828201608001526020820192909252601f909101601f19168101906080817fff97eacae15eb9fb72494de43b82323b7e42cc041aead14a8b9946da11189f7c9360006040830152030190a2005b9050860135896117d9565b50808452602084208486601f1981165b8088106118e0576118189750106118c6575b5050600185811b0190556117ed565b870135600019600388901b60f8161c1916905588806118b7565b898301358455602097880197600190940193909201918891506118a5565b61192a90846000526020600020601f870160051c810191602088106104ff57601f0160051c0190612251565b876117bd565b3461019057602036600319011261019057602061195d600435600052600060205260016040600020015490565b604051908152f35b346101905760003660031901126101905760206040517fcab5a0bfe0b79d2c4b1c2e02599fa044d115b7511f9659307cb42769509677098152f35b346101905760403660031901126101905760043567ffffffffffffffff8111610190576119d1903690600401611ea2565b906001600160a01b036119e2611e28565b33821660009081527f57c45785f0bfdd0436a24ca59ce8cf4a246623230045d7db55b0ff1db74c58226020526040902054611a1f9060ff16612093565b611a276124a0565b1690604051926370a0823160e01b8452306004850152602084602481865afa93841561136e57600094611cc7575b5060005b818110611b7a575050506040516370a0823160e01b8152306004820152602081602481855afa90811561136e57600091611b47575b50602092611a9b9161214d565b9081611aaf575b5060018055604051908152f35b611b076001600160a01b0360025416604051907fa9059cbb0000000000000000000000000000000000000000000000000000000086830152602482015283604482015260448152611b01606482611f3b565b8261259e565b80600052600783524260406000205560007fb8266a6764bb91534bdadbda603513541060472756b1e0e0ba1683a9dfde331d84604051858152a382611aa2565b90506020813d602011611b72575b81611b6260209383611f3b565b8101031261019057516020611a8e565b3d9150611b55565b6001600160a01b03611b906111b08385876120de565b16806000526003602052611bae60ff60046040600020015416612102565b60405185602082015260208152611bc6604082611f3b565b813b15610190576000611c0e91604051809381927fce5c7f61000000000000000000000000000000000000000000000000000000008352602060048401526024830190612024565b038183865af19081611cb6575b50611c2a575b50600101611a59565b6040517f12065fe0000000000000000000000000000000000000000000000000000000008152602081600481855afa801561136e57600090611c85575b50509060019160005260036020524260066040600020015590611c21565b6020823d8211611cae575b81611c9d60209383611f3b565b81010312610c2a5750518190611c67565b3d9150611c90565b6000611cc191611f3b565b87611c1b565b9093506020813d602011611cf3575b81611ce360209383611f3b565b8101031261019057519284611a55565b3d9150611cd6565b3461019057602036600319011261019057600435600554811015610190576001600160a01b03610984602092611e3e565b34610190576020366003190112610190576001600160a01b03611d4d611e12565b611d55612350565b166000908152600360205260409020600401805460ff19166001179055005b3461019057602036600319011261019057600435907fffffffff00000000000000000000000000000000000000000000000000000000821680920361019057817f7965db0b0000000000000000000000000000000000000000000000000000000060209314908115611de8575b5015158152f35b7f01ffc9a70000000000000000000000000000000000000000000000000000000091501483611de1565b600435906001600160a01b038216820361019057565b602435906001600160a01b038216820361019057565b600554811015611e5957600560005260206000200190600090565b634e487b7160e01b600052603260045260246000fd5b600454811015611e5957600460005260206000200190600090565b8054821015611e595760005260206000200190600090565b9181601f840112156101905782359167ffffffffffffffff8311610190576020808501948460051b01011161019057565b9181601f840112156101905782359167ffffffffffffffff8311610190576020838186019501011161019057565b90600182811c92168015611f31575b6020831014611f1b57565b634e487b7160e01b600052602260045260246000fd5b91607f1691611f10565b90601f8019910116810190811067ffffffffffffffff82111761040957604052565b9060405191826000825492611f7184611f01565b8084529360018116908115611fdf5750600114611f98575b50611f9692500383611f3b565b565b90506000929192526020600020906000915b818310611fc3575050906020611f969282010138611f89565b6020919350806001915483858901015201910190918492611faa565b905060209250611f9694915060ff191682840152151560051b82010138611f89565b60005b8381106120145750506000910152565b8181015183820152602001612004565b9060209161203d81518092818552858086019101612001565b601f01601f1916010190565b9060028210156103f35752565b906020808351928381520192019060005b8181106120745750505090565b82516001600160a01b0316845260209384019390920191600101612067565b1561209a57565b606460405162461bcd60e51b815260206004820152601360248201527f4f6e6c79207661756c742063616e2063616c6c000000000000000000000000006044820152fd5b9190811015611e595760051b0190565b356001600160a01b03811681036101905790565b1561210957565b606460405162461bcd60e51b815260206004820152601360248201527f5374726174656779206e6f7420616374697665000000000000000000000000006044820152fd5b9190820391821161215a57565b634e487b7160e01b600052601160045260246000fd5b1561217757565b606460405162461bcd60e51b815260206004820152601060248201527f496e76616c6964207374726174656779000000000000000000000000000000006044820152fd5b156121c257565b606460405162461bcd60e51b815260206004820152601260248201527f496e76616c696420616c6c6f636174696f6e00000000000000000000000000006044820152fd5b1561220d57565b606460405162461bcd60e51b815260206004820152601760248201527f537472617465677920616c7265616479206578697374730000000000000000006044820152fd5b81811061225c575050565b60008155600101612251565b600454680100000000000000008110156104095780600161228e92016004556004611e8a565b6001600160a01b0380839493549260031b9316831b921b1916179055565b9190820180921161215a57565b600019811461215a5760010190565b67ffffffffffffffff81116104095760051b60200190565b906122ea826122c8565b6122f76040519182611f3b565b8281528092612308601f19916122c8565b0190602036910137565b8051821015611e595760209160051b010190565b5190811515820361019057565b919082604091031261019057602061234a83612326565b92015190565b3360009081527fad3228b676f7d3cd4284a5443f17f1962b36e491b30a40b2405849e597ba5fb5602052604090205460ff161561238957565b612452612395336126db565b61243260116123a46000612828565b9260376040519485927f416363657373436f6e74726f6c3a206163636f756e742000000000000000000060208501526123e68151809260208688019101612001565b83017f206973206d697373696e6720726f6c652000000000000000000000000000000083820152612421825180936020604885019101612001565b01010301601f198101835282611f3b565b60405191829162461bcd60e51b8352602060048401526024830190612024565b0390fd5b80600052600060205260406000206001600160a01b03331660005260205260ff60406000205416156124855750565b6124529061243260116123a461249a336126db565b93612828565b6002600154146124b1576002600155565b606460405162461bcd60e51b815260206004820152601f60248201527f5265656e7472616e637947756172643a207265656e7472616e742063616c6c006044820152fd5b80600052600060205260406000206001600160a01b03831660005260205260ff60406000205416612524575050565b80600052600060205260406000206001600160a01b038316600052602052604060002060ff1981541690556001600160a01b03339216907ff6391f5c32d9c69d2a47ea670b442974b53935d1edc7fd64eb21e047a839171b600080a4565b67ffffffffffffffff811161040957601f01601f191660200190565b6001600160a01b036126209116916040926000808551936125bf8786611f3b565b602085527f5361666545524332303a206c6f772d6c6576656c2063616c6c206661696c6564602086015260208151910182855af13d156126c2573d9161260483612582565b9261261187519485611f3b565b83523d6000602085013e6128e1565b80519081159182156126a0575b5050156126375750565b6084905162461bcd60e51b815260206004820152602a60248201527f5361666545524332303a204552433230206f7065726174696f6e20646964206e60448201527f6f742073756363656564000000000000000000000000000000000000000000006064820152fd5b81925090602091810103126101905760206126bb9101612326565b388061262d565b6060916128e1565b908151811015611e59570160200190565b6000906126e8602a612582565b916126f66040519384611f3b565b602a8352612704602a612582565b6020840190601f19013682378351156128145760309053825160011015612800576078602184015350602960005b600182116127875750506127435790565b606460405162461bcd60e51b815260206004820152602060248201527f537472696e67733a20686578206c656e67746820696e73756666696369656e746044820152fd5b9091600f811660108110156127ec577f3031323334353637383961626364656600000000000000000000000000000000901a6127c384866126ca565b5360041c9180156127d8576000190190612732565b602482634e487b7160e01b81526011600452fd5b602483634e487b7160e01b81526032600452fd5b80634e487b7160e01b602492526032600452fd5b602482634e487b7160e01b81526032600452fd5b6000906128356042612582565b916128436040519384611f3b565b604283526128516042612582565b6020840190601f19013682378351156128145760309053825160011015612800576078602184015350604160005b600182116128905750506127435790565b9091600f811660108110156127ec577f3031323334353637383961626364656600000000000000000000000000000000901a6128cc84866126ca565b5360041c9180156127d857600019019061287f565b9192901561294257508151156128f5575090565b3b156128fe5790565b606460405162461bcd60e51b815260206004820152601d60248201527f416464726573733a2063616c6c20746f206e6f6e2d636f6e74726163740000006044820152fd5b8251909150156129555750805190602001fd5b6124529060405191829162461bcd60e51b835260206004840152602483019061202456fea26469706673582212207e1ee988a51bb5a32dff9e84de472ed1df7e88bb40528e2ad7917892e4ac60c664736f6c634300081c00332f8788117e7eff1d82e926ec794901d17c78024a50270940304540a733656f0dad3228b676f7d3cd4284a5443f17f1962b36e491b30a40b2405849e597ba5fb5",
  "linkReferences": {},
  "deployedLinkReferences": {}
}