{
  "_format": "hh-sol-artifact-1",
  "contractName": "TrueMultiAssetVault",
  "sourceName": "contracts/core/TrueMultiAssetVault.sol",
  "abi": [
    {
      "inputs": [
        {
          "internalType": "string",
          "name": "name",
          "type": "string"
        },
        {
          "internalType": "string",
          "name": "symbol",
          "type": "string"
        },
        {
          "internalType": "address",
          "name": "_agentAddress",
          "type": "address"
        },
        {
          "internalType": "address",
          "name": "_priceOracle",
          "type": "address"
        },
        {
          "internalType": "address",
          "name": "_epochRewardManager",
          "type": "address"
        }
      ],
      "stateMutability": "nonpayable",
      "type": "constructor"
    },
    {
      "anonymous": false,
      "inputs": [
        {
          "indexed": true,
          "internalType": "address",
          "name": "owner",
          "type": "address"
        },
        {
          "indexed": true,
          "internalType": "address",
          "name": "spender",
          "type": "address"
        },
        {
          "indexed": false,
          "internalType": "uint256",
          "name": "value",
          "type": "uint256"
        }
      ],
      "name": "Approval",
      "type": "event"
    },
    {
      "anonymous": false,
      "inputs": [
        {
          "indexed": true,
          "internalType": "address",
          "name": "asset",
          "type": "address"
        },
        {
          "indexed": false,
          "internalType": "uint256",
          "name": "minDeposit",
          "type": "uint256"
        },
        {
          "indexed": false,
          "internalType": "uint256",
          "name": "maxDeposit",
          "type": "uint256"
        }
      ],
      "name": "AssetAdded",
      "type": "event"
    },
    {
      "anonymous": false,
      "inputs": [
        {
          "indexed": true,
          "internalType": "address",
          "name": "asset",
          "type": "address"
        },
        {
          "indexed": true,
          "internalType": "address",
          "name": "strategy",
          "type": "address"
        },
        {
          "indexed": false,
          "internalType": "uint256",
          "name": "amount",
          "type": "uint256"
        }
      ],
      "name": "AssetDeployedToStrategy",
      "type": "event"
    },
    {
      "anonymous": false,
      "inputs": [
        {
          "indexed": true,
          "internalType": "address",
          "name": "user",
          "type": "address"
        },
        {
          "indexed": true,
          "internalType": "address",
          "name": "asset",
          "type": "address"
        },
        {
          "indexed": false,
          "internalType": "uint256",
          "name": "amount",
          "type": "uint256"
        },
        {
          "indexed": false,
          "internalType": "uint256",
          "name": "shares",
          "type": "uint256"
        },
        {
          "indexed": false,
          "internalType": "enum IEpochRewardManager.RiskLevel",
          "name": "riskLevel",
          "type": "uint8"
        }
      ],
      "name": "AssetDeposited",
      "type": "event"
    },
    {
      "anonymous": false,
      "inputs": [
        {
          "indexed": true,
          "internalType": "address",
          "name": "user",
          "type": "address"
        },
        {
          "indexed": true,
          "internalType": "address",
          "name": "asset",
          "type": "address"
        },
        {
          "indexed": false,
          "internalType": "uint256",
          "name": "amount",
          "type": "uint256"
        },
        {
          "indexed": false,
          "internalType": "uint256",
          "name": "shares",
          "type": "uint256"
        }
      ],
      "name": "AssetWithdrawn",
      "type": "event"
    },
    {
      "anonymous": false,
      "inputs": [
        {
          "indexed": false,
          "internalType": "bool",
          "name": "enabled",
          "type": "bool"
        }
      ],
      "name": "EmergencyModeToggled",
      "type": "event"
    },
    {
      "anonymous": false,
      "inputs": [
        {
          "indexed": true,
          "internalType": "address",
          "name": "user",
          "type": "address"
        },
        {
          "indexed": true,
          "internalType": "uint256",
          "name": "epoch",
          "type": "uint256"
        },
        {
          "indexed": false,
          "internalType": "bool",
          "name": "won",
          "type": "bool"
        },
        {
          "indexed": false,
          "internalType": "uint256",
          "name": "amount",
          "type": "uint256"
        }
      ],
      "name": "EpochRewardClaimed",
      "type": "event"
    },
    {
      "anonymous": false,
      "inputs": [
        {
          "indexed": true,
          "internalType": "address",
          "name": "strategy",
          "type": "address"
        },
        {
          "indexed": false,
          "internalType": "uint256",
          "name": "amount",
          "type": "uint256"
        }
      ],
      "name": "NativeFlowDeployedToStrategy",
      "type": "event"
    },
    {
      "anonymous": false,
      "inputs": [
        {
          "indexed": true,
          "internalType": "address",
          "name": "user",
          "type": "address"
        },
        {
          "indexed": false,
          "internalType": "uint256",
          "name": "amount",
          "type": "uint256"
        },
        {
          "indexed": false,
          "internalType": "uint256",
          "name": "shares",
          "type": "uint256"
        },
        {
          "indexed": false,
          "internalType": "enum IEpochRewardManager.RiskLevel",
          "name": "riskLevel",
          "type": "uint8"
        }
      ],
      "name": "NativeFlowDeposited",
      "type": "event"
    },
    {
      "anonymous": false,
      "inputs": [
        {
          "indexed": true,
          "internalType": "address",
          "name": "user",
          "type": "address"
        },
        {
          "indexed": false,
          "internalType": "uint256",
          "name": "amount",
          "type": "uint256"
        },
        {
          "indexed": false,
          "internalType": "uint256",
          "name": "shares",
          "type": "uint256"
        }
      ],
      "name": "NativeFlowWithdrawn",
      "type": "event"
    },
    {
      "anonymous": false,
      "inputs": [
        {
          "indexed": true,
          "internalType": "address",
          "name": "user",
          "type": "address"
        },
        {
          "indexed": false,
          "internalType": "enum IEpochRewardManager.RiskLevel",
          "name": "oldLevel",
          "type": "uint8"
        },
        {
          "indexed": false,
          "internalType": "enum IEpochRewardManager.RiskLevel",
          "name": "newLevel",
          "type": "uint8"
        }
      ],
      "name": "RiskLevelUpdated",
      "type": "event"
    },
    {
      "anonymous": false,
      "inputs": [
        {
          "indexed": true,
          "internalType": "bytes32",
          "name": "role",
          "type": "bytes32"
        },
        {
          "indexed": true,
          "internalType": "bytes32",
          "name": "previousAdminRole",
          "type": "bytes32"
        },
        {
          "indexed": true,
          "internalType": "bytes32",
          "name": "newAdminRole",
          "type": "bytes32"
        }
      ],
      "name": "RoleAdminChanged",
      "type": "event"
    },
    {
      "anonymous": false,
      "inputs": [
        {
          "indexed": true,
          "internalType": "bytes32",
          "name": "role",
          "type": "bytes32"
        },
        {
          "indexed": true,
          "internalType": "address",
          "name": "account",
          "type": "address"
        },
        {
          "indexed": true,
          "internalType": "address",
          "name": "sender",
          "type": "address"
        }
      ],
      "name": "RoleGranted",
      "type": "event"
    },
    {
      "anonymous": false,
      "inputs": [
        {
          "indexed": true,
          "internalType": "bytes32",
          "name": "role",
          "type": "bytes32"
        },
        {
          "indexed": true,
          "internalType": "address",
          "name": "account",
          "type": "address"
        },
        {
          "indexed": true,
          "internalType": "address",
          "name": "sender",
          "type": "address"
        }
      ],
      "name": "RoleRevoked",
      "type": "event"
    },
    {
      "anonymous": false,
      "inputs": [
        {
          "indexed": true,
          "internalType": "address",
          "name": "from",
          "type": "address"
        },
        {
          "indexed": true,
          "internalType": "address",
          "name": "to",
          "type": "address"
        },
        {
          "indexed": false,
          "internalType": "uint256",
          "name": "value",
          "type": "uint256"
        }
      ],
      "name": "Transfer",
      "type": "event"
    },
    {
      "anonymous": false,
      "inputs": [
        {
          "indexed": true,
          "internalType": "address",
          "name": "user",
          "type": "address"
        },
        {
          "indexed": false,
          "internalType": "uint256",
          "name": "availableAt",
          "type": "uint256"
        }
      ],
      "name": "WithdrawalRequested",
      "type": "event"
    },
    {
      "anonymous": false,
      "inputs": [
        {
          "indexed": false,
          "internalType": "uint256",
          "name": "amount",
          "type": "uint256"
        },
        {
          "indexed": false,
          "internalType": "uint256",
          "name": "epoch",
          "type": "uint256"
        }
      ],
      "name": "YieldDistributed",
      "type": "event"
    },
    {
      "anonymous": false,
      "inputs": [
        {
          "indexed": true,
          "internalType": "address",
          "name": "asset",
          "type": "address"
        },
        {
          "indexed": false,
          "internalType": "uint256",
          "name": "amount",
          "type": "uint256"
        }
      ],
      "name": "YieldHarvested",
      "type": "event"
    },
    {
      "stateMutability": "payable",
      "type": "fallback"
    },
    {
      "inputs": [],
      "name": "AGENT_ROLE",
      "outputs": [
        {
          "internalType": "bytes32",
          "name": "",
          "type": "bytes32"
        }
      ],
      "stateMutability": "view",
      "type": "function"
    },
    {
      "inputs": [],
      "name": "ANKRFLOW",
      "outputs": [
        {
          "internalType": "address",
          "name": "",
          "type": "address"
        }
      ],
      "stateMutability": "view",
      "type": "function"
    },
    {
      "inputs": [],
      "name": "CBBTC",
      "outputs": [
        {
          "internalType": "address",
          "name": "",
          "type": "address"
        }
      ],
      "stateMutability": "view",
      "type": "function"
    },
    {
      "inputs": [],
      "name": "DEFAULT_ADMIN_ROLE",
      "outputs": [
        {
          "internalType": "bytes32",
          "name": "",
          "type": "bytes32"
        }
      ],
      "stateMutability": "view",
      "type": "function"
    },
    {
      "inputs": [],
      "name": "EMERGENCY_ROLE",
      "outputs": [
        {
          "internalType": "bytes32",
          "name": "",
          "type": "bytes32"
        }
      ],
      "stateMutability": "view",
      "type": "function"
    },
    {
      "inputs": [],
      "name": "NATIVE_FLOW",
      "outputs": [
        {
          "internalType": "address",
          "name": "",
          "type": "address"
        }
      ],
      "stateMutability": "view",
      "type": "function"
    },
    {
      "inputs": [],
      "name": "PRICE_ORACLE_ROLE",
      "outputs": [
        {
          "internalType": "bytes32",
          "name": "",
          "type": "bytes32"
        }
      ],
      "stateMutability": "view",
      "type": "function"
    },
    {
      "inputs": [],
      "name": "STFLOW",
      "outputs": [
        {
          "internalType": "address",
          "name": "",
          "type": "address"
        }
      ],
      "stateMutability": "view",
      "type": "function"
    },
    {
      "inputs": [],
      "name": "STGUSD",
      "outputs": [
        {
          "internalType": "address",
          "name": "",
          "type": "address"
        }
      ],
      "stateMutability": "view",
      "type": "function"
    },
    {
      "inputs": [],
      "name": "USDC_E",
      "outputs": [
        {
          "internalType": "address",
          "name": "",
          "type": "address"
        }
      ],
      "stateMutability": "view",
      "type": "function"
    },
    {
      "inputs": [],
      "name": "USDF",
      "outputs": [
        {
          "internalType": "address",
          "name": "",
          "type": "address"
        }
      ],
      "stateMutability": "view",
      "type": "function"
    },
    {
      "inputs": [],
      "name": "USDT",
      "outputs": [
        {
          "internalType": "address",
          "name": "",
          "type": "address"
        }
      ],
      "stateMutability": "view",
      "type": "function"
    },
    {
      "inputs": [],
      "name": "WETH",
      "outputs": [
        {
          "internalType": "address",
          "name": "",
          "type": "address"
        }
      ],
      "stateMutability": "view",
      "type": "function"
    },
    {
      "inputs": [],
      "name": "WFLOW",
      "outputs": [
        {
          "internalType": "address",
          "name": "",
          "type": "address"
        }
      ],
      "stateMutability": "view",
      "type": "function"
    },
    {
      "inputs": [
        {
          "internalType": "address",
          "name": "asset",
          "type": "address"
        },
        {
          "internalType": "uint256",
          "name": "minDeposit",
          "type": "uint256"
        },
        {
          "internalType": "uint256",
          "name": "maxDeposit",
          "type": "uint256"
        },
        {
          "internalType": "uint8",
          "name": "decimals",
          "type": "uint8"
        },
        {
          "internalType": "bool",
          "name": "isNative",
          "type": "bool"
        }
      ],
      "name": "addSupportedAsset",
      "outputs": [],
      "stateMutability": "nonpayable",
      "type": "function"
    },
    {
      "inputs": [],
      "name": "agentAddress",
      "outputs": [
        {
          "internalType": "address",
          "name": "",
          "type": "address"
        }
      ],
      "stateMutability": "view",
      "type": "function"
    },
    {
      "inputs": [
        {
          "internalType": "address",
          "name": "owner",
          "type": "address"
        },
        {
          "internalType": "address",
          "name": "spender",
          "type": "address"
        }
      ],
      "name": "allowance",
      "outputs": [
        {
          "internalType": "uint256",
          "name": "",
          "type": "uint256"
        }
      ],
      "stateMutability": "view",
      "type": "function"
    },
    {
      "inputs": [
        {
          "internalType": "address",
          "name": "spender",
          "type": "address"
        },
        {
          "internalType": "uint256",
          "name": "amount",
          "type": "uint256"
        }
      ],
      "name": "approve",
      "outputs": [
        {
          "internalType": "bool",
          "name": "",
          "type": "bool"
        }
      ],
      "stateMutability": "nonpayable",
      "type": "function"
    },
    {
      "inputs": [],
      "name": "asset",
      "outputs": [
        {
          "internalType": "address",
          "name": "",
          "type": "address"
        }
      ],
      "stateMutability": "pure",
      "type": "function"
    },
    {
      "inputs": [
        {
          "internalType": "address",
          "name": "",
          "type": "address"
        }
      ],
      "name": "assetInfo",
      "outputs": [
        {
          "internalType": "bool",
          "name": "supported",
          "type": "bool"
        },
        {
          "internalType": "uint256",
          "name": "totalBalance",
          "type": "uint256"
        },
        {
          "internalType": "uint256",
          "name": "vaultBalance",
          "type": "uint256"
        },
        {
          "internalType": "uint256",
          "name": "strategyBalance",
          "type": "uint256"
        },
        {
          "internalType": "uint256",
          "name": "minDeposit",
          "type": "uint256"
        },
        {
          "internalType": "uint256",
          "name": "maxDeposit",
          "type": "uint256"
        },
        {
          "internalType": "uint8",
          "name": "decimals",
          "type": "uint8"
        },
        {
          "internalType": "bool",
          "name": "acceptingDeposits",
          "type": "bool"
        },
        {
          "internalType": "uint256",
          "name": "totalHarvested",
          "type": "uint256"
        },
        {
          "internalType": "uint256",
          "name": "lastHarvestTime",
          "type": "uint256"
        },
        {
          "internalType": "bool",
          "name": "isNative",
          "type": "bool"
        }
      ],
      "stateMutability": "view",
      "type": "function"
    },
    {
      "inputs": [
        {
          "internalType": "address",
          "name": "account",
          "type": "address"
        }
      ],
      "name": "balanceOf",
      "outputs": [
        {
          "internalType": "uint256",
          "name": "",
          "type": "uint256"
        }
      ],
      "stateMutability": "view",
      "type": "function"
    },
    {
      "inputs": [
        {
          "internalType": "uint256",
          "name": "epochNumber",
          "type": "uint256"
        }
      ],
      "name": "claimEpochReward",
      "outputs": [
        {
          "internalType": "bool",
          "name": "won",
          "type": "bool"
        },
        {
          "internalType": "uint256",
          "name": "rewardAmount",
          "type": "uint256"
        }
      ],
      "stateMutability": "nonpayable",
      "type": "function"
    },
    {
      "inputs": [
        {
          "internalType": "uint256",
          "name": "amount",
          "type": "uint256"
        }
      ],
      "name": "convertNativeToWFlow",
      "outputs": [],
      "stateMutability": "nonpayable",
      "type": "function"
    },
    {
      "inputs": [
        {
          "internalType": "uint256",
          "name": "amount",
          "type": "uint256"
        }
      ],
      "name": "convertWFlowToNative",
      "outputs": [],
      "stateMutability": "nonpayable",
      "type": "function"
    },
    {
      "inputs": [],
      "name": "decimals",
      "outputs": [
        {
          "internalType": "uint8",
          "name": "",
          "type": "uint8"
        }
      ],
      "stateMutability": "view",
      "type": "function"
    },
    {
      "inputs": [
        {
          "internalType": "address",
          "name": "spender",
          "type": "address"
        },
        {
          "internalType": "uint256",
          "name": "subtractedValue",
          "type": "uint256"
        }
      ],
      "name": "decreaseAllowance",
      "outputs": [
        {
          "internalType": "bool",
          "name": "",
          "type": "bool"
        }
      ],
      "stateMutability": "nonpayable",
      "type": "function"
    },
    {
      "inputs": [
        {
          "internalType": "address[]",
          "name": "strategies",
          "type": "address[]"
        },
        {
          "internalType": "uint256[]",
          "name": "amounts",
          "type": "uint256[]"
        },
        {
          "internalType": "address",
          "name": "asset",
          "type": "address"
        }
      ],
      "name": "deployToStrategies",
      "outputs": [],
      "stateMutability": "nonpayable",
      "type": "function"
    },
    {
      "inputs": [
        {
          "internalType": "address",
          "name": "asset",
          "type": "address"
        },
        {
          "internalType": "uint256",
          "name": "amount",
          "type": "uint256"
        },
        {
          "internalType": "address",
          "name": "receiver",
          "type": "address"
        },
        {
          "internalType": "enum IEpochRewardManager.RiskLevel",
          "name": "riskLevel",
          "type": "uint8"
        }
      ],
      "name": "deposit",
      "outputs": [
        {
          "internalType": "uint256",
          "name": "shares",
          "type": "uint256"
        }
      ],
      "stateMutability": "nonpayable",
      "type": "function"
    },
    {
      "inputs": [
        {
          "internalType": "address",
          "name": "asset",
          "type": "address"
        },
        {
          "internalType": "uint256",
          "name": "amount",
          "type": "uint256"
        },
        {
          "internalType": "address",
          "name": "receiver",
          "type": "address"
        }
      ],
      "name": "deposit",
      "outputs": [
        {
          "internalType": "uint256",
          "name": "shares",
          "type": "uint256"
        }
      ],
      "stateMutability": "nonpayable",
      "type": "function"
    },
    {
      "inputs": [
        {
          "internalType": "address[]",
          "name": "assets",
          "type": "address[]"
        },
        {
          "internalType": "uint256[]",
          "name": "amounts",
          "type": "uint256[]"
        },
        {
          "internalType": "address",
          "name": "receiver",
          "type": "address"
        },
        {
          "internalType": "enum IEpochRewardManager.RiskLevel",
          "name": "riskLevel",
          "type": "uint8"
        }
      ],
      "name": "depositMultiple",
      "outputs": [
        {
          "internalType": "uint256",
          "name": "totalShares",
          "type": "uint256"
        }
      ],
      "stateMutability": "payable",
      "type": "function"
    },
    {
      "inputs": [
        {
          "internalType": "address",
          "name": "receiver",
          "type": "address"
        },
        {
          "internalType": "enum IEpochRewardManager.RiskLevel",
          "name": "riskLevel",
          "type": "uint8"
        }
      ],
      "name": "depositNativeFlow",
      "outputs": [
        {
          "internalType": "uint256",
          "name": "shares",
          "type": "uint256"
        }
      ],
      "stateMutability": "payable",
      "type": "function"
    },
    {
      "inputs": [
        {
          "internalType": "address",
          "name": "receiver",
          "type": "address"
        }
      ],
      "name": "depositNativeFlow",
      "outputs": [
        {
          "internalType": "uint256",
          "name": "shares",
          "type": "uint256"
        }
      ],
      "stateMutability": "payable",
      "type": "function"
    },
    {
      "inputs": [
        {
          "internalType": "address",
          "name": "receiver",
          "type": "address"
        },
        {
          "internalType": "enum IEpochRewardManager.RiskLevel",
          "name": "riskLevel",
          "type": "uint8"
        }
      ],
      "name": "depositNativeFlowAsWFlow",
      "outputs": [
        {
          "internalType": "uint256",
          "name": "shares",
          "type": "uint256"
        }
      ],
      "stateMutability": "payable",
      "type": "function"
    },
    {
      "inputs": [],
      "name": "depositsEnabled",
      "outputs": [
        {
          "internalType": "bool",
          "name": "",
          "type": "bool"
        }
      ],
      "stateMutability": "view",
      "type": "function"
    },
    {
      "inputs": [],
      "name": "emergencyMode",
      "outputs": [
        {
          "internalType": "bool",
          "name": "",
          "type": "bool"
        }
      ],
      "stateMutability": "view",
      "type": "function"
    },
    {
      "inputs": [
        {
          "internalType": "address",
          "name": "asset",
          "type": "address"
        },
        {
          "internalType": "uint256",
          "name": "amount",
          "type": "uint256"
        }
      ],
      "name": "emergencyWithdrawAsset",
      "outputs": [],
      "stateMutability": "nonpayable",
      "type": "function"
    },
    {
      "inputs": [],
      "name": "epochRewardManager",
      "outputs": [
        {
          "internalType": "contract IEpochRewardManager",
          "name": "",
          "type": "address"
        }
      ],
      "stateMutability": "view",
      "type": "function"
    },
    {
      "inputs": [],
      "name": "getAllAssetInfo",
      "outputs": [
        {
          "internalType": "address[]",
          "name": "assets",
          "type": "address[]"
        },
        {
          "internalType": "uint256[]",
          "name": "vaultBalances",
          "type": "uint256[]"
        },
        {
          "internalType": "uint256[]",
          "name": "strategyBalances",
          "type": "uint256[]"
        },
        {
          "internalType": "uint256[]",
          "name": "totalBalances",
          "type": "uint256[]"
        },
        {
          "internalType": "bool[]",
          "name": "acceptingDeposits",
          "type": "bool[]"
        }
      ],
      "stateMutability": "view",
      "type": "function"
    },
    {
      "inputs": [
        {
          "internalType": "address",
          "name": "asset",
          "type": "address"
        }
      ],
      "name": "getAssetBalance",
      "outputs": [
        {
          "internalType": "uint256",
          "name": "vaultBalance",
          "type": "uint256"
        },
        {
          "internalType": "uint256",
          "name": "strategyBalance",
          "type": "uint256"
        },
        {
          "internalType": "uint256",
          "name": "totalBalance",
          "type": "uint256"
        }
      ],
      "stateMutability": "view",
      "type": "function"
    },
    {
      "inputs": [],
      "name": "getBalance",
      "outputs": [
        {
          "internalType": "uint256",
          "name": "",
          "type": "uint256"
        }
      ],
      "stateMutability": "view",
      "type": "function"
    },
    {
      "inputs": [
        {
          "internalType": "address",
          "name": "user",
          "type": "address"
        }
      ],
      "name": "getClaimableEpochs",
      "outputs": [
        {
          "internalType": "uint256[]",
          "name": "claimableEpochs",
          "type": "uint256[]"
        }
      ],
      "stateMutability": "view",
      "type": "function"
    },
    {
      "inputs": [],
      "name": "getNativeFlowBalance",
      "outputs": [
        {
          "internalType": "uint256",
          "name": "",
          "type": "uint256"
        }
      ],
      "stateMutability": "view",
      "type": "function"
    },
    {
      "inputs": [
        {
          "internalType": "bytes32",
          "name": "role",
          "type": "bytes32"
        }
      ],
      "name": "getRoleAdmin",
      "outputs": [
        {
          "internalType": "bytes32",
          "name": "",
          "type": "bytes32"
        }
      ],
      "stateMutability": "view",
      "type": "function"
    },
    {
      "inputs": [],
      "name": "getSupportedAssets",
      "outputs": [
        {
          "internalType": "address[]",
          "name": "",
          "type": "address[]"
        }
      ],
      "stateMutability": "view",
      "type": "function"
    },
    {
      "inputs": [],
      "name": "getTotalValueInUSD",
      "outputs": [
        {
          "internalType": "uint256",
          "name": "totalValue",
          "type": "uint256"
        }
      ],
      "stateMutability": "view",
      "type": "function"
    },
    {
      "inputs": [
        {
          "internalType": "address",
          "name": "user",
          "type": "address"
        },
        {
          "internalType": "address",
          "name": "asset",
          "type": "address"
        }
      ],
      "name": "getUserAssetBalance",
      "outputs": [
        {
          "internalType": "uint256",
          "name": "",
          "type": "uint256"
        }
      ],
      "stateMutability": "view",
      "type": "function"
    },
    {
      "inputs": [
        {
          "internalType": "address",
          "name": "user",
          "type": "address"
        }
      ],
      "name": "getUserAssetBalances",
      "outputs": [
        {
          "internalType": "address[]",
          "name": "assets",
          "type": "address[]"
        },
        {
          "internalType": "uint256[]",
          "name": "balances",
          "type": "uint256[]"
        },
        {
          "internalType": "uint256[]",
          "name": "values",
          "type": "uint256[]"
        }
      ],
      "stateMutability": "view",
      "type": "function"
    },
    {
      "inputs": [
        {
          "internalType": "address",
          "name": "user",
          "type": "address"
        }
      ],
      "name": "getUserEpochStatus",
      "outputs": [
        {
          "internalType": "bool",
          "name": "eligibleForCurrentEpoch",
          "type": "bool"
        },
        {
          "internalType": "uint256",
          "name": "currentEpoch",
          "type": "uint256"
        },
        {
          "internalType": "uint256",
          "name": "timeRemaining",
          "type": "uint256"
        },
        {
          "internalType": "bool",
          "name": "hasUnclaimedRewards",
          "type": "bool"
        },
        {
          "internalType": "enum IEpochRewardManager.RiskLevel",
          "name": "riskLevel",
          "type": "uint8"
        }
      ],
      "stateMutability": "view",
      "type": "function"
    },
    {
      "inputs": [
        {
          "internalType": "address",
          "name": "user",
          "type": "address"
        }
      ],
      "name": "getUserPosition",
      "outputs": [
        {
          "internalType": "uint256",
          "name": "totalShares",
          "type": "uint256"
        },
        {
          "internalType": "uint256",
          "name": "lastDeposit",
          "type": "uint256"
        },
        {
          "internalType": "bool",
          "name": "withdrawalRequested",
          "type": "bool"
        },
        {
          "internalType": "uint256",
          "name": "withdrawalAvailableAt",
          "type": "uint256"
        },
        {
          "internalType": "enum IEpochRewardManager.RiskLevel",
          "name": "riskLevel",
          "type": "uint8"
        },
        {
          "internalType": "uint256",
          "name": "totalDeposited",
          "type": "uint256"
        }
      ],
      "stateMutability": "view",
      "type": "function"
    },
    {
      "inputs": [
        {
          "internalType": "address",
          "name": "user",
          "type": "address"
        },
        {
          "internalType": "uint256",
          "name": "epochNumber",
          "type": "uint256"
        }
      ],
      "name": "getUserRewardParameters",
      "outputs": [
        {
          "internalType": "uint256",
          "name": "baseWeight",
          "type": "uint256"
        },
        {
          "internalType": "uint256",
          "name": "timeWeight",
          "type": "uint256"
        },
        {
          "internalType": "uint256",
          "name": "riskMultiplier",
          "type": "uint256"
        },
        {
          "internalType": "uint256",
          "name": "totalWeight",
          "type": "uint256"
        },
        {
          "internalType": "uint256",
          "name": "winProbability",
          "type": "uint256"
        },
        {
          "internalType": "uint256",
          "name": "potentialPayout",
          "type": "uint256"
        }
      ],
      "stateMutability": "view",
      "type": "function"
    },
    {
      "inputs": [
        {
          "internalType": "address",
          "name": "user",
          "type": "address"
        }
      ],
      "name": "getUserTotalShares",
      "outputs": [
        {
          "internalType": "uint256",
          "name": "",
          "type": "uint256"
        }
      ],
      "stateMutability": "view",
      "type": "function"
    },
    {
      "inputs": [],
      "name": "getVaultMetrics",
      "outputs": [
        {
          "internalType": "uint256",
          "name": "totalValueLocked_",
          "type": "uint256"
        },
        {
          "internalType": "uint256",
          "name": "totalUsers_",
          "type": "uint256"
        },
        {
          "internalType": "uint256",
          "name": "totalSupply_",
          "type": "uint256"
        },
        {
          "internalType": "uint256",
          "name": "managementFee",
          "type": "uint256"
        },
        {
          "internalType": "uint256",
          "name": "performanceFee",
          "type": "uint256"
        },
        {
          "internalType": "uint256",
          "name": "assetsCount",
          "type": "uint256"
        },
        {
          "internalType": "uint256",
          "name": "totalPrincipal_",
          "type": "uint256"
        },
        {
          "internalType": "uint256",
          "name": "totalYieldGenerated_",
          "type": "uint256"
        },
        {
          "internalType": "uint256",
          "name": "totalYieldDistributed_",
          "type": "uint256"
        }
      ],
      "stateMutability": "view",
      "type": "function"
    },
    {
      "inputs": [],
      "name": "getYieldMetrics",
      "outputs": [
        {
          "internalType": "uint256",
          "name": "totalYield",
          "type": "uint256"
        },
        {
          "internalType": "uint256",
          "name": "distributedYield",
          "type": "uint256"
        },
        {
          "internalType": "uint256",
          "name": "availableYield",
          "type": "uint256"
        },
        {
          "internalType": "uint256",
          "name": "yieldPercentage",
          "type": "uint256"
        }
      ],
      "stateMutability": "view",
      "type": "function"
    },
    {
      "inputs": [
        {
          "internalType": "bytes32",
          "name": "role",
          "type": "bytes32"
        },
        {
          "internalType": "address",
          "name": "account",
          "type": "address"
        }
      ],
      "name": "grantRole",
      "outputs": [],
      "stateMutability": "nonpayable",
      "type": "function"
    },
    {
      "inputs": [
        {
          "internalType": "address[]",
          "name": "strategies",
          "type": "address[]"
        },
        {
          "internalType": "address",
          "name": "asset",
          "type": "address"
        }
      ],
      "name": "harvestFromStrategies",
      "outputs": [
        {
          "internalType": "uint256",
          "name": "harvestedAmount",
          "type": "uint256"
        }
      ],
      "stateMutability": "nonpayable",
      "type": "function"
    },
    {
      "inputs": [
        {
          "internalType": "bytes32",
          "name": "role",
          "type": "bytes32"
        },
        {
          "internalType": "address",
          "name": "account",
          "type": "address"
        }
      ],
      "name": "hasRole",
      "outputs": [
        {
          "internalType": "bool",
          "name": "",
          "type": "bool"
        }
      ],
      "stateMutability": "view",
      "type": "function"
    },
    {
      "inputs": [
        {
          "internalType": "address",
          "name": "spender",
          "type": "address"
        },
        {
          "internalType": "uint256",
          "name": "addedValue",
          "type": "uint256"
        }
      ],
      "name": "increaseAllowance",
      "outputs": [
        {
          "internalType": "bool",
          "name": "",
          "type": "bool"
        }
      ],
      "stateMutability": "nonpayable",
      "type": "function"
    },
    {
      "inputs": [
        {
          "internalType": "address",
          "name": "",
          "type": "address"
        }
      ],
      "name": "isAssetSupported",
      "outputs": [
        {
          "internalType": "bool",
          "name": "",
          "type": "bool"
        }
      ],
      "stateMutability": "view",
      "type": "function"
    },
    {
      "inputs": [],
      "name": "lastFeeCollection",
      "outputs": [
        {
          "internalType": "uint256",
          "name": "",
          "type": "uint256"
        }
      ],
      "stateMutability": "view",
      "type": "function"
    },
    {
      "inputs": [],
      "name": "lotteryManager",
      "outputs": [
        {
          "internalType": "contract ILotteryManager",
          "name": "",
          "type": "address"
        }
      ],
      "stateMutability": "view",
      "type": "function"
    },
    {
      "inputs": [],
      "name": "managementFeeRate",
      "outputs": [
        {
          "internalType": "uint256",
          "name": "",
          "type": "uint256"
        }
      ],
      "stateMutability": "view",
      "type": "function"
    },
    {
      "inputs": [],
      "name": "name",
      "outputs": [
        {
          "internalType": "string",
          "name": "",
          "type": "string"
        }
      ],
      "stateMutability": "view",
      "type": "function"
    },
    {
      "inputs": [],
      "name": "performanceFeeRate",
      "outputs": [
        {
          "internalType": "uint256",
          "name": "",
          "type": "uint256"
        }
      ],
      "stateMutability": "view",
      "type": "function"
    },
    {
      "inputs": [],
      "name": "priceOracle",
      "outputs": [
        {
          "internalType": "contract IPriceOracle",
          "name": "",
          "type": "address"
        }
      ],
      "stateMutability": "view",
      "type": "function"
    },
    {
      "inputs": [
        {
          "internalType": "bytes32",
          "name": "role",
          "type": "bytes32"
        },
        {
          "internalType": "address",
          "name": "account",
          "type": "address"
        }
      ],
      "name": "renounceRole",
      "outputs": [],
      "stateMutability": "nonpayable",
      "type": "function"
    },
    {
      "inputs": [],
      "name": "requestWithdrawal",
      "outputs": [],
      "stateMutability": "nonpayable",
      "type": "function"
    },
    {
      "inputs": [
        {
          "internalType": "bytes32",
          "name": "role",
          "type": "bytes32"
        },
        {
          "internalType": "address",
          "name": "account",
          "type": "address"
        }
      ],
      "name": "revokeRole",
      "outputs": [],
      "stateMutability": "nonpayable",
      "type": "function"
    },
    {
      "inputs": [],
      "name": "riskManager",
      "outputs": [
        {
          "internalType": "contract IRiskManager",
          "name": "",
          "type": "address"
        }
      ],
      "stateMutability": "view",
      "type": "function"
    },
    {
      "inputs": [
        {
          "internalType": "address",
          "name": "newAgent",
          "type": "address"
        }
      ],
      "name": "setAgent",
      "outputs": [],
      "stateMutability": "nonpayable",
      "type": "function"
    },
    {
      "inputs": [
        {
          "internalType": "bool",
          "name": "enabled",
          "type": "bool"
        }
      ],
      "name": "setEmergencyMode",
      "outputs": [],
      "stateMutability": "nonpayable",
      "type": "function"
    },
    {
      "inputs": [
        {
          "internalType": "address",
          "name": "_epochRewardManager",
          "type": "address"
        }
      ],
      "name": "setEpochRewardManager",
      "outputs": [],
      "stateMutability": "nonpayable",
      "type": "function"
    },
    {
      "inputs": [
        {
          "internalType": "uint256",
          "name": "_managementFeeRate",
          "type": "uint256"
        },
        {
          "internalType": "uint256",
          "name": "_performanceFeeRate",
          "type": "uint256"
        }
      ],
      "name": "setFeeRates",
      "outputs": [],
      "stateMutability": "nonpayable",
      "type": "function"
    },
    {
      "inputs": [
        {
          "internalType": "address",
          "name": "_lotteryManager",
          "type": "address"
        }
      ],
      "name": "setLotteryManager",
      "outputs": [],
      "stateMutability": "nonpayable",
      "type": "function"
    },
    {
      "inputs": [
        {
          "internalType": "address",
          "name": "_priceOracle",
          "type": "address"
        }
      ],
      "name": "setPriceOracle",
      "outputs": [],
      "stateMutability": "nonpayable",
      "type": "function"
    },
    {
      "inputs": [
        {
          "internalType": "address",
          "name": "_riskManager",
          "type": "address"
        }
      ],
      "name": "setRiskManager",
      "outputs": [],
      "stateMutability": "nonpayable",
      "type": "function"
    },
    {
      "inputs": [
        {
          "internalType": "address",
          "name": "_strategyManager",
          "type": "address"
        }
      ],
      "name": "setStrategyManager",
      "outputs": [],
      "stateMutability": "nonpayable",
      "type": "function"
    },
    {
      "inputs": [],
      "name": "strategyManager",
      "outputs": [
        {
          "internalType": "contract IStrategyManager",
          "name": "",
          "type": "address"
        }
      ],
      "stateMutability": "view",
      "type": "function"
    },
    {
      "inputs": [
        {
          "internalType": "address",
          "name": "asset",
          "type": "address"
        },
        {
          "internalType": "uint256",
          "name": "amount",
          "type": "uint256"
        }
      ],
      "name": "subsidizeYield",
      "outputs": [],
      "stateMutability": "nonpayable",
      "type": "function"
    },
    {
      "inputs": [
        {
          "internalType": "uint256",
          "name": "",
          "type": "uint256"
        }
      ],
      "name": "supportedAssets",
      "outputs": [
        {
          "internalType": "address",
          "name": "",
          "type": "address"
        }
      ],
      "stateMutability": "view",
      "type": "function"
    },
    {
      "inputs": [
        {
          "internalType": "bytes4",
          "name": "interfaceId",
          "type": "bytes4"
        }
      ],
      "name": "supportsInterface",
      "outputs": [
        {
          "internalType": "bool",
          "name": "",
          "type": "bool"
        }
      ],
      "stateMutability": "view",
      "type": "function"
    },
    {
      "inputs": [],
      "name": "symbol",
      "outputs": [
        {
          "internalType": "string",
          "name": "",
          "type": "string"
        }
      ],
      "stateMutability": "view",
      "type": "function"
    },
    {
      "inputs": [
        {
          "internalType": "bool",
          "name": "enabled",
          "type": "bool"
        }
      ],
      "name": "toggleDeposits",
      "outputs": [],
      "stateMutability": "nonpayable",
      "type": "function"
    },
    {
      "inputs": [
        {
          "internalType": "bool",
          "name": "enabled",
          "type": "bool"
        }
      ],
      "name": "toggleWithdrawals",
      "outputs": [],
      "stateMutability": "nonpayable",
      "type": "function"
    },
    {
      "inputs": [],
      "name": "totalAssets",
      "outputs": [
        {
          "internalType": "uint256",
          "name": "",
          "type": "uint256"
        }
      ],
      "stateMutability": "view",
      "type": "function"
    },
    {
      "inputs": [],
      "name": "totalPrincipal",
      "outputs": [
        {
          "internalType": "uint256",
          "name": "",
          "type": "uint256"
        }
      ],
      "stateMutability": "view",
      "type": "function"
    },
    {
      "inputs": [],
      "name": "totalSupply",
      "outputs": [
        {
          "internalType": "uint256",
          "name": "",
          "type": "uint256"
        }
      ],
      "stateMutability": "view",
      "type": "function"
    },
    {
      "inputs": [],
      "name": "totalUsers",
      "outputs": [
        {
          "internalType": "uint256",
          "name": "",
          "type": "uint256"
        }
      ],
      "stateMutability": "view",
      "type": "function"
    },
    {
      "inputs": [],
      "name": "totalValueLocked",
      "outputs": [
        {
          "internalType": "uint256",
          "name": "",
          "type": "uint256"
        }
      ],
      "stateMutability": "view",
      "type": "function"
    },
    {
      "inputs": [],
      "name": "totalYieldDistributed",
      "outputs": [
        {
          "internalType": "uint256",
          "name": "",
          "type": "uint256"
        }
      ],
      "stateMutability": "view",
      "type": "function"
    },
    {
      "inputs": [],
      "name": "totalYieldGenerated",
      "outputs": [
        {
          "internalType": "uint256",
          "name": "",
          "type": "uint256"
        }
      ],
      "stateMutability": "view",
      "type": "function"
    },
    {
      "inputs": [
        {
          "internalType": "address",
          "name": "to",
          "type": "address"
        },
        {
          "internalType": "uint256",
          "name": "amount",
          "type": "uint256"
        }
      ],
      "name": "transfer",
      "outputs": [
        {
          "internalType": "bool",
          "name": "",
          "type": "bool"
        }
      ],
      "stateMutability": "nonpayable",
      "type": "function"
    },
    {
      "inputs": [
        {
          "internalType": "address",
          "name": "from",
          "type": "address"
        },
        {
          "internalType": "address",
          "name": "to",
          "type": "address"
        },
        {
          "internalType": "uint256",
          "name": "amount",
          "type": "uint256"
        }
      ],
      "name": "transferFrom",
      "outputs": [
        {
          "internalType": "bool",
          "name": "",
          "type": "bool"
        }
      ],
      "stateMutability": "nonpayable",
      "type": "function"
    },
    {
      "inputs": [
        {
          "internalType": "address",
          "name": "asset",
          "type": "address"
        },
        {
          "internalType": "uint256",
          "name": "minDeposit",
          "type": "uint256"
        },
        {
          "internalType": "uint256",
          "name": "maxDeposit",
          "type": "uint256"
        },
        {
          "internalType": "bool",
          "name": "acceptingDeposits",
          "type": "bool"
        }
      ],
      "name": "updateAssetConfig",
      "outputs": [],
      "stateMutability": "nonpayable",
      "type": "function"
    },
    {
      "inputs": [
        {
          "internalType": "enum IEpochRewardManager.RiskLevel",
          "name": "newRiskLevel",
          "type": "uint8"
        }
      ],
      "name": "updateRiskLevel",
      "outputs": [],
      "stateMutability": "nonpayable",
      "type": "function"
    },
    {
      "inputs": [
        {
          "internalType": "address",
          "name": "",
          "type": "address"
        }
      ],
      "name": "userPositions",
      "outputs": [
        {
          "internalType": "uint256",
          "name": "totalShares",
          "type": "uint256"
        },
        {
          "internalType": "uint256",
          "name": "lastDepositTime",
          "type": "uint256"
        },
        {
          "internalType": "bool",
          "name": "canWithdraw",
          "type": "bool"
        },
        {
          "internalType": "uint256",
          "name": "withdrawalRequestTime",
          "type": "uint256"
        },
        {
          "internalType": "enum IEpochRewardManager.RiskLevel",
          "name": "riskLevel",
          "type": "uint8"
        },
        {
          "internalType": "uint256",
          "name": "totalDeposited",
          "type": "uint256"
        }
      ],
      "stateMutability": "view",
      "type": "function"
    },
    {
      "inputs": [],
      "name": "wflowContract",
      "outputs": [
        {
          "internalType": "contract IWFLOW",
          "name": "",
          "type": "address"
        }
      ],
      "stateMutability": "view",
      "type": "function"
    },
    {
      "inputs": [
        {
          "internalType": "address",
          "name": "asset",
          "type": "address"
        },
        {
          "internalType": "uint256",
          "name": "amount",
          "type": "uint256"
        },
        {
          "internalType": "address",
          "name": "receiver",
          "type": "address"
        }
      ],
      "name": "withdraw",
      "outputs": [
        {
          "internalType": "uint256",
          "name": "shares",
          "type": "uint256"
        }
      ],
      "stateMutability": "nonpayable",
      "type": "function"
    },
    {
      "inputs": [
        {
          "internalType": "address",
          "name": "receiver",
          "type": "address"
        }
      ],
      "name": "withdrawAll",
      "outputs": [],
      "stateMutability": "nonpayable",
      "type": "function"
    },
    {
      "inputs": [],
      "name": "withdrawalDelay",
      "outputs": [
        {
          "internalType": "uint256",
          "name": "",
          "type": "uint256"
        }
      ],
      "stateMutability": "view",
      "type": "function"
    },
    {
      "inputs": [],
      "name": "withdrawalsEnabled",
      "outputs": [
        {
          "internalType": "bool",
          "name": "",
          "type": "bool"
        }
      ],
      "stateMutability": "view",
      "type": "function"
    },
    {
      "stateMutability": "payable",
      "type": "receive"
    }
  ],
  "bytecode": "0x60806040523461133457618a2b8038038061001981611359565b928339810160a0828203126113345781516001600160401b038111611334578161004491840161137e565b602083015190916001600160401b0382116113345761006491840161137e565b91610071604082016113e9565b6100896080610082606085016113e9565b93016113e9565b835190936001600160401b038211610f755760035490600182811c9216801561132a575b60208310146112275781601f8493116112ba575b50602090601f831160011461125257600092611247575b50508160011b916000199060031b1c1916176003555b83516001600160401b038111610f7557600454600181811c9116801561123d575b602082101461122757601f81116111c2575b50602094601f821160011461115b57948192939495600092611150575b50508160011b916000199060031b1c1916176004555b60016006556201518060115560c86012556103e86013556015805462ffffff19166101011790556001600160a01b031690811561111b576001600160a01b03169182156110d6576001600160a01b0316801561109157600c80546001600160a01b0319908116841790915560098054821685179055600b8054821692909217909155601b805490911673d3bf53dac106a0290b0483ecbc89d40fcc961f3e179055336000908152600080516020618a0b833981519152602052604090205460ff1615611051575b60008181526000805160206189eb833981519152602052604090205460ff1615610fee575b5060008181526000805160206189cb833981519152602052604090205460ff1615610f8b575b504260145561038d610276611339565b60018152600960208201600081526040830160008152606084016000815261036b60808601670de0b6b3a7640000815260a087019069d3c21bcecceda1000000825260c08801916012835260e0890191600183526101008a0195600087526101208b01974289526101408c019960018b5273eeeeeeeeeeeeeeeeeeeeeeeeeeeeeeeeeeeeeeee600052600d6020526103216040600020809e51151560ff801983541691151516179055565b5160018d01555160028c01555160038b01555160048a015551600589015560ff6006890192511660ff1983541617825551151561ff00825491151560081b169061ff001916179055565b51600785015551600884015551151591019060ff801983541691151516179055565b600e5468010000000000000000811015610f75576001810180600e55811015610f5f576000805160206189ab8339815191520180546001600160a01b03191673eeeeeeeeeeeeeeeeeeeeeeeeeeeeeeeeeeeeeeee908117909155600052600f6020527fa781ca3e4bac15fa51ec762ef622d608ed239712ac63433a052bbf28d546961f805460ff191660011790556104c8610426611339565b60018152600960208201600081526040830160008152606084016000815261036b60808601620f4240815260a08701906509184e72a000825260c08801916006835260e0890191600183526101008a0195600087526101208b01974289526101408c019960008b52732aabea2058b5ac2d339b163c6ab6f2b6d53aabed600052600d6020526103216040600020809e51151560ff801983541691151516179055565b600e5468010000000000000000811015610f75576001810180600e55811015610f5f576000805160206189ab8339815191520180546001600160a01b031916732aabea2058b5ac2d339b163c6ab6f2b6d53aabed908117909155600052600f6020527f5d902e93c4fc7fa3a5a8635f3a03d6c6c2b697d61c4bc7b971ac6f5da1985d33805460ff1916600117905561060c610561611339565b60018152600960208201600081526040830160008152606084016000815261036b60808601670de0b6b3a7640000815260a087019069d3c21bcecceda1000000825260c08801916012835260e0890191600183526101008a0195600087526101208b01974289526101408c019960008b5273d3bf53dac106a0290b0483ecbc89d40fcc961f3e600052600d6020526103216040600020809e51151560ff801983541691151516179055565b600e5468010000000000000000811015610f75576001810180600e55811015610f5f576000805160206189ab8339815191520180546001600160a01b03191673d3bf53dac106a0290b0483ecbc89d40fcc961f3e908117909155600052600f6020527fc6b1cfb02368bac501f7cda6aef2275ef4f751e8ba61cdaeb3f0318ca070a043805460ff1916600117905561074f6106a5611339565b60018152600960208201600081526040830160008152606084016000815261036b6080860166038d7ea4c68000815260a087019069021e19e0c9bab2400000825260c08801916012835260e0890191600183526101008a0195600087526101208b01974289526101408c019960008b52732f6f07cdcf3588944bf4c42ac74ff24bf56e7590600052600d6020526103216040600020809e51151560ff801983541691151516179055565b600e5468010000000000000000811015610f75576001810180600e55811015610f5f576000805160206189ab8339815191520180546001600160a01b031916732f6f07cdcf3588944bf4c42ac74ff24bf56e7590908117909155600052600f6020527fbbff0b6079c6116b8a8e4739fbf7f42238214145a6f2e5d1407a3f384b184975805460ff1916600117905561088a6107e8611339565b60018152600960208201600081526040830160008152606084016000815261036b60808601620f4240815260a08701906509184e72a000825260c08801916006835260e0890191600183526101008a0195600087526101208b01974289526101408c019960008b5273f1815bd50389c46847f0bda824ec8da914045d14600052600d6020526103216040600020809e51151560ff801983541691151516179055565b600e5468010000000000000000811015610f75576001810180600e55811015610f5f576000805160206189ab8339815191520180546001600160a01b03191673f1815bd50389c46847f0bda824ec8da914045d14908117909155600052600f6020527f9fbe3d52b8b9e2af9a89d9e4a16a767cd8bf87abd5c0ec7ccc0d02acb2153773805460ff191660011790556109c5610923611339565b60018152600960208201600081526040830160008152606084016000815261036b60808601620f4240815260a08701906509184e72a000825260c08801916006835260e0890191600183526101008a0195600087526101208b01974289526101408c019960008b5273674843c06ff83502ddb4d37c2e09c01cda38cbc8600052600d6020526103216040600020809e51151560ff801983541691151516179055565b600e5468010000000000000000811015610f75576001810180600e55811015610f5f576000805160206189ab8339815191520180546001600160a01b03191673674843c06ff83502ddb4d37c2e09c01cda38cbc8908117909155600052600f6020527fb5b05ca7c5c3bed405d6dc40764c75e58e56218cb622d50b6173d415a455eb6c805460ff19166001179055610b00610a5e611339565b60018152600960208201600081526040830160008152606084016000815261036b60808601620f4240815260a08701906509184e72a000825260c08801916006835260e0890191600183526101008a0195600087526101208b01974289526101408c019960008b52737f27352d5f83db87a5a3e00f4b07cc2138d8ee52600052600d6020526103216040600020809e51151560ff801983541691151516179055565b600e5468010000000000000000811015610f75576001810180600e55811015610f5f576000805160206189ab8339815191520180546001600160a01b031916737f27352d5f83db87a5a3e00f4b07cc2138d8ee52908117909155600052600f6020527f50ab84516ff37116f37367bda3982b2756b564f9cf5c1d28d4f1a05a13ddd74f805460ff19166001179055610c44610b99611339565b60018152600960208201600081526040830160008152606084016000815261036b60808601670de0b6b3a7640000815260a087019069d3c21bcecceda1000000825260c08801916012835260e0890191600183526101008a0195600087526101208b01974289526101408c019960008b52735598c0652b899eb40f169dd5949bdbe0bf36ffde600052600d6020526103216040600020809e51151560ff801983541691151516179055565b600e5468010000000000000000811015610f75576001810180600e55811015610f5f576000805160206189ab8339815191520180546001600160a01b031916735598c0652b899eb40f169dd5949bdbe0bf36ffde908117909155600052600f6020527f80474a1866d9c54d02c22fa6eb9e68978859f70ec7b62e4fc1442cc4fc4d0c0b805460ff19166001179055610d88610cdd611339565b60018152600960208201600081526040830160008152606084016000815261036b60808601670de0b6b3a7640000815260a087019069d3c21bcecceda1000000825260c08801916012835260e0890191600183526101008a0195600087526101208b01974289526101408c019960008b52731b97100ea1d7126c4d60027e231ea4cb25314bdb600052600d6020526103216040600020809e51151560ff801983541691151516179055565b600e5468010000000000000000811015610f75576001810180600e55811015610f5f576000805160206189ab8339815191520180546001600160a01b031916731b97100ea1d7126c4d60027e231ea4cb25314bdb908117909155600052600f6020527fd4ab74cd19ed1c727936efb2d0dd9732b6858f502710860403761a7eccbf7ccf805460ff19166001179055610ec2610e21611339565b60018152600960208201600081526040830160008152606084016000815261036b60808601620f4240815260a087019064174876e800825260c08801916008835260e0890191600183526101008a0195600087526101208b01974289526101408c019960008b5273a0197b2044d28b08be34d98b23c9312158ea9a18600052600d6020526103216040600020809e51151560ff801983541691151516179055565b600e5468010000000000000000811015610f75576001810180600e55811015610f5f576000805160206189ab8339815191520180546001600160a01b03191673a0197b2044d28b08be34d98b23c9312158ea9a18908117909155600052600f6020527fc0bc9653f6e8c3186b359485167893f4da99db98e5b4b097d5a2d700b0fc20dc805460ff1916600117905560405161758d90816113fe8239f35b634e487b7160e01b600052603260045260246000fd5b634e487b7160e01b600052604160045260246000fd5b60008181526000805160206189cb83398151915260205260408120805460ff191660011790553391907f1337d7d57528a8879766fdf2d0456253114c66c4fc263c97168bfdb007c64c669060008051602061898b8339815191529080a438610266565b60008181526000805160206189eb83398151915260205260408120805460ff191660011790553391907fcab5a0bfe0b79d2c4b1c2e02599fa044d115b7511f9659307cb42769509677099060008051602061898b8339815191529080a438610240565b336000818152600080516020618a0b83398151915260205260408120805460ff19166001179055819060008051602061898b8339815191528180a461021b565b60405162461bcd60e51b815260206004820152601c60248201527f496e76616c69642065706f636820726577617264206d616e61676572000000006044820152606490fd5b60405162461bcd60e51b815260206004820152601460248201527f496e76616c6964207072696365206f7261636c650000000000000000000000006044820152606490fd5b60405162461bcd60e51b815260206004820152600d60248201526c125b9d985b1a59081859d95b9d609a1b6044820152606490fd5b01519050388061013e565b601f198216956004600052806000209160005b8881106111aa57508360019596979810611191575b505050811b01600455610154565b015160001960f88460031b161c19169055388080611183565b9192602060018192868501518155019401920161116e565b60046000527f8a35acfbc15ff81a39ae7d344fd709f28e8600b4aa8c65c6b64bfe7fe36bd19b601f830160051c8101916020841061121d575b601f0160051c01905b8181106112115750610121565b60008155600101611204565b90915081906111fb565b634e487b7160e01b600052602260045260246000fd5b90607f169061010f565b0151905038806100d8565b600360009081528281209350601f198516905b8181106112a25750908460019594939210611289575b505050811b016003556100ee565b015160001960f88460031b161c1916905538808061127b565b92936020600181928786015181550195019301611265565b60036000529091507fc2575a0e9e593c00f959f8c92f12db2869c3395a3b0502d05e2516446f71f85b601f840160051c81019160208510611320575b90601f859493920160051c01905b81811061131157506100c1565b60008155849350600101611304565b90915081906112f6565b91607f16916100ad565b600080fd5b6040519061016082016001600160401b03811183821017610f7557604052565b6040519190601f01601f191682016001600160401b03811183821017610f7557604052565b81601f82011215611334578051906001600160401b038211610f75576113ad601f8301601f1916602001611359565b92828452602083830101116113345760005b8281106113d457505060206000918301015290565b806020809284010151828287010152016113bf565b51906001600160a01b03821682036113345756fe608060405260043610156100a6575b361561001657005b600080516020617538833981519152600052600d6020527ff63bf8c33116066940e0e13c302d833daba2ae522b6052c5518ac6a5827a54e8805461005b903490615c3e565b9055600080516020617538833981519152600052600d6020527ff63bf8c33116066940e0e13c302d833daba2ae522b6052c5518ac6a5827a54e780546100a2903490615c3e565b9055005b6000803560e01c806301e1d1141461592e57806301ffc9a71461588c57806306fdde03146157cf5780630905f560146157a9578063095ea7b3146157825780630a71e7341461560f5780630d2c5441146155e05780630d8882b2146155395780630ffbfda41461551b57806312065fe01461551657806312d76ed61461531257806314605cea14614de957806317a9e19814614dcb57806318160ddd14614dad57806318954cd814614d8657806318ebca741461485d57806320df43591461482257806322459e18146147f957806322f114861461438a57806323b872dd146142c4578063248a9ca31461428e5780632630c12f146142675780632b7df9ad146141d55780632f2ff15d1461410c578063309ee57e14613b61578063313ce56714613b45578063323ab65514613ad857806336568abe14613a385780633861369014613a1157806338d52e0f146121d357806339509351146139be57806339b70e38146139975780633d2817ac146137c0578063464b415814613783578063478426631461375c5780634b1533b21461373e5780634b4e1fc1146137155780634e440829146136515780634f9895201461362a578063530e784f146135eb5780635373433f1461351e5780635392fd1c146134fb57806353cb832d146133a05780635b7c2dad146133305780635c966646146132f1578063613cf4201461328d57806362ca84601461324e5780636700dc5c14613062578063677aa61c1461303b57806369328dec14612bd657806370a0823114612b9f578063714bb7a914612b7057806381c0945e14612a2b57806382ea2bbe14612a0f5780638b0dcb4e146129585780638c8250561461293a5780638fed23f11461290b57806391a543b6146128ed57806391d14854146128a057806395d89b411461279b57806397206bd51461277d5780639777d8211461274157806399383f781461270c578063a217fddf146126f0578063a457c2d714612633578063a7ab696114612615578063a7d83617146125e6578063a9059cbb146125b4578063ac025194146124b1578063aca18b9514612231578063ad5c464814612202578063b249b35d146121d3578063b6f73e26146121a4578063b98346f214612165578063b998902f1461212a578063bc2cd82714612016578063bcf685ed14611e3b578063be32b3f814611db7578063bff1f9e114611d99578063c54e44eb14611d6a578063c5fa071f14611d1a578063c68dbb3714611cd7578063d0dbcd2414611cb1578063d547741f14611c6b578063d71a4bc214611c30578063d7b2a977146117a5578063d99a329114611776578063dbaf2145146116e5578063dc45953114611472578063dd62ed3e14611422578063deaa345914611399578063e5406dbf14611307578063e7ed8d0014611198578063eb87a6f714610f84578063ec18154e14610f66578063eea63a7914610ec4578063f45346dc1461093b578063fa09e63014610627578063feaca583146105645763ff6adfa4146104fe575061000e565b34610561578060031936011261056157610120601654601754600254601254601354600e54906018549260195494601a5496604051988952602089015260408801526060870152608086015260a085015260c084015260e0830152610100820152f35b80fd5b503461056157604036600319011261056157602435600435610584616a6e565b6101f481116105e3576107d0821161059f5760125560135580f35b606460405162461bcd60e51b815260206004820152601860248201527f506572666f726d616e63652066656520746f6f206869676800000000000000006044820152fd5b606460405162461bcd60e51b815260206004820152601760248201527f4d616e6167656d656e742066656520746f6f20686967680000000000000000006044820152fd5b503461056157602036600319011261056157610641615a0e565b610649616361565b61065a60ff60155460081c166160bd565b338252601060205261067560ff600360408520015416616108565b338252601060205261069c610694600460408520015460115490615c3e565b421015616153565b338252601060205260408220600181019182546106ba8115156161ab565b84805b600e54811015610905576001600160a01b036106d882615bab565b90549060031b1c1690604060006001600160a01b03841681528760205220549182158015806108ec575b610713575b505060019150016106bd565b600b5460405163038218c360e31b81523360048201526001600160a01b03848116602483015260448201879052909291602091849160649183918b91165af19182156108e15786926108a4575b5081604060006001600160a01b03861681528b6020522055828252600d60205260016040832001610792868254615ecb565b9055828252600d602052600260408320016107ae868254615ecb565b90556107bc85601854615ecb565b601855600080516020617538833981519152830361088f57848291610885575b8280929181926001600160a01b038c1690f11561087a576001926040518181528560208201527f65214895447acbcddd1fa106de1b774e6220c70ee56ef756e9e0f30d3a2348dc60403392a25b61083e6108368284616b30565b601654615ecb565b6016556040519081528460208201527fdd3541b6a4a74daf4ad7d33c0d4b441e1bad2e93e12da692aa37c5febb19f7b860403392a33880610707565b6040513d85823e3d90fd5b6108fc91506107dc565b50508261089f60019488846163b6565b610829565b91506020823d82116108d9575b816108be60209383615c0f565b810103126108d5576108d08692615c31565b610760565b8580fd5b3d91506108b1565b6040513d88823e3d90fd5b50818552600d6020528360026040872001541015610702565b506109338282600687828a556003810160ff198154169055015561092a60175461619e565b60175533616d55565b600160065580f35b50346105615761094a36615b62565b610952616361565b61096f60ff601554610969828260101c1615615c61565b16615cac565b6001600160a01b03831691828552600f60205261099260ff604087205416615cf7565b60008051602061753883398151915283146109ad8115615d42565b8115906109ba8215615e11565b848752600d60205260ff600660408920015460081c1615610e8057848752600d60205260046040882001548310610e3c57848752600d60205260056040882001548311610df8576001600160a01b03600a541680610d33575b5015610d2157610a2290616072565b610a2c8185616d30565b936001600160a01b038316928387526010602052604087209060018201805415610d00575b86600052826020526040600020610a69868254615c3e565b9055610a76888254615c3e565b905542600283015560068201610a8d858254615c3e565b9055858852600d60205260016040892001610aa9858254615c3e565b9055858852600d60205260026040892001610ac5858254615c3e565b9055610ad384601854615c3e565b6018558415610cbc57610ae887600254615c3e565b600255848852876020526040882087815401905584887fddf252ad1be2c89b69c2b068fc378daa952ba7f163c4a11628f55a4df523b3ef60206040518b8152a38760ff60056001600160a01b03600b54169401541692803b15610cb85787608488848094610b7b604051998a968795635929fb1160e11b8752600487015260248601528c60448601526064850190615b21565b5af1928315610cab578593610c8c575b506001600160a01b036008541680610c19575b505050610bae90610bb692616b30565b601654615c3e565b6016556040519081526020810184905293507ff8a54e496f908ad8978f18ca35f7c98ff39143de1a2defae5d565eb7071980c7606085600160406020980152a36001600655604051908152f35b634e487b7160e01b600052602160045260246000fd5b909192610c269085616b30565b92813b15610c885760405162f3ff7f60e11b81526001600160a01b03919091166004820152602481019390935284929082908290604490829084905af1610c6f575b8190610b9e565b81925090610c7c91615c0f565b6108d557818638610c68565b8280fd5b8192935090610c9a91615c0f565b610ca75782908738610b8b565b8680fd5b50604051903d90823e3d90fd5b5080fd5b606460405162461bcd60e51b815260206004820152601f60248201527f45524332303a206d696e7420746f20746865207a65726f2061646472657373006044820152fd5b610d0b601754616218565b601755610d1c60016005850161605a565b610a51565b50610d2e81303386616e94565b610a22565b6020602491604051928380926323c5e12560e01b82528860048301525afa908115610ded578891610daf575b5015610d6b5738610a13565b606460405162461bcd60e51b815260206004820152601460248201527f5269736b206c696d6974732065786365656465640000000000000000000000006044820152fd5b90506020813d602011610de5575b81610dca60209383615c0f565b81010312610de157610ddb90615c31565b38610d5f565b8780fd5b3d9150610dbd565b6040513d8a823e3d90fd5b606460405162461bcd60e51b815260206004820152601560248201527f41626f7665206d6178696d756d206465706f73697400000000000000000000006044820152fd5b606460405162461bcd60e51b815260206004820152601560248201527f42656c6f77206d696e696d756d206465706f73697400000000000000000000006044820152fd5b606460405162461bcd60e51b815260206004820152601c60248201527f4173736574206e6f7420616363657074696e67206465706f73697473000000006044820152fd5b503461056157608036600319011261056157610ede615a0e565b6064358015158103610c88576001600160a01b03610f6392610efe616a6e565b16808452600f602052610f1760ff604086205416615cf7565b808452600d6020526024356004604086200155808452600d60205260443560056040862001558352600d602052600660408420019061ff00825491151560081b169061ff001916179055565b80f35b50346105615780600319360112610561576020601654604051908152f35b503461056157602036600319011261056157610f9e615a0e565b6001600160a01b03600b54169060405190634666a62b60e01b8252608082600481865afa91821561118d578492611158575b50610fda82615dcb565b91849360015b8281106110365750505050610ff482615dcb565b925b828110611017576040516020808252819061101390820187615a8d565b0390f35b8061102460019284615dfd565b5161102f8287615dfd565b5201610ff6565b604051632ee4566760e11b81526001600160a01b038516600482015260248101829052602081604481865afa908115610ded57889161111f575b50806110a4575b611084575b600101610fe0565b9461109c818761109660019489615dfd565b52616218565b95905061107c565b506040516309ed8ae160e11b81526001600160a01b038516600482015260248101829052602081604481865afa908115610ded5788916110e6575b5015611077565b90506020813d8211611117575b8161110060209383615c0f565b81010312610de15761111190615c31565b386110df565b3d91506110f3565b90506020813d8211611150575b8161113960209383615c0f565b81010312610de15761114a90615c31565b38611070565b3d915061112c565b61117b91925060803d608011611186575b6111738183615c0f565b8101906161f6565b505090509038610fd0565b503d611169565b6040513d86823e3d90fd5b5034610561576040366003190112610561576111b2615a0e565b602435906111be616a6e565b6001600160a01b03811690818452600f6020526111e160ff604086205416615cf7565b82156112c35783916111f584303384616e94565b61120184601954615c3e565b6019558252600d6020526002604083200161121d848254615c3e565b90556001600160a01b03600b5416803b15610c8857604051637ecb8bcf60e01b81526001600160a01b039290921660048301526024820184905282908290604490829084905af180156112b8576112a3575b507ffe4996cd48c364c468cee70dd6b9061874ff01b05c5ea49311cbcabd9b9cb6156040838151908152836020820152a180f35b816112ad91615c0f565b610cb857813861126f565b6040513d84823e3d90fd5b606460405162461bcd60e51b815260206004820152601760248201527f416d6f756e74206d75737420626520706f7369746976650000000000000000006044820152fd5b503461056157806003193601126105615760405180916020600e54928381520191600e82527fbb7b4a454dc3493923482f07822329ed19e8244eff582cc204f8554c3620c3fd915b81811061137a576110138561136681870382615c0f565b604051918291602083526020830190615a50565b82546001600160a01b031684526020909301926001928301920161134f565b5034610561576020366003190112610561576001600160a01b036113bb615a0e565b6113c3616a6e565b1680156113de576001600160a01b0319600b541617600b5580f35b606460405162461bcd60e51b815260206004820152601c60248201527f496e76616c69642065706f636820726577617264206d616e61676572000000006044820152fd5b5034610561576040366003190112610561576001600160a01b036040611446615a0e565b9282611450615a3a565b9416815260016020522091166000526020526020604060002054604051908152f35b50346105615760203660031901126105615761148c615a0e565b6001600160a01b03600b54169160405190634666a62b60e01b8252608082600481875afa9081156116d957809281926116b1575b50604051632ee4566760e11b81526001600160a01b03851660048201526024810184905293602085604481895afa9485156112b8578295611675575b50819560015b858110611555575b60a087611553888b8960ff600560408c6001600160a01b038d16815260106020522001541692604051951515865260208601526040850152151560608401526080830190615b21565bf35b604051632ee4566760e11b81526001600160a01b038416600482015260248101829052602081604481865afa90811561163157859161163c575b50806115b2575b6115a257600101611502565b506001965060ff9050600561150a565b506040516309ed8ae160e11b81526001600160a01b038416600482015260248101829052602081604481865afa9081156116315785916115f4575b5015611596565b90506020813d8211611629575b8161160e60209383615c0f565b810103126116255761161f90615c31565b386115ed565b8480fd5b3d9150611601565b6040513d87823e3d90fd5b90506020813d821161166d575b8161165660209383615c0f565b810103126116255761166790615c31565b3861158f565b3d9150611649565b9094506020813d6020116116a9575b8161169160209383615c0f565b81010312610cb8576116a290615c31565b93386114fc565b3d9150611684565b9092506116cd915060803d608011611186576111738183615c0f565b505091909190386114c0565b604051903d90823e3d90fd5b50346105615780600319360112610561573381526010602052611710600160408320015415156161ab565b338152601060205260036040822001600160ff19825416179055338152601060205242600460408320015561174760115442615c3e565b6040519081527fe670e4e82118d22a1f9ee18920455ebc958bae26a90a05d31d3378788b1b0e4460203392a280f35b5034610561578060031936011261056157602060405173a0197b2044d28b08be34d98b23c9312158ea9a188152f35b506020366003190112610561576117ba615a0e565b6117c2616361565b6117d960ff601554610969828260101c1615615c61565b6000805160206175388339815191528252600f6020526117ff60ff604084205416615f59565b61181334151561180e81615e11565b615e11565b6000805160206175388339815191528252600d60205260ff600660408420015460081c1615610e80576000805160206175388339815191528252600d60205260046040832001543410610e3c576000805160206175388339815191528252600d60205260056040832001543411610df8576001600160a01b03600a541680611bbe575b506118a16001616072565b6118b934600080516020617538833981519152616d30565b906001600160a01b038116908184526010602052604084209060018201805415611b9d575b60008051602061753883398151915286528260205260408620611902348254615c3e565b905561190f858254615c3e565b905542600283015560068201611926348254615c3e565b90556000805160206175388339815191528552600d60205260016040862001611950348254615c3e565b90556000805160206175388339815191528552600d6020526002604086200161197a348254615c3e565b905561198834601854615c3e565b6018558215610cbc57849161199f85600254615c3e565b600255838352826020526040832085815401905583837fddf252ad1be2c89b69c2b068fc378daa952ba7f163c4a11628f55a4df523b3ef6020604051898152a360ff60056001600160a01b03600b541692015416813b15611b8457611a3e60848592836040519586948593635929fb1160e11b85528b600486015260008051602061753883398151915260248601523460448601526064850190615b21565b5af190811561087a578391611b88575b50506001600160a01b03600854169081611b15575b505050611a81610bae34600080516020617538833981519152616b30565b601655604051348152602081018390529260607f74785400f4527135eebc0a75d415a02c2df1ca589aa990ad0715fb0ea0b7645691600080516020617538833981519152847ff8a54e496f908ad8978f18ca35f7c98ff39143de1a2defae5d565eb7071980c784896001604060209c0152a36040519034825285878301525060016040820152a26001600655604051908152f35b611b2d34600080516020617538833981519152616b30565b823b15611b845760405162f3ff7f60e11b81526001600160a01b0392909216600483015260248201529082908290604490829084905af1611b6f575b80611a63565b81611b7991615c0f565b610c88578238611b69565b8380fd5b81611b9291615c0f565b610cb8578138611a4e565b611ba8601754616218565b601755611bb960016005850161605a565b6118de565b6020602491604051928380926323c5e12560e01b82523460048301525afa90811561087a578391611bf6575b5015610d6b5738611896565b90506020813d602011611c28575b81611c1160209383615c0f565b81010312610c8857611c2290615c31565b38611bea565b3d9150611c04565b503461056157602036600319011261056157600160406020926001600160a01b03611c59615a0e565b16815260108452200154604051908152f35b503461056157604036600319011261056157610f63600435611c8b615a3a565b90611cac611ca782600052600560205260016040600020015490565b616ac2565b616ca3565b5034610561578060031936011261056157602060ff60155460081c166040519015158152f35b50346105615760203660031901126105615760043590600e548210156105615760206001600160a01b03611d0a84615bab565b90549060031b1c16604051908152f35b5034610561576040366003190112610561576001600160a01b036040611d3e615a0e565b9282611d48615a3a565b9416815260106020522091166000526020526020604060002054604051908152f35b5034610561578060031936011261056157602060405173674843c06ff83502ddb4d37c2e09c01cda38cbc88152f35b50346105615780600319360112610561576020601754604051908152f35b5034610561576020366003190112610561577fb8a34678623c94d0d3977ce6d4db867e7e96ffd365f2c0f677563f8dddd4c8406020611df4615b9c565b611dfc616951565b8015159060155462ff00008360101b16918262ff000019831617601555611e2a575b5050604051908152a180f35b62ffffff1916176015553880611e1e565b5034610561576020366003190112610561576001600160a01b03611e5d615a0e565b611e65616a6e565b168015611fd2576001600160a01b03600c541660008051602061751883398151915283526005602052604083206001600160a01b03821660005260205260ff60406000205416611f60575b5060008051602061751883398151915282526005602052604082208160005260205260ff6040600020541615611ef5575b6001600160a01b0319600c541617600c5580f35b6000805160206175188339815191528252600560205260408220816000526020526040600020600160ff1982541617905533816000805160206175188339815191527f2f8788117e7eff1d82e926ec794901d17c78024a50270940304540a733656f0d8580a4611ee1565b60008051602061751883398151915283526005602052604083206001600160a01b038216600052602052604060002060ff19815416905533906000805160206175188339815191527ff6391f5c32d9c69d2a47ea670b442974b53935d1edc7fd64eb21e047a839171b8580a438611eb0565b606460405162461bcd60e51b815260206004820152600d60248201527f496e76616c6964206167656e74000000000000000000000000000000000000006044820152fd5b50346105615760403660031901126105615761208f60c0612035615a0e565b6001600160a01b03600b541660405180809581947fd790df2c0000000000000000000000000000000000000000000000000000000083526024359060048401602090939291936001600160a01b0360408201951681520152565b03915afa80156112b857829183848591869387956120ce575b5060c09650604051958652602086015260408501526060840152608083015260a0820152f35b9550505050505060c0813d60c011612122575b816120ee60c09383615c0f565b81010312610cb8578051602082015160408301516060840151608085015160a09095015160c09650939492909190386120a8565b3d91506120e1565b503461056157806003193601126105615760206040517f1337d7d57528a8879766fdf2d0456253114c66c4fc263c97168bfdb007c64c668152f35b5034610561576020366003190112610561576001600160a01b03612187615a0e565b61218f616a6e565b166001600160a01b0319600854161760085580f35b50346105615780600319360112610561576020604051731b97100ea1d7126c4d60027e231ea4cb25314bdb8152f35b50346105615780600319360112610561576020604051732aabea2058b5ac2d339b163c6ab6f2b6d53aabed8152f35b50346105615780600319360112610561576020604051732f6f07cdcf3588944bf4c42ac74ff24bf56e75908152f35b50346105615760a03660031901126105615761224b615a0e565b60243560443560643560ff811680910361162557608435938415158095036108d5576001600160a01b039061227e616a6e565b1693841561246d57848652600f60205260ff604087205416612429578486604051936122a985615bdc565b6001855260208501828152604086018381526060870184815260808801908a825260a08901928a845260c08a0195865260e08a0194600186526101008b01978089526101208c0199428b526101408d019b8c528152600d602052604090209a511515612321908c9060ff801983541691151516179055565b5160018b01555160028a01555160038901555160048801555160058701559051600686018054925161ff0090151560081b1660ff90921661ffff1990931692909217179055516007840155516008830155511515906009019061238f919060ff801983541691151516179055565b600e546801000000000000000081101561241557916040916123d88460017ffde45ef6c4d07139bdb3883a286ea36e8985075fe4c67d5ae2f4d3c76d16b44b9601600e55615bab565b81549060031b906001600160a01b0388831b921b1916179055848652600f602052828620600160ff1982541617905582519182526020820152a280f35b602485634e487b7160e01b81526041600452fd5b606460405162461bcd60e51b815260206004820152601760248201527f417373657420616c726561647920737570706f727465640000000000000000006044820152fd5b606460405162461bcd60e51b815260206004820152600d60248201527f496e76616c6964206173736574000000000000000000000000000000000000006044820152fd5b5034610561576020366003190112610561576124cb615a0e565b600e54906124d882615dcb565b916124e281615dcb565b906124ec81615dcb565b926001600160a01b0316855b82811061253b5761251f866110138761252d88604051958695606087526060870190615a50565b908582036020870152615a8d565b908382036040850152615a8d565b806125a36001600160a01b03612552600194615bab565b90549060031b1c1680612565848b615dfd565b52848a5260106020526040808b206000906001600160a01b038416825260205220546125918489615dfd565b5261259c8388615dfd565b5190616b30565b6125ad8288615dfd565b52016124f8565b5034610561576040366003190112610561576125db6125d1615a0e565b602435903361678c565b602060405160018152f35b5034610561578060031936011261056157602060405173d3bf53dac106a0290b0483ecbc89d40fcc961f3e8152f35b50346105615780600319360112610561576020601154604051908152f35b50346105615760403660031901126105615761264d615a0e565b6040602435923381526001602052206001600160a01b03821660005260205260406000205491808310612686576125db92039033616227565b608460405162461bcd60e51b815260206004820152602560248201527f45524332303a2064656372656173656420616c6c6f77616e63652062656c6f7760448201527f207a65726f0000000000000000000000000000000000000000000000000000006064820152fd5b5034610561578060031936011261056157602090604051908152f35b503461056157602036600319011261056157612726615b9c565b61272e616a6e565b60ff801960155416911515161760155580f35b50346105615760203660031901126105615761275b615b9c565b612763616a6e565b61ff0060155491151560081b169061ff0019161760155580f35b50346105615780600319360112610561576020601a54604051908152f35b50346105615780600319360112610561576040519080600454908160011c91600181168015612896575b6020841081146128825783865290811561285b57506001146127fe575b611013846127f281860382615c0f565b604051918291826159e2565b600481527f8a35acfbc15ff81a39ae7d344fd709f28e8600b4aa8c65c6b64bfe7fe36bd19b939250905b808210612841575090915081016020016127f2826127e2565b919260018160209254838588010152019101909291612828565b60ff191660208087019190915292151560051b850190920192506127f291508390506127e2565b602483634e487b7160e01b81526022600452fd5b92607f16926127c5565b5034610561576040366003190112610561576001600160a01b0360406128c4615a3a565b9260043581526005602052209116600052602052602060ff604060002054166040519015158152f35b50346105615780600319360112610561576020601254604051908152f35b50346105615780600319360112610561576020604051735598c0652b899eb40f169dd5949bdbe0bf36ffde8152f35b50346105615780600319360112610561576020601954604051908152f35b5034610561576020366003190112610561576040610160916001600160a01b03612980615a0e565b168152600d6020522060ff81541690600181015490600281015460ff6003830154600484015460058501549060068601549260078701549585600960088a015499015416986040519a15158b5260208b015260408a01526060890152608088015260a087015281811660c087015260081c16151560e08501526101008401526101208301521515610140820152f35b5034610561578060031936011261056157602047604051908152f35b50346105615760203660031901126105615760043560008051602061751883398151915282526005602052604082206001600160a01b033316600052602052612a7b60ff60406000205416615e5c565b804710612b2c57816001600160a01b03601b5416803b15610cb857818391600460405180948193630d0e30db60e41b83525af180156112b857612b17575b506000805160206175388339815191529052600d60205260026040832001612ae2828254615ecb565b905573d3bf53dac106a0290b0483ecbc89d40fcc961f3e8252600d602052612b1260026040842001918254615c3e565b905580f35b81612b2191615c0f565b610cb8578138612ab9565b606460405162461bcd60e51b815260206004820152601860248201527f496e73756666696369656e74206e617469766520464c4f5700000000000000006044820152fd5b5034610561578060031936011261056157602060405173f1815bd50389c46847f0bda824ec8da914045d148152f35b50346105615760203660031901126105615760406020916001600160a01b03612bc6615a0e565b1681528083522054604051908152f35b503461056157612be536615b62565b919290612bf0616361565b612c0160ff60155460081c166160bd565b6001600160a01b03841691828152600f602052612c2460ff604083205416615cf7565b3381526010602052612c3f60ff600360408420015416616108565b3381526010602052612c5e610694600460408420015460115490615c3e565b8115612c6a8115615e11565b3382526010602052604082209484600052856020528360406000205410612ff757600686019586548511612f8d57600b5460405163038218c360e31b81523360048201526001600160a01b038a81166024830152604482018890529091602091839160649183918a91165af1908115611631578591612f53575b5015612eea57612cf48589616d30565b96600182019088825410612ea657878652600d602052612d1d876002604089200154101561600f565b87600052826020526040600020612d35888254615ecb565b9055612d42898354615ecb565b809255612d50878254615ecb565b905515612e87575b50848352600d60205260016040842001612d73858254615ecb565b9055848352600d60205260026040842001612d8f858254615ecb565b9055612d9d84601854615ecb565b601855612daa8633616d55565b6000805160206175388339815191528503612e6957828085819482948391612e5f575b6001600160a01b031690f1156116d95750612e1e6108368260209660405182815287898201527f65214895447acbcddd1fa106de1b774e6220c70ee56ef756e9e0f30d3a2348dc60403392a2616b30565b60165560405190815282848201527fdd3541b6a4a74daf4ad7d33c0d4b441e1bad2e93e12da692aa37c5febb19f7b860403392a36001600655604051908152f35b6108fc9150612dcd565b612e1e92506108369150602096612e82858093886163b6565b616b30565b60030160ff198154169055612e9d60175461619e565b60175538612d58565b606460405162461bcd60e51b815260206004820152601360248201527f496e73756666696369656e7420736861726573000000000000000000000000006044820152fd5b608460405162461bcd60e51b8152602060048201526024808201527f5769746864726177616c2072656a65637465642062792065706f6368206d616e60448201527f61676572000000000000000000000000000000000000000000000000000000006064820152fd5b90506020813d602011612f85575b81612f6e60209383615c0f565b8101031261162557612f7f90615c31565b38612ce4565b3d9150612f61565b608460405162461bcd60e51b815260206004820152602360248201527f43616e6e6f74207769746864726177206d6f7265207468616e206465706f736960448201527f74656400000000000000000000000000000000000000000000000000000000006064820152fd5b606460405162461bcd60e51b815260206004820152601a60248201527f496e73756666696369656e742061737365742062616c616e63650000000000006044820152fd5b503461056157806003193601126105615760206001600160a01b03601b5416604051908152f35b5060803660031901126105615760043567ffffffffffffffff8111610cb85761308f903690600401615af0565b60243567ffffffffffffffff8111611b84576130af903690600401615af0565b90926130b9615a24565b606435906003821015610ca7576130ce616361565b6130e560ff601554610969828260101c1615615c61565b86956130f2858714615fc4565b851561320a5787885b8781106131b5575061310e903414616072565b875b868110613127576020886001600655604051908152f35b613132818784615ea7565b35151580613189575b613148575b600101613110565b9661318160019161317b86868c61317461316c6131678f84908f615ea7565b615eb7565b918d8a615ea7565b35906163fe565b90615c3e565b979050613140565b506001600160a01b036131a0613167838a89615ea7565b168952600f60205260ff60408a20541661313b565b6000805160206175388339815191526001600160a01b036131da613167848c8b615ea7565b16146131e9575b6001016130fb565b906132026001916131fb848a87615ea7565b3590615c3e565b9190506131e1565b606460405162461bcd60e51b815260206004820152601260248201527f4e6f206173736574732070726f766964656400000000000000000000000000006044820152fd5b5034610561576020366003190112610561576001600160a01b03613270615a0e565b613278616a6e565b166001600160a01b0319600a541617600a5580f35b5034610561576020366003190112610561576040906001600160a01b036132b2615a0e565b168152601060205220600181015461101360028301549260ff600382015416906004810154600660ff6005840154169201549260405196879687615b2e565b5034610561576020366003190112610561576001600160a01b03613313615a0e565b61331b616a6e565b166001600160a01b0319600754161760075580f35b5034610561576020366003190112610561576040906001600160a01b03613355615a0e565b168152601060205220600181015461101360028301549260ff60038201541690613386600482015460115490615c3e565b600660ff6005840154169201549260405196879687615b2e565b5034610561576020366003190112610561576004356003811015610cb85733825260106020526001604083200154156134b757338252601060205260ff6005604084200154169033835260106020526133ff816005604086200161605a565b826001600160a01b03600b5416803b15610cb8578180916024604051809481937f17ffa80600000000000000000000000000000000000000000000000000000000835261344f600484018a615b21565b5af180156112b8576134a2575b50506134799061346f6040518094615b21565b6020830190615b21565b7fc934f665859729483f417826d0dbb2dd5c1c2ff574f2566ac21695e657556e1360403392a280f35b816134ac91615c0f565b610c8857823861345c565b606460405162461bcd60e51b815260206004820152601160248201527f4e6f20706f736974696f6e20666f756e640000000000000000000000000000006044820152fd5b5034610561578060031936011261056157602060ff601554166040519015158152f35b50346105615760203660031901126105615760406060916001600160a01b03613545615a0e565b168152600d602052206040519061355b82615bdc565b60ff8154161515825260018101549081602084015260028101549283604082015261014060ff6009600385015494858986015260048101546080860152600581015460a086015282600682015481811660c088015260081c16151560e086015260078101546101008601526008810154610120860152015416151591015260405192835260208301526040820152f35b5034610561576020366003190112610561576001600160a01b0361360d615a0e565b613615616a6e565b166001600160a01b0319600954161760095580f35b503461056157806003193601126105615760206001600160a01b0360085416604051908152f35b50346105615760403660031901126105615761366b615a0e565b602435613676616951565b60ff60155460101c16156136d15782916001600160a01b031660008051602061753883398151915281036136c55750818080928181156136bc575b3390f1156116d95780f35b506108fc6136b1565b610f63925033906163b6565b606460405162461bcd60e51b815260206004820152601560248201527f4e6f7420696e20656d657267656e6379206d6f646500000000000000000000006044820152fd5b503461056157806003193601126105615760206040516000805160206175388339815191528152f35b50346105615780600319360112610561576020601854604051908152f35b503461056157806003193601126105615760206001600160a01b03600a5416604051908152f35b50346105615760203660031901126105615760ff60406020926001600160a01b036137ac615a0e565b168152600f84522054166040519015158152f35b50346105615760203660031901126105615760043560008051602061751883398151915282526005602052604082206001600160a01b03331660005260205261381060ff60406000205416615e5c565b6040516370a0823160e01b815230600482015260208160248173d3bf53dac106a0290b0483ecbc89d40fcc961f3e5afa801561087a578291849161395d575b501061391957816001600160a01b03601b5416803b15610cb8578180916024604051809481937f2e1a7d4d0000000000000000000000000000000000000000000000000000000083528860048401525af180156112b857613904575b5073d3bf53dac106a0290b0483ecbc89d40fcc961f3e9052600d602052600260408320016138da828254615ecb565b90556000805160206175388339815191528252600d602052612b1260026040842001918254615c3e565b8161390e91615c0f565b610cb85781386138ab565b606460405162461bcd60e51b815260206004820152601260248201527f496e73756666696369656e742057464c4f5700000000000000000000000000006044820152fd5b9150506020813d60201161398f575b8161397960209383615c0f565b8101031261398a578190513861384f565b600080fd5b3d915061396c565b503461056157806003193601126105615760206001600160a01b0360075416604051908152f35b5034610561576040366003190112610561576125db9060406139de615a0e565b913381526001602052206001600160a01b038216600052602052613a0a60406000206024359054615c3e565b9033616227565b503461056157806003193601126105615760206001600160a01b03600c5416604051908152f35b503461056157604036600319011261056157613a52615a3a565b336001600160a01b03821603613a6e57610f6390600435616ca3565b608460405162461bcd60e51b815260206004820152602f60248201527f416363657373436f6e74726f6c3a2063616e206f6e6c792072656e6f756e636560448201527f20726f6c657320666f722073656c6600000000000000000000000000000000006064820152fd5b50346105615780600319360112610561578081600e54905b818410613b0257602083604051908152f35b9091613b3b60019161317b6001600160a01b03613b1e88615bab565b90549060031b1c16808652600d6020528460408720015490616b30565b9301929190613af0565b5034610561578060031936011261056157602060405160128152f35b50346105615760603660031901126105615760043567ffffffffffffffff8111610cb857613b93903690600401615af0565b9060243567ffffffffffffffff8111611b8457613bb4903690600401615af0565b90916001600160a01b03613bc6615a24565b6000805160206175188339815191528752600560205260408720823316600052602052613bfa60ff60406000205416615e5c565b613c02616361565b1692838652600f602052613c1c60ff604088205416615cf7565b613c27838614615fc4565b84156140c8578594865b8481106140af5750848752600d602052613c5486600260408a200154101561600f565b866000805160206175388339815191528603613e785750854710613e3457865b818110613cc05750505050505b808352600d60205260026040842001613c9b838254615ecb565b90558252600d602052613cb660036040842001918254615c3e565b9055600160065580f35b613ccb818685615ea7565b35613cd9575b600101613c74565b876001600160a01b03613cf0613167848689615ea7565b16613cfc838887615ea7565b3590613d09848988615ea7565b3590803b15611b84576084849260405194859384927f8ccecf5700000000000000000000000000000000000000000000000000000000845260008051602061753883398151915260048501526024840152606060448401528560648401525af180156112b857613e1f575b505080613d876131676001938588615ea7565b877f08cebb08b8b8e500ab46e7bc999171a89707e8f84516c3e19c07502c3559763160206001600160a01b03613dbe868c8b615ea7565b35946040519586521693a3613dd7613167828588615ea7565b7f57282142326a4408dc89219f88625f51ad080b935bbd02e069579df5dd39cbe760206001600160a01b03613e0d858b8a615ea7565b35936040519485521692a29050613cd1565b81613e2991615c0f565b610de1578738613d74565b606460405162461bcd60e51b815260206004820152602060248201527f496e73756666696369656e74206e617469766520464c4f572062616c616e63656044820152fd5b60075490949193906001600160a01b031615613f7157613ea4876001600160a01b0360075416886163b6565b6001600160a01b036007541690813b156108d557613ef490604051957f309ee57e000000000000000000000000000000000000000000000000000000008752606060048801526064870191615ed8565b848103600319016024860152828152917f07ffffffffffffffffffffffffffffffffffffffffffffffffffffffffffffff81116108d5578560208682968196829560051b8092858301378b6044840152010301925af180156112b857613f5c575b5050613c81565b81613f6691615c0f565b610c88578238613f55565b9290935b818110613f86575050505050613c81565b613f91818685615ea7565b35613f9f575b600101613f75565b613fc3613fb0613167838588615ea7565b613fbb838887615ea7565b3590886163b6565b876001600160a01b03613fda613167848689615ea7565b16613fe6838887615ea7565b35813b15610c885782916064839260405194859384927f59efcb150000000000000000000000000000000000000000000000000000000084526004840152604060248401528160448401525af180156112b85761409a575b5050806140516131676001938588615ea7565b877f08cebb08b8b8e500ab46e7bc999171a89707e8f84516c3e19c07502c3559763160206001600160a01b03614088868c8b615ea7565b35946040519586521693a39050613f97565b816140a491615c0f565b610de157873861403e565b956140c16001916131fb898887615ea7565b9601613c31565b606460405162461bcd60e51b815260206004820152601660248201527f4e6f20737472617465676965732070726f7669646564000000000000000000006044820152fd5b503461056157604036600319011261056157600435614129615a3a565b90614145611ca782600052600560205260016040600020015490565b8083526005602052604083206001600160a01b03831660005260205260ff6040600020541615614173578280f35b8083526005602052604083206001600160a01b0383166000526020526040600020600160ff198254161790556001600160a01b03339216907f2f8788117e7eff1d82e926ec794901d17c78024a50270940304540a733656f0d8480a438808280f35b5034610561578060031936011261056157601954601a5480821115614261576141fe8183615ecb565b601854938415614257576127108402908482046127101485151715614243575060809461422a91615f39565b915b604051938452602084015260408301526060820152f35b80634e487b7160e01b602492526011600452fd5b608094509161422c565b826141fe565b503461056157806003193601126105615760206001600160a01b0360095416604051908152f35b50346105615760203660031901126105615760206142bc600435600052600560205260016040600020015490565b604051908152f35b5034610561576060366003190112610561576142de615a0e565b906142e7615a3a565b6040604435926001600160a01b03851681526001602052206001600160a01b03331660005260205260406000205492600019840361432a575b6125db935061678c565b82841061434657614341836125db95033383616227565b614320565b606460405162461bcd60e51b815260206004820152601d60248201527f45524332303a20696e73756666696369656e7420616c6c6f77616e63650000006044820152fd5b5061439436615ac1565b919061439e616361565b6143b560ff601554610969828260101c1615615c61565b6000805160206175388339815191528252600f6020526143db60ff604084205416615f59565b6143ea34151561180e81615e11565b6000805160206175388339815191528252600d60205260ff600660408420015460081c1615610e80576000805160206175388339815191528252600d60205260046040832001543410610e3c576000805160206175388339815191528252600d60205260056040832001543411610df8576001600160a01b03600a541680614787575b506144786001616072565b61449034600080516020617538833981519152616d30565b916001600160a01b0382169182825260106020526040822060018101805415614767575b600080516020617538833981519152845281602052604084206144d8348254615c3e565b90556144e5868254615c3e565b9055426002820155600681016144fc348254615c3e565b90556000805160206175388339815191528352600d60205260016040842001614526348254615c3e565b90556000805160206175388339815191528352600d60205260026040842001614550348254615c3e565b905561455e34601854615c3e565b6018558315610cbc5761457385600254615c3e565b600255838352826020526040832085815401905583837fddf252ad1be2c89b69c2b068fc378daa952ba7f163c4a11628f55a4df523b3ef6020604051898152a360ff60056001600160a01b03600b541692015416813b15611b845761461260848592836040519586948593635929fb1160e11b85528b600486015260008051602061753883398151915260248601523460448601526064850190615b21565b5af1801561087a57908391614752575b50506001600160a01b0360085416806146e0575b5050507f74785400f4527135eebc0a75d415a02c2df1ca589aa990ad0715fb0ea0b764566146d060209461467b610bae34600080516020617538833981519152616b30565b601655600080516020617538833981519152847ff8a54e496f908ad8978f18ca35f7c98ff39143de1a2defae5d565eb7071980c7604051806146bf868b3484615fa4565b0390a3604051918291863484615fa4565b0390a26001600655604051908152f35b6146f834600080516020617538833981519152616b30565b91813b15611b845760405162f3ff7f60e11b81526001600160a01b03919091166004820152602481019290925282908290604490829084905af161473d575b80614636565b614748828092615c0f565b6105615780614737565b8161475c91615c0f565b610cb8578138614622565b614772601754616218565b601755614782876005840161605a565b6144b4565b6020602491604051928380926323c5e12560e01b82523460048301525afa90811561087a5783916147bf575b5015610d6b573861446d565b90506020813d6020116147f1575b816147da60209383615c0f565b81010312610c88576147eb90615c31565b386147b3565b3d91506147cd565b503461056157806003193601126105615760206040516000805160206175188339815191528152f35b503461056157806003193601126105615760206040517fbf233dd2aafeb4d50879c4aa5c81e96d92f6e6945c906a58f9f2d1c1631b4b268152f35b50346105615760403660031901126105615760043567ffffffffffffffff8111610cb85761488f903690600401615af0565b90614898615a3a565b9160008051602061751883398151915284526005602052604084206001600160a01b0333166000526020526148d460ff60406000205416615e5c565b6148dc616361565b6001600160a01b03831691828552600f6020526148ff60ff604087205416615cf7565b6000805160206175388339815191528303614ade574791855b818110614a725750505061492c9047615ecb565b9182614a24575b8261494d575b602083426014556001600655604051908152f35b61495983601954615c3e565b601955836001600160a01b03600b541691823b15610cb857604051637ecb8bcf60e01b81526001600160a01b0391909116600482015260248101859052918290604490829084905af1801561118d57614a0f575b5060406020937ffe4996cd48c364c468cee70dd6b9061874ff01b05c5ea49311cbcabd9b9cb615927faf070de27b945892aaad9c44ade61c1ac81cc8459711bba886304b1a2bf847a8868451878152a281519084825285820152a13880614939565b614a1a848092615c0f565b610c8857386149ad565b818452600d60205260026040852001614a3e848254615c3e565b9055818452600d60205260076040852001614a5a848254615c3e565b9055818452600d602052426008604086200155614933565b866001600160a01b03614a89613167848688615ea7565b16803b15610cb85781604051809263ce5c7f6160e01b825281838160406004820160006020825260208201520103925af1614ac9575b5050600101614918565b81614ad391615c0f565b610ca7578638614abf565b6007546001600160a01b031615614c4057602090614b41926001600160a01b036007541690876040518096819582947f18ebca74000000000000000000000000000000000000000000000000000000008452604060048501526044840191615ed8565b88602483015203925af190811561118d578491614c0e575b50915b821561493357614bb56301e13380614b9e614b7960145442615ecb565b858852600d602052612710614b98600160408b20015460125490615f26565b04615f26565b04612710614bae60135487615f26565b0490615c3e565b80151580614c05575b614bde575b50818452600d60205260026040852001614a3e848254615c3e565b614bfe9193614bf9826001600160a01b03600c5416866163b6565b615ecb565b9138614bc3565b50838110614bbe565b90506020813d602011614c38575b81614c2960209383615c0f565b8101031261398a575138614b59565b3d9150614c1c565b604051916370a0823160e01b8352306004840152602083602481875afa9283156108e1578693614d52575b50855b818110614ce657505050604051906370a0823160e01b8252306004830152602082602481865afa8015611631578590614cb2575b614cac9250615ecb565b91614b5c565b506020823d602011614cde575b81614ccc60209383615c0f565b8101031261398a57614cac9151614ca2565b3d9150614cbf565b866001600160a01b03614cfd613167848688615ea7565b16803b15610cb85781604051809263ce5c7f6160e01b825281838160406004820160006020825260208201520103925af1614d3d575b5050600101614c6e565b81614d4791615c0f565b610ca7578638614d33565b9092506020813d602011614d7e575b81614d6e60209383615c0f565b8101031261398a57519138614c6b565b3d9150614d61565b503461056157806003193601126105615760206001600160a01b03600b5416604051908152f35b50346105615780600319360112610561576020600254604051908152f35b50346105615780600319360112610561576020601454604051908152f35b50614df336615ac1565b614dfe929192616361565b614e1560ff601554610969828260101c1615615c61565b341515614e2181615e11565b6001600160a01b03601b5416803b15611b84578360049160405192838092630d0e30db60e41b825234905af1801561118d576152fe575b50614e6281615e11565b73d3bf53dac106a0290b0483ecbc89d40fcc961f3e8352600d60205260ff600660408520015460081c1615610e805773d3bf53dac106a0290b0483ecbc89d40fcc961f3e8352600d60205260046040842001543410610e3c5773d3bf53dac106a0290b0483ecbc89d40fcc961f3e8352600d60205260056040842001543411610df8576001600160a01b03600a54168061528c575b50615248576040516323b872dd60e01b6020820152336024820152306044820152346064820152614f5390614f3981608481015b03601f198101835282615c0f565b73d3bf53dac106a0290b0483ecbc89d40fcc961f3e616ef2565b614f713473d3bf53dac106a0290b0483ecbc89d40fcc961f3e616d30565b916001600160a01b0384169384825260106020526040822060018101805415615228575b73d3bf53dac106a0290b0483ecbc89d40fcc961f3e84528160205260408420614fbf348254615c3e565b9055614fcc868254615c3e565b905542600282015560068101614fe3348254615c3e565b905573d3bf53dac106a0290b0483ecbc89d40fcc961f3e8352600d60205260016040842001615013348254615c3e565b905573d3bf53dac106a0290b0483ecbc89d40fcc961f3e8352600d60205260026040842001615043348254615c3e565b905561505134601854615c3e565b6018558515610cbc5761506685600254615c3e565b600255858352826020526040832085815401905585837fddf252ad1be2c89b69c2b068fc378daa952ba7f163c4a11628f55a4df523b3ef6020604051898152a360ff60056001600160a01b03600b541692015416813b15611b845761510b60848592836040519586948593635929fb1160e11b85528d600486015273d3bf53dac106a0290b0483ecbc89d40fcc961f3e60248601523460448601526064850190615b21565b5af1801561087a57908391615213575b50506001600160a01b03600854168061519b575b60208573d3bf53dac106a0290b0483ecbc89d40fcc961f3e887ff8a54e496f908ad8978f18ca35f7c98ff39143de1a2defae5d565eb7071980c761518b8961517a610bae3487616b30565b601655604051918291873484615fa4565b0390a36001600655604051908152f35b6151b93473d3bf53dac106a0290b0483ecbc89d40fcc961f3e616b30565b91813b15611b845760405162f3ff7f60e11b81526001600160a01b03919091166004820152602481019290925282908290604490829084905af16151fe575b8061512f565b615209828092615c0f565b61056157806151f8565b8161521d91615c0f565b610cb857813861511b565b615233601754616218565b601755615243856005840161605a565b614f95565b606460405162461bcd60e51b815260206004820152601660248201527f556e6578706563746564206e617469766520464c4f57000000000000000000006044820152fd5b6020602491604051928380926323c5e12560e01b82523460048301525afa90811561118d5784916152c4575b5015610d6b5738614ef7565b90506020813d6020116152f6575b816152df60209383615c0f565b81010312611b84576152f090615c31565b386152b8565b3d91506152d2565b8361530b91949294615c0f565b9138614e58565b5034610561578060031936011261056157600e5461532f81615dcb565b9061533981615dcb565b9261534382615dcb565b61534c83615dcb565b9061535684615db3565b956153646040519788615c0f565b84875261537085615db3565b602088019590601f1901368737845b8181106154125750506153ae96926153c96020936153bb6153d7946040519b8c9b60a08d5260a08d0190615a50565b908b8203888d0152615a8d565b9089820360408b0152615a8d565b908782036060890152615a8d565b91858303608087015251918281520192915b8181106153f7575050500390f35b825115158452859450602093840193909201916001016153e9565b806001600160a01b0361542a6001939b999a9b615bab565b90549060031b1c16808852600d602052604088209060405161544b81615bdc565b60ff835416151581528c8584015492602083019384526154d986600287015493604086019485526003880154956060810196875260048901546080820152600589015460a082015261014060ff600960068c01549b828d1660c08601528260e086019d60081c1615158d52600781015461010086015260088101546101208601520154161515910152615dfd565b52516154e58589615dfd565b52516154f18489615dfd565b52516154fd8389615dfd565b5251151561550b828a615dfd565b52019796959761537f565b61592e565b50346105615780600319360112610561576020601354604051908152f35b503461056157608036600319011261056157615553615a0e565b61555b615a24565b606435916003831015611b8457906155d392916155ca60008051602061753883398151915260209661558b616361565b6155a260ff601554610969828260101c1615615c61565b6155c360ff60406001600160a01b03871693848152600f8c52205416615cf7565b1415615d42565b602435906163fe565b6001600655604051908152f35b50346105615780600319360112610561576020604051737f27352d5f83db87a5a3e00f4b07cc2138d8ee528152f35b5034610561576020366003190112610561578060043561562d616361565b60406001600160a01b03600b541660248251809681937f0a71e7340000000000000000000000000000000000000000000000000000000083528660048401525af19283156112b85782809461573d575b50508180615734575b6156d8575b6040805183151581526020810185905233917ff4f191486c2fe3d252463320b6b48547727afba0e0897f703ea762314455aa5391a360016006556040805191151582526020820192909252f35b60405163a9059cbb60e01b602082015233602482015260448101849052615720906157068160648101614f2b565b732aabea2058b5ac2d339b163c6ab6f2b6d53aabed616ef2565b61572c83601a54615c3e565b601a5561568b565b50821515615686565b91935091506040823d60401161577a575b8161575b60409383615c0f565b810103126105615750602061576f82615c31565b91015191388061567d565b3d915061574e565b5034610561576040366003190112610561576125db61579f615a0e565b6024359033616227565b5034610561578060031936011261056157602060ff60155460101c166040519015158152f35b50346105615780600319360112610561576040519080600354908160011c91600181168015615882575b6020841081146128825783865290811561285b575060011461582557611013846127f281860382615c0f565b600381527fc2575a0e9e593c00f959f8c92f12db2869c3395a3b0502d05e2516446f71f85b939250905b808210615868575090915081016020016127f2826127e2565b91926001816020925483858801015201910190929161584f565b92607f16926157f9565b5034610561576020366003190112610561576004357fffffffff000000000000000000000000000000000000000000000000000000008116809103610cb857807f7965db0b0000000000000000000000000000000000000000000000000000000060209214908115615904575b506040519015158152f35b7f01ffc9a700000000000000000000000000000000000000000000000000000000915014826158f9565b3461398a57600036600319011261398a5760006040517f323ab655000000000000000000000000000000000000000000000000000000008152602081600481305afa9081156112b8578291615989575b602082604051908152f35b90506020813d6020116159b7575b816159a460209383615c0f565b81010312610cb85760209150513861597e565b3d9150615997565b60005b8381106159d25750506000910152565b81810151838201526020016159c2565b60409160208252615a0281518092816020860152602086860191016159bf565b601f01601f1916010190565b600435906001600160a01b038216820361398a57565b604435906001600160a01b038216820361398a57565b602435906001600160a01b038216820361398a57565b906020808351928381520192019060005b818110615a6e5750505090565b82516001600160a01b0316845260209384019390920191600101615a61565b906020808351928381520192019060005b818110615aab5750505090565b8251845260209384019390920191600101615a9e565b604090600319011261398a576004356001600160a01b038116810361398a5790602435600381101561398a5790565b9181601f8401121561398a5782359167ffffffffffffffff831161398a576020808501948460051b01011161398a57565b906003821015610c035752565b929360a094615b5e93989796929860c0860199865260208601521515604085015260608401526080830190615b21565b0152565b606090600319011261398a576004356001600160a01b038116810361398a5790602435906044356001600160a01b038116810361398a5790565b60043590811515820361398a57565b600e54811015615bc657600e60005260206000200190600090565b634e487b7160e01b600052603260045260246000fd5b610160810190811067ffffffffffffffff821117615bf957604052565b634e487b7160e01b600052604160045260246000fd5b90601f8019910116810190811067ffffffffffffffff821117615bf957604052565b5190811515820361398a57565b91908201809211615c4b57565b634e487b7160e01b600052601160045260246000fd5b15615c6857565b606460405162461bcd60e51b815260206004820152601560248201527f456d657267656e6379206d6f64652061637469766500000000000000000000006044820152fd5b15615cb357565b606460405162461bcd60e51b815260206004820152601160248201527f4465706f736974732064697361626c65640000000000000000000000000000006044820152fd5b15615cfe57565b606460405162461bcd60e51b815260206004820152601360248201527f4173736574206e6f7420737570706f72746564000000000000000000000000006044820152fd5b15615d4957565b608460405162461bcd60e51b815260206004820152602560248201527f557365206465706f7369744e6174697665466c6f7720666f72206e617469766560448201527f20464c4f570000000000000000000000000000000000000000000000000000006064820152fd5b67ffffffffffffffff8111615bf95760051b60200190565b90615dd582615db3565b615de26040519182615c0f565b8281528092615df3601f1991615db3565b0190602036910137565b8051821015615bc65760209160051b010190565b15615e1857565b606460405162461bcd60e51b815260206004820152601d60248201527f416d6f756e74206d7573742062652067726561746572207468616e20300000006044820152fd5b15615e6357565b606460405162461bcd60e51b815260206004820152601360248201527f4f6e6c79206167656e742063616e2063616c6c000000000000000000000000006044820152fd5b9190811015615bc65760051b0190565b356001600160a01b038116810361398a5790565b91908203918211615c4b57565b916020908281520191906000905b808210615ef35750505090565b9091928335906001600160a01b038216820361398a57602080916001600160a01b03600194168152019401920190615ee6565b81810292918115918404141715615c4b57565b8115615f43570490565b634e487b7160e01b600052601260045260246000fd5b15615f6057565b606460405162461bcd60e51b815260206004820152601960248201527f4e617469766520464c4f57206e6f7420737570706f72746564000000000000006044820152fd5b604090615fc293959492956060820196825260208201520190615b21565b565b15615fcb57565b606460405162461bcd60e51b815260206004820152601560248201527f4172726179206c656e677468206d69736d6174636800000000000000000000006044820152fd5b1561601657565b606460405162461bcd60e51b815260206004820152601a60248201527f496e73756666696369656e74207661756c742062616c616e63650000000000006044820152fd5b906003811015610c035760ff80198354169116179055565b1561607957565b606460405162461bcd60e51b815260206004820152601b60248201527f4e617469766520464c4f5720616d6f756e74206d69736d6174636800000000006044820152fd5b156160c457565b606460405162461bcd60e51b815260206004820152601460248201527f5769746864726177616c732064697361626c65640000000000000000000000006044820152fd5b1561610f57565b606460405162461bcd60e51b815260206004820152601860248201527f5769746864726177616c206e6f742072657175657374656400000000000000006044820152fd5b1561615a57565b606460405162461bcd60e51b815260206004820152601860248201527f5769746864726177616c2064656c6179206e6f74206d657400000000000000006044820152fd5b8015615c4b576000190190565b156161b257565b606460405162461bcd60e51b815260206004820152601560248201527f4e6f2073686172657320746f20776974686472617700000000000000000000006044820152fd5b919082608091031261398a578151916020810151916060604083015192015190565b6000198114615c4b5760010190565b6001600160a01b03169081156162f8576001600160a01b031691821561628e5760207f8c5be1e5ebec7d5bd14f71427d1e84f3dd0314c0f7b2291e5b200ac8c7c3b925918360005260018252604060002085600052825280604060002055604051908152a3565b608460405162461bcd60e51b815260206004820152602260248201527f45524332303a20617070726f766520746f20746865207a65726f20616464726560448201527f73730000000000000000000000000000000000000000000000000000000000006064820152fd5b608460405162461bcd60e51b8152602060048201526024808201527f45524332303a20617070726f76652066726f6d20746865207a65726f2061646460448201527f72657373000000000000000000000000000000000000000000000000000000006064820152fd5b600260065414616372576002600655565b606460405162461bcd60e51b815260206004820152601f60248201527f5265656e7472616e637947756172643a207265656e7472616e742063616c6c006044820152fd5b60405163a9059cbb60e01b60208201526001600160a01b0390921660248301526044820192909252615fc2916163f982606481015b03601f198101845283615c0f565b616ef2565b91929060009161640f821515615e11565b6001600160a01b03841693848452600d60205260ff600660408620015460081c1615610e8057848452600d60205260046040852001548310610e3c57848452600d60205260056040852001548311610df8576001600160a01b03600a54168061671a575b50600080516020617538833981519152850361670457616494833414616072565b61649e8382616d30565b956001600160a01b03811694858152601060205260408120600181018054156166e4575b88835281602052604083206164d8888254615c3e565b90556164e58a8254615c3e565b9055426002820155600681016164fc878254615c3e565b9055878252600d60205260016040832001616518878254615c3e565b9055878252600d60205260026040832001616534878254615c3e565b905561654286601854615c3e565b6018558615610cbc5761655789600254615c3e565b600255868252816020526040822089815401905586827fddf252ad1be2c89b69c2b068fc378daa952ba7f163c4a11628f55a4df523b3ef60206040518d8152a360ff60056001600160a01b03600b54169201541690803b15610c8857886084898580946165e96040519788968795635929fb1160e11b8752600487015260248601528d60448601526064850190615b21565b5af180156112b857908995949392916166d4575b50906001600160a01b03600854168061665c575b5050508391616647610bae7ff8a54e496f908ad8978f18ca35f7c98ff39143de1a2defae5d565eb7071980c79661665694616b30565b60165560405193849384615fa4565b0390a390565b90919293945061666c8685616b30565b91813b15611b845760405162f3ff7f60e11b81526001600160a01b03919091166004820152602481019290925288949392919082908290604490829084905af16166b7575b80616611565b8180939495506166c691615c0f565b6105615790818793926166b1565b816166de91615c0f565b386165fd565b6166ef601754616218565b6017556166ff866005840161605a565b6164c2565b346152485761671583303388616e94565b616494565b6020602491604051928380926323c5e12560e01b82528860048301525afa908115611631578591616752575b5015610d6b5738616473565b90506020813d602011616784575b8161676d60209383615c0f565b810103126116255761677e90615c31565b38616746565b3d9150616760565b6001600160a01b03169081156168e7576001600160a01b031691821561687d5781600052600060205260406000205481811061681357817fddf252ad1be2c89b69c2b068fc378daa952ba7f163c4a11628f55a4df523b3ef9260209285600052600084520360406000205584600052600082526040600020818154019055604051908152a3565b608460405162461bcd60e51b815260206004820152602660248201527f45524332303a207472616e7366657220616d6f756e742065786365656473206260448201527f616c616e636500000000000000000000000000000000000000000000000000006064820152fd5b608460405162461bcd60e51b815260206004820152602360248201527f45524332303a207472616e7366657220746f20746865207a65726f206164647260448201527f65737300000000000000000000000000000000000000000000000000000000006064820152fd5b608460405162461bcd60e51b815260206004820152602560248201527f45524332303a207472616e736665722066726f6d20746865207a65726f20616460448201527f64726573730000000000000000000000000000000000000000000000000000006064820152fd5b3360009081527ffbc93671eda18a3103415c6de11b46be272fd03129c33970fab0bfd26d35c8a0602052604090205460ff161561698a57565b616a6a616996336172a1565b616a5260116169c47fbf233dd2aafeb4d50879c4aa5c81e96d92f6e6945c906a58f9f2d1c1631b4b266173d9565b9260376040519485927f416363657373436f6e74726f6c3a206163636f756e74200000000000000000006020850152616a0681518092602086880191016159bf565b83017f206973206d697373696e6720726f6c652000000000000000000000000000000083820152616a418251809360206048850191016159bf565b01010301601f198101835282615c0f565b60405191829162461bcd60e51b8352600483016159e2565b0390fd5b3360009081527f05b8ccbb9d4d8fb16ea74ce3c29a41f1b461fbdaff4714a0d9a8eb05499746bc602052604090205460ff1615616aa757565b616a6a616ab3336172a1565b616a5260116169c460006173d9565b80600052600560205260406000206001600160a01b03331660005260205260ff6040600020541615616af15750565b616a6a90616a5260116169c4616b06336172a1565b936173d9565b60ff6011199116019060ff8211615c4b57565b60ff16604d8111615c4b57600a0a90565b6001600160a01b03600954168015616c98576001600160a01b0382166000805160206175388339815191528103616c865760206001600160a01b03602473d3bf53dac106a0290b0483ecbc89d40fcc961f3e5b60405195869384927f1e1f12640000000000000000000000000000000000000000000000000000000084521660048301525afa60009281616c52575b50616bd357505090616bd09161701e565b90565b6000908152600d602052604090206006015460ff169290915060128311616c255790616bfe91615f26565b906012019060ff8211615c4b57616c1f616c1a616bd093616b0c565b616b1f565b90615f39565b91616c48616c1a616c42616c4e94670de0b6b3a764000096615f26565b92616b0c565b90615f26565b0490565b90926020823d602011616c7e575b81616c6d60209383615c0f565b810103126105615750519138616bbf565b3d9150616c60565b60206001600160a01b03602485616b83565b5090616bd09161701e565b80600052600560205260406000206001600160a01b03831660005260205260ff60406000205416616cd2575050565b80600052600560205260406000206001600160a01b038316600052602052604060002060ff1981541690556001600160a01b03339216907ff6391f5c32d9c69d2a47ea670b442974b53935d1edc7fd64eb21e047a839171b600080a4565b90616d3a91616b30565b6002548015616d515790616bd091601654916171c4565b5090565b6001600160a01b03168015616e2a5780600052600060205260406000205491808310616dc0576020817fddf252ad1be2c89b69c2b068fc378daa952ba7f163c4a11628f55a4df523b3ef926000958587528684520360408620558060025403600255604051908152a3565b608460405162461bcd60e51b815260206004820152602260248201527f45524332303a206275726e20616d6f756e7420657863656564732062616c616e60448201527f63650000000000000000000000000000000000000000000000000000000000006064820152fd5b608460405162461bcd60e51b815260206004820152602160248201527f45524332303a206275726e2066726f6d20746865207a65726f2061646472657360448201527f73000000000000000000000000000000000000000000000000000000000000006064820152fd5b6040516323b872dd60e01b60208201526001600160a01b0392831660248201529290911660448301526064820192909252615fc2916163f982608481016163eb565b67ffffffffffffffff8111615bf957601f01601f191660200190565b6001600160a01b03616f74911691604092600080855193616f138786615c0f565b602085527f5361666545524332303a206c6f772d6c6576656c2063616c6c206661696c6564602086015260208151910182855af13d15617016573d91616f5883616ed6565b92616f6587519485615c0f565b83523d6000602085013e617487565b8051908115918215616ff4575b505015616f8b5750565b6084905162461bcd60e51b815260206004820152602a60248201527f5361666545524332303a204552433230206f7065726174696f6e20646964206e60448201527f6f742073756363656564000000000000000000000000000000000000000000006064820152fd5b819250906020918101031261398a57602061700f9101615c31565b3880616f81565b606091617487565b6001600160a01b0316732aabea2058b5ac2d339b163c6ab6f2b6d53aabed811480156171a7575b801561718a575b801561716d575b1561705c575090565b73d3bf53dac106a0290b0483ecbc89d40fcc961f3e81148015617150575b8015617133575b801561711c575b156170a7575080800460011481151715615c4b5764e8d4a51000900490565b732f6f07cdcf3588944bf4c42ac74ff24bf56e759081036170e357506109c48102908082046109c41490151715615c4b5764e8d4a51000900490565b73a0197b2044d28b08be34d98b23c9312158ea9a18146171005790565b61c35081029080820461c3501490151715615c4b576064900490565b506000805160206175388339815191528114617088565b50731b97100ea1d7126c4d60027e231ea4cb25314bdb8114617081565b50735598c0652b899eb40f169dd5949bdbe0bf36ffde811461707a565b50737f27352d5f83db87a5a3e00f4b07cc2138d8ee528114617053565b5073674843c06ff83502ddb4d37c2e09c01cda38cbc8811461704c565b5073f1815bd50389c46847f0bda824ec8da914045d148114617045565b916000198284099282810292838086109503948086039514617283578483111561723f5782910960018219018216809204600281600302188082026002030280820260020302808202600203028082026002030280820260020302809102600203029360018380600003040190848311900302920304170290565b606460405162461bcd60e51b815260206004820152601560248201527f4d6174683a206d756c446976206f766572666c6f7700000000000000000000006044820152fd5b505090616bd09250615f39565b908151811015615bc6570160200190565b6000906172ae602a616ed6565b916172bc6040519384615c0f565b602a83526172ca602a616ed6565b6020840190601f19013682378351156173c557603090538251600110156173b1576078602184015350602960005b6001821161734d5750506173095790565b606460405162461bcd60e51b815260206004820152602060248201527f537472696e67733a20686578206c656e67746820696e73756666696369656e746044820152fd5b9091600f8116601081101561739d57907f3031323334353637383961626364656600000000000000000000000000000000617397921a61738d8587617290565b5360041c9261619e565b906172f8565b602483634e487b7160e01b81526032600452fd5b80634e487b7160e01b602492526032600452fd5b602482634e487b7160e01b81526032600452fd5b6000906173e66042616ed6565b916173f46040519384615c0f565b604283526174026042616ed6565b6020840190601f19013682378351156173c557603090538251600110156173b1576078602184015350604160005b600182116174415750506173095790565b9091600f8116601081101561739d57907f3031323334353637383961626364656600000000000000000000000000000000617481921a61738d8587617290565b90617430565b919290156174e8575081511561749b575090565b3b156174a45790565b606460405162461bcd60e51b815260206004820152601d60248201527f416464726573733a2063616c6c20746f206e6f6e2d636f6e74726163740000006044820152fd5b8251909150156174fb5750805190602001fd5b616a6a9060405191829162461bcd60e51b8352600483016159e256fecab5a0bfe0b79d2c4b1c2e02599fa044d115b7511f9659307cb4276950967709000000000000000000000000eeeeeeeeeeeeeeeeeeeeeeeeeeeeeeeeeeeeeeeea26469706673582212205a598fd2c2f49cb81e159c3c93b8db8aec4bbc1c413b3804b66c1a98b3b9671e64736f6c634300081c00332f8788117e7eff1d82e926ec794901d17c78024a50270940304540a733656f0dbb7b4a454dc3493923482f07822329ed19e8244eff582cc204f8554c3620c3fdd40ffe6bdc70129e91522e94399d8ae9eb1e2877bffe749c4c6cb4b2b451169cc79a156b6aa178944768ac5b864ea063589eb01dbbaf5014f19fa5247f1d2db005b8ccbb9d4d8fb16ea74ce3c29a41f1b461fbdaff4714a0d9a8eb05499746bc",
  "linkReferences": {},
  "deployedLinkReferences": {}
}