{
  "_format": "hh-sol-artifact-1",
  "contractName": "VaultFrontendHelper",
  "sourceName": "contracts/core/VaultFrontendHelper.sol",
  "abi": [
    {
      "inputs": [
        {
          "internalType": "address",
          "name": "_vault",
          "type": "address"
        },
        {
          "internalType": "address",
          "name": "_epochRewardManager",
          "type": "address"
        }
      ],
      "stateMutability": "nonpayable",
      "type": "constructor"
    },
    {
      "inputs": [
        {
          "internalType": "address",
          "name": "user",
          "type": "address"
        },
        {
          "internalType": "uint256",
          "name": "epochNumber",
          "type": "uint256"
        }
      ],
      "name": "canClaimEpoch",
      "outputs": [
        {
          "internalType": "bool",
          "name": "canClaim",
          "type": "bool"
        },
        {
          "internalType": "string",
          "name": "reason",
          "type": "string"
        }
      ],
      "stateMutability": "view",
      "type": "function"
    },
    {
      "inputs": [],
      "name": "epochRewardManager",
      "outputs": [
        {
          "internalType": "contract IEpochRewardManager",
          "name": "",
          "type": "address"
        }
      ],
      "stateMutability": "view",
      "type": "function"
    },
    {
      "inputs": [
        {
          "internalType": "address",
          "name": "user",
          "type": "address"
        }
      ],
      "name": "getAvailableClaimEpochs",
      "outputs": [
        {
          "internalType": "uint256[]",
          "name": "availableEpochs",
          "type": "uint256[]"
        }
      ],
      "stateMutability": "view",
      "type": "function"
    },
    {
      "inputs": [
        {
          "internalType": "address",
          "name": "user",
          "type": "address"
        },
        {
          "internalType": "uint256[]",
          "name": "epochs",
          "type": "uint256[]"
        }
      ],
      "name": "getBatchClaimStatus",
      "outputs": [
        {
          "internalType": "bool[]",
          "name": "canClaim",
          "type": "bool[]"
        },
        {
          "internalType": "string[]",
          "name": "reasons",
          "type": "string[]"
        }
      ],
      "stateMutability": "view",
      "type": "function"
    },
    {
      "inputs": [
        {
          "internalType": "address",
          "name": "user",
          "type": "address"
        },
        {
          "internalType": "uint256[]",
          "name": "epochs",
          "type": "uint256[]"
        }
      ],
      "name": "getBatchEpochRewardInfo",
      "outputs": [
        {
          "components": [
            {
              "internalType": "uint256",
              "name": "epochNumber",
              "type": "uint256"
            },
            {
              "internalType": "bool",
              "name": "isEligible",
              "type": "bool"
            },
            {
              "internalType": "bool",
              "name": "hasClaimed",
              "type": "bool"
            },
            {
              "internalType": "bool",
              "name": "canClaim",
              "type": "bool"
            },
            {
              "internalType": "uint256",
              "name": "winProbability",
              "type": "uint256"
            },
            {
              "internalType": "uint256",
              "name": "potentialPayout",
              "type": "uint256"
            },
            {
              "internalType": "uint256",
              "name": "baseWeight",
              "type": "uint256"
            },
            {
              "internalType": "uint256",
              "name": "timeWeight",
              "type": "uint256"
            },
            {
              "internalType": "uint256",
              "name": "riskMultiplier",
              "type": "uint256"
            }
          ],
          "internalType": "struct VaultFrontendHelper.EpochRewardInfo[]",
          "name": "rewardInfos",
          "type": "tuple[]"
        }
      ],
      "stateMutability": "view",
      "type": "function"
    },
    {
      "inputs": [],
      "name": "getCurrentEpochInfo",
      "outputs": [
        {
          "internalType": "uint256",
          "name": "epochNumber",
          "type": "uint256"
        },
        {
          "internalType": "uint256",
          "name": "timeRemaining",
          "type": "uint256"
        },
        {
          "internalType": "uint256",
          "name": "yieldPool",
          "type": "uint256"
        },
        {
          "internalType": "uint256",
          "name": "participantCount",
          "type": "uint256"
        }
      ],
      "stateMutability": "view",
      "type": "function"
    },
    {
      "inputs": [
        {
          "internalType": "address",
          "name": "user",
          "type": "address"
        },
        {
          "internalType": "uint256",
          "name": "epochNumber",
          "type": "uint256"
        }
      ],
      "name": "getEpochRewardInfo",
      "outputs": [
        {
          "components": [
            {
              "internalType": "uint256",
              "name": "epochNumber",
              "type": "uint256"
            },
            {
              "internalType": "bool",
              "name": "isEligible",
              "type": "bool"
            },
            {
              "internalType": "bool",
              "name": "hasClaimed",
              "type": "bool"
            },
            {
              "internalType": "bool",
              "name": "canClaim",
              "type": "bool"
            },
            {
              "internalType": "uint256",
              "name": "winProbability",
              "type": "uint256"
            },
            {
              "internalType": "uint256",
              "name": "potentialPayout",
              "type": "uint256"
            },
            {
              "internalType": "uint256",
              "name": "baseWeight",
              "type": "uint256"
            },
            {
              "internalType": "uint256",
              "name": "timeWeight",
              "type": "uint256"
            },
            {
              "internalType": "uint256",
              "name": "riskMultiplier",
              "type": "uint256"
            }
          ],
          "internalType": "struct VaultFrontendHelper.EpochRewardInfo",
          "name": "info",
          "type": "tuple"
        }
      ],
      "stateMutability": "view",
      "type": "function"
    },
    {
      "inputs": [
        {
          "internalType": "address",
          "name": "user",
          "type": "address"
        }
      ],
      "name": "getQuickUserStatus",
      "outputs": [
        {
          "internalType": "bool",
          "name": "hasDeposit",
          "type": "bool"
        },
        {
          "internalType": "uint256",
          "name": "claimableCount",
          "type": "uint256"
        },
        {
          "internalType": "enum IEpochRewardManager.RiskLevel",
          "name": "riskLevel",
          "type": "uint8"
        },
        {
          "internalType": "uint256",
          "name": "nextClaimableEpoch",
          "type": "uint256"
        }
      ],
      "stateMutability": "view",
      "type": "function"
    },
    {
      "inputs": [],
      "name": "getSystemStats",
      "outputs": [
        {
          "internalType": "uint256",
          "name": "currentEpoch",
          "type": "uint256"
        },
        {
          "internalType": "uint256",
          "name": "timeUntilNextEpoch",
          "type": "uint256"
        },
        {
          "internalType": "uint256",
          "name": "totalYieldPool",
          "type": "uint256"
        },
        {
          "internalType": "uint256",
          "name": "totalParticipants",
          "type": "uint256"
        },
        {
          "internalType": "uint256",
          "name": "epochDuration",
          "type": "uint256"
        }
      ],
      "stateMutability": "view",
      "type": "function"
    },
    {
      "inputs": [
        {
          "internalType": "address",
          "name": "user",
          "type": "address"
        }
      ],
      "name": "getTotalPotentialRewards",
      "outputs": [
        {
          "internalType": "uint256",
          "name": "totalPotential",
          "type": "uint256"
        }
      ],
      "stateMutability": "view",
      "type": "function"
    },
    {
      "inputs": [
        {
          "internalType": "address",
          "name": "user",
          "type": "address"
        }
      ],
      "name": "getUserClaimStatus",
      "outputs": [
        {
          "components": [
            {
              "internalType": "enum VaultFrontendHelper.ClaimStatus",
              "name": "status",
              "type": "uint8"
            },
            {
              "internalType": "uint256[]",
              "name": "claimableEpochs",
              "type": "uint256[]"
            },
            {
              "internalType": "uint256",
              "name": "currentEpoch",
              "type": "uint256"
            },
            {
              "internalType": "uint256",
              "name": "timeUntilNextEpoch",
              "type": "uint256"
            },
            {
              "internalType": "bool",
              "name": "hasActiveDeposit",
              "type": "bool"
            },
            {
              "internalType": "enum IEpochRewardManager.RiskLevel",
              "name": "riskLevel",
              "type": "uint8"
            },
            {
              "internalType": "uint256",
              "name": "totalDeposited",
              "type": "uint256"
            },
            {
              "internalType": "uint256",
              "name": "eligibleEpochsCount",
              "type": "uint256"
            }
          ],
          "internalType": "struct VaultFrontendHelper.UserClaimInfo",
          "name": "info",
          "type": "tuple"
        }
      ],
      "stateMutability": "view",
      "type": "function"
    },
    {
      "inputs": [
        {
          "internalType": "address",
          "name": "user",
          "type": "address"
        }
      ],
      "name": "getUserDashboard",
      "outputs": [
        {
          "components": [
            {
              "internalType": "enum VaultFrontendHelper.ClaimStatus",
              "name": "status",
              "type": "uint8"
            },
            {
              "internalType": "uint256[]",
              "name": "claimableEpochs",
              "type": "uint256[]"
            },
            {
              "internalType": "uint256",
              "name": "currentEpoch",
              "type": "uint256"
            },
            {
              "internalType": "uint256",
              "name": "timeUntilNextEpoch",
              "type": "uint256"
            },
            {
              "internalType": "bool",
              "name": "hasActiveDeposit",
              "type": "bool"
            },
            {
              "internalType": "enum IEpochRewardManager.RiskLevel",
              "name": "riskLevel",
              "type": "uint8"
            },
            {
              "internalType": "uint256",
              "name": "totalDeposited",
              "type": "uint256"
            },
            {
              "internalType": "uint256",
              "name": "eligibleEpochsCount",
              "type": "uint256"
            }
          ],
          "internalType": "struct VaultFrontendHelper.UserClaimInfo",
          "name": "claimInfo",
          "type": "tuple"
        },
        {
          "components": [
            {
              "internalType": "uint256",
              "name": "epochNumber",
              "type": "uint256"
            },
            {
              "internalType": "bool",
              "name": "isEligible",
              "type": "bool"
            },
            {
              "internalType": "bool",
              "name": "hasClaimed",
              "type": "bool"
            },
            {
              "internalType": "bool",
              "name": "canClaim",
              "type": "bool"
            },
            {
              "internalType": "uint256",
              "name": "winProbability",
              "type": "uint256"
            },
            {
              "internalType": "uint256",
              "name": "potentialPayout",
              "type": "uint256"
            },
            {
              "internalType": "uint256",
              "name": "baseWeight",
              "type": "uint256"
            },
            {
              "internalType": "uint256",
              "name": "timeWeight",
              "type": "uint256"
            },
            {
              "internalType": "uint256",
              "name": "riskMultiplier",
              "type": "uint256"
            }
          ],
          "internalType": "struct VaultFrontendHelper.EpochRewardInfo[]",
          "name": "recentEpochsInfo",
          "type": "tuple[]"
        },
        {
          "internalType": "uint256",
          "name": "totalClaimableRewards",
          "type": "uint256"
        },
        {
          "internalType": "uint256",
          "name": "estimatedNextEpochReward",
          "type": "uint256"
        }
      ],
      "stateMutability": "view",
      "type": "function"
    },
    {
      "inputs": [
        {
          "internalType": "address",
          "name": "user",
          "type": "address"
        }
      ],
      "name": "getUserRiskProfile",
      "outputs": [
        {
          "internalType": "enum IEpochRewardManager.RiskLevel",
          "name": "currentRiskLevel",
          "type": "uint8"
        },
        {
          "internalType": "uint256",
          "name": "totalDeposited",
          "type": "uint256"
        },
        {
          "internalType": "uint256",
          "name": "currentBalance",
          "type": "uint256"
        },
        {
          "internalType": "uint256",
          "name": "firstDepositEpoch",
          "type": "uint256"
        },
        {
          "internalType": "uint256",
          "name": "lastDepositEpoch",
          "type": "uint256"
        },
        {
          "internalType": "uint256",
          "name": "timeWeightedBalance",
          "type": "uint256"
        }
      ],
      "stateMutability": "view",
      "type": "function"
    },
    {
      "inputs": [
        {
          "internalType": "address",
          "name": "user",
          "type": "address"
        }
      ],
      "name": "hasActivePosition",
      "outputs": [
        {
          "internalType": "bool",
          "name": "",
          "type": "bool"
        }
      ],
      "stateMutability": "view",
      "type": "function"
    },
    {
      "inputs": [],
      "name": "vault",
      "outputs": [
        {
          "internalType": "contract ITrueMultiAssetVault",
          "name": "",
          "type": "address"
        }
      ],
      "stateMutability": "view",
      "type": "function"
    }
  ],
  "bytecode": "0x60c03461016157601f611dfe38819003918201601f19168301916001600160401b0383118484101761016657808492604094855283398101031261016157610052602061004b8361017c565b920161017c565b6001600160a01b0390911690811561012c576001600160a01b03169081156100e75760805260a052604051611c6d9081610191823960805181818160e4015281816104890152818161083e01528181610baa01528181610ee0015281816114ef0152611884015260a051818181610772015281816109c601528181610a9901528181610d710152818161101301526119f10152f35b60405162461bcd60e51b815260206004820152601560248201527f496e76616c69642065706f6368206d616e6167657200000000000000000000006044820152606490fd5b60405162461bcd60e51b815260206004820152600d60248201526c125b9d985b1a59081d985d5b1d609a1b6044820152606490fd5b600080fd5b634e487b7160e01b600052604160045260246000fd5b51906001600160a01b03821682036101615756fe608080604052600436101561001357600080fd5b60003560e01c90816318954cd814610ff55750806335f959cc14610d2057806337b7b3aa14610ce85780633a2f65d014610c1c57806393b57f9914610b65578063a257a0b514610a3b578063babc394f14610998578063c91e678614610951578063cecd3b1814610802578063d1ce59a714610744578063d312d53d1461056b578063d342628914610523578063d8a8821a14610444578063faaf80761461010d5763fbfa77cf146100c457600080fd5b346101085760003660031901126101085760206040516001600160a01b037f0000000000000000000000000000000000000000000000000000000000000000168152f35b600080fd5b3461010857602036600319011261010857610126611037565b6000906101316113c3565b506040517f37b7b3aa0000000000000000000000000000000000000000000000000000000081526001600160a01b038216600482015290828083602481305afa92831561043957849361035d575b5060208301519384516005811160001461035757506005925b6101a1846116f1565b91936000905b80821061029a5750506101e09550608085015115158061028d575b6101fd575b506101ee90604051958695608087526080870190611070565b908582036020870152611173565b91604084015260608301520390f35b6040858101519051630d7e567360e21b81526001600160a01b03929092166004830152602482015290915061012081604481305afa6000918161025c575b5061024e57506101ee6000915b906101c7565b60a06101ee91015191610248565b61027f9192506101203d8111610286575b61027781836112a1565b810190611767565b908661023b565b503d61026d565b50604085015115156101c2565b90946102dd6101206102ac888b6117ed565b51604051630d7e567360e21b81526001600160a01b0387166004820152602481019190915291829081906044820190565b0381305afa91821561034b576001926103249260009161032c575b5061030389886117ed565b5261030e88876117ed565b5060a061031b89886117ed565b510151906119a8565b9501906101a7565b61034591506101203d81116102865761027781836112a1565b8b6102f8565b6040513d6000823e3d90fd5b92610198565b9092503d8085833e61036f81836112a1565b8101906020818303126104355780519067ffffffffffffffff821161042d57016101008183031261043557604051916103a783611251565b8151600481101561043157835260208201519067ffffffffffffffff8211610431576103d4918301611458565b602083015260408101516040830152606081015160608301526103f960808201611307565b608083015260a081015190600382101561042d5760e09160a084015260c081015160c0840152015160e0820152918461017f565b8580fd5b8680fd5b8480fd5b6040513d86823e3d90fd5b346101085760203660031901126101085761045d611037565b6001600160a01b036040519163eb87a6f760e01b83521660048201526000816024816001600160a01b037f0000000000000000000000000000000000000000000000000000000000000000165afa90811561034b57600091610500575b5060405180916020820160208352815180915260206040840192019060005b8181106104e7575050500390f35b82518452859450602093840193909201916001016104d9565b61051d91503d806000833e61051581836112a1565b8101906114b5565b816104ba565b346101085760403660031901126101085761054861053f611037565b602435906119cb565b906105676040519283921515835260406020840152604083019061122c565b0390f35b34610108576105793661110c565b61058281611440565b9161059060405193846112a1565b81835261059c82611440565b602084019490601f19013686376105b283611440565b926105c060405194856112a1565b808452601f196105cf82611440565b0160005b81811061073157505060005b81811061068c57505050506040519283926040840190604085525180915260608401919060005b818110610671575050508281036020840152815180825260208201916020808360051b8301019401926000915b8383106106405786860387f35b91939550919360208061065f600193601f19868203018752895161122c565b97019301930190928695949293610633565b82511515845286955060209384019390920191600101610606565b8060006106a16106d09385889b999a9b611741565b60405163d342628960e01b81526001600160a01b03871660048201529035602482015292839081906044820190565b0381305afa91821561034b57600192600091829161070e575b506106f4838a6117ed565b526106ff828a6117ed565b901515905201959493956105df565b905061072b913d8091833e61072381836112a1565b810190611314565b8a6106e9565b60606020828801810191909152016105d3565b3461010857600036600319011261010857604051634666a62b60e01b81526080816004816001600160a01b037f0000000000000000000000000000000000000000000000000000000000000000165afa90811561034b5760a091600091600080916000936107ce575b5060405193845260208401526040830152606082015262093a806080820152f35b925050506107f4915060803d6080116107fb575b6107ec81836112a1565b810190611801565b91856107ad565b503d6107e2565b346101085760203660031901126101085761081b611037565b60405163eb87a6f760e01b81526001600160a01b038083166004830152600092907f0000000000000000000000000000000000000000000000000000000000000000168383602481845afa92831561034b57600093610934575b5060005b8351811015610929576108c260c061089183876117ed565b5160405163bc2cd82760e01b81526001600160a01b0387166004820152602481019190915291829081906044820190565b0381865afa600091816108f3575b506108df575b50600101610879565b6108ec90600192966119a8565b94906108d6565b61091591925060c03d8111610922575b61090d81836112a1565b810190611395565b94505050505090876108d0565b503d610903565b602085604051908152f35b61094a9193503d806000833e61051581836112a1565b9184610875565b34610108576020366003190112610108576080610991610977610972611037565b611823565b92939160405194151585526020850152604084019061104d565b6060820152f35b3461010857600036600319011261010857604051634666a62b60e01b81526080816004816001600160a01b037f0000000000000000000000000000000000000000000000000000000000000000165afa90811561034b5760809160009160008091600093610a19575b50604051938452602084015260408301526060820152f35b92505050610a349150823d84116107fb576107ec81836112a1565b9185610a01565b3461010857602036600319011261010857610a54611037565b6001600160a01b03604051917fc084b10b00000000000000000000000000000000000000000000000000000000835216600482015260c0816024816001600160a01b037f0000000000000000000000000000000000000000000000000000000000000000165afa801561034b5760009081828391848094610afc575b60c09650610ae1604051809761104d565b602086015260408501526060840152608083015260a0820152f35b94505050505060c0823d60c011610b5d575b81610b1b60c093836112a1565b81010312610b5a5781519060208301519060408401516060850151906080860151926003841015610b5a575060a060c096015194939091929493610ad0565b80fd5b3d9150610b0e565b3461010857602036600319011261010857610b7e611037565b6001600160a01b0360405191635b7c2dad60e01b835216600482015260c0816024816001600160a01b037f0000000000000000000000000000000000000000000000000000000000000000165afa801561034b57602091600091610be8575b506040519015158152f35b610c0a915060c03d60c011610c15575b610c0281836112a1565b810190611401565b505050505082610bdd565b503d610bf8565b3461010857610c2a3661110c565b91610c34836116f1565b9260005b818110610c55576040516020808252819061056790820188611173565b80610120610c67610c96938588611741565b604051630d7e567360e21b81526001600160a01b03871660048201529035602482015292839081906044820190565b0381305afa801561034b57600192600091610cc9575b50610cb782886117ed565b52610cc281876117ed565b5001610c38565b610ce291506101203d81116102865761027781836112a1565b87610cac565b3461010857602036600319011261010857610567610d0c610d07611037565b6114db565b604051918291602083526020830190611070565b3461010857604036600319011261010857610d39611037565b60243590610d456112c3565b828152604051632ee4566760e11b81526001600160a01b038381166004830152602482018590529192917f000000000000000000000000000000000000000000000000000000000000000016602082604481845afa91821561034b57600092610fb9575b5090151560208481019182526040516309ed8ae160e11b81526001600160a01b0385166004820152602481018790529192829060449082905afa90811561034b57600091610f7f575b5015156040848101919091525163d342628960e01b81526001600160a01b038316600482015260248101859052600081604481305afa90811561034b57600091610f63575b501515606084015251610eaf575b61012082610ead60405180926101008091805184526020810151151560208501526040810151151560408501526060810151151560608501526080810151608085015260a081015160a085015260c081015160c085015260e081015160e08501520151910152565bf35b60405163bc2cd82760e01b81526001600160a01b039182166004820152602481019390935260c090839060449082907f0000000000000000000000000000000000000000000000000000000000000000165afa801561034b57610120926000808180938195610f3a575b5060c086015260e0850152610100840152608083015260a082015282610e45565b9350505050610f58915060c03d60c0116109225761090d81836112a1565b949093915087610f19565b610f7891503d806000833e61072381836112a1565b5085610e37565b90506020813d602011610fb1575b81610f9a602093836112a1565b8101031261010857610fab90611307565b85610df2565b3d9150610f8d565b9091506020813d602011610fed575b81610fd5602093836112a1565b8101031261010857610fe690611307565b9085610da9565b3d9150610fc8565b34610108576000366003190112610108576020906001600160a01b037f0000000000000000000000000000000000000000000000000000000000000000168152f35b600435906001600160a01b038216820361010857565b90600382101561105a5752565b634e487b7160e01b600052602160045260246000fd5b906101008101918051600481101561105a578252602081015192610100602084015283518091526020610120840194019060005b8181106110f65750505060e0816040829301516040850152606081015160608501526080810151151560808501526110e460a082015160a086019061104d565b60c081015160c0850152015191015290565b82518652602095860195909201916001016110a4565b6040600319820112610108576004356001600160a01b0381168103610108579160243567ffffffffffffffff811161010857826023820112156101085780600401359267ffffffffffffffff84116101085760248460051b83010111610108576024019190565b906020808351928381520192019060005b8181106111915750505090565b9091926020610120826111fe60019488516101008091805184526020810151151560208501526040810151151560408501526060810151151560608501526080810151608085015260a081015160a085015260c081015160c085015260e081015160e08501520151910152565b019401929101611184565b60005b83811061121c5750506000910152565b818101518382015260200161120c565b9060209161124581518092818552858086019101611209565b601f01601f1916010190565b610100810190811067ffffffffffffffff82111761126e57604052565b634e487b7160e01b600052604160045260246000fd5b610120810190811067ffffffffffffffff82111761126e57604052565b90601f8019910116810190811067ffffffffffffffff82111761126e57604052565b604051906112d082611284565b6000610100838281528260208201528260408201528260608201528260808201528260a08201528260c08201528260e08201520152565b5190811515820361010857565b91906040838203126101085761132983611307565b9260208101519067ffffffffffffffff8211610108570181601f8201121561010857805167ffffffffffffffff811161126e5760405192611374601f8301601f1916602001856112a1565b81845260208284010111610108576113929160208085019101611209565b90565b91908260c09103126101085781519160208101519160408201519160608101519160a0608083015192015190565b604051906113d082611251565b600060e083828152606060208201528260408201528260608201528260808201528260a08201528260c08201520152565b91908260c09103126101085781519160208101519161142260408301611307565b91606081015191608082015160038110156101085760a09092015190565b67ffffffffffffffff811161126e5760051b60200190565b9080601f8301121561010857815161146f81611440565b9261147d60405194856112a1565b81845260208085019260051b82010192831161010857602001905b8282106114a55750505090565b8151815260209182019101611498565b9060208282031261010857815167ffffffffffffffff8111610108576113929201611458565b906114e46113c3565b916001600160a01b037f0000000000000000000000000000000000000000000000000000000000000000166001600160a01b03604051927fdc4595310000000000000000000000000000000000000000000000000000000084521680600484015260a083602481855afa801561034b576000809181958291611685575b5060405192635b7c2dad60e01b845284600485015260c084602481895afa92831561034b57600094600094611659575b5060408a01526060890152608088019215158352600381101561105a5760a088015260c087015251156116325760009060246040518094819363eb87a6f760e01b835260048301525afa90811561034b57600091611617575b5060208401819052805160e08501525115611606575060018252565b156116115760028252565b60038252565b61162c91503d806000833e61051581836112a1565b386115ea565b505050906000815260206040519061164a81836112a1565b60008252600036813782015290565b90935061167691945060c03d60c011610c1557610c0281836112a1565b97949350505050939238611591565b925050935060a0813d60a0116116e9575b816116a360a093836112a1565b810103126116e5576116b481611307565b50602081015160408201519060806116ce60608501611307565b930151956003871015610b5a575090919438611561565b8380fd5b3d9150611696565b906116fb82611440565b61170860405191826112a1565b8281528092611719601f1991611440565b019060005b82811061172a57505050565b6020906117356112c3565b8282850101520161171e565b91908110156117515760051b0190565b634e487b7160e01b600052603260045260246000fd5b9081610120910312610108576101006040519161178383611284565b8051835261179360208201611307565b60208401526117a460408201611307565b60408401526117b560608201611307565b60608401526080810151608084015260a081015160a084015260c081015160c084015260e081015160e0840152015161010082015290565b80518210156117515760209160051b010190565b9190826080910312610108578151916020810151916060604083015192015190565b906001600160a01b03604051927f93b57f990000000000000000000000000000000000000000000000000000000084521690816004840152602083602481305afa92831561034b5760009361196c575b50821561195e576001600160a01b037f000000000000000000000000000000000000000000000000000000000000000016906040519163eb87a6f760e01b8352836004840152600083602481845afa92831561034b57600093611941575b5060c0835194602460405180948193635b7c2dad60e01b835260048301525afa90811561034b5760009161191c575b5091831561191657805115611751576020015190565b50600090565b611935915060c03d60c011610c1557610c0281836112a1565b50935050505038611900565b6119579193503d806000833e61051581836112a1565b91386118d1565b600092508291506001908290565b9092506020813d6020116119a0575b81611988602093836112a1565b810103126101085761199990611307565b9138611873565b3d915061197b565b919082018092116119b557565b634e487b7160e01b600052601160045260246000fd5b604051632ee4566760e11b81526001600160a01b038281166004830152602482018490527f000000000000000000000000000000000000000000000000000000000000000016929190602081604481875afa90811561034b57600091611bfd575b5015611bbc576040516309ed8ae160e11b81526001600160a01b0391909116600482015260248101829052602081604481865afa90811561034b57600091611b82575b50611b4257608060049260405193848092634666a62b60e01b82525afa91821561034b57600092611b1e575b501015611ae057600190604051611ab36040826112a1565b600981527f43616e20636c61696d0000000000000000000000000000000000000000000000602082015290565b600090604051611af16040826112a1565b601781527f45706f6368206e6f7420636f6d706c6574656420796574000000000000000000602082015290565b611b3891925060803d6080116107fb576107ec81836112a1565b5050509038611a9b565b5050600090604051611b556040826112a1565b601e81527f416c726561647920636c61696d656420666f7220746869732065706f63680000602082015290565b90506020813d602011611bb4575b81611b9d602093836112a1565b8101031261010857611bae90611307565b38611a6f565b3d9150611b90565b505050600090604051611bd06040826112a1565b601b81527f4e6f7420656c696769626c6520666f7220746869732065706f63680000000000602082015290565b90506020813d602011611c2f575b81611c18602093836112a1565b8101031261010857611c2990611307565b38611a2c565b3d9150611c0b56fea264697066735822122038723a59f029f27644048e7a81a16d869f39220057abb8cf2af40d3e510880d864736f6c634300081c0033",
  "linkReferences": {},
  "deployedLinkReferences": {}
}