{
  "_format": "hh-sol-artifact-1",
  "contractName": "RiskManager",
  "sourceName": "contracts/components/RiskManager.sol",
  "abi": [
    {
      "inputs": [],
      "stateMutability": "nonpayable",
      "type": "constructor"
    },
    {
      "anonymous": false,
      "inputs": [
        {
          "indexed": true,
          "internalType": "address",
          "name": "strategy",
          "type": "address"
        },
        {
          "indexed": false,
          "internalType": "uint256",
          "name": "healthFactor",
          "type": "uint256"
        }
      ],
      "name": "EmergencyTriggered",
      "type": "event"
    },
    {
      "anonymous": false,
      "inputs": [
        {
          "indexed": false,
          "internalType": "uint256",
          "name": "totalLeverage",
          "type": "uint256"
        },
        {
          "indexed": false,
          "internalType": "uint256",
          "name": "avgHealthFactor",
          "type": "uint256"
        },
        {
          "indexed": false,
          "internalType": "uint256",
          "name": "totalAtRisk",
          "type": "uint256"
        }
      ],
      "name": "RiskMetricsUpdated",
      "type": "event"
    },
    {
      "anonymous": false,
      "inputs": [
        {
          "indexed": true,
          "internalType": "bytes32",
          "name": "role",
          "type": "bytes32"
        },
        {
          "indexed": true,
          "internalType": "bytes32",
          "name": "previousAdminRole",
          "type": "bytes32"
        },
        {
          "indexed": true,
          "internalType": "bytes32",
          "name": "newAdminRole",
          "type": "bytes32"
        }
      ],
      "name": "RoleAdminChanged",
      "type": "event"
    },
    {
      "anonymous": false,
      "inputs": [
        {
          "indexed": true,
          "internalType": "bytes32",
          "name": "role",
          "type": "bytes32"
        },
        {
          "indexed": true,
          "internalType": "address",
          "name": "account",
          "type": "address"
        },
        {
          "indexed": true,
          "internalType": "address",
          "name": "sender",
          "type": "address"
        }
      ],
      "name": "RoleGranted",
      "type": "event"
    },
    {
      "anonymous": false,
      "inputs": [
        {
          "indexed": true,
          "internalType": "bytes32",
          "name": "role",
          "type": "bytes32"
        },
        {
          "indexed": true,
          "internalType": "address",
          "name": "account",
          "type": "address"
        },
        {
          "indexed": true,
          "internalType": "address",
          "name": "sender",
          "type": "address"
        }
      ],
      "name": "RoleRevoked",
      "type": "event"
    },
    {
      "anonymous": false,
      "inputs": [
        {
          "indexed": true,
          "internalType": "address",
          "name": "strategy",
          "type": "address"
        },
        {
          "indexed": false,
          "internalType": "uint256",
          "name": "riskLevel",
          "type": "uint256"
        }
      ],
      "name": "StrategyAddedToMonitoring",
      "type": "event"
    },
    {
      "inputs": [],
      "name": "DEFAULT_ADMIN_ROLE",
      "outputs": [
        {
          "internalType": "bytes32",
          "name": "",
          "type": "bytes32"
        }
      ],
      "stateMutability": "view",
      "type": "function"
    },
    {
      "inputs": [],
      "name": "STRATEGY_MANAGER_ROLE",
      "outputs": [
        {
          "internalType": "bytes32",
          "name": "",
          "type": "bytes32"
        }
      ],
      "stateMutability": "view",
      "type": "function"
    },
    {
      "inputs": [],
      "name": "VAULT_ROLE",
      "outputs": [
        {
          "internalType": "bytes32",
          "name": "",
          "type": "bytes32"
        }
      ],
      "stateMutability": "view",
      "type": "function"
    },
    {
      "inputs": [
        {
          "internalType": "address",
          "name": "strategy",
          "type": "address"
        },
        {
          "internalType": "uint256",
          "name": "riskLevel",
          "type": "uint256"
        }
      ],
      "name": "addStrategyToMonitoring",
      "outputs": [],
      "stateMutability": "nonpayable",
      "type": "function"
    },
    {
      "inputs": [],
      "name": "checkRisk",
      "outputs": [
        {
          "internalType": "bool",
          "name": "healthy",
          "type": "bool"
        },
        {
          "internalType": "uint256",
          "name": "riskScore",
          "type": "uint256"
        }
      ],
      "stateMutability": "view",
      "type": "function"
    },
    {
      "inputs": [],
      "name": "emergencyHealthFactorThreshold",
      "outputs": [
        {
          "internalType": "uint256",
          "name": "",
          "type": "uint256"
        }
      ],
      "stateMutability": "view",
      "type": "function"
    },
    {
      "inputs": [],
      "name": "getRiskMetrics",
      "outputs": [
        {
          "internalType": "uint256",
          "name": "totalLeverage",
          "type": "uint256"
        },
        {
          "internalType": "uint256",
          "name": "avgHealthFactor",
          "type": "uint256"
        },
        {
          "internalType": "bool",
          "name": "emergency",
          "type": "bool"
        }
      ],
      "stateMutability": "view",
      "type": "function"
    },
    {
      "inputs": [
        {
          "internalType": "bytes32",
          "name": "role",
          "type": "bytes32"
        }
      ],
      "name": "getRoleAdmin",
      "outputs": [
        {
          "internalType": "bytes32",
          "name": "",
          "type": "bytes32"
        }
      ],
      "stateMutability": "view",
      "type": "function"
    },
    {
      "inputs": [
        {
          "internalType": "bytes32",
          "name": "role",
          "type": "bytes32"
        },
        {
          "internalType": "address",
          "name": "account",
          "type": "address"
        }
      ],
      "name": "grantRole",
      "outputs": [],
      "stateMutability": "nonpayable",
      "type": "function"
    },
    {
      "inputs": [
        {
          "internalType": "bytes32",
          "name": "role",
          "type": "bytes32"
        },
        {
          "internalType": "address",
          "name": "account",
          "type": "address"
        }
      ],
      "name": "hasRole",
      "outputs": [
        {
          "internalType": "bool",
          "name": "",
          "type": "bool"
        }
      ],
      "stateMutability": "view",
      "type": "function"
    },
    {
      "inputs": [
        {
          "internalType": "address",
          "name": "",
          "type": "address"
        }
      ],
      "name": "isMonitored",
      "outputs": [
        {
          "internalType": "bool",
          "name": "",
          "type": "bool"
        }
      ],
      "stateMutability": "view",
      "type": "function"
    },
    {
      "inputs": [
        {
          "internalType": "uint256",
          "name": "amount",
          "type": "uint256"
        }
      ],
      "name": "isWithinRiskLimits",
      "outputs": [
        {
          "internalType": "bool",
          "name": "",
          "type": "bool"
        }
      ],
      "stateMutability": "view",
      "type": "function"
    },
    {
      "inputs": [],
      "name": "maxHighRiskAllocation",
      "outputs": [
        {
          "internalType": "uint256",
          "name": "",
          "type": "uint256"
        }
      ],
      "stateMutability": "view",
      "type": "function"
    },
    {
      "inputs": [],
      "name": "maxPortfolioLeverage",
      "outputs": [
        {
          "internalType": "uint256",
          "name": "",
          "type": "uint256"
        }
      ],
      "stateMutability": "view",
      "type": "function"
    },
    {
      "inputs": [
        {
          "internalType": "uint256",
          "name": "",
          "type": "uint256"
        }
      ],
      "name": "monitoredStrategies",
      "outputs": [
        {
          "internalType": "address",
          "name": "",
          "type": "address"
        }
      ],
      "stateMutability": "view",
      "type": "function"
    },
    {
      "inputs": [],
      "name": "performRiskCheck",
      "outputs": [],
      "stateMutability": "nonpayable",
      "type": "function"
    },
    {
      "inputs": [
        {
          "internalType": "bytes32",
          "name": "role",
          "type": "bytes32"
        },
        {
          "internalType": "address",
          "name": "account",
          "type": "address"
        }
      ],
      "name": "renounceRole",
      "outputs": [],
      "stateMutability": "nonpayable",
      "type": "function"
    },
    {
      "inputs": [],
      "name": "resetEmergencyFlag",
      "outputs": [],
      "stateMutability": "nonpayable",
      "type": "function"
    },
    {
      "inputs": [
        {
          "internalType": "bytes32",
          "name": "role",
          "type": "bytes32"
        },
        {
          "internalType": "address",
          "name": "account",
          "type": "address"
        }
      ],
      "name": "revokeRole",
      "outputs": [],
      "stateMutability": "nonpayable",
      "type": "function"
    },
    {
      "inputs": [],
      "name": "riskCheckInterval",
      "outputs": [
        {
          "internalType": "uint256",
          "name": "",
          "type": "uint256"
        }
      ],
      "stateMutability": "view",
      "type": "function"
    },
    {
      "inputs": [],
      "name": "riskMetrics",
      "outputs": [
        {
          "internalType": "uint256",
          "name": "totalLeverage",
          "type": "uint256"
        },
        {
          "internalType": "uint256",
          "name": "averageHealthFactor",
          "type": "uint256"
        },
        {
          "internalType": "uint256",
          "name": "totalAtRisk",
          "type": "uint256"
        },
        {
          "internalType": "uint256",
          "name": "lastRiskAssessment",
          "type": "uint256"
        },
        {
          "internalType": "bool",
          "name": "emergencyTriggered",
          "type": "bool"
        }
      ],
      "stateMutability": "view",
      "type": "function"
    },
    {
      "inputs": [
        {
          "internalType": "uint256",
          "name": "_maxPortfolioLeverage",
          "type": "uint256"
        },
        {
          "internalType": "uint256",
          "name": "_emergencyHealthFactorThreshold",
          "type": "uint256"
        },
        {
          "internalType": "uint256",
          "name": "_maxHighRiskAllocation",
          "type": "uint256"
        },
        {
          "internalType": "uint256",
          "name": "_riskCheckInterval",
          "type": "uint256"
        }
      ],
      "name": "setRiskParameters",
      "outputs": [],
      "stateMutability": "nonpayable",
      "type": "function"
    },
    {
      "inputs": [
        {
          "internalType": "address",
          "name": "",
          "type": "address"
        }
      ],
      "name": "strategyRiskLevel",
      "outputs": [
        {
          "internalType": "uint256",
          "name": "",
          "type": "uint256"
        }
      ],
      "stateMutability": "view",
      "type": "function"
    },
    {
      "inputs": [
        {
          "internalType": "bytes4",
          "name": "interfaceId",
          "type": "bytes4"
        }
      ],
      "name": "supportsInterface",
      "outputs": [
        {
          "internalType": "bool",
          "name": "",
          "type": "bool"
        }
      ],
      "stateMutability": "view",
      "type": "function"
    }
  ],
  "bytecode": "0x60806040523460b557673782dace9d9000006006556710a741a4627800006007556107d0600855610e1060095533600090815260008051602061138e833981519152602052604090205460ff16156064575b426004556040516112d390816100bb8239f35b33600081815260008051602061138e83398151915260205260408120805460ff1916600117905581907f2f8788117e7eff1d82e926ec794901d17c78024a50270940304540a733656f0d8180a46051565b600080fdfe608080604052600436101561001357600080fd5b60003560e01c90816301640f7b14610c4d5750806301ffc9a714610bac57806321ea48bf14610b6b57806323c5e12514610b46578063248a9ca314610b1157806324dbd6ff1461075f5780632f2ff15d1461069857806336568abe146105f957806344650e83146105c55780635536ee63146105a7578063553face01461057e5780635b125282146105605780636f9ea99e1461051b5780638066ee08146104fd57806391d14854146104af57806398630fa7146102d657806398c4f1ac1461029b578063a217fddf1461027f578063aae7824914610240578063abcbe0b214610205578063cba39118146101e0578063d0cc2a1f146101ad578063d547741f146101665763dbab243f1461012757600080fd5b34610161576020366003190112610161576001600160a01b03610148610caf565b16600052600c6020526020604060002054604051908152f35b600080fd5b34610161576040366003190112610161576101ab600435610185610c99565b906101a66101a182600052600060205260016040600020015490565b610f6c565b610fba565b005b34610161576080366003190112610161576101c6610f14565b600435600655602435600755604435600855606435600955005b34610161576000366003190112610161576101f9610f14565b6005805460ff19169055005b346101615760003660031901126101615760206040517f4170d100a3a3728ae51207936ee755ecaa64a7f6e9383c642ab204a136f90b1b8152f35b34610161576020366003190112610161576001600160a01b03610261610caf565b16600052600b602052602060ff604060002054166040519015158152f35b3461016157600036600319011261016157602060405160008152f35b346101615760003660031901126101615760206040517f31e0210044b4f6757ce6aa31f9c6e8d4896d24a755014887391a926c5224d9598152f35b34610161576040366003190112610161576102ef610caf565b6001600160a01b0360243591610303610f14565b1690811561046b57600181101580610460575b1561041c5781600052600b60205260ff604060002054166103d857600a54680100000000000000008110156103c2577ff600ea3c1e6c29f4d8be2615fbf9339fd8ba7bd97d255e0159e5721e3acded619161037982600160209401600a55610c68565b81549060031b906001600160a01b0387831b921b191617905583600052600b82526040600020600160ff1982541617905583600052600c825280604060002055604051908152a2005b634e487b7160e01b600052604160045260246000fd5b606460405162461bcd60e51b815260206004820152601160248201527f416c7265616479206d6f6e69746f7265640000000000000000000000000000006044820152fd5b606460405162461bcd60e51b815260206004820152601260248201527f496e76616c6964207269736b206c6576656c00000000000000000000000000006044820152fd5b506003811115610316565b606460405162461bcd60e51b815260206004820152601060248201527f496e76616c6964207374726174656779000000000000000000000000000000006044820152fd5b34610161576040366003190112610161576104c8610c99565b60043560005260006020526001600160a01b0360406000209116600052602052602060ff604060002054166040519015158152f35b34610161576000366003190112610161576020600654604051908152f35b346101615760003660031901126101615760a06001546002546003546004549060ff600554169260405194855260208501526040840152606083015215156080820152f35b34610161576000366003190112610161576020600854604051908152f35b34610161576000366003190112610161576040610599610d39565b825191151582526020820152f35b34610161576000366003190112610161576020600754604051908152f35b3461016157600036600319011261016157606060015460025460ff6005541690604051928352602083015215156040820152f35b3461016157604036600319011261016157610612610c99565b336001600160a01b0382160361062e576101ab90600435610fba565b608460405162461bcd60e51b815260206004820152602f60248201527f416363657373436f6e74726f6c3a2063616e206f6e6c792072656e6f756e636560448201527f20726f6c657320666f722073656c6600000000000000000000000000000000006064820152fd5b34610161576040366003190112610161576004356106b4610c99565b906106d06101a182600052600060205260016040600020015490565b80600052600060205260406000206001600160a01b03831660005260205260ff60406000205416156106fe57005b80600052600060205260406000206001600160a01b0383166000526020526040600020600160ff198254161790556001600160a01b03339216907f2f8788117e7eff1d82e926ec794901d17c78024a50270940304540a733656f0d600080a4005b34610161576000366003190112610161573360009081527fe25b6ba8403f3a2e3ff9683ba896f242af7bbe0c84a18cb514a88c742bafe404602052604090205460ff1615610a10576000808080805b600a5481101561096c576001600160a01b036107c982610c68565b90549060031b1c1660405163011a042b60e21b8152602081600481855afa60009181610939575b5061091d575b506040519063a5f352b760e01b8252602082600481845afa600092816108e7575b50610827575b50506001016107ae565b929190958661083591610ce7565b956007548110610849575b8192935061081d565b9161085390610d0a565b92803b15610161576001926040517fda83298800000000000000000000000000000000000000000000000000000000815260008160048183875af190816108d6575b506108a4575b50839250610840565b60207f57ffbb5a6ee8a2ffcfe49581a3c44cc042f09353092758bcbe3c0d96de6b305291604051908152a2868061089b565b60006108e191610cc5565b89610895565b90926020823d8211610915575b8161090160209383610cc5565b810103126109125750519188610817565b80fd5b3d91506108f4565b61092c90610932929596610ce7565b94610d0a565b92866107f6565b90916020823d8211610964575b8161095360209383610cc5565b8101031261091257505190886107f0565b3d9150610946565b507f32e9c118537fb16d6b01ba248926d2fdf165d010cce1ac24d0200cedad8a8e259360609392801515938160009186600014610a08576109ad9250610d19565b935b846001556000146109fe576109c391610d19565b80600255816003554260045560065483116109ec575b60405192835260208301526040820152a1005b600160ff1960055416176005556109d9565b50506000196109c3565b5050936109af565b610b0360446037610a2033611097565b610adb6011610a4e7f4170d100a3a3728ae51207936ee755ecaa64a7f6e9383c642ab204a136f90b1b6111e4565b60405194859160208301957f416363657373436f6e74726f6c3a206163636f756e74200000000000000000008752610a8f8151809260208688019101611047565b83017f206973206d697373696e6720726f6c652000000000000000000000000000000083820152610aca825180936020604885019101611047565b01010301601f198101845283610cc5565b60405193849262461bcd60e51b84526020600485015251809281602486015285850190611047565b601f01601f19168101030190fd5b34610161576020366003190112610161576020610b3e600435600052600060205260016040600020015490565b604051908152f35b3461016157602036600319011261016157602060405164e8d4a5100060043511158152f35b3461016157602036600319011261016157600435600a54811015610161576001600160a01b03610b9c602092610c68565b90549060031b1c16604051908152f35b34610161576020366003190112610161576004357fffffffff00000000000000000000000000000000000000000000000000000000811680910361016157807f7965db0b0000000000000000000000000000000000000000000000000000000060209214908115610c23575b506040519015158152f35b7f01ffc9a70000000000000000000000000000000000000000000000000000000091501482610c18565b34610161576000366003190112610161576020906009548152f35b600a54811015610c8357600a60005260206000200190600090565b634e487b7160e01b600052603260045260246000fd5b602435906001600160a01b038216820361016157565b600435906001600160a01b038216820361016157565b90601f8019910116810190811067ffffffffffffffff8211176103c257604052565b91908201809211610cf457565b634e487b7160e01b600052601160045260246000fd5b6000198114610cf45760010190565b8115610d23570490565b634e487b7160e01b600052601260045260246000fd5b610d4860045460095490610ce7565b4210610f0c576000908180928182600a54905b818110610de7575050801515928184600014610ddd57610d7a91610d19565b925b15610dd657610d8a91610d19565b505b6006541080159283610dcd575b606481029080820460641490151715610cf457610dc19115610dc45760ff60325b1690610ce7565b90565b60ff6000610dba565b80159350610d99565b5050610d8c565b5050600092610d7c565b6001600160a01b03610df882610c68565b90549060031b1c1660405163011a042b60e21b8152602081600481855afa60009181610ed9575b50610eb8575b5060206004916040519283809263a5f352b760e01b82525afa60009181610e85575b50610e56575b50600101610d5b565b9384610e6191610ce7565b9360075411610e71575b38610e4d565b95610e7d600191610d0a565b969050610e6b565b90916020823d8211610eb0575b81610e9f60209383610cc5565b810103126109125750519038610e47565b3d9150610e92565b610ed1610ecb6020926004949799610ce7565b97610d0a565b949150610e25565b90916020823d8211610f04575b81610ef360209383610cc5565b810103126109125750519038610e1f565b3d9150610ee6565b600190600090565b3360009081527fad3228b676f7d3cd4284a5443f17f1962b36e491b30a40b2405849e597ba5fb5602052604090205460ff1615610f4d57565b610b0360446037610f5d33611097565b610adb6011610a4e60006111e4565b80600052600060205260406000206001600160a01b03331660005260205260ff6040600020541615610f9b5750565b60446037610b0392610adb6011610a4e610fb433611097565b936111e4565b80600052600060205260406000206001600160a01b03831660005260205260ff60406000205416610fe9575050565b80600052600060205260406000206001600160a01b038316600052602052604060002060ff1981541690556001600160a01b03339216907ff6391f5c32d9c69d2a47ea670b442974b53935d1edc7fd64eb21e047a839171b600080a4565b60005b83811061105a5750506000910152565b818101518382015260200161104a565b67ffffffffffffffff81116103c257601f01601f191660200190565b908151811015610c83570160200190565b6000906110a4602a61106a565b916110b26040519384610cc5565b602a83526110c0602a61106a565b6020840190601f19013682378351156111d057603090538251600110156111bc576078602184015350602960005b600182116111435750506110ff5790565b606460405162461bcd60e51b815260206004820152602060248201527f537472696e67733a20686578206c656e67746820696e73756666696369656e746044820152fd5b9091600f811660108110156111a8577f3031323334353637383961626364656600000000000000000000000000000000901a61117f8486611086565b5360041c9180156111945760001901906110ee565b602482634e487b7160e01b81526011600452fd5b602483634e487b7160e01b81526032600452fd5b80634e487b7160e01b602492526032600452fd5b602482634e487b7160e01b81526032600452fd5b6000906111f1604261106a565b916111ff6040519384610cc5565b6042835261120d604261106a565b6020840190601f19013682378351156111d057603090538251600110156111bc576078602184015350604160005b6001821161124c5750506110ff5790565b9091600f811660108110156111a8577f3031323334353637383961626364656600000000000000000000000000000000901a6112888486611086565b5360041c91801561119457600019019061123b56fea26469706673582212206466392b1816a3eafcb7c106bd89d439afcca96d83d1c4fc48d5d5a37a7bf10e64736f6c634300081c0033ad3228b676f7d3cd4284a5443f17f1962b36e491b30a40b2405849e597ba5fb5",
  "linkReferences": {},
  "deployedLinkReferences": {}
}