{
  "_format": "hh-sol-artifact-1",
  "contractName": "ArbitrageScanner",
  "sourceName": "contracts/arbitrage/ArbitrageScanner.sol",
  "abi": [
    {
      "inputs": [
        {
          "internalType": "address",
          "name": "_dexManager",
          "type": "address"
        }
      ],
      "stateMutability": "nonpayable",
      "type": "constructor"
    },
    {
      "anonymous": false,
      "inputs": [
        {
          "indexed": true,
          "internalType": "bytes32",
          "name": "role",
          "type": "bytes32"
        },
        {
          "indexed": true,
          "internalType": "bytes32",
          "name": "previousAdminRole",
          "type": "bytes32"
        },
        {
          "indexed": true,
          "internalType": "bytes32",
          "name": "newAdminRole",
          "type": "bytes32"
        }
      ],
      "name": "RoleAdminChanged",
      "type": "event"
    },
    {
      "anonymous": false,
      "inputs": [
        {
          "indexed": true,
          "internalType": "bytes32",
          "name": "role",
          "type": "bytes32"
        },
        {
          "indexed": true,
          "internalType": "address",
          "name": "account",
          "type": "address"
        },
        {
          "indexed": true,
          "internalType": "address",
          "name": "sender",
          "type": "address"
        }
      ],
      "name": "RoleGranted",
      "type": "event"
    },
    {
      "anonymous": false,
      "inputs": [
        {
          "indexed": true,
          "internalType": "bytes32",
          "name": "role",
          "type": "bytes32"
        },
        {
          "indexed": true,
          "internalType": "address",
          "name": "account",
          "type": "address"
        },
        {
          "indexed": true,
          "internalType": "address",
          "name": "sender",
          "type": "address"
        }
      ],
      "name": "RoleRevoked",
      "type": "event"
    },
    {
      "inputs": [],
      "name": "DEFAULT_ADMIN_ROLE",
      "outputs": [
        {
          "internalType": "bytes32",
          "name": "",
          "type": "bytes32"
        }
      ],
      "stateMutability": "view",
      "type": "function"
    },
    {
      "inputs": [],
      "name": "STFLOW",
      "outputs": [
        {
          "internalType": "address",
          "name": "",
          "type": "address"
        }
      ],
      "stateMutability": "view",
      "type": "function"
    },
    {
      "inputs": [],
      "name": "STRATEGY_ROLE",
      "outputs": [
        {
          "internalType": "bytes32",
          "name": "",
          "type": "bytes32"
        }
      ],
      "stateMutability": "view",
      "type": "function"
    },
    {
      "inputs": [],
      "name": "USDC",
      "outputs": [
        {
          "internalType": "address",
          "name": "",
          "type": "address"
        }
      ],
      "stateMutability": "view",
      "type": "function"
    },
    {
      "inputs": [],
      "name": "USDT",
      "outputs": [
        {
          "internalType": "address",
          "name": "",
          "type": "address"
        }
      ],
      "stateMutability": "view",
      "type": "function"
    },
    {
      "inputs": [],
      "name": "WETH",
      "outputs": [
        {
          "internalType": "address",
          "name": "",
          "type": "address"
        }
      ],
      "stateMutability": "view",
      "type": "function"
    },
    {
      "inputs": [],
      "name": "WFLOW",
      "outputs": [
        {
          "internalType": "address",
          "name": "",
          "type": "address"
        }
      ],
      "stateMutability": "view",
      "type": "function"
    },
    {
      "inputs": [
        {
          "internalType": "address",
          "name": "token",
          "type": "address"
        }
      ],
      "name": "addWhitelistedToken",
      "outputs": [],
      "stateMutability": "nonpayable",
      "type": "function"
    },
    {
      "inputs": [],
      "name": "checkStFLOWArbitrage",
      "outputs": [
        {
          "internalType": "uint256",
          "name": "profit",
          "type": "uint256"
        }
      ],
      "stateMutability": "nonpayable",
      "type": "function"
    },
    {
      "inputs": [],
      "name": "dexManager",
      "outputs": [
        {
          "internalType": "contract IArbitrageDEXManager",
          "name": "",
          "type": "address"
        }
      ],
      "stateMutability": "view",
      "type": "function"
    },
    {
      "inputs": [
        {
          "internalType": "bytes32",
          "name": "role",
          "type": "bytes32"
        }
      ],
      "name": "getRoleAdmin",
      "outputs": [
        {
          "internalType": "bytes32",
          "name": "",
          "type": "bytes32"
        }
      ],
      "stateMutability": "view",
      "type": "function"
    },
    {
      "inputs": [],
      "name": "getTradingTokens",
      "outputs": [
        {
          "internalType": "address[]",
          "name": "",
          "type": "address[]"
        }
      ],
      "stateMutability": "view",
      "type": "function"
    },
    {
      "inputs": [
        {
          "internalType": "bytes32",
          "name": "role",
          "type": "bytes32"
        },
        {
          "internalType": "address",
          "name": "account",
          "type": "address"
        }
      ],
      "name": "grantRole",
      "outputs": [],
      "stateMutability": "nonpayable",
      "type": "function"
    },
    {
      "inputs": [
        {
          "internalType": "bytes32",
          "name": "role",
          "type": "bytes32"
        },
        {
          "internalType": "address",
          "name": "account",
          "type": "address"
        }
      ],
      "name": "hasRole",
      "outputs": [
        {
          "internalType": "bool",
          "name": "",
          "type": "bool"
        }
      ],
      "stateMutability": "view",
      "type": "function"
    },
    {
      "inputs": [],
      "name": "minProfitThreshold",
      "outputs": [
        {
          "internalType": "uint256",
          "name": "",
          "type": "uint256"
        }
      ],
      "stateMutability": "view",
      "type": "function"
    },
    {
      "inputs": [
        {
          "internalType": "address",
          "name": "token",
          "type": "address"
        }
      ],
      "name": "removeWhitelistedToken",
      "outputs": [],
      "stateMutability": "nonpayable",
      "type": "function"
    },
    {
      "inputs": [
        {
          "internalType": "bytes32",
          "name": "role",
          "type": "bytes32"
        },
        {
          "internalType": "address",
          "name": "account",
          "type": "address"
        }
      ],
      "name": "renounceRole",
      "outputs": [],
      "stateMutability": "nonpayable",
      "type": "function"
    },
    {
      "inputs": [
        {
          "internalType": "bytes32",
          "name": "role",
          "type": "bytes32"
        },
        {
          "internalType": "address",
          "name": "account",
          "type": "address"
        }
      ],
      "name": "revokeRole",
      "outputs": [],
      "stateMutability": "nonpayable",
      "type": "function"
    },
    {
      "inputs": [],
      "name": "scanForBestArbitrageOpportunity",
      "outputs": [
        {
          "components": [
            {
              "internalType": "address",
              "name": "tokenA",
              "type": "address"
            },
            {
              "internalType": "address",
              "name": "tokenB",
              "type": "address"
            },
            {
              "internalType": "address",
              "name": "dexA",
              "type": "address"
            },
            {
              "internalType": "address",
              "name": "dexB",
              "type": "address"
            },
            {
              "internalType": "uint256",
              "name": "profitAmount",
              "type": "uint256"
            },
            {
              "internalType": "uint256",
              "name": "inputAmount",
              "type": "uint256"
            },
            {
              "internalType": "uint256",
              "name": "gasEstimate",
              "type": "uint256"
            },
            {
              "internalType": "uint256",
              "name": "profitabilityScore",
              "type": "uint256"
            },
            {
              "internalType": "bool",
              "name": "isValid",
              "type": "bool"
            },
            {
              "internalType": "bool",
              "name": "requiresFlashLoan",
              "type": "bool"
            },
            {
              "internalType": "uint256",
              "name": "timestamp",
              "type": "uint256"
            },
            {
              "internalType": "bytes",
              "name": "routingData",
              "type": "bytes"
            }
          ],
          "internalType": "struct ArbitrageTypes.ArbitrageOpportunity",
          "name": "bestOpportunity",
          "type": "tuple"
        }
      ],
      "stateMutability": "nonpayable",
      "type": "function"
    },
    {
      "inputs": [],
      "name": "scanForTriangularArbitrage",
      "outputs": [
        {
          "components": [
            {
              "internalType": "address",
              "name": "tokenA",
              "type": "address"
            },
            {
              "internalType": "address",
              "name": "tokenB",
              "type": "address"
            },
            {
              "internalType": "address",
              "name": "tokenC",
              "type": "address"
            },
            {
              "internalType": "address[]",
              "name": "dexPath",
              "type": "address[]"
            },
            {
              "internalType": "uint256",
              "name": "expectedProfit",
              "type": "uint256"
            },
            {
              "internalType": "uint256",
              "name": "minimumInput",
              "type": "uint256"
            },
            {
              "internalType": "bool",
              "name": "isValid",
              "type": "bool"
            }
          ],
          "internalType": "struct ArbitrageTypes.TriangularArbitrage",
          "name": "bestOpportunity",
          "type": "tuple"
        }
      ],
      "stateMutability": "nonpayable",
      "type": "function"
    },
    {
      "inputs": [
        {
          "internalType": "uint256",
          "name": "_minProfitThreshold",
          "type": "uint256"
        }
      ],
      "name": "setMinProfitThreshold",
      "outputs": [],
      "stateMutability": "nonpayable",
      "type": "function"
    },
    {
      "inputs": [
        {
          "internalType": "bytes4",
          "name": "interfaceId",
          "type": "bytes4"
        }
      ],
      "name": "supportsInterface",
      "outputs": [
        {
          "internalType": "bool",
          "name": "",
          "type": "bool"
        }
      ],
      "stateMutability": "view",
      "type": "function"
    },
    {
      "inputs": [
        {
          "internalType": "uint256",
          "name": "",
          "type": "uint256"
        }
      ],
      "name": "tradingTokens",
      "outputs": [
        {
          "internalType": "address",
          "name": "",
          "type": "address"
        }
      ],
      "stateMutability": "view",
      "type": "function"
    },
    {
      "inputs": [
        {
          "internalType": "address",
          "name": "",
          "type": "address"
        }
      ],
      "name": "whitelistedTokens",
      "outputs": [
        {
          "internalType": "bool",
          "name": "",
          "type": "bool"
        }
      ],
      "stateMutability": "view",
      "type": "function"
    }
  ],
  "bytecode": "0x6080604052346102cf5761224e6020813803918261001c816102d4565b9384928339810103126102cf57516001600160a01b038116908190036102cf57624c4b40600455801561028a57600180546001600160a01b03191691909117905533600090815260008051602061222e833981519152602052604090205460ff1615610238575b61008d60c06102d4565b600581526020810160a03682378151156101fd5773d3bf53dac106a0290b0483ecbc89d40fcc961f3e90528051600110156101fd5773f1815bd50389c46847f0bda824ec8da914045d1460408201528051600210156101fd5773674843c06ff83502ddb4d37c2e09c01cda38cbc860608201528051600310156101fd57732f6f07cdcf3588944bf4c42ac74ff24bf56e759060808201528051600410156101fd57731b97100ea1d7126c4d60027e231ea4cb25314bdb60a082015260005b8151811015610229576001600160a01b0361016682846102f9565b51166000908152600260205260409020805460ff191660011790556001600160a01b0361019382846102f9565b51169060035491680100000000000000008310156102135760018301806003558310156101fd5760036000527fc2575a0e9e593c00f959f8c92f12db2869c3395a3b0502d05e2516446f71f85b90920180546001600160a01b03191690921790915560010161014b565b634e487b7160e01b600052603260045260246000fd5b634e487b7160e01b600052604160045260246000fd5b604051611f20908161030e8239f35b33600081815260008051602061222e83398151915260205260408120805460ff1916600117905581907f2f8788117e7eff1d82e926ec794901d17c78024a50270940304540a733656f0d8180a4610083565b60405162461bcd60e51b815260206004820152601360248201527f496e76616c696420444558206d616e61676572000000000000000000000000006044820152606490fd5b600080fd5b6040519190601f01601f191682016001600160401b0381118382101761021357604052565b80518210156101fd5760209160051b01019056fe608080604052600436101561001357600080fd5b60003560e01c90816301ffc9a714610d695750806310be1f9914610d425780631c88705d14610bfd578063248a9ca314610bd05780632f2ff15d14610b09578063363cb34d146109c557806336568abe1461092657806339edcd3214610688578063580b7c2e1461064d5780637341ab8c1461062f57806374319125146105d157806389a30271146105a25780638c142aa2146105615780638fed23f11461053257806391d14854146104e4578063a217fddf146104c8578063a7d8361714610499578063ad5c46481461046a578063c028646514610449578063c54e44eb1461041a578063d547741f146103d3578063daf9c21014610394578063de5175e3146101c45763e756a1201461012757600080fd5b346101bf5760003660031901126101bf5760405180602060035491828152019060036000527fc2575a0e9e593c00f959f8c92f12db2869c3395a3b0502d05e2516446f71f85b9060005b8181106101a05761019c8561018881870382610f2f565b604051918291602083526020830190610eac565b0390f35b82546001600160a01b0316845260209093019260019283019201610171565b600080fd5b346101bf5760003660031901126101bf576101dd6112e4565b3360009081527fd9cc8603af18e24ee274988576b0dba9e3164f5a2d6a0de6eee2481adf2ba03d60205260409020546102189060ff16610fb4565b60005b600354811015610317576000905b60035482101561030d5791600192600092808214938415905b6003548110156103005785826102f7575b80156102ee575b6102e7576102b26001600160a01b0361027286610e7b565b90549060031b1c166001600160a01b0361028b86610e7b565b90549060031b1c166001600160a01b036102a485610e7b565b90549060031b1c1691611960565b60c08101511515806102d6575b6102ce575b5086905b01610242565b9450866102c4565b5060808101516080870151106102bf565b86906102c8565b5080841461025a565b50808314610253565b5092940192509050610229565b600191500161021b565b506040518091602082526001600160a01b0381511660208301526001600160a01b0360208201511660408301526001600160a01b03604082015116606083015260c0610373606083015160e06080860152610100850190610eac565b91608081015160a085015260a0810151828501520151151560e08301520390f35b346101bf5760203660031901126101bf576001600160a01b036103b5610e07565b166000526002602052602060ff604060002054166040519015158152f35b346101bf5760403660031901126101bf576104186004356103f2610e1d565b9061041361040e82600052600060205260016040600020015490565b611421565b61146b565b005b346101bf5760003660031901126101bf57602060405173674843c06ff83502ddb4d37c2e09c01cda38cbc88152f35b346101bf5760203660031901126101bf5761046261131b565b600480359055005b346101bf5760003660031901126101bf576020604051732f6f07cdcf3588944bf4c42ac74ff24bf56e75908152f35b346101bf5760003660031901126101bf57602060405173d3bf53dac106a0290b0483ecbc89d40fcc961f3e8152f35b346101bf5760003660031901126101bf57602060405160008152f35b346101bf5760403660031901126101bf576104fd610e1d565b60043560005260006020526001600160a01b0360406000209116600052602052602060ff604060002054166040519015158152f35b346101bf5760003660031901126101bf576020604051731b97100ea1d7126c4d60027e231ea4cb25314bdb8152f35b346101bf5760203660031901126101bf576004356003548110156101bf576001600160a01b03610592602092610e7b565b90549060031b1c16604051908152f35b346101bf5760003660031901126101bf57602060405173f1815bd50389c46847f0bda824ec8da914045d148152f35b346101bf5760003660031901126101bf573360009081527fd9cc8603af18e24ee274988576b0dba9e3164f5a2d6a0de6eee2481adf2ba03d602052604090205461061d9060ff16610fb4565b60206106276110d2565b604051908152f35b346101bf5760003660031901126101bf576020600454604051908152f35b346101bf5760003660031901126101bf5760206040517f928286c473ded01ff8bf61a1986f14a0579066072fa8261442d9fea514d93a4c8152f35b346101bf5760003660031901126101bf576106a1610f51565b3360009081527fd9cc8603af18e24ee274988576b0dba9e3164f5a2d6a0de6eee2481adf2ba03d60205260409020546106dc9060ff16610fb4565b60046000806001600160a01b0360015416604051938480926365a4693360e01b82525afa9182156109195781926108f5575b50805b600354811015610838576001810180821161082257925b600354841015610818576001600160a01b0361074383610e7b565b90549060031b1c16906001600160a01b0361075d86610e7b565b90549060031b1c16946000935b82518510156108085760005b83518110156107fd578086146107f5576107b96001600160a01b0361079b88876110be565b51166001600160a01b036107af84886110be565b5116908a88611609565b6101008101511515806107e8575b6107d7575b506001905b01610776565b60e0810151909950965060016107cc565b508760e0820151116107c7565b6001906107d1565b50936001019361076a565b9350909450600191500192610728565b9250600101610711565b634e487b7160e01b600052601160045260246000fd5b6101608461019c604051928392602084526001600160a01b0381511660208501526001600160a01b0360208201511660408501526001600160a01b0360408201511660608501526001600160a01b036060820151166080850152608081015160a085015260a081015160c085015260c081015160e085015260e081015161010085015261010081015115156101208501526101208101511515610140850152610140810151828501520151610180808401526101a0830190610e56565b6109129192503d8084833e61090a8183610f2f565b810190611013565b908361070e565b50604051903d90823e3d90fd5b346101bf5760403660031901126101bf5761093f610e1d565b336001600160a01b0382160361095b576104189060043561146b565b608460405162461bcd60e51b815260206004820152602f60248201527f416363657373436f6e74726f6c3a2063616e206f6e6c792072656e6f756e636560448201527f20726f6c657320666f722073656c6600000000000000000000000000000000006064820152fd5b346101bf5760203660031901126101bf576109de610e07565b6109e661131b565b6001600160a01b0381168015610ac55780600052600260205260ff60406000205416610a815760005260026020526040600020600160ff198254161790556003549068010000000000000000821015610a6b57610a4c8260016104189401600355610e7b565b9091906001600160a01b038084549260031b9316831b921b1916179055565b634e487b7160e01b600052604160045260246000fd5b606460405162461bcd60e51b815260206004820152601360248201527f416c72656164792077686974656c6973746564000000000000000000000000006044820152fd5b606460405162461bcd60e51b815260206004820152600d60248201527f496e76616c696420746f6b656e000000000000000000000000000000000000006044820152fd5b346101bf5760403660031901126101bf57600435610b25610e1d565b90610b4161040e82600052600060205260016040600020015490565b80600052600060205260406000206001600160a01b03831660005260205260ff6040600020541615610b6f57005b80600052600060205260406000206001600160a01b0383166000526020526040600020600160ff198254161790556001600160a01b03339216907f2f8788117e7eff1d82e926ec794901d17c78024a50270940304540a733656f0d600080a4005b346101bf5760203660031901126101bf576020610627600435600052600060205260016040600020015490565b346101bf5760203660031901126101bf576001600160a01b03610c1e610e07565b610c2661131b565b1680600052600260205260ff6040600020541615610cfe576000818152600260205260408120805460ff191690555b6003548082101561041857826001600160a01b03610c7284610e7b565b90549060031b1c1614610c885750600101610c55565b60001981019250821161082257610a4c6001600160a01b03610cac610cba94610e7b565b90549060031b1c1691610e7b565b6003548015610ce85760001901610cd081610e7b565b81546001600160a01b03600392831b1b191690915555005b634e487b7160e01b600052603160045260246000fd5b606460405162461bcd60e51b815260206004820152600f60248201527f4e6f742077686974656c697374656400000000000000000000000000000000006044820152fd5b346101bf5760003660031901126101bf5760206001600160a01b0360015416604051908152f35b346101bf5760203660031901126101bf57600435907fffffffff0000000000000000000000000000000000000000000000000000000082168092036101bf57817f7965db0b0000000000000000000000000000000000000000000000000000000060209314908115610ddd575b5015158152f35b7f01ffc9a70000000000000000000000000000000000000000000000000000000091501483610dd6565b600435906001600160a01b03821682036101bf57565b602435906001600160a01b03821682036101bf57565b60005b838110610e465750506000910152565b8181015183820152602001610e36565b90602091610e6f81518092818552858086019101610e33565b601f01601f1916010190565b600354811015610e9657600360005260206000200190600090565b634e487b7160e01b600052603260045260246000fd5b906020808351928381520192019060005b818110610eca5750505090565b82516001600160a01b0316845260209384019390920191600101610ebd565b9190820391821161082257565b610180810190811067ffffffffffffffff821117610a6b57604052565b60e0810190811067ffffffffffffffff821117610a6b57604052565b90601f8019910116810190811067ffffffffffffffff821117610a6b57604052565b60405190610f5e82610ef6565b60606101608360008152600060208201526000604082015260008382015260006080820152600060a0820152600060c0820152600060e08201526000610100820152600061012082015260006101408201520152565b15610fbb57565b606460405162461bcd60e51b815260206004820152601660248201527f4f6e6c792073747261746567792063616e2063616c6c000000000000000000006044820152fd5b51906001600160a01b03821682036101bf57565b6020818303126101bf5780519067ffffffffffffffff82116101bf57019080601f830112156101bf5781519167ffffffffffffffff8311610a6b578260051b9060208201936110656040519586610f2f565b84526020808501928201019283116101bf57602001905b8282106110895750505090565b6020809161109684610fff565b81520191019061107c565b805115610e965760200190565b805160011015610e965760400190565b8051821015610e965760209160051b010190565b6000906001600160a01b0360015416604051906365a4693360e01b8252600082600481845afa918215611280576000926112c7575b5060028251106112bf5760206001600160a01b03611124846110a1565b51604051633804f79360e21b815273d3bf53dac106a0290b0483ecbc89d40fcc961f3e6004820152731b97100ea1d7126c4d60027e231ea4cb25314bdb602482015268056bc75e2d6310000060448201529116606482015291829060849082906000905af180156112805760009061128c575b602091506001600160a01b036111b18160015416946110ae565b511692604051938492633804f79360e21b8452731b97100ea1d7126c4d60027e231ea4cb25314bdb600485015273d3bf53dac106a0290b0483ecbc89d40fcc961f3e602485015260448401526064830152816000608482800301925af19081156112805760009161124b575b5068056bc75e2d6310000081116112315750565b90915068056bc75e2d630fffff1981019081116108225790565b906020823d602011611278575b8161126560209383610f2f565b810103126112755750513861121d565b80fd5b3d9150611258565b6040513d6000823e3d90fd5b506020813d6020116112b7575b816112a660209383610f2f565b810103126101bf5760209051611197565b3d9150611299565b506000925050565b6112dd9192503d806000833e61090a8183610f2f565b9038611107565b604051906112f182610f13565b600060c0838281528260208201528260408201526060808201528260808201528260a08201520152565b3360009081527fad3228b676f7d3cd4284a5443f17f1962b36e491b30a40b2405849e597ba5fb5602052604090205460ff161561135457565b61141d61136033611ce4565b6113fd601161136f6000611e31565b9260376040519485927f416363657373436f6e74726f6c3a206163636f756e742000000000000000000060208501526113b18151809260208688019101610e33565b83017f206973206d697373696e6720726f6c6520000000000000000000000000000000838201526113ec825180936020604885019101610e33565b01010301601f198101835282610f2f565b60405191829162461bcd60e51b8352602060048401526024830190610e56565b0390fd5b80600052600060205260406000206001600160a01b03331660005260205260ff60406000205416156114505750565b61141d906113fd601161136f61146533611ce4565b93611e31565b80600052600060205260406000206001600160a01b03831660005260205260ff6040600020541661149a575050565b80600052600060205260406000206001600160a01b038316600052602052604060002060ff1981541690556001600160a01b03339216907ff6391f5c32d9c69d2a47ea670b442974b53935d1edc7fd64eb21e047a839171b600080a4565b67ffffffffffffffff8111610a6b57601f01601f191660200190565b519081151582036101bf57565b6020818303126101bf5780519067ffffffffffffffff82116101bf570160e0818303126101bf576040519161155583610f13565b61155e82610fff565b8352602082015167ffffffffffffffff81116101bf5782019181601f840112156101bf5782519161158e836114f8565b9061159c6040519283610f2f565b838252602084860101116101bf576115c060c0936116019560208085019101610e33565b60208501526115d160408201611514565b604085015260608101516060850152608081015160808501526115f660a08201611514565b60a085015201611514565b60c082015290565b919392611614610f51565b600154604051633804f79360e21b81526001600160a01b0386811660048301528581166024830152633b9aca0060448301528881166064830152929792909160209183916084918391600091165af180156112805760009061192c575b600154604051633804f79360e21b81526001600160a01b0388811660048301528781166024830152633b9aca006044830152808716606483015290935060209184911681600081608481015b03925af1918215611280576000926118f8575b50801580156118f0575b6118e85760009182828211156118bf57506116f59250610ee9565b60015b806118b4575b61170a575b5050505050565b909192939495506001600160a01b03600154166001600160a01b0360405193630b0f7db160e11b85521693846004850152600084602481855afa908115611280576001600160a01b0394600092611895575b50600090602460405180978193630b0f7db160e11b835216958660048301525afa9384156112805760009461186b575b50606080910151930151830180931161082257670de0b6b3a7640000820293828504670de0b6b3a76400001483151715610822573a8402958487043a1485151715610822578615611855576001600160a01b039081604051996117ee8b610ef6565b168952166020880152604087015260608601526080850152633b9aca0060a085015260c08401520460e08201526001610100820152600061012082015242610140820152604051611840602082610f2f565b60008152610160820152903880808080611703565b634e487b7160e01b600052601260045260246000fd5b606091945061188d82913d806000833e6118858183610f2f565b810190611521565b94915061178c565b60009192506118ad903d8084833e6118858183610f2f565b919061175c565b5060045481116116fe565b918181116118cf575b50506116f8565b9091506118df9250939293610ee9565b600138806118c8565b505050505050565b5081156116da565b90916020823d602011611924575b8161191360209383610f2f565b8101031261127557505190386116d0565b3d9150611906565b6020823d602011611958575b8161194560209383610f2f565b8101031261127557506116bd9051611671565b3d9150611938565b90929161196b6112e4565b936001600160a01b036001541690604051916365a4693360e01b8352600083600481845afa92831561128057600093611cb8575b506002835110611703576020611a0c6000926001600160a01b036119c2876110a1565b5116604051948580948193633804f79360e21b8352898d600485019160609194936001600160a01b038092816080870198168652166020850152633b9aca00604085015216910152565b03925af190811561128057600091611c86575b508015611703576020611a92916001600160a01b03600154166001600160a01b03611a49876110ae565b5116916000604051809681958294633804f79360e21b84528c8b6004860192936001600160a01b0391959482606094816080880199168752166020860152604085015216910152565b03925af190811561128057600091611c54575b50801561170357906020611b1b9493926001600160a01b03600154166001600160a01b03611ad2866110a1565b5116916000604051809981958294633804f79360e21b84528d8c6004860192936001600160a01b0391959482606094816080880199168752166020860152604085015216910152565b03925af193841561128057600094611c20575b50831561170357633b9aca008411611b47575050505050565b633b9ac9ff1984019384116108225760045484111561170357909192939495506080926001600160a01b03611bc360405194611b838787610f2f565b60038652601f19870136602088013782611b9c826110a1565b5116611ba7876110a1565b5282611bb2826110ae565b5116611bbd876110ae565b526110a1565b5116835160021015610e96576001600160a01b0392839160608601528160405198611bed8a610f13565b1688521660208701521660408501526060840152820152633b9aca0060a0820152600160c0820152903880808080611703565b90936020823d602011611c4c575b81611c3b60209383610f2f565b810103126112755750519238611b2e565b3d9150611c2e565b906020823d602011611c7e575b81611c6e60209383610f2f565b8101031261127557505138611aa5565b3d9150611c61565b906020823d602011611cb0575b81611ca060209383610f2f565b8101031261127557505138611a1f565b3d9150611c93565b611ccc91933d8091833e61090a8183610f2f565b913861199f565b908151811015610e96570160200190565b600090611cf1602a6114f8565b91611cff6040519384610f2f565b602a8352611d0d602a6114f8565b6020840190601f1901368237835115611e1d5760309053825160011015611e09576078602184015350602960005b60018211611d90575050611d4c5790565b606460405162461bcd60e51b815260206004820152602060248201527f537472696e67733a20686578206c656e67746820696e73756666696369656e746044820152fd5b9091600f81166010811015611df5577f3031323334353637383961626364656600000000000000000000000000000000901a611dcc8486611cd3565b5360041c918015611de1576000190190611d3b565b602482634e487b7160e01b81526011600452fd5b602483634e487b7160e01b81526032600452fd5b80634e487b7160e01b602492526032600452fd5b602482634e487b7160e01b81526032600452fd5b600090611e3e60426114f8565b91611e4c6040519384610f2f565b60428352611e5a60426114f8565b6020840190601f1901368237835115611e1d5760309053825160011015611e09576078602184015350604160005b60018211611e99575050611d4c5790565b9091600f81166010811015611df5577f3031323334353637383961626364656600000000000000000000000000000000901a611ed58486611cd3565b5360041c918015611de1576000190190611e8856fea264697066735822122058bf2f312721bad8b844368fd7db88bc2b6911b4309ab6181f16e635a6136fd264736f6c634300081c0033ad3228b676f7d3cd4284a5443f17f1962b36e491b30a40b2405849e597ba5fb5",
  "linkReferences": {},
  "deployedLinkReferences": {}
}