{
  "_format": "hh-sol-artifact-1",
  "contractName": "LotteryManager",
  "sourceName": "contracts/components/LotteryManager.sol",
  "abi": [
    {
      "inputs": [
        {
          "internalType": "address",
          "name": "_vault",
          "type": "address"
        },
        {
          "internalType": "address",
          "name": "_lotterySystem",
          "type": "address"
        }
      ],
      "stateMutability": "nonpayable",
      "type": "constructor"
    },
    {
      "anonymous": false,
      "inputs": [
        {
          "indexed": true,
          "internalType": "uint256",
          "name": "roundId",
          "type": "uint256"
        },
        {
          "indexed": false,
          "internalType": "uint256",
          "name": "totalParticipants",
          "type": "uint256"
        }
      ],
      "name": "LotteryRoundFinalized",
      "type": "event"
    },
    {
      "anonymous": false,
      "inputs": [
        {
          "indexed": true,
          "internalType": "uint256",
          "name": "roundId",
          "type": "uint256"
        },
        {
          "indexed": false,
          "internalType": "uint256",
          "name": "startTime",
          "type": "uint256"
        },
        {
          "indexed": false,
          "internalType": "uint256",
          "name": "endTime",
          "type": "uint256"
        }
      ],
      "name": "LotteryRoundStarted",
      "type": "event"
    },
    {
      "anonymous": false,
      "inputs": [
        {
          "indexed": true,
          "internalType": "uint256",
          "name": "roundId",
          "type": "uint256"
        },
        {
          "indexed": true,
          "internalType": "address",
          "name": "participant",
          "type": "address"
        },
        {
          "indexed": false,
          "internalType": "uint256",
          "name": "weight",
          "type": "uint256"
        }
      ],
      "name": "ParticipantAdded",
      "type": "event"
    },
    {
      "anonymous": false,
      "inputs": [
        {
          "indexed": true,
          "internalType": "bytes32",
          "name": "role",
          "type": "bytes32"
        },
        {
          "indexed": true,
          "internalType": "bytes32",
          "name": "previousAdminRole",
          "type": "bytes32"
        },
        {
          "indexed": true,
          "internalType": "bytes32",
          "name": "newAdminRole",
          "type": "bytes32"
        }
      ],
      "name": "RoleAdminChanged",
      "type": "event"
    },
    {
      "anonymous": false,
      "inputs": [
        {
          "indexed": true,
          "internalType": "bytes32",
          "name": "role",
          "type": "bytes32"
        },
        {
          "indexed": true,
          "internalType": "address",
          "name": "account",
          "type": "address"
        },
        {
          "indexed": true,
          "internalType": "address",
          "name": "sender",
          "type": "address"
        }
      ],
      "name": "RoleGranted",
      "type": "event"
    },
    {
      "anonymous": false,
      "inputs": [
        {
          "indexed": true,
          "internalType": "bytes32",
          "name": "role",
          "type": "bytes32"
        },
        {
          "indexed": true,
          "internalType": "address",
          "name": "account",
          "type": "address"
        },
        {
          "indexed": true,
          "internalType": "address",
          "name": "sender",
          "type": "address"
        }
      ],
      "name": "RoleRevoked",
      "type": "event"
    },
    {
      "inputs": [],
      "name": "CADENCE_ARCH_VRF",
      "outputs": [
        {
          "internalType": "address",
          "name": "",
          "type": "address"
        }
      ],
      "stateMutability": "view",
      "type": "function"
    },
    {
      "inputs": [],
      "name": "DEFAULT_ADMIN_ROLE",
      "outputs": [
        {
          "internalType": "bytes32",
          "name": "",
          "type": "bytes32"
        }
      ],
      "stateMutability": "view",
      "type": "function"
    },
    {
      "inputs": [],
      "name": "VAULT_ROLE",
      "outputs": [
        {
          "internalType": "bytes32",
          "name": "",
          "type": "bytes32"
        }
      ],
      "stateMutability": "view",
      "type": "function"
    },
    {
      "inputs": [
        {
          "internalType": "address",
          "name": "participant",
          "type": "address"
        },
        {
          "internalType": "uint256",
          "name": "weight",
          "type": "uint256"
        }
      ],
      "name": "addParticipant",
      "outputs": [],
      "stateMutability": "nonpayable",
      "type": "function"
    },
    {
      "inputs": [],
      "name": "cadenceVRF",
      "outputs": [
        {
          "internalType": "contract ICadenceArchVRF",
          "name": "",
          "type": "address"
        }
      ],
      "stateMutability": "view",
      "type": "function"
    },
    {
      "inputs": [],
      "name": "currentRoundId",
      "outputs": [
        {
          "internalType": "uint256",
          "name": "",
          "type": "uint256"
        }
      ],
      "stateMutability": "view",
      "type": "function"
    },
    {
      "inputs": [
        {
          "internalType": "uint256",
          "name": "roundId",
          "type": "uint256"
        }
      ],
      "name": "finalizeRound",
      "outputs": [],
      "stateMutability": "nonpayable",
      "type": "function"
    },
    {
      "inputs": [],
      "name": "getCurrentRound",
      "outputs": [
        {
          "internalType": "uint256",
          "name": "roundId",
          "type": "uint256"
        },
        {
          "internalType": "bool",
          "name": "isActive",
          "type": "bool"
        },
        {
          "internalType": "uint256",
          "name": "participants",
          "type": "uint256"
        },
        {
          "internalType": "uint256",
          "name": "prizePool",
          "type": "uint256"
        }
      ],
      "stateMutability": "view",
      "type": "function"
    },
    {
      "inputs": [
        {
          "internalType": "bytes32",
          "name": "role",
          "type": "bytes32"
        }
      ],
      "name": "getRoleAdmin",
      "outputs": [
        {
          "internalType": "bytes32",
          "name": "",
          "type": "bytes32"
        }
      ],
      "stateMutability": "view",
      "type": "function"
    },
    {
      "inputs": [
        {
          "internalType": "address",
          "name": "user",
          "type": "address"
        }
      ],
      "name": "getUserParticipatingRounds",
      "outputs": [
        {
          "internalType": "uint256[]",
          "name": "",
          "type": "uint256[]"
        }
      ],
      "stateMutability": "view",
      "type": "function"
    },
    {
      "inputs": [
        {
          "internalType": "bytes32",
          "name": "role",
          "type": "bytes32"
        },
        {
          "internalType": "address",
          "name": "account",
          "type": "address"
        }
      ],
      "name": "grantRole",
      "outputs": [],
      "stateMutability": "nonpayable",
      "type": "function"
    },
    {
      "inputs": [
        {
          "internalType": "bytes32",
          "name": "role",
          "type": "bytes32"
        },
        {
          "internalType": "address",
          "name": "account",
          "type": "address"
        }
      ],
      "name": "hasRole",
      "outputs": [
        {
          "internalType": "bool",
          "name": "",
          "type": "bool"
        }
      ],
      "stateMutability": "view",
      "type": "function"
    },
    {
      "inputs": [
        {
          "internalType": "address",
          "name": "user",
          "type": "address"
        },
        {
          "internalType": "uint256",
          "name": "roundId",
          "type": "uint256"
        }
      ],
      "name": "isUserParticipating",
      "outputs": [
        {
          "internalType": "bool",
          "name": "",
          "type": "bool"
        }
      ],
      "stateMutability": "view",
      "type": "function"
    },
    {
      "inputs": [],
      "name": "lotteryDuration",
      "outputs": [
        {
          "internalType": "uint256",
          "name": "",
          "type": "uint256"
        }
      ],
      "stateMutability": "view",
      "type": "function"
    },
    {
      "inputs": [
        {
          "internalType": "uint256",
          "name": "",
          "type": "uint256"
        }
      ],
      "name": "lotteryRounds",
      "outputs": [
        {
          "internalType": "uint256",
          "name": "roundId",
          "type": "uint256"
        },
        {
          "internalType": "uint256",
          "name": "startTime",
          "type": "uint256"
        },
        {
          "internalType": "uint256",
          "name": "endTime",
          "type": "uint256"
        },
        {
          "internalType": "uint256",
          "name": "totalParticipants",
          "type": "uint256"
        },
        {
          "internalType": "bool",
          "name": "isActive",
          "type": "bool"
        },
        {
          "internalType": "bool",
          "name": "isFinalized",
          "type": "bool"
        }
      ],
      "stateMutability": "view",
      "type": "function"
    },
    {
      "inputs": [],
      "name": "lotterySystem",
      "outputs": [
        {
          "internalType": "contract IFlowVRFLotterySystem",
          "name": "",
          "type": "address"
        }
      ],
      "stateMutability": "view",
      "type": "function"
    },
    {
      "inputs": [],
      "name": "maxWinnersCount",
      "outputs": [
        {
          "internalType": "uint256",
          "name": "",
          "type": "uint256"
        }
      ],
      "stateMutability": "view",
      "type": "function"
    },
    {
      "inputs": [],
      "name": "minWinnersCount",
      "outputs": [
        {
          "internalType": "uint256",
          "name": "",
          "type": "uint256"
        }
      ],
      "stateMutability": "view",
      "type": "function"
    },
    {
      "inputs": [
        {
          "internalType": "bytes32",
          "name": "role",
          "type": "bytes32"
        },
        {
          "internalType": "address",
          "name": "account",
          "type": "address"
        }
      ],
      "name": "renounceRole",
      "outputs": [],
      "stateMutability": "nonpayable",
      "type": "function"
    },
    {
      "inputs": [
        {
          "internalType": "bytes32",
          "name": "role",
          "type": "bytes32"
        },
        {
          "internalType": "address",
          "name": "account",
          "type": "address"
        }
      ],
      "name": "revokeRole",
      "outputs": [],
      "stateMutability": "nonpayable",
      "type": "function"
    },
    {
      "inputs": [
        {
          "internalType": "uint256",
          "name": "_lotteryDuration",
          "type": "uint256"
        },
        {
          "internalType": "uint256",
          "name": "_minWinnersCount",
          "type": "uint256"
        },
        {
          "internalType": "uint256",
          "name": "_maxWinnersCount",
          "type": "uint256"
        }
      ],
      "name": "setLotterySettings",
      "outputs": [],
      "stateMutability": "nonpayable",
      "type": "function"
    },
    {
      "inputs": [
        {
          "internalType": "address",
          "name": "_lotterySystem",
          "type": "address"
        }
      ],
      "name": "setLotterySystem",
      "outputs": [],
      "stateMutability": "nonpayable",
      "type": "function"
    },
    {
      "inputs": [],
      "name": "startNewRound",
      "outputs": [],
      "stateMutability": "nonpayable",
      "type": "function"
    },
    {
      "inputs": [
        {
          "internalType": "bytes4",
          "name": "interfaceId",
          "type": "bytes4"
        }
      ],
      "name": "supportsInterface",
      "outputs": [
        {
          "internalType": "bool",
          "name": "",
          "type": "bool"
        }
      ],
      "stateMutability": "view",
      "type": "function"
    },
    {
      "inputs": [
        {
          "internalType": "address",
          "name": "",
          "type": "address"
        },
        {
          "internalType": "uint256",
          "name": "",
          "type": "uint256"
        }
      ],
      "name": "userParticipatingRounds",
      "outputs": [
        {
          "internalType": "uint256",
          "name": "",
          "type": "uint256"
        }
      ],
      "stateMutability": "view",
      "type": "function"
    },
    {
      "inputs": [],
      "name": "vault",
      "outputs": [
        {
          "internalType": "address",
          "name": "",
          "type": "address"
        }
      ],
      "stateMutability": "view",
      "type": "function"
    }
  ],
  "bytecode": "0x60a080604052346103125760009060408161182980380380916100228285610317565b83398101031261030e57610041602061003a83610350565b9201610350565b600180805562278d00600755600855600a6009556001600160a01b039091169081156102d9576001600160a01b0316801561029457600380546001600160a01b0319908116841790915560028054909116919091179055680100000000000000016080528180526020828152604080842033855290915282205460ff161561025b575b6000805160206118098339815191528252816020526040822081835260205260ff60408320541615610204575b5060065460001981146101f05760016004910180600655808352816020526040832090815542600182015561012860075442610364565b600282015582600382015501600161ffff1982541617905560018060a01b03600254168160085460075490833b156101ec5760649083604051958694859362de0c1f60e61b8552836004860152602485015260448401525af16101dc575b6006547f5fd3a2413ad2082c51d43f6cb2e9148f316185b2d203465725c92e1c4076929860406101b860075442610364565b8151904282526020820152a2604051611461908161038882396080518161027c0152f35b816101e691610317565b38610186565b8280fd5b634e487b7160e01b82526011600452602482fd5b6000805160206118098339815191528252816020526040822081835260205260408220600160ff1982541617905533906000805160206118098339815191526000805160206117e98339815191528480a4386100f1565b818052602082815260408084203380865292528320805460ff1916600117905580836000805160206117e98339815191528180a46100c4565b60405162461bcd60e51b815260206004820152601660248201527f496e76616c6964206c6f74746572792073797374656d000000000000000000006044820152606490fd5b60405162461bcd60e51b815260206004820152600d60248201526c125b9d985b1a59081d985d5b1d609a1b6044820152606490fd5b5080fd5b600080fd5b601f909101601f19168101906001600160401b0382119082101761033a57604052565b634e487b7160e01b600052604160045260246000fd5b51906001600160a01b038216820361031257565b9190820180921161037157565b634e487b7160e01b600052601160045260246000fdfe6080604052600436101561001257600080fd5b6000803560e01c806301e7fefe14610ab457806301ffc9a714610a0e578063024b9e62146109be578063248a9ca3146109885780632d97902f1461096a5780632f2ff15d146108a35780633469f6e21461080857806336568abe146107685780633b635c121461074457806342871436146107265780636d3d73c7146106f75780638f2bd7ae1461064257806391d14854146105f657806398c4f1ac146105bb5780639cb2be201461059d5780639cbe5efd1461057f578063a217fddf14610563578063a32bf5971461052e578063b7285ccb146104c5578063bd85948c14610310578063d4adcc58146102e9578063d547741f146102a0578063e63422061461025c578063e7b8fb4b14610205578063f3f4781d146101645763fbfa77cf1461013b57600080fd5b3461016157806003193601126101615760206001600160a01b0360035416604051908152f35b80fd5b5034610161576020366003190112610161576001600160a01b03610186610e3d565b61018e610f83565b1680156101c1577fffffffffffffffffffffffff0000000000000000000000000000000000000000600254161760025580f35b606460405162461bcd60e51b815260206004820152601660248201527f496e76616c6964206c6f74746572792073797374656d000000000000000000006044820152fd5b50346101615760403660031901126101615761021f610e3d565b6001600160a01b031681526005602052604081208054602435929083101561016157602061024d8484610e6e565b90549060031b1c604051908152f35b503461016157806003193601126101615760206040516001600160a01b037f0000000000000000000000000000000000000000000000000000000000000000168152f35b5034610161576040366003190112610161576102e66004356102c0610e58565b906102e16102dc82600052600060205260016040600020015490565b61109e565b61113b565b80f35b503461016157806003193601126101615760206001600160a01b0360025416604051908152f35b5034610161578060031936011261016157610329610f83565b600654808252600460205260ff6004604084200154161580156104ac575b156104685780610459575b506004610360600654610ee7565b806006558083528160205260408320908155426001820155610384600754426111c8565b600282015582600382015501600161ffff19825416179055806001600160a01b0360025416600854600754823b1561045457606484928360405195869485937f378307c0000000000000000000000000000000000000000000000000000000008552836004860152602485015260448401525af161043f575b506006547f5fd3a2413ad2082c51d43f6cb2e9148f316185b2d203465725c92e1c407692986040610430600754426111c8565b8151904282526020820152a280f35b8161044991610f0c565b6101615780386103fd565b505050fd5b610462906110ec565b38610352565b606460405162461bcd60e51b815260206004820152601a60248201527f43757272656e7420726f756e64207374696c6c206163746976650000000000006044820152fd5b5080825260046020526002604083200154421015610347565b503461016157602036600319011261016157604060c091600435815260046020522060ff815491600181015490600281015460046003830154920154926040519586526020860152604085015260608401528181161515608084015260081c16151560a0820152f35b50346101615780600319360112610161576080610549610f44565b916040519384521515602084015260408301526060820152f35b5034610161578060031936011261016157602090604051908152f35b50346101615780600319360112610161576020600654604051908152f35b50346101615780600319360112610161576020600854604051908152f35b503461016157806003193601126101615760206040517f31e0210044b4f6757ce6aa31f9c6e8d4896d24a755014887391a926c5224d9598152f35b5034610161576040366003190112610161576001600160a01b03604061061a610e58565b92600435815280602052209116600052602052602060ff604060002054166040519015158152f35b5034610161576020366003190112610161576001600160a01b03610664610e3d565b168152600560205260408120604051908160208254918281520190819285526020852090855b8181106106e157505050826106a0910383610f0c565b604051928392602084019060208552518091526040840192915b8181106106c8575050500390f35b82518452859450602093840193909201916001016106ba565b825484526020909301926001928301920161068a565b503461016157606036600319011261016157610711610f83565b60043560075560243560085560443560095580f35b50346101615780600319360112610161576020600954604051908152f35b50346101615780600319360112610161576020604051680100000000000000018152f35b503461016157604036600319011261016157610782610e58565b336001600160a01b0382160361079e576102e69060043561113b565b608460405162461bcd60e51b815260206004820152602f60248201527f416363657373436f6e74726f6c3a2063616e206f6e6c792072656e6f756e636560448201527f20726f6c657320666f722073656c6600000000000000000000000000000000006064820152fd5b503461016157602036600319011261016157600435610825610f83565b808252600460205261084060ff600460408520015416610e9c565b80825260046020526002604083200154421061085f576102e6906110ec565b606460405162461bcd60e51b815260206004820152600f60248201527f526f756e64206e6f7420656e64656400000000000000000000000000000000006044820152fd5b5034610161576040366003190112610161576004356108c0610e58565b906108dc6102dc82600052600060205260016040600020015490565b80835282602052604083206001600160a01b03831660005260205260ff6040600020541615610909578280f35b80835282602052604083206001600160a01b0383166000526020526040600020600160ff198254161790556001600160a01b03339216907f2f8788117e7eff1d82e926ec794901d17c78024a50270940304540a733656f0d8480a438808280f35b50346101615780600319360112610161576020600754604051908152f35b50346101615760203660031901126101615760206109b6600435600052600060205260016040600020015490565b604051908152f35b5034610161576040366003190112610161576001600160a01b03600560406109e4610e3d565b936024358152600460205220019116600052602052602060ff604060002054166040519015158152f35b5034610161576020366003190112610161576004357fffffffff000000000000000000000000000000000000000000000000000000008116809103610ab057807f7965db0b0000000000000000000000000000000000000000000000000000000060209214908115610a86575b506040519015158152f35b7f01ffc9a70000000000000000000000000000000000000000000000000000000091501482610a7b565b5080fd5b503461016157604036600319011261016157610ace610e3d565b602435907f31e0210044b4f6757ce6aa31f9c6e8d4896d24a755014887391a926c5224d959835282602052604083206001600160a01b033316845260205260ff60408420541615610df9576001600160a01b0316908115610db5578015610d71576006548015610d2d578352600460205260408320610b5360ff600483015416610e9c565b6002810154421015610ce95760058101908385528160205260ff604086205416610ca55760039184865260205260408520600160ff198254161790558385526006810160205282604086205501610baa8154610ee7565b90558183526005602052604083206006549080549068010000000000000000821015610c915790610be091600182018155610e6e565b819291549060031b91821b91600019901b1916179055826001600160a01b0360025416803b15610ab05781906044604051809481937f01e7fefe0000000000000000000000000000000000000000000000000000000083528860048401528760248401525af1610c7d575b507f4458602c75f7945f69e6a982b698a0ba5068f2ae7324e34dac6ef89360380e2b602060065492604051908152a380f35b83610c8a91949294610f0c565b9138610c4b565b602486634e487b7160e01b81526041600452fd5b606460405162461bcd60e51b815260206004820152601560248201527f416c72656164792070617274696369706174696e6700000000000000000000006044820152fd5b606460405162461bcd60e51b815260206004820152600f60248201527f526f756e642068617320656e64656400000000000000000000000000000000006044820152fd5b606460405162461bcd60e51b815260206004820152600f60248201527f4e6f2061637469766520726f756e6400000000000000000000000000000000006044820152fd5b606460405162461bcd60e51b815260206004820152601760248201527f576569676874206d75737420626520706f7369746976650000000000000000006044820152fd5b606460405162461bcd60e51b815260206004820152601360248201527f496e76616c6964207061727469636970616e74000000000000000000000000006044820152fd5b606460405162461bcd60e51b815260206004820152601360248201527f4f6e6c79207661756c742063616e2063616c6c000000000000000000000000006044820152fd5b600435906001600160a01b0382168203610e5357565b600080fd5b602435906001600160a01b0382168203610e5357565b8054821015610e865760005260206000200190600090565b634e487b7160e01b600052603260045260246000fd5b15610ea357565b606460405162461bcd60e51b815260206004820152601060248201527f526f756e64206e6f7420616374697665000000000000000000000000000000006044820152fd5b6000198114610ef65760010190565b634e487b7160e01b600052601160045260246000fd5b90601f8019910116810190811067ffffffffffffffff821117610f2e57604052565b634e487b7160e01b600052604160045260246000fd5b6006548015610f74576000526004602052604060002090815490600360ff60048501541693015491929190600090565b50600090600090600090600090565b3360009081527fad3228b676f7d3cd4284a5443f17f1962b36e491b30a40b2405849e597ba5fb5602052604090205460ff1615610fbc57565b61109060446037610fcc33611225565b6110686011610fdb6000611372565b60405194859160208301957f416363657373436f6e74726f6c3a206163636f756e7420000000000000000000875261101c81518092602086880191016111d5565b83017f206973206d697373696e6720726f6c6520000000000000000000000000000000838201526110578251809360206048850191016111d5565b01010301601f198101845283610f0c565b60405193849262461bcd60e51b845260206004850152518092816024860152858501906111d5565b601f01601f19168101030190fd5b80600052600060205260406000206001600160a01b03331660005260205260ff60406000205416156110cd5750565b60446037611090926110686011610fdb6110e633611225565b93611372565b8060005260046020527f5b8c7d3d33d882cb9c91e6b13bb3df3d17c4ed9197ae6964d07186ebee62b22e6020600360406000206004810161010061ffff198254161790550154604051908152a2565b80600052600060205260406000206001600160a01b03831660005260205260ff6040600020541661116a575050565b80600052600060205260406000206001600160a01b038316600052602052604060002060ff1981541690556001600160a01b03339216907ff6391f5c32d9c69d2a47ea670b442974b53935d1edc7fd64eb21e047a839171b600080a4565b91908201809211610ef657565b60005b8381106111e85750506000910152565b81810151838201526020016111d8565b67ffffffffffffffff8111610f2e57601f01601f191660200190565b908151811015610e86570160200190565b600090611232602a6111f8565b916112406040519384610f0c565b602a835261124e602a6111f8565b6020840190601f190136823783511561135e576030905382516001101561134a576078602184015350602960005b600182116112d157505061128d5790565b606460405162461bcd60e51b815260206004820152602060248201527f537472696e67733a20686578206c656e67746820696e73756666696369656e746044820152fd5b9091600f81166010811015611336577f3031323334353637383961626364656600000000000000000000000000000000901a61130d8486611214565b5360041c91801561132257600019019061127c565b602482634e487b7160e01b81526011600452fd5b602483634e487b7160e01b81526032600452fd5b80634e487b7160e01b602492526032600452fd5b602482634e487b7160e01b81526032600452fd5b60009061137f60426111f8565b9161138d6040519384610f0c565b6042835261139b60426111f8565b6020840190601f190136823783511561135e576030905382516001101561134a576078602184015350604160005b600182116113da57505061128d5790565b9091600f81166010811015611336577f3031323334353637383961626364656600000000000000000000000000000000901a6114168486611214565b5360041c9180156113225760001901906113c956fea264697066735822122082bba9712c6fc79e348d96b0c54642b42b071979540dd8942aff7fac14932b0664736f6c634300081c00332f8788117e7eff1d82e926ec794901d17c78024a50270940304540a733656f0d31e0210044b4f6757ce6aa31f9c6e8d4896d24a755014887391a926c5224d959",
  "linkReferences": {},
  "deployedLinkReferences": {}
}